Component: ARM Compiler 5.06 update 7 (build 960) Tool: armlink [4d3601]

==============================================================================

Section Cross References

    main.o(i.advertising_init) refers to memseta.o(.text) for __aeabi_memclr4
    main.o(i.advertising_init) refers to ble_advertising.o(i.ble_advertising_init) for ble_advertising_init
    main.o(i.advertising_init) refers to app_error.o(i.app_error_handler_bare) for app_error_handler_bare
    main.o(i.advertising_init) refers to ble_advertising.o(i.ble_advertising_conn_cfg_tag_set) for ble_advertising_conn_cfg_tag_set
    main.o(i.advertising_init) refers to main.o(.data) for .data
    main.o(i.advertising_init) refers to main.o(i.on_adv_evt) for on_adv_evt
    main.o(i.advertising_init) refers to main.o(.bss) for .bss
    main.o(i.advertising_start) refers to ble_advertising.o(i.ble_advertising_start) for ble_advertising_start
    main.o(i.advertising_start) refers to app_error.o(i.app_error_handler_bare) for app_error_handler_bare
    main.o(i.advertising_start) refers to main.o(.bss) for .bss
    main.o(i.app_shutdown_handler) refers to nrf_log_frontend.o(i.nrf_log_frontend_std_0) for nrf_log_frontend_std_0
    main.o(i.app_shutdown_handler) refers to nrf_log_frontend.o(log_const_data) for m_nrf_log_app_logs_data_const
    main.o(i.assert_nrf_callback) refers to app_error_handler_keil.o(.emb_text) for app_error_handler
    main.o(i.ble_data_send) refers to ble_nus.o(i.ble_nus_data_send) for ble_nus_data_send
    main.o(i.ble_data_send) refers to main.o(.data) for .data
    main.o(i.ble_dfu_evt_handler) refers to nrf_log_frontend.o(i.nrf_log_frontend_std_0) for nrf_log_frontend_std_0
    main.o(i.ble_dfu_evt_handler) refers to memseta.o(.text) for __aeabi_memclr4
    main.o(i.ble_dfu_evt_handler) refers to ble_advertising.o(i.ble_advertising_modes_config_set) for ble_advertising_modes_config_set
==============================================================================

Removing Unused input sections from the image.

    Removing main.o(.rev16_text), (4 bytes).
    Removing main.o(.revsh_text), (4 bytes).
    Removing main.o(.rrx_text), (6 bytes).
    Removing main.o(i.assert_nrf_callback), (16 bytes).
    Removing main.o(i.bsp_event_handler), (76 bytes).
    Removing boards.o(.rev16_text), (4 bytes).
    Removing boards.o(.revsh_text), (4 bytes).
    Removing boards.o(.rrx_text), (6 bytes).
    Removing boards.o(i.bsp_board_button_state_get), (40 bytes).
    Removing boards.o(i.bsp_board_init), (84 bytes).
    Removing boards.o(i.bsp_board_led_idx_to_pin), (12 bytes).
    Removing boards.o(i.bsp_board_pin_to_led_idx), (36 bytes).
    Removing boards.o(i.nrf_gpio_cfg), (50 bytes).
    Removing bsp.o(.rev16_text), (4 bytes).
    Removing bsp.o(.revsh_text), (4 bytes).
    Removing bsp.o(.rrx_text), (6 bytes).
    Removing bsp.o(i.alert_timer_handler), (6 bytes).
    Removing bsp.o(i.bsp_button_is_pressed), (12 bytes).
==============================================================================

Image Symbol Table

    Local Symbols

    Symbol Name                              Value     Ov Type        Size  Object(Section)

    ../clib/../cmprslib/zerorunl2.c          0x00000000   Number         0  __dczerorl2.o ABSOLUTE
    ../clib/microlib/ctype/ctype.c           0x00000000   Number         0  isspace_o.o ABSOLUTE
    ../clib/microlib/ctype/ctype.c           0x00000000   Number         0  iscntrl_o.o ABSOLUTE
    ../clib/microlib/ctype/ctype.c           0x00000000   Number         0  isgraph_o.o ABSOLUTE
    ../clib/microlib/ctype/ctype.c           0x00000000   Number         0  islower_o.o ABSOLUTE
    ../clib/microlib/ctype/ctype.c           0x00000000   Number         0  isblank_o.o ABSOLUTE
    ../clib/microlib/ctype/ctype.c           0x00000000   Number         0  isprint_o.o ABSOLUTE
    ../clib/microlib/ctype/ctype.c           0x00000000   Number         0  isalpha_o.o ABSOLUTE
    ../clib/microlib/ctype/ctype.c           0x00000000   Number         0  ispunct_o.o ABSOLUTE
    ../clib/microlib/ctype/ctype.c           0x00000000   Number         0  isdigit_o.o ABSOLUTE
    ../clib/microlib/ctype/ctype.c           0x00000000   Number         0  isupper_o.o ABSOLUTE
    ../clib/microlib/ctype/ctype.c           0x00000000   Number         0  isxdigit_o.o ABSOLUTE
    ../clib/microlib/ctype/ctype.c           0x00000000   Number         0  isalnum_o.o ABSOLUTE
    ../clib/microlib/ctype/ctype.c           0x00000000   Number         0  ctype_o.o ABSOLUTE
    ../clib/microlib/division.c              0x00000000   Number         0  uldiv.o ABSOLUTE
    ../clib/microlib/init/entry.s            0x00000000   Number         0  entry8a.o ABSOLUTE
    ../clib/microlib/init/entry.s            0x00000000   Number         0  entry8b.o ABSOLUTE
    ../clib/microlib/init/entry.s            0x00000000   Number         0  entry.o ABSOLUTE
    ../clib/microlib/init/entry.s            0x00000000   Number         0  entry2.o ABSOLUTE
    ../clib/microlib/init/entry.s            0x00000000   Number         0  entry9a.o ABSOLUTE
    ../clib/microlib/init/entry.s            0x00000000   Number         0  entry9b.o ABSOLUTE
    ../clib/microlib/init/entry.s            0x00000000   Number         0  entry11b.o ABSOLUTE
    ../clib/microlib/init/entry.s            0x00000000   Number         0  entry10b.o ABSOLUTE
    ../clib/microlib/init/entry.s            0x00000000   Number         0  entry10a.o ABSOLUTE
    ../clib/microlib/init/entry.s            0x00000000   Number         0  entry12b.o ABSOLUTE
    ../clib/microlib/init/entry.s            0x00000000   Number         0  entry11a.o ABSOLUTE
    ../clib/microlib/init/entry.s            0x00000000   Number         0  entry5.o ABSOLUTE
    ../clib/microlib/init/entry.s            0x00000000   Number         0  entry12a.o ABSOLUTE
    ../clib/microlib/init/entry.s            0x00000000   Number         0  entry7a.o ABSOLUTE
    ../clib/microlib/init/entry.s            0x00000000   Number         0  entry7b.o ABSOLUTE
    ../clib/microlib/longlong.c              0x00000000   Number         0  llushr.o ABSOLUTE
    ../clib/microlib/longlong.c              0x00000000   Number         0  llshl.o ABSOLUTE
    ../clib/microlib/string/memcmp.c         0x00000000   Number         0  memcmp.o ABSOLUTE
    ../clib/microlib/string/memcpy.c         0x00000000   Number         0  memcpyb.o ABSOLUTE
    ../clib/microlib/string/memcpy.c         0x00000000   Number         0  memcpya.o ABSOLUTE
    ../clib/microlib/string/memset.c         0x00000000   Number         0  memseta.o ABSOLUTE
    ../clib/microlib/string/strcpy.c         0x00000000   Number         0  strcpy.o ABSOLUTE
    ../clib/microlib/string/strlen.c         0x00000000   Number         0  strlen.o ABSOLUTE
    ..\..\..\..\..\..\components\ble\ble_advertising\ble_advertising.c 0x00000000   Number         0  ble_advertising.o ABSOLUTE
    ..\..\..\..\..\..\components\ble\ble_link_ctx_manager\ble_link_ctx_manager.c 0x00000000   Number         0  ble_link_ctx_manager.o ABSOLUTE
    ..\..\..\..\..\..\components\ble\ble_services\ble_dfu\ble_dfu.c 0x00000000   Number         0  ble_dfu.o ABSOLUTE
    ..\..\..\..\..\..\components\ble\ble_services\ble_dfu\ble_dfu_bonded.c 0x00000000   Number         0  ble_dfu_bonded.o ABSOLUTE
    ..\..\..\..\..\..\components\ble\ble_services\ble_dfu\ble_dfu_unbonded.c 0x00000000   Number         0  ble_dfu_unbonded.o ABSOLUTE
    ..\..\..\..\..\..\components\ble\ble_services\ble_nus\ble_nus.c 0x00000000   Number         0  ble_nus.o ABSOLUTE
    ..\..\..\..\..\..\components\ble\common\ble_advdata.c 0x00000000   Number         0  ble_advdata.o ABSOLUTE
    ..\..\..\..\..\..\components\ble\common\ble_conn_params.c 0x00000000   Number         0  ble_conn_params.o ABSOLUTE
    ..\..\..\..\..\..\components\ble\common\ble_conn_state.c 0x00000000   Number         0  ble_conn_state.o ABSOLUTE
    ..\..\..\..\..\..\components\ble\common\ble_srv_common.c 0x00000000   Number         0  ble_srv_common.o ABSOLUTE
    ..\..\..\..\..\..\components\ble\nrf_ble_gatt\nrf_ble_gatt.c 0x00000000   Number         0  nrf_ble_gatt.o ABSOLUTE
    ..\..\..\..\..\..\components\ble\nrf_ble_qwr\nrf_ble_qwr.c 0x00000000   Number         0  nrf_ble_qwr.o ABSOLUTE
    ..\..\..\..\..\..\components\boards\boards.c 0x00000000   Number         0  boards.o ABSOLUTE
    ..\..\..\..\..\..\components\libraries\atomic\nrf_atomic.c 0x00000000   Number         0  nrf_atomic.o ABSOLUTE
    ..\..\..\..\..\..\components\libraries\atomic_fifo\nrf_atfifo.c 0x00000000   Number         0  nrf_atfifo.o ABSOLUTE
    ..\..\..\..\..\..\components\libraries\atomic_flags\nrf_atflags.c 0x00000000   Number         0  nrf_atflags.o ABSOLUTE
    ..\..\..\..\..\..\components\libraries\balloc\nrf_balloc.c 0x00000000   Number         0  nrf_balloc.o ABSOLUTE
    ..\..\..\..\..\..\components\libraries\bootloader\dfu\nrf_dfu_svci.c 0x00000000   Number         0  nrf_dfu_svci.o ABSOLUTE
    ..\..\..\..\..\..\components\libraries\bsp\bsp.c 0x00000000   Number         0  bsp.o ABSOLUTE
    ..\..\..\..\..\..\components\libraries\bsp\bsp_btn_ble.c 0x00000000   Number         0  bsp_btn_ble.o ABSOLUTE
    ..\..\..\..\..\..\components\libraries\button\app_button.c 0x00000000   Number         0  app_button.o ABSOLUTE
    ..\..\..\..\..\..\components\libraries\experimental_section_vars\nrf_section_iter.c 0x00000000   Number         0  nrf_section_iter.o ABSOLUTE
    ..\..\..\..\..\..\components\libraries\fifo\app_fifo.c 0x00000000   Number         0  app_fifo.o ABSOLUTE
    ..\..\..\..\..\..\components\libraries\hardfault\hardfault_implementation.c 0x00000000   Number         0  hardfault_implementation.o ABSOLUTE
    ..\..\..\..\..\..\components\libraries\log\src\nrf_log_backend_rtt.c 0x00000000   Number         0  nrf_log_backend_rtt.o ABSOLUTE
    ..\..\..\..\..\..\components\libraries\log\src\nrf_log_backend_serial.c 0x00000000   Number         0  nrf_log_backend_serial.o ABSOLUTE
    ..\..\..\..\..\..\components\libraries\log\src\nrf_log_default_backends.c 0x00000000   Number         0  nrf_log_default_backends.o ABSOLUTE
    ..\..\..\..\..\..\components\libraries\log\src\nrf_log_frontend.c 0x00000000   Number         0  nrf_log_frontend.o ABSOLUTE
    ..\..\..\..\..\..\components\libraries\log\src\nrf_log_str_formatter.c 0x00000000   Number         0  nrf_log_str_formatter.o ABSOLUTE
    ..\..\..\..\..\..\components\libraries\memobj\nrf_memobj.c 0x00000000   Number         0  nrf_memobj.o ABSOLUTE
    ..\..\..\..\..\..\components\libraries\pwr_mgmt\nrf_pwr_mgmt.c 0x00000000   Number         0  nrf_pwr_mgmt.o ABSOLUTE
    ..\..\..\..\..\..\components\libraries\ringbuf\nrf_ringbuf.c 0x00000000   Number         0  nrf_ringbuf.o ABSOLUTE
    ..\..\..\..\..\..\components\libraries\scheduler\app_scheduler.c 0x00000000   Number         0  app_scheduler.o ABSOLUTE
    ..\..\..\..\..\..\components\libraries\sortlist\nrf_sortlist.c 0x00000000   Number         0  nrf_sortlist.o ABSOLUTE
    ..\..\..\..\..\..\components\libraries\strerror\nrf_strerror.c 0x00000000   Number         0  nrf_strerror.o ABSOLUTE
    ..\..\..\..\..\..\components\libraries\timer\app_timer_freertos.c 0x00000000   Number         0  app_timer_freertos.o ABSOLUTE
    ..\..\..\..\..\..\components\libraries\uart\app_uart_fifo.c 0x00000000   Number         0  app_uart_fifo.o ABSOLUTE
    ..\..\..\..\..\..\components\libraries\uart\retarget.c 0x00000000   Number         0  retarget.o ABSOLUTE
    ..\..\..\..\..\..\components\libraries\util\app_error.c 0x00000000   Number         0  app_error.o ABSOLUTE
    ..\..\..\..\..\..\components\libraries\util\app_error_handler_keil.c 0x00000000   Number         0  app_error_handler_keil.o ABSOLUTE
    ..\..\..\..\..\..\components\libraries\util\app_error_weak.c 0x00000000   Number         0  app_error_weak.o ABSOLUTE
    ..\..\..\..\..\..\components\libraries\util\app_util_platform.c 0x00000000   Number         0  app_util_platform.o ABSOLUTE
    ..\..\..\..\..\..\components\libraries\util\nrf_assert.c 0x00000000   Number         0  nrf_assert.o ABSOLUTE
    ..\..\..\..\..\..\components\softdevice\common\nrf_sdh.c 0x00000000   Number         0  nrf_sdh.o ABSOLUTE
    ..\..\..\..\..\..\components\softdevice\common\nrf_sdh_ble.c 0x00000000   Number         0  nrf_sdh_ble.o ABSOLUTE
    ..\..\..\..\..\..\components\softdevice\common\nrf_sdh_soc.c 0x00000000   Number         0  nrf_sdh_soc.o ABSOLUTE
    ..\..\..\..\..\..\external\fprintf\nrf_fprintf.c 0x00000000   Number         0  nrf_fprintf.o ABSOLUTE
    ..\..\..\..\..\..\external\fprintf\nrf_fprintf_format.c 0x00000000   Number         0  nrf_fprintf_format.o ABSOLUTE
    ..\..\..\..\..\..\external\freertos\portable\ARM\nrf52\port.c 0x00000000   Number         0  port.o ABSOLUTE
    ..\..\..\..\..\..\external\freertos\portable\CMSIS\nrf52\port_cmsis.c 0x00000000   Number         0  port_cmsis.o ABSOLUTE
    ..\..\..\..\..\..\external\freertos\portable\CMSIS\nrf52\port_cmsis_systick.c 0x00000000   Number         0  port_cmsis_systick.o ABSOLUTE
    ..\..\..\..\..\..\external\freertos\source\croutine.c 0x00000000   Number         0  croutine.o ABSOLUTE
    ..\..\..\..\..\..\external\freertos\source\event_groups.c 0x00000000   Number         0  event_groups.o ABSOLUTE
    ..\..\..\..\..\..\external\freertos\source\list.c 0x00000000   Number         0  list.o ABSOLUTE
    ..\..\..\..\..\..\external\freertos\source\portable\MemMang\heap_4.c 0x00000000   Number         0  heap_4.o ABSOLUTE
    ..\..\..\..\..\..\external\freertos\source\queue.c 0x00000000   Number         0  queue.o ABSOLUTE
    ..\..\..\..\..\..\external\freertos\source\stream_buffer.c 0x00000000   Number         0  stream_buffer.o ABSOLUTE
    ..\..\..\..\..\..\external\freertos\source\tasks.c 0x00000000   Number         0  tasks.o ABSOLUTE
    ..\..\..\..\..\..\external\freertos\source\timers.c 0x00000000   Number         0  timers.o ABSOLUTE
    ..\..\..\..\..\..\external\segger_rtt\SEGGER_RTT.c 0x00000000   Number         0  segger_rtt.o ABSOLUTE
    ..\..\..\..\..\..\external\segger_rtt\SEGGER_RTT_Syscalls_KEIL.c 0x00000000   Number         0  segger_rtt_syscalls_keil.o ABSOLUTE
    ..\..\..\..\..\..\external\segger_rtt\SEGGER_RTT_printf.c 0x00000000   Number         0  segger_rtt_printf.o ABSOLUTE
    ..\..\..\..\..\..\external\utf_converter\utf.c 0x00000000   Number         0  utf.o ABSOLUTE
    ..\..\..\..\..\..\integration\nrfx\legacy\nrf_drv_clock.c 0x00000000   Number         0  nrf_drv_clock.o ABSOLUTE
    ..\..\..\..\..\..\integration\nrfx\legacy\nrf_drv_spi.c 0x00000000   Number         0  nrf_drv_spi.o ABSOLUTE
    ..\..\..\..\..\..\integration\nrfx\legacy\nrf_drv_uart.c 0x00000000   Number         0  nrf_drv_uart.o ABSOLUTE
    ..\..\..\..\..\..\modules\nrfx\drivers\src\nrfx_clock.c 0x00000000   Number         0  nrfx_clock.o ABSOLUTE
    ..\..\..\..\..\..\modules\nrfx\drivers\src\nrfx_gpiote.c 0x00000000   Number         0  nrfx_gpiote.o ABSOLUTE
    ..\..\..\..\..\..\modules\nrfx\drivers\src\nrfx_spi.c 0x00000000   Number         0  nrfx_spi.o ABSOLUTE
    ..\..\..\..\..\..\modules\nrfx\drivers\src\nrfx_spim.c 0x00000000   Number         0  nrfx_spim.o ABSOLUTE
    ..\..\..\..\..\..\modules\nrfx\drivers\src\nrfx_uart.c 0x00000000   Number         0  nrfx_uart.o ABSOLUTE
    ..\..\..\..\..\..\modules\nrfx\drivers\src\nrfx_uarte.c 0x00000000   Number         0  nrfx_uarte.o ABSOLUTE
    ..\..\..\..\..\..\modules\nrfx\drivers\src\prs\nrfx_prs.c 0x00000000   Number         0  nrfx_prs.o ABSOLUTE
    ..\..\..\..\..\..\modules\nrfx\soc\nrfx_atomic.c 0x00000000   Number         0  nrfx_atomic.o ABSOLUTE
    ..\..\..\main.c                          0x00000000   Number         0  main.o ABSOLUTE
    ..\\..\\..\\..\\..\\..\\components\\ble\\ble_advertising\\ble_advertising.c 0x00000000   Number         0  ble_advertising.o ABSOLUTE
    ..\\..\\..\\..\\..\\..\\components\\ble\\ble_link_ctx_manager\\ble_link_ctx_manager.c 0x00000000   Number         0  ble_link_ctx_manager.o ABSOLUTE
    ..\\..\\..\\..\\..\\..\\components\\ble\\ble_services\\ble_dfu\\ble_dfu.c 0x00000000   Number         0  ble_dfu.o ABSOLUTE
    ..\\..\\..\\..\\..\\..\\components\\ble\\ble_services\\ble_dfu\\ble_dfu_bonded.c 0x00000000   Number         0  ble_dfu_bonded.o ABSOLUTE
    ..\\..\\..\\..\\..\\..\\components\\ble\\ble_services\\ble_dfu\\ble_dfu_unbonded.c 0x00000000   Number         0  ble_dfu_unbonded.o ABSOLUTE
    ..\\..\\..\\..\\..\\..\\components\\ble\\ble_services\\ble_nus\\ble_nus.c 0x00000000   Number         0  ble_nus.o ABSOLUTE
    ..\\..\\..\\..\\..\\..\\components\\ble\\common\\ble_advdata.c 0x00000000   Number         0  ble_advdata.o ABSOLUTE
    ..\\..\\..\\..\\..\\..\\components\\ble\\common\\ble_conn_params.c 0x00000000   Number         0  ble_conn_params.o ABSOLUTE
    ..\\..\\..\\..\\..\\..\\components\\ble\\common\\ble_conn_state.c 0x00000000   Number         0  ble_conn_state.o ABSOLUTE
    ..\\..\\..\\..\\..\\..\\components\\ble\\common\\ble_srv_common.c 0x00000000   Number         0  ble_srv_common.o ABSOLUTE
    ..\\..\\..\\..\\..\\..\\components\\ble\\nrf_ble_gatt\\nrf_ble_gatt.c 0x00000000   Number         0  nrf_ble_gatt.o ABSOLUTE
    ..\\..\\..\\..\\..\\..\\components\\ble\\nrf_ble_qwr\\nrf_ble_qwr.c 0x00000000   Number         0  nrf_ble_qwr.o ABSOLUTE
    ..\\..\\..\\..\\..\\..\\components\\boards\\boards.c 0x00000000   Number         0  boards.o ABSOLUTE
    ..\\..\\..\\..\\..\\..\\components\\libraries\\atomic\\nrf_atomic.c 0x00000000   Number         0  nrf_atomic.o ABSOLUTE
    ..\\..\\..\\..\\..\\..\\components\\libraries\\atomic_fifo\\nrf_atfifo.c 0x00000000   Number         0  nrf_atfifo.o ABSOLUTE
    ..\\..\\..\\..\\..\\..\\components\\libraries\\atomic_flags\\nrf_atflags.c 0x00000000   Number         0  nrf_atflags.o ABSOLUTE
    ..\\..\\..\\..\\..\\..\\components\\libraries\\balloc\\nrf_balloc.c 0x00000000   Number         0  nrf_balloc.o ABSOLUTE
    ..\\..\\..\\..\\..\\..\\components\\libraries\\bootloader\\dfu\\nrf_dfu_svci.c 0x00000000   Number         0  nrf_dfu_svci.o ABSOLUTE
    ..\\..\\..\\..\\..\\..\\components\\libraries\\bsp\\bsp.c 0x00000000   Number         0  bsp.o ABSOLUTE
    ..\\..\\..\\..\\..\\..\\components\\libraries\\bsp\\bsp_btn_ble.c 0x00000000   Number         0  bsp_btn_ble.o ABSOLUTE
    ..\\..\\..\\..\\..\\..\\components\\libraries\\button\\app_button.c 0x00000000   Number         0  app_button.o ABSOLUTE
    ..\\..\\..\\..\\..\\..\\components\\libraries\\experimental_section_vars\\nrf_section_iter.c 0x00000000   Number         0  nrf_section_iter.o ABSOLUTE
    ..\\..\\..\\..\\..\\..\\components\\libraries\\fifo\\app_fifo.c 0x00000000   Number         0  app_fifo.o ABSOLUTE
    ..\\..\\..\\..\\..\\..\\components\\libraries\\hardfault\\hardfault_implementation.c 0x00000000   Number         0  hardfault_implementation.o ABSOLUTE
    ..\\..\\..\\..\\..\\..\\components\\libraries\\log\\src\\nrf_log_backend_rtt.c 0x00000000   Number         0  nrf_log_backend_rtt.o ABSOLUTE
    ..\\..\\..\\..\\..\\..\\components\\libraries\\log\\src\\nrf_log_backend_serial.c 0x00000000   Number         0  nrf_log_backend_serial.o ABSOLUTE
    ..\\..\\..\\..\\..\\..\\components\\libraries\\log\\src\\nrf_log_default_backends.c 0x00000000   Number         0  nrf_log_default_backends.o ABSOLUTE
    ..\\..\\..\\..\\..\\..\\components\\libraries\\log\\src\\nrf_log_frontend.c 0x00000000   Number         0  nrf_log_frontend.o ABSOLUTE
    ..\\..\\..\\..\\..\\..\\components\\libraries\\log\\src\\nrf_log_str_formatter.c 0x00000000   Number         0  nrf_log_str_formatter.o ABSOLUTE
    ..\\..\\..\\..\\..\\..\\components\\libraries\\memobj\\nrf_memobj.c 0x00000000   Number         0  nrf_memobj.o ABSOLUTE
    ..\\..\\..\\..\\..\\..\\components\\libraries\\pwr_mgmt\\nrf_pwr_mgmt.c 0x00000000   Number         0  nrf_pwr_mgmt.o ABSOLUTE
    ..\\..\\..\\..\\..\\..\\components\\libraries\\ringbuf\\nrf_ringbuf.c 0x00000000   Number         0  nrf_ringbuf.o ABSOLUTE
    ..\\..\\..\\..\\..\\..\\components\\libraries\\scheduler\\app_scheduler.c 0x00000000   Number         0  app_scheduler.o ABSOLUTE
    ..\\..\\..\\..\\..\\..\\components\\libraries\\sortlist\\nrf_sortlist.c 0x00000000   Number         0  nrf_sortlist.o ABSOLUTE
    ..\\..\\..\\..\\..\\..\\components\\libraries\\strerror\\nrf_strerror.c 0x00000000   Number         0  nrf_strerror.o ABSOLUTE
    ..\\..\\..\\..\\..\\..\\components\\libraries\\timer\\app_timer_freertos.c 0x00000000   Number         0  app_timer_freertos.o ABSOLUTE
    ..\\..\\..\\..\\..\\..\\components\\libraries\\uart\\app_uart_fifo.c 0x00000000   Number         0  app_uart_fifo.o ABSOLUTE
    ..\\..\\..\\..\\..\\..\\components\\libraries\\uart\\retarget.c 0x00000000   Number         0  retarget.o ABSOLUTE
    ..\\..\\..\\..\\..\\..\\components\\libraries\\util\\app_error.c 0x00000000   Number         0  app_error.o ABSOLUTE
    ..\\..\\..\\..\\..\\..\\components\\libraries\\util\\app_error_handler_keil.c 0x00000000   Number         0  app_error_handler_keil.o ABSOLUTE
    ..\\..\\..\\..\\..\\..\\components\\libraries\\util\\app_error_weak.c 0x00000000   Number         0  app_error_weak.o ABSOLUTE
    ..\\..\\..\\..\\..\\..\\components\\libraries\\util\\app_util_platform.c 0x00000000   Number         0  app_util_platform.o ABSOLUTE
    ..\\..\\..\\..\\..\\..\\components\\libraries\\util\\nrf_assert.c 0x00000000   Number         0  nrf_assert.o ABSOLUTE
    ..\\..\\..\\..\\..\\..\\components\\softdevice\\common\\nrf_sdh.c 0x00000000   Number         0  nrf_sdh.o ABSOLUTE
    ..\\..\\..\\..\\..\\..\\components\\softdevice\\common\\nrf_sdh_ble.c 0x00000000   Number         0  nrf_sdh_ble.o ABSOLUTE
    ..\\..\\..\\..\\..\\..\\components\\softdevice\\common\\nrf_sdh_soc.c 0x00000000   Number         0  nrf_sdh_soc.o ABSOLUTE
    ..\\..\\..\\..\\..\\..\\external\\fprintf\\nrf_fprintf.c 0x00000000   Number         0  nrf_fprintf.o ABSOLUTE
    ..\\..\\..\\..\\..\\..\\external\\fprintf\\nrf_fprintf_format.c 0x00000000   Number         0  nrf_fprintf_format.o ABSOLUTE
    ..\\..\\..\\..\\..\\..\\external\\freertos\\portable\\ARM\\nrf52\\port.c 0x00000000   Number         0  port.o ABSOLUTE
    ..\\..\\..\\..\\..\\..\\external\\freertos\\portable\\CMSIS\\nrf52\\port_cmsis.c 0x00000000   Number         0  port_cmsis.o ABSOLUTE
    ..\\..\\..\\..\\..\\..\\external\\freertos\\portable\\CMSIS\\nrf52\\port_cmsis_systick.c 0x00000000   Number         0  port_cmsis_systick.o ABSOLUTE
    ..\\..\\..\\..\\..\\..\\external\\freertos\\source\\croutine.c 0x00000000   Number         0  croutine.o ABSOLUTE
    ..\\..\\..\\..\\..\\..\\external\\freertos\\source\\event_groups.c 0x00000000   Number         0  event_groups.o ABSOLUTE
    ..\\..\\..\\..\\..\\..\\external\\freertos\\source\\list.c 0x00000000   Number         0  list.o ABSOLUTE
    ..\\..\\..\\..\\..\\..\\external\\freertos\\source\\portable\\MemMang\\heap_4.c 0x00000000   Number         0  heap_4.o ABSOLUTE
    ..\\..\\..\\..\\..\\..\\external\\freertos\\source\\queue.c 0x00000000   Number         0  queue.o ABSOLUTE
    ..\\..\\..\\..\\..\\..\\external\\freertos\\source\\stream_buffer.c 0x00000000   Number         0  stream_buffer.o ABSOLUTE
    ..\\..\\..\\..\\..\\..\\external\\freertos\\source\\tasks.c 0x00000000   Number         0  tasks.o ABSOLUTE
    ..\\..\\..\\..\\..\\..\\external\\freertos\\source\\timers.c 0x00000000   Number         0  timers.o ABSOLUTE
    ..\\..\\..\\..\\..\\..\\external\\segger_rtt\\SEGGER_RTT.c 0x00000000   Number         0  segger_rtt.o ABSOLUTE
    ..\\..\\..\\..\\..\\..\\external\\segger_rtt\\SEGGER_RTT_printf.c 0x00000000   Number         0  segger_rtt_printf.o ABSOLUTE
    ..\\..\\..\\..\\..\\..\\integration\\nrfx\\legacy\\nrf_drv_clock.c 0x00000000   Number         0  nrf_drv_clock.o ABSOLUTE
    ..\\..\\..\\..\\..\\..\\integration\\nrfx\\legacy\\nrf_drv_spi.c 0x00000000   Number         0  nrf_drv_spi.o ABSOLUTE
    ..\\..\\..\\..\\..\\..\\integration\\nrfx\\legacy\\nrf_drv_uart.c 0x00000000   Number         0  nrf_drv_uart.o ABSOLUTE
    ..\\..\\..\\..\\..\\..\\modules\\nrfx\\drivers\\src\\nrfx_clock.c 0x00000000   Number         0  nrfx_clock.o ABSOLUTE
    ..\\..\\..\\..\\..\\..\\modules\\nrfx\\drivers\\src\\nrfx_gpiote.c 0x00000000   Number         0  nrfx_gpiote.o ABSOLUTE
    ..\\..\\..\\..\\..\\..\\modules\\nrfx\\drivers\\src\\nrfx_spi.c 0x00000000   Number         0  nrfx_spi.o ABSOLUTE
    ..\\..\\..\\..\\..\\..\\modules\\nrfx\\drivers\\src\\nrfx_spim.c 0x00000000   Number         0  nrfx_spim.o ABSOLUTE
    ..\\..\\..\\..\\..\\..\\modules\\nrfx\\drivers\\src\\nrfx_uart.c 0x00000000   Number         0  nrfx_uart.o ABSOLUTE
    ..\\..\\..\\..\\..\\..\\modules\\nrfx\\drivers\\src\\nrfx_uarte.c 0x00000000   Number         0  nrfx_uarte.o ABSOLUTE
    ..\\..\\..\\..\\..\\..\\modules\\nrfx\\drivers\\src\\prs\\nrfx_prs.c 0x00000000   Number         0  nrfx_prs.o ABSOLUTE
    ..\\..\\..\\..\\..\\..\\modules\\nrfx\\soc\\nrfx_atomic.c 0x00000000   Number         0  nrfx_atomic.o ABSOLUTE
    ..\\..\\..\\main.c                       0x00000000   Number         0  main.o ABSOLUTE
    ..\\app\\src\\dfu.c                      0x00000000   Number         0  dfu.o ABSOLUTE
    ..\\app\\src\\sys_mng.c                  0x00000000   Number         0  sys_mng.o ABSOLUTE
    ..\\app\\src\\w25q128.c                  0x00000000   Number         0  w25q128.o ABSOLUTE
    ..\app\src\dfu.c                         0x00000000   Number         0  dfu.o ABSOLUTE
    ..\app\src\pwr_mng.c                     0x00000000   Number         0  pwr_mng.o ABSOLUTE
    ..\app\src\sys_mng.c                     0x00000000   Number         0  sys_mng.o ABSOLUTE
    ..\app\src\w25q128.c                     0x00000000   Number         0  w25q128.o ABSOLUTE
    RTE\Device\nRF52840_xxAA\arm_startup_nrf52840.s 0x00000000   Number         0  arm_startup_nrf52840.o ABSOLUTE
    RTE\Device\nRF52840_xxAA\system_nrf52.c  0x00000000   Number         0  system_nrf52.o ABSOLUTE
    RTE\\Device\\nRF52840_xxAA\\system_nrf52.c 0x00000000   Number         0  system_nrf52.o ABSOLUTE
    dc.s                                     0x00000000   Number         0  dc.o ABSOLUTE
    handlers.s                               0x00000000   Number         0  handlers.o ABSOLUTE
    init.s                                   0x00000000   Number         0  init.o ABSOLUTE
    RESET                                    0x00027000   Section      512  arm_startup_nrf52840.o(RESET)
    .ARM.Collect$$$$00000000                 0x00027200   Section        0  entry.o(.ARM.Collect$$$$00000000)
    .ARM.Collect$$$$00000001                 0x00027200   Section        4  entry2.o(.ARM.Collect$$$$00000001)
    .ARM.Collect$$$$00000004                 0x00027204   Section        4  entry5.o(.ARM.Collect$$$$00000004)
    .ARM.Collect$$$$00000008                 0x00027208   Section        0  entry7b.o(.ARM.Collect$$$$00000008)
    .ARM.Collect$$$$0000000A                 0x00027208   Section        0  entry8b.o(.ARM.Collect$$$$0000000A)
    .ARM.Collect$$$$0000000B                 0x00027208   Section        8  entry9a.o(.ARM.Collect$$$$0000000B)
    .ARM.Collect$$$$0000000E                 0x00027210   Section        4  entry12b.o(.ARM.Collect$$$$0000000E)
    .ARM.Collect$$$$0000000F                 0x00027214   Section        0  entry10a.o(.ARM.Collect$$$$0000000F)
    .ARM.Collect$$$$00000011                 0x00027214   Section        0  entry11a.o(.ARM.Collect$$$$00000011)
    .ARM.Collect$$$$00002712                 0x00027214   Section        4  entry2.o(.ARM.Collect$$$$00002712)
    __lit__00000000                          0x00027214   Data           4  entry2.o(.ARM.Collect$$$$00002712)
    .emb_text                                0x00027218   Section      226  nrf_atomic.o(.emb_text)
    $v0                                      0x00027218   Number         0  nrf_atomic.o(.emb_text)
    .emb_text                                0x000272fc   Section      160  port.o(.emb_text)
    $v0                                      0x000272fc   Number         0  port.o(.emb_text)
    .text                                    0x0002739c   Section       36  arm_startup_nrf52840.o(.text)
    $v0                                      0x0002739c   Number         0  arm_startup_nrf52840.o(.text)
    .text                                    0x000273c0   Section        0  uldiv.o(.text)
    .text                                    0x00027422   Section        0  llshl.o(.text)
    .text                                    0x00027440   Section        0  ctype_o.o(.text)
    .text                                    0x00027448   Section        0  memcpya.o(.text)
    .text                                    0x0002746c   Section        0  memseta.o(.text)
    .text                                    0x00027490   Section        0  strlen.o(.text)
    .text                                    0x0002749e   Section        0  strcpy.o(.text)
    .text                                    0x000274b0   Section        0  llushr.o(.text)
    .text                                    0x000274d0   Section       36  init.o(.text)
    .text                                    0x000274f4   Section        0  __dczerorl2.o(.text)
    i.GPIOTE_IRQHandler                      0x0002754c   Section        0  nrfx_gpiote.o(i.GPIOTE_IRQHandler)
    i.POWER_CLOCK_IRQHandler                 0x000275f0   Section        0  nrfx_clock.o(i.POWER_CLOCK_IRQHandler)
    i.RTC1_IRQHandler                        0x00027648   Section        0  port_cmsis_systick.o(i.RTC1_IRQHandler)
    i.SEGGER_RTT_Init                        0x000276b0   Section        0  segger_rtt.o(i.SEGGER_RTT_Init)
    i.SEGGER_RTT_WriteNoLock                 0x000276b4   Section        0  segger_rtt.o(i.SEGGER_RTT_WriteNoLock)
    i.SPIM0_SPIS0_TWIM0_TWIS0_SPI0_TWI0_IRQHandler 0x00027710   Section        0  nrfx_spim.o(i.SPIM0_SPIS0_TWIM0_TWIS0_SPI0_TWI0_IRQHandler)
    i.SPI_Flash_Init                         0x00027764   Section        0  w25q128.o(i.SPI_Flash_Init)
    i.SWI2_EGU2_IRQHandler                   0x000277c8   Section        0  nrf_sdh.o(i.SWI2_EGU2_IRQHandler)
    i.SystemInit                             0x000277cc   Section        0  system_nrf52.o(i.SystemInit)
    i.UARTE0_UART0_IRQHandler                0x000279a8   Section        0  nrfx_prs.o(i.UARTE0_UART0_IRQHandler)
    i._DoInit                                0x000279b4   Section        0  segger_rtt.o(i._DoInit)
    _DoInit                                  0x000279b5   Thumb Code    76  segger_rtt.o(i._DoInit)
    i._GetAvailWriteSpace                    0x00027a1c   Section        0  segger_rtt.o(i._GetAvailWriteSpace)
    _GetAvailWriteSpace                      0x00027a1d   Thumb Code    22  segger_rtt.o(i._GetAvailWriteSpace)
    i._WriteBlocking                         0x00027a32   Section        0  segger_rtt.o(i._WriteBlocking)
    _WriteBlocking                           0x00027a33   Thumb Code    90  segger_rtt.o(i._WriteBlocking)
    i._WriteNoCheck                          0x00027a8c   Section        0  segger_rtt.o(i._WriteNoCheck)
    _WriteNoCheck                            0x00027a8d   Thumb Code    66  segger_rtt.o(i._WriteNoCheck)
    i.__scatterload_copy                     0x00027ace   Section       14  handlers.o(i.__scatterload_copy)
    i.__scatterload_null                     0x00027adc   Section        2  handlers.o(i.__scatterload_null)
    i.__scatterload_zeroinit                 0x00027ade   Section       14  handlers.o(i.__scatterload_zeroinit)
    i.__sd_nvic_app_accessible_irq           0x00027aec   Section        0  nrf_sdh.o(i.__sd_nvic_app_accessible_irq)
    __sd_nvic_app_accessible_irq             0x00027aed   Thumb Code    32  nrf_sdh.o(i.__sd_nvic_app_accessible_irq)
    i.adv_set_data_size_max_get              0x00027b10   Section        0  ble_advertising.o(i.adv_set_data_size_max_get)
    adv_set_data_size_max_get                0x00027b11   Thumb Code    16  ble_advertising.o(i.adv_set_data_size_max_get)
    i.advertising_buttons_configure          0x00027b20   Section        0  bsp_btn_ble.o(i.advertising_buttons_configure)
    advertising_buttons_configure            0x00027b21   Thumb Code    54  bsp_btn_ble.o(i.advertising_buttons_configure)
    i.advertising_init                       0x00027b58   Section        0  main.o(i.advertising_init)
    advertising_init                         0x00027b59   Thumb Code   106  main.o(i.advertising_init)
    i.advertising_start                      0x00027bd0   Section        0  main.o(i.advertising_start)
    i.app_error_fault_handler                0x00027bec   Section        0  app_error_weak.o(i.app_error_fault_handler)
    i.app_error_handler_bare                 0x00027c70   Section        0  app_error.o(i.app_error_handler_bare)
    i.app_fifo_get                           0x00027c86   Section        0  app_fifo.o(i.app_fifo_get)
    i.app_fifo_init                          0x00027c9c   Section        0  app_fifo.o(i.app_fifo_init)
    i.app_fifo_put                           0x00027cbc   Section        0  app_fifo.o(i.app_fifo_put)
    i.app_shutdown_handler                   0x00027cd8   Section        0  main.o(i.app_shutdown_handler)
    app_shutdown_handler                     0x00027cd9   Thumb Code    40  main.o(i.app_shutdown_handler)
    i.app_timer_callback                     0x00027d68   Section        0  app_timer_freertos.o(i.app_timer_callback)
    app_timer_callback                       0x00027d69   Thumb Code    38  app_timer_freertos.o(i.app_timer_callback)
    i.app_timer_create                       0x00027d90   Section        0  app_timer_freertos.o(i.app_timer_create)
    i.app_timer_start                        0x00027de8   Section        0  app_timer_freertos.o(i.app_timer_start)
    i.app_timer_stop                         0x00027e84   Section        0  app_timer_freertos.o(i.app_timer_stop)
    i.app_uart_get                           0x00027ee8   Section        0  app_uart_fifo.o(i.app_uart_get)
    i.app_uart_init                          0x00027f1c   Section        0  app_uart_fifo.o(i.app_uart_init)
    i.app_uart_put                           0x00027fc0   Section        0  app_uart_fifo.o(i.app_uart_put)
    i.app_util_critical_region_enter         0x00028014   Section        0  app_util_platform.o(i.app_util_critical_region_enter)
    i.app_util_critical_region_exit          0x0002805c   Section        0  app_util_platform.o(i.app_util_critical_region_exit)
    i.apply_config                           0x00028090   Section        0  nrfx_uart.o(i.apply_config)
    apply_config                             0x00028091   Thumb Code   118  nrfx_uart.o(i.apply_config)
    i.apply_config                           0x00028106   Section        0  nrfx_uarte.o(i.apply_config)
    apply_config                             0x00028107   Thumb Code   118  nrfx_uarte.o(i.apply_config)
    i.blcm_link_ctx_get                      0x0002817c   Section        0  ble_link_ctx_manager.o(i.blcm_link_ctx_get)
    i.ble_advdata_encode                     0x000281c4   Section        0  ble_advdata.o(i.ble_advdata_encode)
    i.ble_advdata_parse                      0x00028346   Section        0  ble_advdata.o(i.ble_advdata_parse)
    i.ble_advdata_search                     0x00028366   Section        0  ble_advdata.o(i.ble_advdata_search)
    i.ble_advertising_conn_cfg_tag_set       0x000283ac   Section        0  ble_advertising.o(i.ble_advertising_conn_cfg_tag_set)
    i.ble_advertising_init                   0x000283b2   Section        0  ble_advertising.o(i.ble_advertising_init)
    i.ble_advertising_modes_config_set       0x0002849a   Section        0  ble_advertising.o(i.ble_advertising_modes_config_set)
    i.ble_advertising_on_ble_evt             0x000284a2   Section        0  ble_advertising.o(i.ble_advertising_on_ble_evt)
    i.ble_advertising_start                  0x0002850c   Section        0  ble_advertising.o(i.ble_advertising_start)
    i.ble_conn_params_init                   0x0002873c   Section        0  ble_conn_params.o(i.ble_conn_params_init)
    i.ble_conn_state_conn_idx                0x000287a4   Section        0  ble_conn_state.o(i.ble_conn_state_conn_idx)
    i.ble_conn_state_for_each_connected      0x000287b8   Section        0  ble_conn_state.o(i.ble_conn_state_for_each_connected)
    i.ble_conn_state_valid                   0x000287cc   Section        0  ble_conn_state.o(i.ble_conn_state_valid)
    i.ble_data_send                          0x000287e0   Section        0  main.o(i.ble_data_send)
    i.ble_device_addr_encode                 0x00028804   Section        0  ble_advdata.o(i.ble_device_addr_encode)
    ble_device_addr_encode                   0x00028805   Thumb Code    96  ble_advdata.o(i.ble_device_addr_encode)
    i.ble_dfu_buttonless_backend_init        0x00028864   Section        0  ble_dfu_unbonded.o(i.ble_dfu_buttonless_backend_init)
    i.ble_dfu_buttonless_bootloader_start_finalize 0x00028878   Section        0  ble_dfu.o(i.ble_dfu_buttonless_bootloader_start_finalize)
    i.ble_dfu_buttonless_bootloader_start_prepare 0x000288a4   Section        0  ble_dfu_unbonded.o(i.ble_dfu_buttonless_bootloader_start_prepare)
    i.ble_dfu_buttonless_char_add            0x000288bc   Section        0  ble_dfu_unbonded.o(i.ble_dfu_buttonless_char_add)
    i.ble_dfu_buttonless_init                0x0002890c   Section        0  ble_dfu.o(i.ble_dfu_buttonless_init)
    i.ble_dfu_buttonless_on_ble_evt          0x0002897c   Section        0  ble_dfu.o(i.ble_dfu_buttonless_on_ble_evt)
    i.ble_dfu_buttonless_on_ctrl_pt_write    0x000289fc   Section        0  ble_dfu_unbonded.o(i.ble_dfu_buttonless_on_ctrl_pt_write)
    i.ble_dfu_buttonless_on_sys_evt          0x00028ad8   Section        0  ble_dfu_unbonded.o(i.ble_dfu_buttonless_on_sys_evt)
    i.ble_dfu_buttonless_resp_send           0x00028b38   Section        0  ble_dfu.o(i.ble_dfu_buttonless_resp_send)
    i.ble_dfu_evt_handler                    0x00028b8c   Section        0  main.o(i.ble_dfu_evt_handler)
    ble_dfu_evt_handler                      0x00028b8d   Thumb Code   140  main.o(i.ble_dfu_evt_handler)
    i.ble_evt_handler                        0x00028d28   Section        0  main.o(i.ble_evt_handler)
    ble_evt_handler                          0x00028d29   Thumb Code   162  main.o(i.ble_evt_handler)
    i.ble_evt_handler                        0x00028df8   Section        0  bsp_btn_ble.o(i.ble_evt_handler)
    ble_evt_handler                          0x00028df9   Thumb Code   106  bsp_btn_ble.o(i.ble_evt_handler)
    i.ble_evt_handler                        0x00028e68   Section        0  ble_conn_params.o(i.ble_evt_handler)
    ble_evt_handler                          0x00028e69   Thumb Code   242  ble_conn_params.o(i.ble_evt_handler)
    i.ble_evt_handler                        0x00028f64   Section        0  ble_conn_state.o(i.ble_evt_handler)
    ble_evt_handler                          0x00028f65   Thumb Code   274  ble_conn_state.o(i.ble_evt_handler)
    i.ble_nus_data_send                      0x0002907c   Section        0  ble_nus.o(i.ble_nus_data_send)
    i.ble_nus_init                           0x000290e4   Section        0  ble_nus.o(i.ble_nus_init)
    i.ble_nus_on_ble_evt                     0x000291b8   Section        0  ble_nus.o(i.ble_nus_on_ble_evt)
    i.ble_srv_is_indication_enabled          0x00029230   Section        0  ble_srv_common.o(i.ble_srv_is_indication_enabled)
    i.ble_srv_is_notification_enabled        0x00029238   Section        0  ble_srv_common.o(i.ble_srv_is_notification_enabled)
    i.bsp_board_button_idx_to_pin            0x00029240   Section        0  boards.o(i.bsp_board_button_idx_to_pin)
    i.bsp_board_led_invert                   0x0002924c   Section        0  boards.o(i.bsp_board_led_invert)
    i.bsp_board_led_off                      0x00029278   Section        0  boards.o(i.bsp_board_led_off)
    i.bsp_board_led_on                       0x00029288   Section        0  boards.o(i.bsp_board_led_on)
    i.bsp_board_led_state_get                0x00029298   Section        0  boards.o(i.bsp_board_led_state_get)
    i.bsp_board_leds_off                     0x000292c0   Section        0  boards.o(i.bsp_board_leds_off)
    i.bsp_board_leds_on                      0x000292d2   Section        0  boards.o(i.bsp_board_leds_on)
    i.bsp_board_pin_to_button_idx            0x000292e4   Section        0  boards.o(i.bsp_board_pin_to_button_idx)
    i.bsp_btn_ble_sleep_mode_prepare         0x00029308   Section        0  bsp_btn_ble.o(i.bsp_btn_ble_sleep_mode_prepare)
    i.bsp_button_event_handler               0x00029328   Section        0  bsp.o(i.bsp_button_event_handler)
    bsp_button_event_handler                 0x00029329   Thumb Code   164  bsp.o(i.bsp_button_event_handler)
    i.bsp_event_to_button_action_assign      0x000293d4   Section        0  bsp.o(i.bsp_event_to_button_action_assign)
    i.bsp_indication_set                     0x00029424   Section        0  bsp.o(i.bsp_indication_set)
    i.bsp_led_indication                     0x0002943c   Section        0  bsp.o(i.bsp_led_indication)
    bsp_led_indication                       0x0002943d   Thumb Code   432  bsp.o(i.bsp_led_indication)
    i.bsp_wakeup_button_enable               0x000295f4   Section        0  bsp.o(i.bsp_wakeup_button_enable)
    i.buf_prealloc                           0x000295fc   Section        0  nrf_log_frontend.o(i.buf_prealloc)
    buf_prealloc                             0x000295fd   Thumb Code   140  nrf_log_frontend.o(i.buf_prealloc)
    i.buffer_add                             0x00029690   Section        0  nrf_fprintf_format.o(i.buffer_add)
    buffer_add                               0x00029691   Thumb Code    46  nrf_fprintf_format.o(i.buffer_add)
    i.buffer_is_empty                        0x000296c0   Section        0  nrf_log_frontend.o(i.buffer_is_empty)
    i.buttonless_dfu_sdh_state_observer      0x000296d8   Section        0  main.o(i.buttonless_dfu_sdh_state_observer)
    buttonless_dfu_sdh_state_observer        0x000296d9   Thumb Code    18  main.o(i.buttonless_dfu_sdh_state_observer)
    i.channel_port_get                       0x000296f0   Section        0  nrfx_gpiote.o(i.channel_port_get)
    channel_port_get                         0x000296f1   Thumb Code    10  nrfx_gpiote.o(i.channel_port_get)
    i.characteristic_add                     0x00029700   Section        0  ble_srv_common.o(i.characteristic_add)
    i.clock_clk_started_notify               0x00029890   Section        0  nrf_drv_clock.o(i.clock_clk_started_notify)
    clock_clk_started_notify                 0x00029891   Thumb Code    34  nrf_drv_clock.o(i.clock_clk_started_notify)
    i.clock_irq_handler                      0x000298b8   Section        0  nrf_drv_clock.o(i.clock_irq_handler)
    clock_irq_handler                        0x000298b9   Thumb Code    24  nrf_drv_clock.o(i.clock_irq_handler)
    i.conn_handle_list_get                   0x000298d4   Section        0  ble_conn_state.o(i.conn_handle_list_get)
    i.conn_int_encode                        0x00029912   Section        0  ble_advdata.o(i.conn_int_encode)
    conn_int_encode                          0x00029913   Thumb Code   136  ble_advdata.o(i.conn_int_encode)
    i.conn_params_error_handler              0x0002999a   Section        0  main.o(i.conn_params_error_handler)
    conn_params_error_handler                0x0002999b   Thumb Code     4  main.o(i.conn_params_error_handler)
    i.conn_params_negotiation                0x000299a0   Section        0  ble_conn_params.o(i.conn_params_negotiation)
    conn_params_negotiation                  0x000299a1   Thumb Code    68  ble_conn_params.o(i.conn_params_negotiation)
    i.data_length_update                     0x000299e8   Section        0  nrf_ble_gatt.o(i.data_length_update)
    data_length_update                       0x000299e9   Thumb Code   110  nrf_ble_gatt.o(i.data_length_update)
    i.disconnect                             0x00029aa8   Section        0  main.o(i.disconnect)
    disconnect                               0x00029aa9   Thumb Code    40  main.o(i.disconnect)
    i.dropped_sat16_get                      0x00029adc   Section        0  nrf_log_frontend.o(i.dropped_sat16_get)
    dropped_sat16_get                        0x00029add   Thumb Code    16  nrf_log_frontend.o(i.dropped_sat16_get)
    i.dummy_evt_handler                      0x00029af0   Section        0  ble_dfu.o(i.dummy_evt_handler)
    dummy_evt_handler                        0x00029af1   Thumb Code     2  ble_dfu.o(i.dummy_evt_handler)
    i.eTaskConfirmSleepModeStatus            0x00029af4   Section        0  tasks.o(i.eTaskConfirmSleepModeStatus)
    i.fifo_get                               0x00029b24   Section        0  app_fifo.o(i.fifo_get)
    fifo_get                                 0x00029b25   Thumb Code    20  app_fifo.o(i.fifo_get)
    i.fifo_put                               0x00029b38   Section        0  app_fifo.o(i.fifo_put)
    fifo_put                                 0x00029b39   Thumb Code    18  app_fifo.o(i.fifo_put)
    i.flag_toggle                            0x00029b4a   Section        0  ble_conn_state.o(i.flag_toggle)
    flag_toggle                              0x00029b4b   Thumb Code    10  ble_conn_state.o(i.flag_toggle)
    i.flags_set                              0x00029b54   Section        0  ble_advertising.o(i.flags_set)
    flags_set                                0x00029b55   Thumb Code    40  ble_advertising.o(i.flags_set)
    i.for_each_set_flag                      0x00029b7c   Section        0  ble_conn_state.o(i.for_each_set_flag)
    for_each_set_flag                        0x00029b7d   Thumb Code    48  ble_conn_state.o(i.for_each_set_flag)
    i.gatt_evt_handler                       0x00029bac   Section        0  main.o(i.gatt_evt_handler)
    i.gatt_init                              0x00029c08   Section        0  main.o(i.gatt_init)
    i.instance_get                           0x00029c38   Section        0  ble_conn_params.o(i.instance_get)
    instance_get                             0x00029c39   Thumb Code    14  ble_conn_params.o(i.instance_get)
    i.int_print                              0x00029c4c   Section        0  nrf_fprintf_format.o(i.int_print)
    int_print                                0x00029c4d   Thumb Code   166  nrf_fprintf_format.o(i.int_print)
    i.interrupts_enable                      0x00029cf4   Section        0  nrfx_uarte.o(i.interrupts_enable)
    interrupts_enable                        0x00029cf5   Thumb Code   132  nrfx_uarte.o(i.interrupts_enable)
    i.invalid_packets_omit                   0x00029d7c   Section        0  nrf_log_frontend.o(i.invalid_packets_omit)
    invalid_packets_omit                     0x00029d7d   Thumb Code    52  nrf_log_frontend.o(i.invalid_packets_omit)
    i.is_conn_params_ok                      0x00029db0   Section        0  ble_conn_params.o(i.is_conn_params_ok)
    is_conn_params_ok                        0x00029db1   Thumb Code    68  ble_conn_params.o(i.is_conn_params_ok)
    i.item_enqueue                           0x00029df4   Section        0  nrf_drv_clock.o(i.item_enqueue)
    item_enqueue                             0x00029df5   Thumb Code    22  nrf_drv_clock.o(i.item_enqueue)
    i.leds_off                               0x00029e0c   Section        0  bsp.o(i.leds_off)
    leds_off                                 0x00029e0d   Thumb Code    42  bsp.o(i.leds_off)
    i.link_init                              0x00029e3c   Section        0  nrf_ble_gatt.o(i.link_init)
    link_init                                0x00029e3d   Thumb Code    24  nrf_ble_gatt.o(i.link_init)
    i.log_skip                               0x00029e54   Section        0  nrf_log_frontend.o(i.log_skip)
    log_skip                                 0x00029e55   Thumb Code   150  nrf_log_frontend.o(i.log_skip)
    i.main                                   0x00029ef8   Section        0  main.o(i.main)
    i.manuf_specific_data_encode             0x0002a084   Section        0  ble_advdata.o(i.manuf_specific_data_encode)
    manuf_specific_data_encode               0x0002a085   Thumb Code   100  ble_advdata.o(i.manuf_specific_data_encode)
    i.memobj_op                              0x0002a0e8   Section        0  nrf_memobj.o(i.memobj_op)
    memobj_op                                0x0002a0e9   Thumb Code   126  nrf_memobj.o(i.memobj_op)
    i.module_idx_get                         0x0002a168   Section        0  nrf_log_frontend.o(i.module_idx_get)
    module_idx_get                           0x0002a169   Thumb Code    42  nrf_log_frontend.o(i.module_idx_get)
    i.name_encode                            0x0002a198   Section        0  ble_advdata.o(i.name_encode)
    name_encode                              0x0002a199   Thumb Code   166  ble_advdata.o(i.name_encode)
    i.nrf_atflags_clear                      0x0002a23e   Section        0  nrf_atflags.o(i.nrf_atflags_clear)
    i.nrf_atflags_get                        0x0002a254   Section        0  nrf_atflags.o(i.nrf_atflags_get)
    i.nrf_atflags_set                        0x0002a26a   Section        0  nrf_atflags.o(i.nrf_atflags_set)
    i.nrf_atomic_flag_clear_fetch            0x0002a27e   Section        0  nrf_atomic.o(i.nrf_atomic_flag_clear_fetch)
    i.nrf_atomic_flag_set                    0x0002a284   Section        0  nrf_atomic.o(i.nrf_atomic_flag_set)
    i.nrf_atomic_u32_add                     0x0002a28a   Section        0  nrf_atomic.o(i.nrf_atomic_u32_add)
    i.nrf_atomic_u32_and                     0x0002a296   Section        0  nrf_atomic.o(i.nrf_atomic_u32_and)
    i.nrf_atomic_u32_fetch_and               0x0002a2a2   Section        0  nrf_atomic.o(i.nrf_atomic_u32_fetch_and)
    i.nrf_atomic_u32_fetch_store             0x0002a2ac   Section        0  nrf_atomic.o(i.nrf_atomic_u32_fetch_store)
    i.nrf_atomic_u32_or                      0x0002a2b6   Section        0  nrf_atomic.o(i.nrf_atomic_u32_or)
    i.nrf_atomic_u32_sub                     0x0002a2c2   Section        0  nrf_atomic.o(i.nrf_atomic_u32_sub)
    i.nrf_balloc_alloc                       0x0002a2ce   Section        0  nrf_balloc.o(i.nrf_balloc_alloc)
    i.nrf_balloc_free                        0x0002a312   Section        0  nrf_balloc.o(i.nrf_balloc_free)
    i.nrf_balloc_init                        0x0002a342   Section        0  nrf_balloc.o(i.nrf_balloc_init)
    i.nrf_bitmask_bit_is_set                 0x0002a372   Section        0  nrfx_gpiote.o(i.nrf_bitmask_bit_is_set)
    nrf_bitmask_bit_is_set                   0x0002a373   Thumb Code    16  nrfx_gpiote.o(i.nrf_bitmask_bit_is_set)
    i.nrf_ble_gatt_att_mtu_periph_set        0x0002a382   Section        0  nrf_ble_gatt.o(i.nrf_ble_gatt_att_mtu_periph_set)
    i.nrf_ble_gatt_init                      0x0002a39a   Section        0  nrf_ble_gatt.o(i.nrf_ble_gatt_init)
    i.nrf_ble_gatt_on_ble_evt                0x0002a3bc   Section        0  nrf_ble_gatt.o(i.nrf_ble_gatt_on_ble_evt)
    i.nrf_ble_qwr_conn_handle_assign         0x0002a50c   Section        0  nrf_ble_qwr.o(i.nrf_ble_qwr_conn_handle_assign)
    i.nrf_ble_qwr_init                       0x0002a522   Section        0  nrf_ble_qwr.o(i.nrf_ble_qwr_init)
    i.nrf_ble_qwr_on_ble_evt                 0x0002a546   Section        0  nrf_ble_qwr.o(i.nrf_ble_qwr_on_ble_evt)
    i.nrf_clock_event_check                  0x0002a5fc   Section        0  nrfx_clock.o(i.nrf_clock_event_check)
    nrf_clock_event_check                    0x0002a5fd   Thumb Code    14  nrfx_clock.o(i.nrf_clock_event_check)
    i.nrf_clock_event_clear                  0x0002a60a   Section        0  nrfx_clock.o(i.nrf_clock_event_clear)
    nrf_clock_event_clear                    0x0002a60b   Thumb Code    16  nrfx_clock.o(i.nrf_clock_event_clear)
    i.nrf_drv_clock_init                     0x0002a61c   Section        0  nrf_drv_clock.o(i.nrf_drv_clock_init)
    i.nrf_drv_clock_lfclk_release            0x0002a65c   Section        0  nrf_drv_clock.o(i.nrf_drv_clock_lfclk_release)
    i.nrf_drv_clock_lfclk_request            0x0002a690   Section        0  nrf_drv_clock.o(i.nrf_drv_clock_lfclk_request)
    i.nrf_drv_spi_init                       0x0002a6e4   Section        0  nrf_drv_spi.o(i.nrf_drv_spi_init)
    i.nrf_drv_uart_init                      0x0002a754   Section        0  nrf_drv_uart.o(i.nrf_drv_uart_init)
    i.nrf_drv_uart_rx                        0x0002a7bc   Section        0  app_uart_fifo.o(i.nrf_drv_uart_rx)
    nrf_drv_uart_rx                          0x0002a7bd   Thumb Code    26  app_uart_fifo.o(i.nrf_drv_uart_rx)
    i.nrf_drv_uart_tx                        0x0002a7dc   Section        0  app_uart_fifo.o(i.nrf_drv_uart_tx)
    nrf_drv_uart_tx                          0x0002a7dd   Thumb Code    26  app_uart_fifo.o(i.nrf_drv_uart_tx)
    i.nrf_fprintf                            0x0002a7fc   Section        0  nrf_fprintf.o(i.nrf_fprintf)
    i.nrf_fprintf_buffer_flush               0x0002a816   Section        0  nrf_fprintf.o(i.nrf_fprintf_buffer_flush)
    i.nrf_fprintf_fmt                        0x0002a82e   Section        0  nrf_fprintf_format.o(i.nrf_fprintf_fmt)
    i.nrf_gpio_cfg                           0x0002aa08   Section        0  nrfx_uart.o(i.nrf_gpio_cfg)
    nrf_gpio_cfg                             0x0002aa09   Thumb Code    50  nrfx_uart.o(i.nrf_gpio_cfg)
    i.nrf_gpio_cfg                           0x0002aa3a   Section        0  nrfx_uarte.o(i.nrf_gpio_cfg)
    nrf_gpio_cfg                             0x0002aa3b   Thumb Code    50  nrfx_uarte.o(i.nrf_gpio_cfg)
    i.nrf_gpio_cfg                           0x0002aa6c   Section        0  nrfx_spim.o(i.nrf_gpio_cfg)
    nrf_gpio_cfg                             0x0002aa6d   Thumb Code    50  nrfx_spim.o(i.nrf_gpio_cfg)
    i.nrf_gpio_cfg_input                     0x0002aa9e   Section        0  nrfx_uart.o(i.nrf_gpio_cfg_input)
    nrf_gpio_cfg_input                       0x0002aa9f   Thumb Code    18  nrfx_uart.o(i.nrf_gpio_cfg_input)
    i.nrf_gpio_cfg_input                     0x0002aab0   Section        0  nrfx_uarte.o(i.nrf_gpio_cfg_input)
    nrf_gpio_cfg_input                       0x0002aab1   Thumb Code    18  nrfx_uarte.o(i.nrf_gpio_cfg_input)
    i.nrf_gpio_cfg_output                    0x0002aac2   Section        0  nrfx_uart.o(i.nrf_gpio_cfg_output)
    nrf_gpio_cfg_output                      0x0002aac3   Thumb Code    20  nrfx_uart.o(i.nrf_gpio_cfg_output)
    i.nrf_gpio_cfg_output                    0x0002aad6   Section        0  nrfx_uarte.o(i.nrf_gpio_cfg_output)
    nrf_gpio_cfg_output                      0x0002aad7   Thumb Code    20  nrfx_uarte.o(i.nrf_gpio_cfg_output)
    i.nrf_gpio_cfg_output                    0x0002aaea   Section        0  nrfx_spim.o(i.nrf_gpio_cfg_output)
    nrf_gpio_cfg_output                      0x0002aaeb   Thumb Code    20  nrfx_spim.o(i.nrf_gpio_cfg_output)
    i.nrf_gpio_cfg_sense_set                 0x0002aafe   Section        0  nrfx_gpiote.o(i.nrf_gpio_cfg_sense_set)
    nrf_gpio_cfg_sense_set                   0x0002aaff   Thumb Code    48  nrfx_gpiote.o(i.nrf_gpio_cfg_sense_set)
    i.nrf_gpio_latches_read_and_clear        0x0002ab30   Section        0  nrfx_gpiote.o(i.nrf_gpio_latches_read_and_clear)
    nrf_gpio_latches_read_and_clear          0x0002ab31   Thumb Code    42  nrfx_gpiote.o(i.nrf_gpio_latches_read_and_clear)
    i.nrf_gpio_pin_clear                     0x0002ab60   Section        0  nrfx_spim.o(i.nrf_gpio_pin_clear)
    nrf_gpio_pin_clear                       0x0002ab61   Thumb Code    20  nrfx_spim.o(i.nrf_gpio_pin_clear)
    i.nrf_gpio_pin_port_decode               0x0002ab74   Section        0  boards.o(i.nrf_gpio_pin_port_decode)
    nrf_gpio_pin_port_decode                 0x0002ab75   Thumb Code    22  boards.o(i.nrf_gpio_pin_port_decode)
    i.nrf_gpio_pin_port_decode               0x0002ab90   Section        0  nrfx_gpiote.o(i.nrf_gpio_pin_port_decode)
    nrf_gpio_pin_port_decode                 0x0002ab91   Thumb Code    22  nrfx_gpiote.o(i.nrf_gpio_pin_port_decode)
    i.nrf_gpio_pin_port_decode               0x0002abac   Section        0  nrfx_uart.o(i.nrf_gpio_pin_port_decode)
    nrf_gpio_pin_port_decode                 0x0002abad   Thumb Code    22  nrfx_uart.o(i.nrf_gpio_pin_port_decode)
    i.nrf_gpio_pin_port_decode               0x0002abc8   Section        0  nrfx_uarte.o(i.nrf_gpio_pin_port_decode)
    nrf_gpio_pin_port_decode                 0x0002abc9   Thumb Code    22  nrfx_uarte.o(i.nrf_gpio_pin_port_decode)
    i.nrf_gpio_pin_port_decode               0x0002abe4   Section        0  nrfx_spim.o(i.nrf_gpio_pin_port_decode)
    nrf_gpio_pin_port_decode                 0x0002abe5   Thumb Code    22  nrfx_spim.o(i.nrf_gpio_pin_port_decode)
    i.nrf_gpio_pin_port_decode               0x0002ac00   Section        0  w25q128.o(i.nrf_gpio_pin_port_decode)
    nrf_gpio_pin_port_decode                 0x0002ac01   Thumb Code    22  w25q128.o(i.nrf_gpio_pin_port_decode)
    i.nrf_gpio_pin_set                       0x0002ac1c   Section        0  nrfx_uart.o(i.nrf_gpio_pin_set)
    nrf_gpio_pin_set                         0x0002ac1d   Thumb Code    20  nrfx_uart.o(i.nrf_gpio_pin_set)
    i.nrf_gpio_pin_set                       0x0002ac30   Section        0  nrfx_uarte.o(i.nrf_gpio_pin_set)
    nrf_gpio_pin_set                         0x0002ac31   Thumb Code    20  nrfx_uarte.o(i.nrf_gpio_pin_set)
    i.nrf_gpio_pin_set                       0x0002ac44   Section        0  nrfx_spim.o(i.nrf_gpio_pin_set)
    nrf_gpio_pin_set                         0x0002ac45   Thumb Code    20  nrfx_spim.o(i.nrf_gpio_pin_set)
    i.nrf_gpio_pin_set                       0x0002ac58   Section        0  w25q128.o(i.nrf_gpio_pin_set)
    nrf_gpio_pin_set                         0x0002ac59   Thumb Code    20  w25q128.o(i.nrf_gpio_pin_set)
    i.nrf_gpio_pin_write                     0x0002ac6c   Section        0  boards.o(i.nrf_gpio_pin_write)
    nrf_gpio_pin_write                       0x0002ac6d   Thumb Code    38  boards.o(i.nrf_gpio_pin_write)
    i.nrf_gpiote_event_clear                 0x0002ac94   Section        0  nrfx_gpiote.o(i.nrf_gpiote_event_clear)
    nrf_gpiote_event_clear                   0x0002ac95   Thumb Code    16  nrfx_gpiote.o(i.nrf_gpiote_event_clear)
    i.nrf_gpiote_event_is_set                0x0002aca8   Section        0  nrfx_gpiote.o(i.nrf_gpiote_event_is_set)
    nrf_gpiote_event_is_set                  0x0002aca9   Thumb Code    12  nrfx_gpiote.o(i.nrf_gpiote_event_is_set)
    i.nrf_log_backend_add                    0x0002acb8   Section        0  nrf_log_frontend.o(i.nrf_log_backend_add)
    i.nrf_log_backend_rtt_flush              0x0002ad14   Section        0  nrf_log_backend_rtt.o(i.nrf_log_backend_rtt_flush)
    nrf_log_backend_rtt_flush                0x0002ad15   Thumb Code     2  nrf_log_backend_rtt.o(i.nrf_log_backend_rtt_flush)
    i.nrf_log_backend_rtt_init               0x0002ad16   Section        0  nrf_log_backend_rtt.o(i.nrf_log_backend_rtt_init)
    i.nrf_log_backend_rtt_panic_set          0x0002ad1a   Section        0  nrf_log_backend_rtt.o(i.nrf_log_backend_rtt_panic_set)
    nrf_log_backend_rtt_panic_set            0x0002ad1b   Thumb Code     2  nrf_log_backend_rtt.o(i.nrf_log_backend_rtt_panic_set)
    i.nrf_log_backend_rtt_put                0x0002ad1c   Section        0  nrf_log_backend_rtt.o(i.nrf_log_backend_rtt_put)
    nrf_log_backend_rtt_put                  0x0002ad1d   Thumb Code    16  nrf_log_backend_rtt.o(i.nrf_log_backend_rtt_put)
    i.nrf_log_backend_serial_put             0x0002ad34   Section        0  nrf_log_backend_serial.o(i.nrf_log_backend_serial_put)
    i.nrf_log_color_id_get                   0x0002adf8   Section        0  nrf_log_frontend.o(i.nrf_log_color_id_get)
    i.nrf_log_default_backends_init          0x0002ae28   Section        0  nrf_log_default_backends.o(i.nrf_log_default_backends_init)
    i.nrf_log_frontend_dequeue               0x0002ae44   Section        0  nrf_log_frontend.o(i.nrf_log_frontend_dequeue)
    i.nrf_log_frontend_std_0                 0x0002b078   Section        0  nrf_log_frontend.o(i.nrf_log_frontend_std_0)
    i.nrf_log_frontend_std_1                 0x0002b080   Section        0  nrf_log_frontend.o(i.nrf_log_frontend_std_1)
    i.nrf_log_frontend_std_2                 0x0002b08e   Section        0  nrf_log_frontend.o(i.nrf_log_frontend_std_2)
    i.nrf_log_hexdump_entry_process          0x0002b0a0   Section        0  nrf_log_str_formatter.o(i.nrf_log_hexdump_entry_process)
    i.nrf_log_init                           0x0002b150   Section        0  nrf_log_frontend.o(i.nrf_log_init)
    i.nrf_log_module_cnt_get                 0x0002b178   Section        0  nrf_log_frontend.o(i.nrf_log_module_cnt_get)
    i.nrf_log_module_name_get                0x0002b18c   Section        0  nrf_log_frontend.o(i.nrf_log_module_name_get)
    i.nrf_log_panic                          0x0002b1a8   Section        0  nrf_log_frontend.o(i.nrf_log_panic)
    i.nrf_log_std_entry_process              0x0002b1d0   Section        0  nrf_log_str_formatter.o(i.nrf_log_std_entry_process)
    i.nrf_memobj_alloc                       0x0002b286   Section        0  nrf_memobj.o(i.nrf_memobj_alloc)
    i.nrf_memobj_free                        0x0002b2e6   Section        0  nrf_memobj.o(i.nrf_memobj_free)
    i.nrf_memobj_get                         0x0002b318   Section        0  nrf_memobj.o(i.nrf_memobj_get)
    i.nrf_memobj_pool_init                   0x0002b320   Section        0  nrf_memobj.o(i.nrf_memobj_pool_init)
    i.nrf_memobj_put                         0x0002b324   Section        0  nrf_memobj.o(i.nrf_memobj_put)
    i.nrf_memobj_read                        0x0002b342   Section        0  nrf_memobj.o(i.nrf_memobj_read)
    i.nrf_memobj_write                       0x0002b352   Section        0  nrf_memobj.o(i.nrf_memobj_write)
    i.nrf_pwr_mgmt_init                      0x0002b364   Section        0  nrf_pwr_mgmt.o(i.nrf_pwr_mgmt_init)
    i.nrf_pwr_mgmt_run                       0x0002b38c   Section        0  nrf_pwr_mgmt.o(i.nrf_pwr_mgmt_run)
    i.nrf_pwr_mgmt_shutdown                  0x0002b3d0   Section        0  nrf_pwr_mgmt.o(i.nrf_pwr_mgmt_shutdown)
    i.nrf_qwr_error_handler                  0x0002b40c   Section        0  main.o(i.nrf_qwr_error_handler)
    nrf_qwr_error_handler                    0x0002b40d   Thumb Code     4  main.o(i.nrf_qwr_error_handler)
    i.nrf_ringbuf_init                       0x0002b410   Section        0  nrf_ringbuf.o(i.nrf_ringbuf_init)
    i.nrf_rtc_event_clear                    0x0002b42c   Section        0  port_cmsis_systick.o(i.nrf_rtc_event_clear)
    nrf_rtc_event_clear                      0x0002b42d   Thumb Code    12  port_cmsis_systick.o(i.nrf_rtc_event_clear)
    i.nrf_sdh_ble_app_ram_start_get          0x0002b438   Section        0  nrf_sdh_ble.o(i.nrf_sdh_ble_app_ram_start_get)
    i.nrf_sdh_ble_default_cfg_set            0x0002b44c   Section        0  nrf_sdh_ble.o(i.nrf_sdh_ble_default_cfg_set)
    i.nrf_sdh_ble_enable                     0x0002b580   Section        0  nrf_sdh_ble.o(i.nrf_sdh_ble_enable)
    i.nrf_sdh_ble_evts_poll                  0x0002b6b0   Section        0  nrf_sdh_ble.o(i.nrf_sdh_ble_evts_poll)
    nrf_sdh_ble_evts_poll                    0x0002b6b1   Thumb Code    88  nrf_sdh_ble.o(i.nrf_sdh_ble_evts_poll)
    i.nrf_sdh_enable_request                 0x0002b710   Section        0  nrf_sdh.o(i.nrf_sdh_enable_request)
    i.nrf_sdh_evts_poll                      0x0002b784   Section        0  nrf_sdh.o(i.nrf_sdh_evts_poll)
    i.nrf_sdh_is_enabled                     0x0002b7a8   Section        0  nrf_sdh.o(i.nrf_sdh_is_enabled)
    i.nrf_sdh_soc_evts_poll                  0x0002b7b4   Section        0  nrf_sdh_soc.o(i.nrf_sdh_soc_evts_poll)
    nrf_sdh_soc_evts_poll                    0x0002b7b5   Thumb Code    56  nrf_sdh_soc.o(i.nrf_sdh_soc_evts_poll)
    i.nrf_section_iter_init                  0x0002b7f0   Section        0  nrf_section_iter.o(i.nrf_section_iter_init)
    i.nrf_section_iter_item_set              0x0002b7fa   Section        0  nrf_section_iter.o(i.nrf_section_iter_item_set)
    nrf_section_iter_item_set                0x0002b7fb   Thumb Code    36  nrf_section_iter.o(i.nrf_section_iter_item_set)
    i.nrf_section_iter_next                  0x0002b81e   Section        0  nrf_section_iter.o(i.nrf_section_iter_next)
    i.nrf_spim_event_check                   0x0002b83e   Section        0  nrfx_spim.o(i.nrf_spim_event_check)
    nrf_spim_event_check                     0x0002b83f   Thumb Code    10  nrfx_spim.o(i.nrf_spim_event_check)
    i.nrf_strerror_find                      0x0002b848   Section        0  nrf_strerror.o(i.nrf_strerror_find)
    i.nrf_strerror_get                       0x0002b880   Section        0  nrf_strerror.o(i.nrf_strerror_get)
    i.nrf_uart_event_check                   0x0002b894   Section        0  nrfx_uart.o(i.nrf_uart_event_check)
    nrf_uart_event_check                     0x0002b895   Thumb Code    10  nrfx_uart.o(i.nrf_uart_event_check)
    i.nrf_uart_event_clear                   0x0002b89e   Section        0  nrfx_uart.o(i.nrf_uart_event_clear)
    nrf_uart_event_clear                     0x0002b89f   Thumb Code    12  nrfx_uart.o(i.nrf_uart_event_clear)
    i.nrf_uart_int_enable_check              0x0002b8aa   Section        0  nrfx_uart.o(i.nrf_uart_int_enable_check)
    nrf_uart_int_enable_check                0x0002b8ab   Thumb Code    12  nrfx_uart.o(i.nrf_uart_int_enable_check)
    i.nrf_uarte_event_check                  0x0002b8b6   Section        0  nrfx_uarte.o(i.nrf_uarte_event_check)
    nrf_uarte_event_check                    0x0002b8b7   Thumb Code    10  nrfx_uarte.o(i.nrf_uarte_event_check)
    i.nrf_uarte_event_clear                  0x0002b8c0   Section        0  nrfx_uarte.o(i.nrf_uarte_event_clear)
    nrf_uarte_event_clear                    0x0002b8c1   Thumb Code    12  nrfx_uarte.o(i.nrf_uarte_event_clear)
    i.nrf_wdt_started                        0x0002b8cc   Section        0  nrf_drv_clock.o(i.nrf_wdt_started)
    nrf_wdt_started                          0x0002b8cd   Thumb Code    12  nrf_drv_clock.o(i.nrf_wdt_started)
    i.nrfx_clock_enable                      0x0002b8dc   Section        0  nrfx_clock.o(i.nrfx_clock_enable)
    i.nrfx_clock_init                        0x0002b908   Section        0  nrfx_clock.o(i.nrfx_clock_init)
    i.nrfx_clock_lfclk_start                 0x0002b928   Section        0  nrfx_clock.o(i.nrfx_clock_lfclk_start)
    i.nrfx_clock_lfclk_stop                  0x0002b948   Section        0  nrfx_clock.o(i.nrfx_clock_lfclk_stop)
    i.nrfx_is_in_ram                         0x0002b978   Section        0  nrfx_uarte.o(i.nrfx_is_in_ram)
    nrfx_is_in_ram                           0x0002b979   Thumb Code    16  nrfx_uarte.o(i.nrfx_is_in_ram)
    i.nrfx_prs_acquire                       0x0002b988   Section        0  nrfx_prs.o(i.nrfx_prs_acquire)
    i.nrfx_spim_init                         0x0002b9c4   Section        0  nrfx_spim.o(i.nrfx_spim_init)
    i.nrfx_uart_0_irq_handler                0x0002bb30   Section        0  nrfx_uart.o(i.nrfx_uart_0_irq_handler)
    i.nrfx_uart_init                         0x0002bb40   Section        0  nrfx_uart.o(i.nrfx_uart_init)
    i.nrfx_uart_rx                           0x0002bc14   Section        0  nrfx_uart.o(i.nrfx_uart_rx)
    i.nrfx_uart_tx                           0x0002bd00   Section        0  nrfx_uart.o(i.nrfx_uart_tx)
    i.nrfx_uart_tx_in_progress               0x0002bda8   Section        0  nrfx_uart.o(i.nrfx_uart_tx_in_progress)
    i.nrfx_uarte_0_irq_handler               0x0002bdc8   Section        0  nrfx_uarte.o(i.nrfx_uarte_0_irq_handler)
    i.nrfx_uarte_init                        0x0002bdd8   Section        0  nrfx_uarte.o(i.nrfx_uarte_init)
    i.nrfx_uarte_rx                          0x0002be44   Section        0  nrfx_uarte.o(i.nrfx_uarte_rx)
    i.nrfx_uarte_tx                          0x0002bf48   Section        0  nrfx_uarte.o(i.nrfx_uarte_tx)
    i.nrfx_uarte_tx_in_progress              0x0002bff4   Section        0  nrfx_uarte.o(i.nrfx_uarte_tx_in_progress)
    i.nus_data_handler                       0x0002c010   Section        0  main.o(i.nus_data_handler)
    nus_data_handler                         0x0002c011   Thumb Code    98  main.o(i.nus_data_handler)
    i.nvmc_config                            0x0002c0a8   Section        0  system_nrf52.o(i.nvmc_config)
    i.on_adv_evt                             0x0002c0c0   Section        0  main.o(i.on_adv_evt)
    on_adv_evt                               0x0002c0c1   Thumb Code    10  main.o(i.on_adv_evt)
    i.on_conn_params_evt                     0x0002c0cc   Section        0  main.o(i.on_conn_params_evt)
    on_conn_params_evt                       0x0002c0cd   Thumb Code    24  main.o(i.on_conn_params_evt)
    i.on_connect                             0x0002c0e8   Section        0  ble_nus.o(i.on_connect)
    on_connect                               0x0002c0e9   Thumb Code   106  ble_nus.o(i.on_connect)
    i.on_connected_evt                       0x0002c154   Section        0  nrf_ble_gatt.o(i.on_connected_evt)
    on_connected_evt                         0x0002c155   Thumb Code   106  nrf_ble_gatt.o(i.on_connected_evt)
    i.on_ctrlpt_write                        0x0002c1fc   Section        0  ble_dfu.o(i.on_ctrlpt_write)
    on_ctrlpt_write                          0x0002c1fd   Thumb Code   100  ble_dfu.o(i.on_ctrlpt_write)
    i.on_exchange_mtu_request_evt            0x0002c268   Section        0  nrf_ble_gatt.o(i.on_exchange_mtu_request_evt)
    on_exchange_mtu_request_evt              0x0002c269   Thumb Code   110  nrf_ble_gatt.o(i.on_exchange_mtu_request_evt)
    i.on_write                               0x0002c314   Section        0  ble_nus.o(i.on_write)
    on_write                                 0x0002c315   Thumb Code   132  ble_nus.o(i.on_write)
    i.phy_is_valid                           0x0002c398   Section        0  ble_advertising.o(i.phy_is_valid)
    phy_is_valid                             0x0002c399   Thumb Code    22  ble_advertising.o(i.phy_is_valid)
    i.port_event_handle                      0x0002c3b0   Section        0  nrfx_gpiote.o(i.port_event_handle)
    port_event_handle                        0x0002c3b1   Thumb Code   202  nrfx_gpiote.o(i.port_event_handle)
    i.port_handler_polarity_get              0x0002c480   Section        0  nrfx_gpiote.o(i.port_handler_polarity_get)
    port_handler_polarity_get                0x0002c481   Thumb Code    12  nrfx_gpiote.o(i.port_handler_polarity_get)
    i.postfix_process                        0x0002c490   Section        0  nrf_log_str_formatter.o(i.postfix_process)
    postfix_process                          0x0002c491   Thumb Code    48  nrf_log_str_formatter.o(i.postfix_process)
    i.prefix_process                         0x0002c4cc   Section        0  nrf_log_str_formatter.o(i.prefix_process)
    prefix_process                           0x0002c4cd   Thumb Code    90  nrf_log_str_formatter.o(i.prefix_process)
    i.prs_box_get                            0x0002c564   Section        0  nrfx_prs.o(i.prs_box_get)
    prs_box_get                              0x0002c565   Thumb Code    14  nrfx_prs.o(i.prs_box_get)
    i.prvAddCurrentTaskToDelayedList         0x0002c57c   Section        0  tasks.o(i.prvAddCurrentTaskToDelayedList)
    prvAddCurrentTaskToDelayedList           0x0002c57d   Thumb Code   102  tasks.o(i.prvAddCurrentTaskToDelayedList)
    i.prvAddNewTaskToReadyList               0x0002c5ec   Section        0  tasks.o(i.prvAddNewTaskToReadyList)
    prvAddNewTaskToReadyList                 0x0002c5ed   Thumb Code   196  tasks.o(i.prvAddNewTaskToReadyList)
    i.prvCheckForValidListAndQueue           0x0002c6bc   Section        0  timers.o(i.prvCheckForValidListAndQueue)
    prvCheckForValidListAndQueue             0x0002c6bd   Thumb Code    54  timers.o(i.prvCheckForValidListAndQueue)
    i.prvCopyDataFromQueue                   0x0002c6fc   Section        0  queue.o(i.prvCopyDataFromQueue)
    prvCopyDataFromQueue                     0x0002c6fd   Thumb Code    38  queue.o(i.prvCopyDataFromQueue)
    i.prvCopyDataToQueue                     0x0002c722   Section        0  queue.o(i.prvCopyDataToQueue)
    prvCopyDataToQueue                       0x0002c723   Thumb Code   108  queue.o(i.prvCopyDataToQueue)
    i.prvDeleteTCB                           0x0002c78e   Section        0  tasks.o(i.prvDeleteTCB)
    prvDeleteTCB                             0x0002c78f   Thumb Code    20  tasks.o(i.prvDeleteTCB)
    i.prvGetExpectedIdleTime                 0x0002c7a4   Section        0  tasks.o(i.prvGetExpectedIdleTime)
    prvGetExpectedIdleTime                   0x0002c7a5   Thumb Code    42  tasks.o(i.prvGetExpectedIdleTime)
    i.prvHeapInit                            0x0002c7d8   Section        0  heap_4.o(i.prvHeapInit)
    prvHeapInit                              0x0002c7d9   Thumb Code    66  heap_4.o(i.prvHeapInit)
    i.prvIdleTask                            0x0002c824   Section        0  tasks.o(i.prvIdleTask)
    prvIdleTask                              0x0002c825   Thumb Code   108  tasks.o(i.prvIdleTask)
    i.prvInitialiseNewTask                   0x0002c89c   Section        0  tasks.o(i.prvInitialiseNewTask)
    prvInitialiseNewTask                     0x0002c89d   Thumb Code   138  tasks.o(i.prvInitialiseNewTask)
    i.prvInsertBlockIntoFreeList             0x0002c928   Section        0  heap_4.o(i.prvInsertBlockIntoFreeList)
    prvInsertBlockIntoFreeList               0x0002c929   Thumb Code    72  heap_4.o(i.prvInsertBlockIntoFreeList)
    i.prvInsertTimerInActiveList             0x0002c974   Section        0  timers.o(i.prvInsertTimerInActiveList)
    prvInsertTimerInActiveList               0x0002c975   Thumb Code    52  timers.o(i.prvInsertTimerInActiveList)
    i.prvIsQueueEmpty                        0x0002c9ac   Section        0  queue.o(i.prvIsQueueEmpty)
    prvIsQueueEmpty                          0x0002c9ad   Thumb Code    28  queue.o(i.prvIsQueueEmpty)
    i.prvProcessReceivedCommands             0x0002c9c8   Section        0  timers.o(i.prvProcessReceivedCommands)
    prvProcessReceivedCommands               0x0002c9c9   Thumb Code   158  timers.o(i.prvProcessReceivedCommands)
    i.prvProcessTimerOrBlockTask             0x0002ca6c   Section        0  timers.o(i.prvProcessTimerOrBlockTask)
    prvProcessTimerOrBlockTask               0x0002ca6d   Thumb Code   156  timers.o(i.prvProcessTimerOrBlockTask)
    i.prvResetNextTaskUnblockTime            0x0002cb10   Section        0  tasks.o(i.prvResetNextTaskUnblockTime)
    prvResetNextTaskUnblockTime              0x0002cb11   Thumb Code    26  tasks.o(i.prvResetNextTaskUnblockTime)
    i.prvSampleTimeNow                       0x0002cb30   Section        0  timers.o(i.prvSampleTimeNow)
    prvSampleTimeNow                         0x0002cb31   Thumb Code    36  timers.o(i.prvSampleTimeNow)
    i.prvSwitchTimerLists                    0x0002cb58   Section        0  timers.o(i.prvSwitchTimerLists)
    prvSwitchTimerLists                      0x0002cb59   Thumb Code    84  timers.o(i.prvSwitchTimerLists)
    i.prvTaskExitError                       0x0002cbb0   Section        0  port_cmsis.o(i.prvTaskExitError)
    prvTaskExitError                         0x0002cbb1   Thumb Code     8  port_cmsis.o(i.prvTaskExitError)
    i.prvTimerTask                           0x0002cbb8   Section        0  timers.o(i.prvTimerTask)
    prvTimerTask                             0x0002cbb9   Thumb Code    32  timers.o(i.prvTimerTask)
    i.prvUnlockQueue                         0x0002cbdc   Section        0  queue.o(i.prvUnlockQueue)
    prvUnlockQueue                           0x0002cbdd   Thumb Code   106  queue.o(i.prvUnlockQueue)
    i.pvPortMalloc                           0x0002cc48   Section        0  heap_4.o(i.pvPortMalloc)
    i.pvTimerGetTimerID                      0x0002ccec   Section        0  timers.o(i.pvTimerGetTimerID)
    i.pxPortInitialiseStack                  0x0002cd00   Section        0  port_cmsis.o(i.pxPortInitialiseStack)
    i.rx_byte                                0x0002cd2c   Section        0  nrfx_uart.o(i.rx_byte)
    rx_byte                                  0x0002cd2d   Thumb Code    50  nrfx_uart.o(i.rx_byte)
    i.rx_done_event                          0x0002cd5e   Section        0  nrfx_uart.o(i.rx_done_event)
    rx_done_event                            0x0002cd5f   Thumb Code    22  nrfx_uart.o(i.rx_done_event)
    i.rx_done_event                          0x0002cd74   Section        0  nrfx_uarte.o(i.rx_done_event)
    rx_done_event                            0x0002cd75   Thumb Code    22  nrfx_uarte.o(i.rx_done_event)
    i.rx_enable                              0x0002cd8a   Section        0  nrfx_uart.o(i.rx_enable)
    rx_enable                                0x0002cd8b   Thumb Code    32  nrfx_uart.o(i.rx_enable)
    i.sd_state_evt_handler                   0x0002cdac   Section        0  nrf_drv_clock.o(i.sd_state_evt_handler)
    sd_state_evt_handler                     0x0002cdad   Thumb Code    84  nrf_drv_clock.o(i.sd_state_evt_handler)
    i.sdh_request_observer_notify            0x0002ce04   Section        0  nrf_sdh.o(i.sdh_request_observer_notify)
    sdh_request_observer_notify              0x0002ce05   Thumb Code    44  nrf_sdh.o(i.sdh_request_observer_notify)
    i.sdh_state_observer_notify              0x0002ce34   Section        0  nrf_sdh.o(i.sdh_state_observer_notify)
    sdh_state_observer_notify                0x0002ce35   Thumb Code    38  nrf_sdh.o(i.sdh_state_observer_notify)
    i.send_error_evt                         0x0002ce60   Section        0  ble_conn_params.o(i.send_error_evt)
    send_error_evt                           0x0002ce61   Thumb Code    12  ble_conn_params.o(i.send_error_evt)
    i.serial_tx                              0x0002ce70   Section        0  nrf_log_backend_rtt.o(i.serial_tx)
    serial_tx                                0x0002ce71   Thumb Code    70  nrf_log_backend_rtt.o(i.serial_tx)
    i.service_data_encode                    0x0002cec0   Section        0  ble_advdata.o(i.service_data_encode)
    service_data_encode                      0x0002cec1   Thumb Code   136  ble_advdata.o(i.service_data_encode)
    i.set_security_req                       0x0002cf48   Section        0  ble_srv_common.o(i.set_security_req)
    set_security_req                         0x0002cf49   Thumb Code    48  ble_srv_common.o(i.set_security_req)
    i.shutdown_process                       0x0002cf78   Section        0  nrf_pwr_mgmt.o(i.shutdown_process)
    shutdown_process                         0x0002cf79   Thumb Code   104  nrf_pwr_mgmt.o(i.shutdown_process)
    i.sleep_mode_enter                       0x0002cff4   Section        0  main.o(i.sleep_mode_enter)
    sleep_mode_enter                         0x0002cff5   Thumb Code    40  main.o(i.sleep_mode_enter)
    i.soc_evt_handler                        0x0002d01c   Section        0  nrf_drv_clock.o(i.soc_evt_handler)
    soc_evt_handler                          0x0002d01d   Thumb Code    18  nrf_drv_clock.o(i.soc_evt_handler)
    i.softdevices_evt_irq_enable             0x0002d034   Section        0  nrf_sdh.o(i.softdevices_evt_irq_enable)
    softdevices_evt_irq_enable               0x0002d035   Thumb Code    80  nrf_sdh.o(i.softdevices_evt_irq_enable)
    i.spim_evt_handler                       0x0002d08c   Section        0  nrf_drv_spi.o(i.spim_evt_handler)
    spim_evt_handler                         0x0002d08d   Thumb Code    52  nrf_drv_spi.o(i.spim_evt_handler)
    i.std_n                                  0x0002d0c4   Section        0  nrf_log_frontend.o(i.std_n)
    std_n                                    0x0002d0c5   Thumb Code   140  nrf_log_frontend.o(i.std_n)
    i.sys_task_handler                       0x0002d158   Section        0  sys_mng.o(i.sys_task_handler)
    i.task_Message_Send                      0x0002d1dc   Section        0  sys_mng.o(i.task_Message_Send)
    i.task_Message_SendFromISR               0x0002d1f8   Section        0  sys_mng.o(i.task_Message_SendFromISR)
    i.tasks_init                             0x0002d214   Section        0  sys_mng.o(i.tasks_init)
    i.timer_1hz_handler                      0x0002d24c   Section        0  sys_mng.o(i.timer_1hz_handler)
    i.timer_init                             0x0002d260   Section        0  sys_mng.o(i.timer_init)
    i.tx_byte                                0x0002d2b0   Section        0  nrfx_uart.o(i.tx_byte)
    tx_byte                                  0x0002d2b1   Thumb Code    32  nrfx_uart.o(i.tx_byte)
    i.tx_done_event                          0x0002d2d0   Section        0  nrfx_uart.o(i.tx_done_event)
    tx_done_event                            0x0002d2d1   Thumb Code    26  nrfx_uart.o(i.tx_done_event)
    i.tx_done_event                          0x0002d2ea   Section        0  nrfx_uarte.o(i.tx_done_event)
    tx_done_event                            0x0002d2eb   Thumb Code    26  nrfx_uarte.o(i.tx_done_event)
    i.uart_event_handle                      0x0002d304   Section        0  main.o(i.uart_event_handle)
    i.uart_event_handler                     0x0002d368   Section        0  app_uart_fifo.o(i.uart_event_handler)
    uart_event_handler                       0x0002d369   Thumb Code   156  app_uart_fifo.o(i.uart_event_handler)
    i.uart_evt_handler                       0x0002d40c   Section        0  nrf_drv_uart.o(i.uart_evt_handler)
    uart_evt_handler                         0x0002d40d   Thumb Code    42  nrf_drv_uart.o(i.uart_evt_handler)
    i.uart_irq_handler                       0x0002d43c   Section        0  nrfx_uart.o(i.uart_irq_handler)
    uart_irq_handler                         0x0002d43d   Thumb Code   298  nrfx_uart.o(i.uart_irq_handler)
    i.uarte_evt_handler                      0x0002d568   Section        0  nrf_drv_uart.o(i.uarte_evt_handler)
    uarte_evt_handler                        0x0002d569   Thumb Code    42  nrf_drv_uart.o(i.uarte_evt_handler)
    i.uarte_irq_handler                      0x0002d598   Section        0  nrfx_uarte.o(i.uarte_irq_handler)
    uarte_irq_handler                        0x0002d599   Thumb Code   274  nrfx_uarte.o(i.uarte_irq_handler)
    i.uint16_encode                          0x0002d6aa   Section        0  ble_advdata.o(i.uint16_encode)
    uint16_encode                            0x0002d6ab   Thumb Code    10  ble_advdata.o(i.uint16_encode)
    i.ulPortRaiseBASEPRI                     0x0002d6b4   Section        0  queue.o(i.ulPortRaiseBASEPRI)
    ulPortRaiseBASEPRI                       0x0002d6b5   Thumb Code    12  queue.o(i.ulPortRaiseBASEPRI)
    i.unsigned_print                         0x0002d6c0   Section        0  nrf_fprintf_format.o(i.unsigned_print)
    unsigned_print                           0x0002d6c1   Thumb Code   176  nrf_fprintf_format.o(i.unsigned_print)
    i.update_timeout_handler                 0x0002d774   Section        0  ble_conn_params.o(i.update_timeout_handler)
    update_timeout_handler                   0x0002d775   Thumb Code    98  ble_conn_params.o(i.update_timeout_handler)
    i.use_whitelist                          0x0002d7dc   Section        0  ble_advertising.o(i.use_whitelist)
    use_whitelist                            0x0002d7dd   Thumb Code    24  ble_advertising.o(i.use_whitelist)
    i.user_mem_reply                         0x0002d7f4   Section        0  nrf_ble_qwr.o(i.user_mem_reply)
    user_mem_reply                           0x0002d7f5   Thumb Code    36  nrf_ble_qwr.o(i.user_mem_reply)
    i.uuid_list_encode                       0x0002d818   Section        0  ble_advdata.o(i.uuid_list_encode)
    uuid_list_encode                         0x0002d819   Thumb Code    48  ble_advdata.o(i.uuid_list_encode)
    i.uuid_list_sized_encode                 0x0002d848   Section        0  ble_advdata.o(i.uuid_list_sized_encode)
    uuid_list_sized_encode                   0x0002d849   Thumb Code   158  ble_advdata.o(i.uuid_list_sized_encode)
    i.uxListRemove                           0x0002d8e6   Section        0  list.o(i.uxListRemove)
    i.vApplicationMallocFailedHook           0x0002d90c   Section        0  sys_mng.o(i.vApplicationMallocFailedHook)
    i.vApplicationStackOverflowHook          0x0002d90e   Section        0  sys_mng.o(i.vApplicationStackOverflowHook)
    i.vListInitialise                        0x0002d910   Section        0  list.o(i.vListInitialise)
    i.vListInitialiseItem                    0x0002d926   Section        0  list.o(i.vListInitialiseItem)
    i.vListInsert                            0x0002d92c   Section        0  list.o(i.vListInsert)
    i.vListInsertEnd                         0x0002d95c   Section        0  list.o(i.vListInsertEnd)
    i.vPortEnterCritical                     0x0002d974   Section        0  port_cmsis.o(i.vPortEnterCritical)
    i.vPortExitCritical                      0x0002d988   Section        0  port_cmsis.o(i.vPortExitCritical)
    i.vPortFree                              0x0002d99c   Section        0  heap_4.o(i.vPortFree)
    i.vPortSetupTimerInterrupt               0x0002d9dc   Section        0  port_cmsis_systick.o(i.vPortSetupTimerInterrupt)
    i.vPortSuppressTicksAndSleep             0x0002da1c   Section        0  port_cmsis_systick.o(i.vPortSuppressTicksAndSleep)
    i.vQueueWaitForMessageRestricted         0x0002db2c   Section        0  queue.o(i.vQueueWaitForMessageRestricted)
    i.vTaskInternalSetTimeOutState           0x0002db70   Section        0  tasks.o(i.vTaskInternalSetTimeOutState)
    i.vTaskMissedYield                       0x0002db80   Section        0  tasks.o(i.vTaskMissedYield)
    i.vTaskPlaceOnEventList                  0x0002db8c   Section        0  tasks.o(i.vTaskPlaceOnEventList)
    i.vTaskPlaceOnEventListRestricted        0x0002dbac   Section        0  tasks.o(i.vTaskPlaceOnEventListRestricted)
    i.vTaskStartScheduler                    0x0002dbd4   Section        0  tasks.o(i.vTaskStartScheduler)
    i.vTaskStepTick                          0x0002dc24   Section        0  tasks.o(i.vTaskStepTick)
    i.vTaskSuspendAll                        0x0002dc34   Section        0  tasks.o(i.vTaskSuspendAll)
    i.vTaskSwitchContext                     0x0002dc44   Section        0  tasks.o(i.vTaskSwitchContext)
    i.wakeup_button_cfg                      0x0002dca0   Section        0  bsp.o(i.wakeup_button_cfg)
    wakeup_button_cfg                        0x0002dca1   Thumb Code    70  bsp.o(i.wakeup_button_cfg)
    i.xPortStartScheduler                    0x0002dcec   Section        0  port_cmsis.o(i.xPortStartScheduler)
    i.xQueueGenericCreate                    0x0002dd38   Section        0  queue.o(i.xQueueGenericCreate)
    i.xQueueGenericReset                     0x0002dd70   Section        0  queue.o(i.xQueueGenericReset)
    i.xQueueGenericSend                      0x0002dde8   Section        0  queue.o(i.xQueueGenericSend)
    i.xQueueGenericSendFromISR               0x0002dee4   Section        0  queue.o(i.xQueueGenericSendFromISR)
    i.xQueueReceive                          0x0002df48   Section        0  queue.o(i.xQueueReceive)
    i.xTaskCheckForTimeOut                   0x0002e03c   Section        0  tasks.o(i.xTaskCheckForTimeOut)
    i.xTaskCreate                            0x0002e08c   Section        0  tasks.o(i.xTaskCreate)
    i.xTaskGetSchedulerState                 0x0002e0e4   Section        0  tasks.o(i.xTaskGetSchedulerState)
    i.xTaskGetTickCount                      0x0002e100   Section        0  tasks.o(i.xTaskGetTickCount)
    i.xTaskGetTickCountFromISR               0x0002e10c   Section        0  tasks.o(i.xTaskGetTickCountFromISR)
    i.xTaskIncrementTick                     0x0002e118   Section        0  tasks.o(i.xTaskIncrementTick)
    i.xTaskPriorityDisinherit                0x0002e1cc   Section        0  tasks.o(i.xTaskPriorityDisinherit)
    i.xTaskRemoveFromEventList               0x0002e23c   Section        0  tasks.o(i.xTaskRemoveFromEventList)
    i.xTaskResumeAll                         0x0002e2a8   Section        0  tasks.o(i.xTaskResumeAll)
    i.xTimerCreate                           0x0002e35c   Section        0  timers.o(i.xTimerCreate)
    i.xTimerCreateTimerTask                  0x0002e394   Section        0  timers.o(i.xTimerCreateTimerTask)
    i.xTimerGenericCommand                   0x0002e3d0   Section        0  timers.o(i.xTimerGenericCommand)
    .constdata                               0x0002e420   Section       24  main.o(.constdata)
    .constdata                               0x0002e438   Section        8  boards.o(.constdata)
    m_board_led_list                         0x0002e438   Data           4  boards.o(.constdata)
    m_board_btn_list                         0x0002e43c   Data           4  boards.o(.constdata)
    .constdata                               0x0002e440   Section       44  bsp.o(.constdata)
    m_bsp_leds_tmr                           0x0002e440   Data           4  bsp.o(.constdata)
    m_bsp_alert_tmr                          0x0002e444   Data           4  bsp.o(.constdata)
    m_bsp_button_tmr                         0x0002e448   Data           4  bsp.o(.constdata)
    app_buttons                              0x0002e44c   Data          32  bsp.o(.constdata)
    .constdata                               0x0002e46c   Section       22  nrf_ble_gatt.o(.constdata)
    .constdata                               0x0002e484   Section       16  ble_nus.o(.constdata)
    .constdata                               0x0002e494   Section        8  nrfx_gpiote.o(.constdata)
    .constdata                               0x0002e49c   Section        4  nrfx_uart.o(.constdata)
    irq_handlers                             0x0002e49c   Data           4  nrfx_uart.o(.constdata)
    .constdata                               0x0002e4a0   Section        4  nrfx_uarte.o(.constdata)
    irq_handlers                             0x0002e4a0   Data           4  nrfx_uarte.o(.constdata)
    .constdata                               0x0002e4a4   Section       16  nrf_drv_spi.o(.constdata)
    .constdata                               0x0002e4b4   Section        4  nrfx_spim.o(.constdata)
    irq_handlers                             0x0002e4b4   Data           4  nrfx_spim.o(.constdata)
    .constdata                               0x0002e4b8   Section       32  app_uart_fifo.o(.constdata)
    .constdata                               0x0002e4d8   Section       16  nrf_fprintf_format.o(.constdata)
    _aV2C                                    0x0002e4d8   Data          16  nrf_fprintf_format.o(.constdata)
    .constdata                               0x0002e4e8   Section       24  nrf_pwr_mgmt.o(.constdata)
    pwr_mgmt_data_array                      0x0002e4e8   Data          24  nrf_pwr_mgmt.o(.constdata)
    .constdata                               0x0002e500   Section       12  nrf_pwr_mgmt.o(.constdata)
    pwr_mgmt_data                            0x0002e500   Data          12  nrf_pwr_mgmt.o(.constdata)
    .constdata                               0x0002e50c   Section      316  nrf_strerror.o(.constdata)
    m_unknown_str                            0x0002e50c   Data          19  nrf_strerror.o(.constdata)
    nrf_strerror_array                       0x0002e520   Data         296  nrf_strerror.o(.constdata)
    .constdata                               0x0002e648   Section       12  nrf_log_backend_rtt.o(.constdata)
    .constdata                               0x0002e660   Section        6  nrf_log_backend_rtt.o(.constdata)
    delay_machine_code                       0x0002e660   Data           6  nrf_log_backend_rtt.o(.constdata)
    .constdata                               0x0002e668   Section       12  nrf_log_frontend.o(.constdata)
    m_log_push_ringbuf                       0x0002e668   Data          12  nrf_log_frontend.o(.constdata)
    .constdata                               0x0002e674   Section       16  nrf_sdh.o(.constdata)
    sdh_req_observers_array                  0x0002e674   Data          16  nrf_sdh.o(.constdata)
    .constdata                               0x0002e684   Section       40  nrf_sdh.o(.constdata)
    sdh_req_observers                        0x0002e688   Data          12  nrf_sdh.o(.constdata)
    sdh_state_observers                      0x0002e694   Data          12  nrf_sdh.o(.constdata)
    sdh_stack_observers                      0x0002e6a0   Data          12  nrf_sdh.o(.constdata)
    .constdata                               0x0002e6ac   Section       16  nrf_sdh.o(.constdata)
    sdh_state_observers_array                0x0002e6ac   Data          16  nrf_sdh.o(.constdata)
    .constdata                               0x0002e6bc   Section       16  nrf_sdh.o(.constdata)
    sdh_stack_observers_array                0x0002e6bc   Data          16  nrf_sdh.o(.constdata)
    .constdata                               0x0002e6cc   Section       32  nrf_sdh_ble.o(.constdata)
    sdh_ble_observers_array                  0x0002e6cc   Data          32  nrf_sdh_ble.o(.constdata)
    .constdata                               0x0002e6ec   Section       16  nrf_sdh_ble.o(.constdata)
    sdh_ble_observers                        0x0002e6f0   Data          12  nrf_sdh_ble.o(.constdata)
    .constdata                               0x0002e6fc   Section       16  nrf_sdh_soc.o(.constdata)
    sdh_soc_observers_array                  0x0002e6fc   Data          16  nrf_sdh_soc.o(.constdata)
    .constdata                               0x0002e70c   Section       12  nrf_sdh_soc.o(.constdata)
    sdh_soc_observers                        0x0002e70c   Data          12  nrf_sdh_soc.o(.constdata)
    .constdata                               0x0002e718   Section       32  w25q128.o(.constdata)
    spi                                      0x0002e718   Data          16  w25q128.o(.constdata)
    .constdata                               0x0002e738   Section       24  ble_dfu.o(.constdata)
    .constdata                               0x0002e750   Section        4  port_cmsis.o(.constdata)
    <Data1>                                  0x0002e750   Data           4  port_cmsis.o(.constdata)
    .constdata                               0x0002e754   Section      129  ctype_o.o(.constdata)
    .constdata                               0x0002e7d8   Section        4  ctype_o.o(.constdata)
    table                                    0x0002e7d8   Data           4  ctype_o.o(.constdata)
    .conststring                             0x0002e7dc   Section       65  main.o(.conststring)
    .conststring                             0x0002e820   Section      162  nrf_ble_gatt.o(.conststring)
    .conststring                             0x0002e8c4   Section     1003  nrf_strerror.o(.conststring)
    .conststring                             0x0002ecb0   Section      102  nrf_log_str_formatter.o(.conststring)
    .conststring                             0x0002ed18   Section      463  nrf_sdh_ble.o(.conststring)
    .conststring                             0x0002eee8   Section      206  ble_dfu_unbonded.o(.conststring)
    .conststrlit                             0x0002efb8   Section       13  nrf_ble_gatt.o(.conststrlit)
    .conststrlit                             0x0002efc8   Section        8  ble_nus.o(.conststrlit)
    .conststrlit                             0x0002efd0   Section        6  nrf_drv_clock.o(.conststrlit)
    .conststrlit                             0x0002efd8   Section        6  nrfx_clock.o(.conststrlit)
    .conststrlit                             0x0002efe0   Section        7  nrfx_gpiote.o(.conststrlit)
    .conststrlit                             0x0002efe8   Section        4  nrfx_prs.o(.conststrlit)
    .conststrlit                             0x0002efec   Section        5  nrfx_uart.o(.conststrlit)
    .conststrlit                             0x0002eff4   Section        6  nrfx_uarte.o(.conststrlit)
    .conststrlit                             0x0002effc   Section        5  nrfx_spim.o(.conststrlit)
    .conststrlit                             0x0002f004   Section       11  app_button.o(.conststrlit)
    .conststrlit                             0x0002f010   Section        9  nrf_pwr_mgmt.o(.conststrlit)
    .conststrlit                             0x0002f01c   Section        9  nrf_sortlist.o(.conststrlit)
    .conststrlit                             0x0002f028   Section       16  nrf_log_default_backends.o(.conststrlit)
    .conststrlit                             0x0002f038   Section        4  nrf_log_frontend.o(.conststrlit)
    .conststrlit                             0x0002f03c   Section        8  nrf_sdh.o(.conststrlit)
    .conststrlit                             0x0002f044   Section       12  nrf_sdh_ble.o(.conststrlit)
    .conststrlit                             0x0002f050   Section       12  nrf_sdh_soc.o(.conststrlit)
    log_backends                             0x0002f07c   Section       16  nrf_log_default_backends.o(log_backends)
    __tagsym$$used                           0x0002f07c   Number         0  nrf_log_default_backends.o(log_backends)
    rtt_log_backend                          0x0002f07c   Data          16  nrf_log_default_backends.o(log_backends)
    log_const_data                           0x0002f08c   Section        8  nrf_ble_gatt.o(log_const_data)
    __tagsym$$used                           0x0002f08c   Number         0  nrf_ble_gatt.o(log_const_data)
    log_const_data                           0x0002f094   Section        8  ble_nus.o(log_const_data)
    __tagsym$$used                           0x0002f094   Number         0  ble_nus.o(log_const_data)
    log_const_data                           0x0002f09c   Section        8  nrf_drv_clock.o(log_const_data)
    __tagsym$$used                           0x0002f09c   Number         0  nrf_drv_clock.o(log_const_data)
    log_const_data                           0x0002f0a4   Section        8  nrfx_clock.o(log_const_data)
    __tagsym$$used                           0x0002f0a4   Number         0  nrfx_clock.o(log_const_data)
    log_const_data                           0x0002f0ac   Section        8  nrfx_gpiote.o(log_const_data)
    __tagsym$$used                           0x0002f0ac   Number         0  nrfx_gpiote.o(log_const_data)
    log_const_data                           0x0002f0b4   Section        8  nrfx_prs.o(log_const_data)
    __tagsym$$used                           0x0002f0b4   Number         0  nrfx_prs.o(log_const_data)
    log_const_data                           0x0002f0bc   Section        8  nrfx_uart.o(log_const_data)
    __tagsym$$used                           0x0002f0bc   Number         0  nrfx_uart.o(log_const_data)
    log_const_data                           0x0002f0c4   Section        8  nrfx_uarte.o(log_const_data)
    __tagsym$$used                           0x0002f0c4   Number         0  nrfx_uarte.o(log_const_data)
    log_const_data                           0x0002f0cc   Section        8  nrfx_spim.o(log_const_data)
    __tagsym$$used                           0x0002f0cc   Number         0  nrfx_spim.o(log_const_data)
    log_const_data                           0x0002f0d4   Section        8  app_button.o(log_const_data)
    __tagsym$$used                           0x0002f0d4   Number         0  app_button.o(log_const_data)
    log_const_data                           0x0002f0dc   Section        8  nrf_pwr_mgmt.o(log_const_data)
    __tagsym$$used                           0x0002f0dc   Number         0  nrf_pwr_mgmt.o(log_const_data)
    log_const_data                           0x0002f0e4   Section        8  nrf_sortlist.o(log_const_data)
    __tagsym$$used                           0x0002f0e4   Number         0  nrf_sortlist.o(log_const_data)
    log_const_data                           0x0002f0ec   Section        8  nrf_log_frontend.o(log_const_data)
    __tagsym$$used                           0x0002f0ec   Number         0  nrf_log_frontend.o(log_const_data)
    log_const_data                           0x0002f0f4   Section        8  nrf_sdh.o(log_const_data)
    __tagsym$$used                           0x0002f0f4   Number         0  nrf_sdh.o(log_const_data)
    log_const_data                           0x0002f0fc   Section        8  nrf_sdh_ble.o(log_const_data)
    __tagsym$$used                           0x0002f0fc   Number         0  nrf_sdh_ble.o(log_const_data)
    log_const_data                           0x0002f104   Section        8  nrf_sdh_soc.o(log_const_data)
    __tagsym$$used                           0x0002f104   Number         0  nrf_sdh_soc.o(log_const_data)
    nrf_balloc                               0x0002f10c   Section       20  nrf_log_frontend.o(nrf_balloc)
    __tagsym$$used                           0x0002f10c   Number         0  nrf_log_frontend.o(nrf_balloc)
    pwr_mgmt_data0                           0x0002f120   Section        4  main.o(pwr_mgmt_data0)
    __tagsym$$used                           0x0002f120   Number         0  main.o(pwr_mgmt_data0)
    app_shutdown_handler_handler_function    0x0002f120   Data           4  main.o(pwr_mgmt_data0)
    sdh_ble_observers0                       0x0002f124   Section        8  ble_conn_state.o(sdh_ble_observers0)
    __tagsym$$used                           0x0002f124   Number         0  ble_conn_state.o(sdh_ble_observers0)
    m_ble_evt_observer                       0x0002f124   Data           8  ble_conn_state.o(sdh_ble_observers0)
    sdh_ble_observers1                       0x0002f12c   Section       16  main.o(sdh_ble_observers1)
    __tagsym$$used                           0x0002f12c   Number         0  main.o(sdh_ble_observers1)
    m_gatt_obs                               0x0002f12c   Data           8  main.o(sdh_ble_observers1)
    __tagsym$$used                           0x0002f134   Number         0  main.o(sdh_ble_observers1)
    m_advertising_ble_obs                    0x0002f134   Data           8  main.o(sdh_ble_observers1)
    sdh_ble_observers1                       0x0002f13c   Section        8  bsp_btn_ble.o(sdh_ble_observers1)
    __tagsym$$used                           0x0002f13c   Number         0  bsp_btn_ble.o(sdh_ble_observers1)
    m_ble_observer                           0x0002f13c   Data           8  bsp_btn_ble.o(sdh_ble_observers1)
    sdh_ble_observers1                       0x0002f144   Section        8  ble_conn_params.o(sdh_ble_observers1)
    __tagsym$$used                           0x0002f144   Number         0  ble_conn_params.o(sdh_ble_observers1)
    m_ble_observer                           0x0002f144   Data           8  ble_conn_params.o(sdh_ble_observers1)
    sdh_ble_observers2                       0x0002f14c   Section       16  main.o(sdh_ble_observers2)
    __tagsym$$used                           0x0002f14c   Number         0  main.o(sdh_ble_observers2)
    m_nus_obs                                0x0002f14c   Data           8  main.o(sdh_ble_observers2)
    __tagsym$$used                           0x0002f154   Number         0  main.o(sdh_ble_observers2)
    m_qwr_obs                                0x0002f154   Data           8  main.o(sdh_ble_observers2)
    sdh_ble_observers2                       0x0002f15c   Section        8  ble_dfu.o(sdh_ble_observers2)
    __tagsym$$used                           0x0002f15c   Number         0  ble_dfu.o(sdh_ble_observers2)
    m_dfus_obs                               0x0002f15c   Data           8  ble_dfu.o(sdh_ble_observers2)
    sdh_ble_observers3                       0x0002f164   Section        8  main.o(sdh_ble_observers3)
    __tagsym$$used                           0x0002f164   Number         0  main.o(sdh_ble_observers3)
    m_ble_observer                           0x0002f164   Data           8  main.o(sdh_ble_observers3)
    sdh_soc_observers0                       0x0002f16c   Section        8  nrf_drv_clock.o(sdh_soc_observers0)
    __tagsym$$used                           0x0002f16c   Number         0  nrf_drv_clock.o(sdh_soc_observers0)
    m_soc_evt_observer                       0x0002f16c   Data           8  nrf_drv_clock.o(sdh_soc_observers0)
    sdh_soc_observers1                       0x0002f174   Section        8  ble_dfu_unbonded.o(sdh_soc_observers1)
    __tagsym$$used                           0x0002f174   Number         0  ble_dfu_unbonded.o(sdh_soc_observers1)
    m_dfu_buttonless_soc_obs                 0x0002f174   Data           8  ble_dfu_unbonded.o(sdh_soc_observers1)
    sdh_stack_observers0                     0x0002f17c   Section        8  nrf_sdh_ble.o(sdh_stack_observers0)
    __tagsym$$used                           0x0002f17c   Number         0  nrf_sdh_ble.o(sdh_stack_observers0)
    m_nrf_sdh_ble_evts_poll                  0x0002f17c   Data           8  nrf_sdh_ble.o(sdh_stack_observers0)
    sdh_stack_observers0                     0x0002f184   Section        8  nrf_sdh_soc.o(sdh_stack_observers0)
    __tagsym$$used                           0x0002f184   Number         0  nrf_sdh_soc.o(sdh_stack_observers0)
    m_nrf_sdh_soc_evts_poll                  0x0002f184   Data           8  nrf_sdh_soc.o(sdh_stack_observers0)
    sdh_state_observers0                     0x0002f18c   Section        8  main.o(sdh_state_observers0)
    __tagsym$$used                           0x0002f18c   Number         0  main.o(sdh_state_observers0)
    m_buttonless_dfu_state_obs               0x0002f18c   Data           8  main.o(sdh_state_observers0)
    sdh_state_observers0                     0x0002f194   Section        8  nrf_drv_clock.o(sdh_state_observers0)
    __tagsym$$used                           0x0002f194   Number         0  nrf_drv_clock.o(sdh_state_observers0)
    m_sd_state_observer                      0x0002f194   Data           8  nrf_drv_clock.o(sdh_state_observers0)
    .data                                    0x20002af8   Section        8  main.o(.data)
    m_nus_link_ctx_storage                   0x20002af8   Data           8  main.o(.data)
    .data                                    0x20002b00   Section       40  main.o(.data)
    index                                    0x20002b00   Data           1  main.o(.data)
    m_conn_handle                            0x20002b02   Data           2  main.o(.data)
    m_ble_nus_max_data_len                   0x20002b04   Data           2  main.o(.data)
    m_adv_uuids                              0x20002b06   Data           4  main.o(.data)
    m_nus                                    0x20002b0c   Data          28  main.o(.data)
    .data                                    0x20002b28   Section        4  main.o(.data)
    m_nus_link_ctx_storage_ctx_data_pool     0x20002b28   Data           4  main.o(.data)
    .data                                    0x20002b2c   Section       36  bsp.o(.data)
    m_stable_state                           0x20002b2c   Data           1  bsp.o(.data)
    m_leds_clear                             0x20002b2d   Data           1  bsp.o(.data)
    m_alert_on                               0x20002b2e   Data           1  bsp.o(.data)
    g_u8bsp_button_tmr_cnt                   0x20002b2f   Data           1  bsp.o(.data)
    current_long_push_pin_no                 0x20002b30   Data           1  bsp.o(.data)
    m_indication_type                        0x20002b34   Data           4  bsp.o(.data)
    m_registered_callback                    0x20002b38   Data           4  bsp.o(.data)
    release_event_at_push                    0x20002b3c   Data           4  bsp.o(.data)
    m_events_list                            0x20002b40   Data          16  bsp.o(.data)
    .data                                    0x20002b50   Section        8  bsp_btn_ble.o(.data)
    m_error_handler                          0x20002b50   Data           4  bsp_btn_ble.o(.data)
    m_num_connections                        0x20002b54   Data           4  bsp_btn_ble.o(.data)
    .data                                    0x20002b58   Section        8  ble_conn_params.o(.data)
    m_preferred_conn_params                  0x20002b58   Data           8  ble_conn_params.o(.data)
    .data                                    0x20002b60   Section       20  nrf_drv_uart.o(.data)
    m_handlers                               0x20002b64   Data           8  nrf_drv_uart.o(.data)
    m_contexts                               0x20002b6c   Data           8  nrf_drv_uart.o(.data)
    .data                                    0x20002b74   Section        8  nrfx_clock.o(.data)
    m_clock_cb                               0x20002b74   Data           8  nrfx_clock.o(.data)
    .data                                    0x20002b7c   Section        8  nrfx_prs.o(.data)
    m_prs_box_4                              0x20002b7c   Data           8  nrfx_prs.o(.data)
    .data                                    0x20002b84   Section       28  app_uart_fifo.o(.data)
    tx_buffer                                0x20002b84   Data           1  app_uart_fifo.o(.data)
    rx_buffer                                0x20002b85   Data           1  app_uart_fifo.o(.data)
    m_rx_ovf                                 0x20002b86   Data           1  app_uart_fifo.o(.data)
    m_event_handler                          0x20002b88   Data           4  app_uart_fifo.o(.data)
    app_uart_inst                            0x20002b8c   Data          20  app_uart_fifo.o(.data)
    .data                                    0x20002ba0   Section        8  nrf_pwr_mgmt.o(.data)
    m_pwr_mgmt_evt                           0x20002ba0   Data           1  nrf_pwr_mgmt.o(.data)
    m_shutdown_started                       0x20002ba1   Data           1  nrf_pwr_mgmt.o(.data)
    m_sysoff_mtx                             0x20002ba4   Data           4  nrf_pwr_mgmt.o(.data)
    .data                                    0x20002ba8   Section        1  nrf_log_backend_rtt.o(.data)
    m_host_present                           0x20002ba8   Data           1  nrf_log_backend_rtt.o(.data)
    .data                                    0x20002bac   Section        8  nrf_log_default_backends.o(.data)
    log_backend_cb_rtt_log_backend           0x20002bac   Data           8  nrf_log_default_backends.o(.data)
    .data                                    0x20002bb4   Section        4  nrf_log_frontend.o(.data)
    m_buffer_mask                            0x20002bb4   Data           4  nrf_log_frontend.o(.data)
    .data                                    0x20002bb8   Section        8  nrf_log_frontend.o(.data)
    log_mempool_nrf_balloc_pool_stack        0x20002bb8   Data           8  nrf_log_frontend.o(.data)
    .data                                    0x20002bc0   Section        8  nrf_log_frontend.o(.data)
    log_mempool_nrf_balloc_cb                0x20002bc0   Data           8  nrf_log_frontend.o(.data)
    .data                                    0x20002bc8   Section       64  nrf_log_str_formatter.o(.data)
    m_freq                                   0x20002bc8   Data           4  nrf_log_str_formatter.o(.data)
    m_timestamp_div                          0x20002bcc   Data           4  nrf_log_str_formatter.o(.data)
    severity_names                           0x20002bd0   Data          20  nrf_log_str_formatter.o(.data)
    m_colors                                 0x20002be4   Data          36  nrf_log_str_formatter.o(.data)
    .data                                    0x20002c08   Section        3  nrf_sdh.o(.data)
    m_nrf_sdh_enabled                        0x20002c08   Data           1  nrf_sdh.o(.data)
    m_nrf_sdh_suspended                      0x20002c09   Data           1  nrf_sdh.o(.data)
    m_nrf_sdh_continue                       0x20002c0a   Data           1  nrf_sdh.o(.data)
    .data                                    0x20002c0b   Section        1  nrf_sdh_ble.o(.data)
    m_stack_is_enabled                       0x20002c0b   Data           1  nrf_sdh_ble.o(.data)
    .data                                    0x20002c0c   Section       18  sys_mng.o(.data)
    sys_msg                                  0x20002c0c   Data           4  sys_mng.o(.data)
    .data                                    0x20002c20   Section        4  ble_dfu_unbonded.o(.data)
    .data                                    0x20002c24   Section       60  tasks.o(.data)
    uxDeletedTasksWaitingCleanUp             0x20002c28   Data           4  tasks.o(.data)
    uxCurrentNumberOfTasks                   0x20002c2c   Data           4  tasks.o(.data)
    xTickCount                               0x20002c30   Data           4  tasks.o(.data)
    uxTopReadyPriority                       0x20002c34   Data           4  tasks.o(.data)
    xSchedulerRunning                        0x20002c38   Data           4  tasks.o(.data)
    uxPendedTicks                            0x20002c3c   Data           4  tasks.o(.data)
    xYieldPending                            0x20002c40   Data           4  tasks.o(.data)
    xNumOfOverflows                          0x20002c44   Data           4  tasks.o(.data)
    uxTaskNumber                             0x20002c48   Data           4  tasks.o(.data)
    xNextTaskUnblockTime                     0x20002c4c   Data           4  tasks.o(.data)
    xIdleTaskHandle                          0x20002c50   Data           4  tasks.o(.data)
    uxSchedulerSuspended                     0x20002c54   Data           4  tasks.o(.data)
    pxDelayedTaskList                        0x20002c58   Data           4  tasks.o(.data)
    pxOverflowDelayedTaskList                0x20002c5c   Data           4  tasks.o(.data)
    .data                                    0x20002c60   Section       20  timers.o(.data)
    xTimerQueue                              0x20002c60   Data           4  timers.o(.data)
    xTimerTaskHandle                         0x20002c64   Data           4  timers.o(.data)
    xLastTime                                0x20002c68   Data           4  timers.o(.data)
    pxCurrentTimerList                       0x20002c6c   Data           4  timers.o(.data)
    pxOverflowTimerList                      0x20002c70   Data           4  timers.o(.data)
    .data                                    0x20002c74   Section        4  port_cmsis.o(.data)
    uxCriticalNesting                        0x20002c74   Data           4  port_cmsis.o(.data)
    .data                                    0x20002c78   Section       24  heap_4.o(.data)
    pxEnd                                    0x20002c78   Data           4  heap_4.o(.data)
    xFreeBytesRemaining                      0x20002c7c   Data           4  heap_4.o(.data)
    xMinimumEverFreeBytesRemaining           0x20002c80   Data           4  heap_4.o(.data)
    xBlockAllocatedBit                       0x20002c84   Data           4  heap_4.o(.data)
    xStart                                   0x20002c88   Data           8  heap_4.o(.data)
    .data                                    0x20002c90   Section        4  system_nrf52.o(.data)
    __tagsym$$used                           0x20002c90   Number         0  system_nrf52.o(.data)
    .bss                                     0x20002c94   Section     1864  main.o(.bss)
    data_array                               0x20002c94   Data         244  main.o(.bss)
    rx_buf                                   0x20002d88   Data         256  main.o(.bss)
    tx_buf                                   0x20002e88   Data         256  main.o(.bss)
    m_gatt                                   0x20002f88   Data          20  main.o(.bss)
    m_qwr                                    0x20002f9c   Data          12  main.o(.bss)
    m_advertising                            0x20002fa8   Data        1076  main.o(.bss)
    .bss                                     0x200033e0   Section       32  bsp.o(.bss)
    m_bsp_leds_tmr_data                      0x200033e0   Data          32  bsp.o(.bss)
    .bss                                     0x20003400   Section       32  bsp.o(.bss)
    m_bsp_alert_tmr_data                     0x20003400   Data          32  bsp.o(.bss)
    .bss                                     0x20003420   Section       32  bsp.o(.bss)
    m_bsp_button_tmr_data                    0x20003420   Data          32  bsp.o(.bss)
    .bss                                     0x20003440   Section       80  ble_conn_params.o(.bss)
    m_timer_data                             0x20003440   Data          32  ble_conn_params.o(.bss)
    m_conn_params_instances                  0x20003460   Data          20  ble_conn_params.o(.bss)
    m_conn_params_config                     0x20003474   Data          28  ble_conn_params.o(.bss)
    .bss                                     0x20003490   Section      124  ble_conn_state.o(.bss)
    m_bcs                                    0x20003490   Data         124  ble_conn_state.o(.bss)
    .bss                                     0x2000350c   Section       20  nrf_drv_clock.o(.bss)
    m_clock_cb                               0x2000350c   Data          20  nrf_drv_clock.o(.bss)
    .bss                                     0x20003520   Section      108  nrfx_gpiote.o(.bss)
    m_cb                                     0x20003520   Data         108  nrfx_gpiote.o(.bss)
    .bss                                     0x2000358c   Section       44  nrfx_uart.o(.bss)
    m_cb                                     0x2000358c   Data          44  nrfx_uart.o(.bss)
    .bss                                     0x200035b8   Section       36  nrfx_uarte.o(.bss)
    m_cb                                     0x200035b8   Data          36  nrfx_uarte.o(.bss)
    .bss                                     0x200035dc   Section       32  nrf_drv_spi.o(.bss)
    m_handlers                               0x200035dc   Data          16  nrf_drv_spi.o(.bss)
    m_contexts                               0x200035ec   Data          16  nrf_drv_spi.o(.bss)
    .bss                                     0x200035fc   Section       36  nrfx_spim.o(.bss)
    m_cb                                     0x200035fc   Data          36  nrfx_spim.o(.bss)
    .bss                                     0x20003620   Section       32  app_uart_fifo.o(.bss)
    m_rx_fifo                                0x20003620   Data          16  app_uart_fifo.o(.bss)
    m_tx_fifo                                0x20003630   Data          16  app_uart_fifo.o(.bss)
    .bss                                     0x20003640   Section       12  app_util_platform.o(.bss)
    .bss                                     0x2000364c   Section       12  nrf_pwr_mgmt.o(.bss)
    m_handlers_iter                          0x2000364c   Data          12  nrf_pwr_mgmt.o(.bss)
    .bss                                     0x20003658   Section       64  nrf_log_backend_rtt.o(.bss)
    m_string_buff                            0x20003658   Data          64  nrf_log_backend_rtt.o(.bss)
    .bss                                     0x20003698   Section      192  nrf_log_frontend.o(.bss)
    log_mempool_nrf_balloc_pool_mem          0x20003698   Data         192  nrf_log_frontend.o(.bss)
    .bss                                     0x20003758   Section      128  nrf_log_frontend.o(.bss)
    m_log_push_ringbuf_buf                   0x20003758   Data         128  nrf_log_frontend.o(.bss)
    .bss                                     0x200037d8   Section       24  nrf_log_frontend.o(.bss)
    m_log_push_ringbuf_cb                    0x200037d8   Data          24  nrf_log_frontend.o(.bss)
    .bss                                     0x200037f0   Section     1056  nrf_log_frontend.o(.bss)
    m_log_data                               0x200037f0   Data        1056  nrf_log_frontend.o(.bss)
    .bss                                     0x20003c10   Section      648  segger_rtt.o(.bss)
    _acUpBuffer                              0x20003c88   Data         512  segger_rtt.o(.bss)
    _acDownBuffer                            0x20003e88   Data          16  segger_rtt.o(.bss)
    .bss                                     0x20003e98   Section       28  ble_dfu.o(.bss)
    m_dfu                                    0x20003e98   Data          28  ble_dfu.o(.bss)
    .bss                                     0x20003eb4   Section       40  ble_dfu_unbonded.o(.bss)
    nrf_dfu_set_adv_name_svci_async_def      0x20003eb4   Data          12  ble_dfu_unbonded.o(.bss)
    m_adv_name                               0x20003ec0   Data          28  ble_dfu_unbonded.o(.bss)
    .bss                                     0x20003edc   Section      160  tasks.o(.bss)
    pxReadyTasksLists                        0x20003edc   Data          60  tasks.o(.bss)
    xDelayedTaskList1                        0x20003f18   Data          20  tasks.o(.bss)
    xDelayedTaskList2                        0x20003f2c   Data          20  tasks.o(.bss)
    xPendingReadyList                        0x20003f40   Data          20  tasks.o(.bss)
    xTasksWaitingTermination                 0x20003f54   Data          20  tasks.o(.bss)
    xSuspendedTaskList                       0x20003f68   Data          20  tasks.o(.bss)
    .bss                                     0x20003f7c   Section       40  timers.o(.bss)
    xActiveTimerList1                        0x20003f7c   Data          20  timers.o(.bss)
    xActiveTimerList2                        0x20003f90   Data          20  timers.o(.bss)
    .bss                                     0x20003fa4   Section    102400  heap_4.o(.bss)
    ucHeap                                   0x20003fa4   Data       102400  heap_4.o(.bss)
    STACK                                    0x2001cfa8   Section     8192  arm_startup_nrf52840.o(STACK)

    Global Symbols

    Symbol Name                              Value     Ov Type        Size  Object(Section)

    BuildAttributes$$THM_ISAv4$E$P$D$K$B$S$7EM$VFPi3$EXTD16$VFPS$VFMA$PE$A:L22UL41UL21$X:L11$S22US41US21$IEEE1$IW$USESV6$~STKCKD$USESV7$~SHL$OSPACE$EBA8$MICROLIB$REQ8$EABIv2 0x00000000   Number         0  anon$$obj.o ABSOLUTE
    __ARM_use_no_argv                        0x00000000   Number         0  main.o ABSOLUTE
    __arm_fini_                               - Undefined Weak Reference
    __cpp_initialize__aeabi_                  - Undefined Weak Reference
    __cxa_finalize                            - Undefined Weak Reference
    _clock_init                               - Undefined Weak Reference
    _microlib_exit                            - Undefined Weak Reference
    log_dynamic_data$$Base                    - Undefined Reference
    pwr_mgmt_data1$$Base                      - Undefined Reference
    pwr_mgmt_data1$$Limit                     - Undefined Reference
    pwr_mgmt_data2$$Base                      - Undefined Reference
    pwr_mgmt_data2$$Limit                     - Undefined Reference
    sdh_req_observers0$$Base                  - Undefined Reference
    sdh_req_observers0$$Limit                 - Undefined Reference
    sdh_req_observers1$$Base                  - Undefined Reference
    sdh_req_observers1$$Limit                 - Undefined Reference
    sdh_stack_observers1$$Base                - Undefined Reference
    sdh_stack_observers1$$Limit               - Undefined Reference
    sdh_state_observers1$$Base                - Undefined Reference
    sdh_state_observers1$$Limit               - Undefined Reference
    __Vectors_Size                           0x00000200   Number         0  arm_startup_nrf52840.o ABSOLUTE
    Load$$LR$$LR_IROM1$$Base                 0x00027000   Number         0  anon$$obj.o ABSOLUTE
    __Vectors                                0x00027000   Data           4  arm_startup_nrf52840.o(RESET)
    __Vectors_End                            0x00027200   Data           0  arm_startup_nrf52840.o(RESET)
    __main                                   0x00027201   Thumb Code     0  entry.o(.ARM.Collect$$$$00000000)
    _main_stk                                0x00027201   Thumb Code     0  entry2.o(.ARM.Collect$$$$00000001)
    _main_scatterload                        0x00027205   Thumb Code     0  entry5.o(.ARM.Collect$$$$00000004)
    __main_after_scatterload                 0x00027209   Thumb Code     0  entry5.o(.ARM.Collect$$$$00000004)
    _main_clock                              0x00027209   Thumb Code     0  entry7b.o(.ARM.Collect$$$$00000008)
    _main_cpp_init                           0x00027209   Thumb Code     0  entry8b.o(.ARM.Collect$$$$0000000A)
    _main_init                               0x00027209   Thumb Code     0  entry9a.o(.ARM.Collect$$$$0000000B)
    __rt_lib_shutdown_fini                   0x00027211   Thumb Code     0  entry12b.o(.ARM.Collect$$$$0000000E)
    __rt_final_cpp                           0x00027215   Thumb Code     0  entry10a.o(.ARM.Collect$$$$0000000F)
    __rt_final_exit                          0x00027215   Thumb Code     0  entry11a.o(.ARM.Collect$$$$00000011)
    __asm___12_nrf_atomic_c_85ca2469__nrf_atomic_internal_mov 0x00027219   Thumb Code    24  nrf_atomic.o(.emb_text)
    __asm___12_nrf_atomic_c_85ca2469__nrf_atomic_internal_orr 0x00027231   Thumb Code    26  nrf_atomic.o(.emb_text)
    __asm___12_nrf_atomic_c_85ca2469__nrf_atomic_internal_and 0x0002724b   Thumb Code    26  nrf_atomic.o(.emb_text)
    __asm___12_nrf_atomic_c_85ca2469__nrf_atomic_internal_eor 0x00027265   Thumb Code    26  nrf_atomic.o(.emb_text)
    __asm___12_nrf_atomic_c_85ca2469__nrf_atomic_internal_add 0x0002727f   Thumb Code    26  nrf_atomic.o(.emb_text)
    __asm___12_nrf_atomic_c_85ca2469__nrf_atomic_internal_sub 0x00027299   Thumb Code    26  nrf_atomic.o(.emb_text)
    __asm___12_nrf_atomic_c_85ca2469__nrf_atomic_internal_cmp_exch 0x000272b3   Thumb Code    42  nrf_atomic.o(.emb_text)
    __asm___12_nrf_atomic_c_85ca2469__nrf_atomic_internal_sub_hs 0x000272dd   Thumb Code    30  nrf_atomic.o(.emb_text)
    SVC_Handler                              0x000272fd   Thumb Code    28  port.o(.emb_text)
    vPortStartFirstTask                      0x0002731d   Thumb Code    32  port.o(.emb_text)
    PendSV_Handler                           0x00027341   Thumb Code    88  port.o(.emb_text)
    Reset_Handler                            0x0002739d   Thumb Code     8  arm_startup_nrf52840.o(.text)
    NMI_Handler                              0x000273a5   Thumb Code     2  arm_startup_nrf52840.o(.text)
    HardFault_Handler                        0x000273a7   Thumb Code     2  arm_startup_nrf52840.o(.text)
    MemoryManagement_Handler                 0x000273a9   Thumb Code     2  arm_startup_nrf52840.o(.text)
    BusFault_Handler                         0x000273ab   Thumb Code     2  arm_startup_nrf52840.o(.text)
    UsageFault_Handler                       0x000273ad   Thumb Code     2  arm_startup_nrf52840.o(.text)
    DebugMon_Handler                         0x000273b1   Thumb Code     2  arm_startup_nrf52840.o(.text)
    SysTick_Handler                          0x000273b5   Thumb Code     2  arm_startup_nrf52840.o(.text)
    CCM_AAR_IRQHandler                       0x000273b7   Thumb Code     0  arm_startup_nrf52840.o(.text)
    COMP_LPCOMP_IRQHandler                   0x000273b7   Thumb Code     0  arm_startup_nrf52840.o(.text)
    CRYPTOCELL_IRQHandler                    0x000273b7   Thumb Code     0  arm_startup_nrf52840.o(.text)
    ECB_IRQHandler                           0x000273b7   Thumb Code     0  arm_startup_nrf52840.o(.text)
    FPU_IRQHandler                           0x000273b7   Thumb Code     0  arm_startup_nrf52840.o(.text)
    I2S_IRQHandler                           0x000273b7   Thumb Code     0  arm_startup_nrf52840.o(.text)
    MWU_IRQHandler                           0x000273b7   Thumb Code     0  arm_startup_nrf52840.o(.text)
    NFCT_IRQHandler                          0x000273b7   Thumb Code     0  arm_startup_nrf52840.o(.text)
    PDM_IRQHandler                           0x000273b7   Thumb Code     0  arm_startup_nrf52840.o(.text)
    PWM0_IRQHandler                          0x000273b7   Thumb Code     0  arm_startup_nrf52840.o(.text)
    PWM1_IRQHandler                          0x000273b7   Thumb Code     0  arm_startup_nrf52840.o(.text)
    PWM2_IRQHandler                          0x000273b7   Thumb Code     0  arm_startup_nrf52840.o(.text)
    PWM3_IRQHandler                          0x000273b7   Thumb Code     0  arm_startup_nrf52840.o(.text)
    QDEC_IRQHandler                          0x000273b7   Thumb Code     0  arm_startup_nrf52840.o(.text)
    QSPI_IRQHandler                          0x000273b7   Thumb Code     0  arm_startup_nrf52840.o(.text)
    RADIO_IRQHandler                         0x000273b7   Thumb Code     0  arm_startup_nrf52840.o(.text)
    RNG_IRQHandler                           0x000273b7   Thumb Code     0  arm_startup_nrf52840.o(.text)
    RTC0_IRQHandler                          0x000273b7   Thumb Code     0  arm_startup_nrf52840.o(.text)
    RTC2_IRQHandler                          0x000273b7   Thumb Code     0  arm_startup_nrf52840.o(.text)
    SAADC_IRQHandler                         0x000273b7   Thumb Code     0  arm_startup_nrf52840.o(.text)
    SPIM1_SPIS1_TWIM1_TWIS1_SPI1_TWI1_IRQHandler 0x000273b7   Thumb Code     0  arm_startup_nrf52840.o(.text)
    SPIM2_SPIS2_SPI2_IRQHandler              0x000273b7   Thumb Code     0  arm_startup_nrf52840.o(.text)
    SPIM3_IRQHandler                         0x000273b7   Thumb Code     0  arm_startup_nrf52840.o(.text)
    SWI0_EGU0_IRQHandler                     0x000273b7   Thumb Code     0  arm_startup_nrf52840.o(.text)
    SWI1_EGU1_IRQHandler                     0x000273b7   Thumb Code     0  arm_startup_nrf52840.o(.text)
    SWI3_EGU3_IRQHandler                     0x000273b7   Thumb Code     0  arm_startup_nrf52840.o(.text)
    SWI4_EGU4_IRQHandler                     0x000273b7   Thumb Code     0  arm_startup_nrf52840.o(.text)
    SWI5_EGU5_IRQHandler                     0x000273b7   Thumb Code     0  arm_startup_nrf52840.o(.text)
    TEMP_IRQHandler                          0x000273b7   Thumb Code     0  arm_startup_nrf52840.o(.text)
    TIMER0_IRQHandler                        0x000273b7   Thumb Code     0  arm_startup_nrf52840.o(.text)
    TIMER1_IRQHandler                        0x000273b7   Thumb Code     0  arm_startup_nrf52840.o(.text)
    TIMER2_IRQHandler                        0x000273b7   Thumb Code     0  arm_startup_nrf52840.o(.text)
    TIMER3_IRQHandler                        0x000273b7   Thumb Code     0  arm_startup_nrf52840.o(.text)
    TIMER4_IRQHandler                        0x000273b7   Thumb Code     0  arm_startup_nrf52840.o(.text)
    UARTE1_IRQHandler                        0x000273b7   Thumb Code     0  arm_startup_nrf52840.o(.text)
    USBD_IRQHandler                          0x000273b7   Thumb Code     0  arm_startup_nrf52840.o(.text)
    WDT_IRQHandler                           0x000273b7   Thumb Code     0  arm_startup_nrf52840.o(.text)
    __aeabi_uldivmod                         0x000273c1   Thumb Code    98  uldiv.o(.text)
    __aeabi_llsl                             0x00027423   Thumb Code    30  llshl.o(.text)
    _ll_shift_l                              0x00027423   Thumb Code     0  llshl.o(.text)
    __rt_ctype_table                         0x00027441   Thumb Code     4  ctype_o.o(.text)
    __aeabi_memcpy                           0x00027449   Thumb Code    36  memcpya.o(.text)
    __aeabi_memcpy4                          0x00027449   Thumb Code     0  memcpya.o(.text)
    __aeabi_memcpy8                          0x00027449   Thumb Code     0  memcpya.o(.text)
    __aeabi_memset                           0x0002746d   Thumb Code    14  memseta.o(.text)
    __aeabi_memset4                          0x0002746d   Thumb Code     0  memseta.o(.text)
    __aeabi_memset8                          0x0002746d   Thumb Code     0  memseta.o(.text)
    __aeabi_memclr                           0x0002747b   Thumb Code     4  memseta.o(.text)
    __aeabi_memclr4                          0x0002747b   Thumb Code     0  memseta.o(.text)
    __aeabi_memclr8                          0x0002747b   Thumb Code     0  memseta.o(.text)
    _memset$wrapper                          0x0002747f   Thumb Code    18  memseta.o(.text)
    strlen                                   0x00027491   Thumb Code    14  strlen.o(.text)
    strcpy                                   0x0002749f   Thumb Code    18  strcpy.o(.text)
    __aeabi_llsr                             0x000274b1   Thumb Code    32  llushr.o(.text)
    _ll_ushift_r                             0x000274b1   Thumb Code     0  llushr.o(.text)
    __scatterload                            0x000274d1   Thumb Code    28  init.o(.text)
    __scatterload_rt2                        0x000274d1   Thumb Code     0  init.o(.text)
    __decompress                             0x000274f5   Thumb Code     0  __dczerorl2.o(.text)
    __decompress1                            0x000274f5   Thumb Code    86  __dczerorl2.o(.text)
    GPIOTE_IRQHandler                        0x0002754d   Thumb Code   156  nrfx_gpiote.o(i.GPIOTE_IRQHandler)
    POWER_CLOCK_IRQHandler                   0x000275f1   Thumb Code    82  nrfx_clock.o(i.POWER_CLOCK_IRQHandler)
    RTC1_IRQHandler                          0x00027649   Thumb Code    96  port_cmsis_systick.o(i.RTC1_IRQHandler)
    SEGGER_RTT_Init                          0x000276b1   Thumb Code     4  segger_rtt.o(i.SEGGER_RTT_Init)
    SEGGER_RTT_WriteNoLock                   0x000276b5   Thumb Code    86  segger_rtt.o(i.SEGGER_RTT_WriteNoLock)
    SPIM0_SPIS0_TWIM0_TWIS0_SPI0_TWI0_IRQHandler 0x00027711   Thumb Code    76  nrfx_spim.o(i.SPIM0_SPIS0_TWIM0_TWIS0_SPI0_TWI0_IRQHandler)
    SPI_Flash_Init                           0x00027765   Thumb Code    94  w25q128.o(i.SPI_Flash_Init)
    SWI2_EGU2_IRQHandler                     0x000277c9   Thumb Code     4  nrf_sdh.o(i.SWI2_EGU2_IRQHandler)
    SystemInit                               0x000277cd   Thumb Code   420  system_nrf52.o(i.SystemInit)
    UARTE0_UART0_IRQHandler                  0x000279a9   Thumb Code     6  nrfx_prs.o(i.UARTE0_UART0_IRQHandler)
    __scatterload_copy                       0x00027acf   Thumb Code    14  handlers.o(i.__scatterload_copy)
    __scatterload_null                       0x00027add   Thumb Code     2  handlers.o(i.__scatterload_null)
    __scatterload_zeroinit                   0x00027adf   Thumb Code    14  handlers.o(i.__scatterload_zeroinit)
    advertising_start                        0x00027bd1   Thumb Code    24  main.o(i.advertising_start)
    app_error_fault_handler                  0x00027bed   Thumb Code    86  app_error_weak.o(i.app_error_fault_handler)
    app_error_handler_bare                   0x00027c71   Thumb Code    22  app_error.o(i.app_error_handler_bare)
    app_fifo_get                             0x00027c87   Thumb Code    22  app_fifo.o(i.app_fifo_get)
    app_fifo_init                            0x00027c9d   Thumb Code    32  app_fifo.o(i.app_fifo_init)
    app_fifo_put                             0x00027cbd   Thumb Code    26  app_fifo.o(i.app_fifo_put)
    app_timer_create                         0x00027d91   Thumb Code    80  app_timer_freertos.o(i.app_timer_create)
    app_timer_start                          0x00027de9   Thumb Code   150  app_timer_freertos.o(i.app_timer_start)
    app_timer_stop                           0x00027e85   Thumb Code    94  app_timer_freertos.o(i.app_timer_stop)
    app_uart_get                             0x00027ee9   Thumb Code    42  app_uart_fifo.o(i.app_uart_get)
    app_uart_init                            0x00027f1d   Thumb Code   148  app_uart_fifo.o(i.app_uart_init)
    app_uart_put                             0x00027fc1   Thumb Code    70  app_uart_fifo.o(i.app_uart_put)
    app_util_critical_region_enter           0x00028015   Thumb Code    64  app_util_platform.o(i.app_util_critical_region_enter)
    app_util_critical_region_exit            0x0002805d   Thumb Code    46  app_util_platform.o(i.app_util_critical_region_exit)
    blcm_link_ctx_get                        0x0002817d   Thumb Code    72  ble_link_ctx_manager.o(i.blcm_link_ctx_get)
    ble_advdata_encode                       0x000281c5   Thumb Code   386  ble_advdata.o(i.ble_advdata_encode)
    ble_advdata_parse                        0x00028347   Thumb Code    32  ble_advdata.o(i.ble_advdata_parse)
    ble_advdata_search                       0x00028367   Thumb Code    70  ble_advdata.o(i.ble_advdata_search)
    ble_advertising_conn_cfg_tag_set         0x000283ad   Thumb Code     6  ble_advertising.o(i.ble_advertising_conn_cfg_tag_set)
    ble_advertising_init                     0x000283b3   Thumb Code   232  ble_advertising.o(i.ble_advertising_init)
    ble_advertising_modes_config_set         0x0002849b   Thumb Code     8  ble_advertising.o(i.ble_advertising_modes_config_set)
    ble_advertising_on_ble_evt               0x000284a3   Thumb Code   106  ble_advertising.o(i.ble_advertising_on_ble_evt)
    ble_advertising_start                    0x0002850d   Thumb Code   560  ble_advertising.o(i.ble_advertising_start)
    ble_conn_params_init                     0x0002873d   Thumb Code    90  ble_conn_params.o(i.ble_conn_params_init)
    ble_conn_state_conn_idx                  0x000287a5   Thumb Code    18  ble_conn_state.o(i.ble_conn_state_conn_idx)
    ble_conn_state_for_each_connected        0x000287b9   Thumb Code    14  ble_conn_state.o(i.ble_conn_state_for_each_connected)
    ble_conn_state_valid                     0x000287cd   Thumb Code    16  ble_conn_state.o(i.ble_conn_state_valid)
    ble_data_send                            0x000287e1   Thumb Code    30  main.o(i.ble_data_send)
    ble_dfu_buttonless_backend_init          0x00028865   Thumb Code    14  ble_dfu_unbonded.o(i.ble_dfu_buttonless_backend_init)
    ble_dfu_buttonless_bootloader_start_finalize 0x00028879   Thumb Code    40  ble_dfu.o(i.ble_dfu_buttonless_bootloader_start_finalize)
    ble_dfu_buttonless_bootloader_start_prepare 0x000288a5   Thumb Code    20  ble_dfu_unbonded.o(i.ble_dfu_buttonless_bootloader_start_prepare)
    ble_dfu_buttonless_char_add              0x000288bd   Thumb Code    80  ble_dfu_unbonded.o(i.ble_dfu_buttonless_char_add)
    ble_dfu_buttonless_init                  0x0002890d   Thumb Code    98  ble_dfu.o(i.ble_dfu_buttonless_init)
    ble_dfu_buttonless_on_ble_evt            0x0002897d   Thumb Code   124  ble_dfu.o(i.ble_dfu_buttonless_on_ble_evt)
    ble_dfu_buttonless_on_ctrl_pt_write      0x000289fd   Thumb Code   200  ble_dfu_unbonded.o(i.ble_dfu_buttonless_on_ctrl_pt_write)
    ble_dfu_buttonless_on_sys_evt            0x00028ad9   Thumb Code    88  ble_dfu_unbonded.o(i.ble_dfu_buttonless_on_sys_evt)
    ble_dfu_buttonless_resp_send             0x00028b39   Thumb Code    78  ble_dfu.o(i.ble_dfu_buttonless_resp_send)
    ble_nus_data_send                        0x0002907d   Thumb Code   102  ble_nus.o(i.ble_nus_data_send)
    ble_nus_init                             0x000290e5   Thumb Code   206  ble_nus.o(i.ble_nus_init)
    ble_nus_on_ble_evt                       0x000291b9   Thumb Code   120  ble_nus.o(i.ble_nus_on_ble_evt)
    ble_srv_is_indication_enabled            0x00029231   Thumb Code     8  ble_srv_common.o(i.ble_srv_is_indication_enabled)
    ble_srv_is_notification_enabled          0x00029239   Thumb Code     8  ble_srv_common.o(i.ble_srv_is_notification_enabled)
    bsp_board_button_idx_to_pin              0x00029241   Thumb Code     6  boards.o(i.bsp_board_button_idx_to_pin)
    bsp_board_led_invert                     0x0002924d   Thumb Code    40  boards.o(i.bsp_board_led_invert)
    bsp_board_led_off                        0x00029279   Thumb Code    10  boards.o(i.bsp_board_led_off)
    bsp_board_led_on                         0x00029289   Thumb Code    10  boards.o(i.bsp_board_led_on)
    bsp_board_led_state_get                  0x00029299   Thumb Code    36  boards.o(i.bsp_board_led_state_get)
    bsp_board_leds_off                       0x000292c1   Thumb Code    18  boards.o(i.bsp_board_leds_off)
    bsp_board_leds_on                        0x000292d3   Thumb Code    18  boards.o(i.bsp_board_leds_on)
    bsp_board_pin_to_button_idx              0x000292e5   Thumb Code    30  boards.o(i.bsp_board_pin_to_button_idx)
    bsp_btn_ble_sleep_mode_prepare           0x00029309   Thumb Code    30  bsp_btn_ble.o(i.bsp_btn_ble_sleep_mode_prepare)
    bsp_event_to_button_action_assign        0x000293d5   Thumb Code    76  bsp.o(i.bsp_event_to_button_action_assign)
    bsp_indication_set                       0x00029425   Thumb Code    20  bsp.o(i.bsp_indication_set)
    bsp_wakeup_button_enable                 0x000295f5   Thumb Code     6  bsp.o(i.bsp_wakeup_button_enable)
    buffer_is_empty                          0x000296c1   Thumb Code    18  nrf_log_frontend.o(i.buffer_is_empty)
    characteristic_add                       0x00029701   Thumb Code   400  ble_srv_common.o(i.characteristic_add)
    conn_handle_list_get                     0x000298d5   Thumb Code    62  ble_conn_state.o(i.conn_handle_list_get)
    eTaskConfirmSleepModeStatus              0x00029af5   Thumb Code    38  tasks.o(i.eTaskConfirmSleepModeStatus)
    gatt_evt_handler                         0x00029bad   Thumb Code    52  main.o(i.gatt_evt_handler)
    gatt_init                                0x00029c09   Thumb Code    38  main.o(i.gatt_init)
    main                                     0x00029ef9   Thumb Code   334  main.o(i.main)
    nrf_atflags_clear                        0x0002a23f   Thumb Code    22  nrf_atflags.o(i.nrf_atflags_clear)
    nrf_atflags_get                          0x0002a255   Thumb Code    22  nrf_atflags.o(i.nrf_atflags_get)
    nrf_atflags_set                          0x0002a26b   Thumb Code    20  nrf_atflags.o(i.nrf_atflags_set)
    nrf_atomic_flag_clear_fetch              0x0002a27f   Thumb Code     6  nrf_atomic.o(i.nrf_atomic_flag_clear_fetch)
    nrf_atomic_flag_set                      0x0002a285   Thumb Code     6  nrf_atomic.o(i.nrf_atomic_flag_set)
    nrf_atomic_u32_add                       0x0002a28b   Thumb Code    12  nrf_atomic.o(i.nrf_atomic_u32_add)
    nrf_atomic_u32_and                       0x0002a297   Thumb Code    12  nrf_atomic.o(i.nrf_atomic_u32_and)
    nrf_atomic_u32_fetch_and                 0x0002a2a3   Thumb Code    10  nrf_atomic.o(i.nrf_atomic_u32_fetch_and)
    nrf_atomic_u32_fetch_store               0x0002a2ad   Thumb Code    10  nrf_atomic.o(i.nrf_atomic_u32_fetch_store)
    nrf_atomic_u32_or                        0x0002a2b7   Thumb Code    12  nrf_atomic.o(i.nrf_atomic_u32_or)
    nrf_atomic_u32_sub                       0x0002a2c3   Thumb Code    12  nrf_atomic.o(i.nrf_atomic_u32_sub)
    nrf_balloc_alloc                         0x0002a2cf   Thumb Code    68  nrf_balloc.o(i.nrf_balloc_alloc)
    nrf_balloc_free                          0x0002a313   Thumb Code    48  nrf_balloc.o(i.nrf_balloc_free)
    nrf_balloc_init                          0x0002a343   Thumb Code    48  nrf_balloc.o(i.nrf_balloc_init)
    nrf_ble_gatt_att_mtu_periph_set          0x0002a383   Thumb Code    24  nrf_ble_gatt.o(i.nrf_ble_gatt_att_mtu_periph_set)
    nrf_ble_gatt_init                        0x0002a39b   Thumb Code    34  nrf_ble_gatt.o(i.nrf_ble_gatt_init)
    nrf_ble_gatt_on_ble_evt                  0x0002a3bd   Thumb Code   270  nrf_ble_gatt.o(i.nrf_ble_gatt_on_ble_evt)
    nrf_ble_qwr_conn_handle_assign           0x0002a50d   Thumb Code    22  nrf_ble_qwr.o(i.nrf_ble_qwr_conn_handle_assign)
    nrf_ble_qwr_init                         0x0002a523   Thumb Code    36  nrf_ble_qwr.o(i.nrf_ble_qwr_init)
    nrf_ble_qwr_on_ble_evt                   0x0002a547   Thumb Code   182  nrf_ble_qwr.o(i.nrf_ble_qwr_on_ble_evt)
    nrf_drv_clock_init                       0x0002a61d   Thumb Code    56  nrf_drv_clock.o(i.nrf_drv_clock_init)
    nrf_drv_clock_lfclk_release              0x0002a65d   Thumb Code    48  nrf_drv_clock.o(i.nrf_drv_clock_lfclk_release)
    nrf_drv_clock_lfclk_request              0x0002a691   Thumb Code    78  nrf_drv_clock.o(i.nrf_drv_clock_lfclk_request)
    nrf_drv_spi_init                         0x0002a6e5   Thumb Code    98  nrf_drv_spi.o(i.nrf_drv_spi_init)
    nrf_drv_uart_init                        0x0002a755   Thumb Code    90  nrf_drv_uart.o(i.nrf_drv_uart_init)
    nrf_fprintf                              0x0002a7fd   Thumb Code    26  nrf_fprintf.o(i.nrf_fprintf)
    nrf_fprintf_buffer_flush                 0x0002a817   Thumb Code    24  nrf_fprintf.o(i.nrf_fprintf_buffer_flush)
    nrf_fprintf_fmt                          0x0002a82f   Thumb Code   474  nrf_fprintf_format.o(i.nrf_fprintf_fmt)
    nrf_log_backend_add                      0x0002acb9   Thumb Code    86  nrf_log_frontend.o(i.nrf_log_backend_add)
    nrf_log_backend_rtt_init                 0x0002ad17   Thumb Code     4  nrf_log_backend_rtt.o(i.nrf_log_backend_rtt_init)
    nrf_log_backend_serial_put               0x0002ad35   Thumb Code   194  nrf_log_backend_serial.o(i.nrf_log_backend_serial_put)
    nrf_log_color_id_get                     0x0002adf9   Thumb Code    42  nrf_log_frontend.o(i.nrf_log_color_id_get)
    nrf_log_default_backends_init            0x0002ae29   Thumb Code    24  nrf_log_default_backends.o(i.nrf_log_default_backends_init)
    nrf_log_frontend_dequeue                 0x0002ae45   Thumb Code   524  nrf_log_frontend.o(i.nrf_log_frontend_dequeue)
    nrf_log_frontend_std_0                   0x0002b079   Thumb Code     8  nrf_log_frontend.o(i.nrf_log_frontend_std_0)
    nrf_log_frontend_std_1                   0x0002b081   Thumb Code    14  nrf_log_frontend.o(i.nrf_log_frontend_std_1)
    nrf_log_frontend_std_2                   0x0002b08f   Thumb Code    16  nrf_log_frontend.o(i.nrf_log_frontend_std_2)
    nrf_log_hexdump_entry_process            0x0002b0a1   Thumb Code   150  nrf_log_str_formatter.o(i.nrf_log_hexdump_entry_process)
    nrf_log_init                             0x0002b151   Thumb Code    28  nrf_log_frontend.o(i.nrf_log_init)
    nrf_log_module_cnt_get                   0x0002b179   Thumb Code    10  nrf_log_frontend.o(i.nrf_log_module_cnt_get)
    nrf_log_module_name_get                  0x0002b18d   Thumb Code    24  nrf_log_frontend.o(i.nrf_log_module_name_get)
    nrf_log_panic                            0x0002b1a9   Thumb Code    36  nrf_log_frontend.o(i.nrf_log_panic)
    nrf_log_std_entry_process                0x0002b1d1   Thumb Code   182  nrf_log_str_formatter.o(i.nrf_log_std_entry_process)
    nrf_memobj_alloc                         0x0002b287   Thumb Code    96  nrf_memobj.o(i.nrf_memobj_alloc)
    nrf_memobj_free                          0x0002b2e7   Thumb Code    50  nrf_memobj.o(i.nrf_memobj_free)
    nrf_memobj_get                           0x0002b319   Thumb Code     8  nrf_memobj.o(i.nrf_memobj_get)
    nrf_memobj_pool_init                     0x0002b321   Thumb Code     4  nrf_memobj.o(i.nrf_memobj_pool_init)
    nrf_memobj_put                           0x0002b325   Thumb Code    30  nrf_memobj.o(i.nrf_memobj_put)
    nrf_memobj_read                          0x0002b343   Thumb Code    16  nrf_memobj.o(i.nrf_memobj_read)
    nrf_memobj_write                         0x0002b353   Thumb Code    16  nrf_memobj.o(i.nrf_memobj_write)
    nrf_pwr_mgmt_init                        0x0002b365   Thumb Code    28  nrf_pwr_mgmt.o(i.nrf_pwr_mgmt_init)
    nrf_pwr_mgmt_run                         0x0002b38d   Thumb Code    64  nrf_pwr_mgmt.o(i.nrf_pwr_mgmt_run)
    nrf_pwr_mgmt_shutdown                    0x0002b3d1   Thumb Code    54  nrf_pwr_mgmt.o(i.nrf_pwr_mgmt_shutdown)
    nrf_ringbuf_init                         0x0002b411   Thumb Code    28  nrf_ringbuf.o(i.nrf_ringbuf_init)
    nrf_sdh_ble_app_ram_start_get            0x0002b439   Thumb Code    16  nrf_sdh_ble.o(i.nrf_sdh_ble_app_ram_start_get)
    nrf_sdh_ble_default_cfg_set              0x0002b44d   Thumb Code   274  nrf_sdh_ble.o(i.nrf_sdh_ble_default_cfg_set)
    nrf_sdh_ble_enable                       0x0002b581   Thumb Code   116  nrf_sdh_ble.o(i.nrf_sdh_ble_enable)
    nrf_sdh_enable_request                   0x0002b711   Thumb Code   102  nrf_sdh.o(i.nrf_sdh_enable_request)
    nrf_sdh_evts_poll                        0x0002b785   Thumb Code    32  nrf_sdh.o(i.nrf_sdh_evts_poll)
    nrf_sdh_is_enabled                       0x0002b7a9   Thumb Code     6  nrf_sdh.o(i.nrf_sdh_is_enabled)
    nrf_section_iter_init                    0x0002b7f1   Thumb Code    10  nrf_section_iter.o(i.nrf_section_iter_init)
    nrf_section_iter_next                    0x0002b81f   Thumb Code    32  nrf_section_iter.o(i.nrf_section_iter_next)
    nrf_strerror_find                        0x0002b849   Thumb Code    52  nrf_strerror.o(i.nrf_strerror_find)
    nrf_strerror_get                         0x0002b881   Thumb Code    14  nrf_strerror.o(i.nrf_strerror_get)
    nrfx_clock_enable                        0x0002b8dd   Thumb Code    34  nrfx_clock.o(i.nrfx_clock_enable)
    nrfx_clock_init                          0x0002b909   Thumb Code    26  nrfx_clock.o(i.nrfx_clock_init)
    nrfx_clock_lfclk_start                   0x0002b929   Thumb Code    26  nrfx_clock.o(i.nrfx_clock_lfclk_start)
    nrfx_clock_lfclk_stop                    0x0002b949   Thumb Code    38  nrfx_clock.o(i.nrfx_clock_lfclk_stop)
    nrfx_prs_acquire                         0x0002b989   Thumb Code    58  nrfx_prs.o(i.nrfx_prs_acquire)
    nrfx_spim_init                           0x0002b9c5   Thumb Code   356  nrfx_spim.o(i.nrfx_spim_init)
    nrfx_uart_0_irq_handler                  0x0002bb31   Thumb Code     8  nrfx_uart.o(i.nrfx_uart_0_irq_handler)
    nrfx_uart_init                           0x0002bb41   Thumb Code   200  nrfx_uart.o(i.nrfx_uart_init)
    nrfx_uart_rx                             0x0002bc15   Thumb Code   230  nrfx_uart.o(i.nrfx_uart_rx)
    nrfx_uart_tx                             0x0002bd01   Thumb Code   162  nrfx_uart.o(i.nrfx_uart_tx)
    nrfx_uart_tx_in_progress                 0x0002bda9   Thumb Code    26  nrfx_uart.o(i.nrfx_uart_tx_in_progress)
    nrfx_uarte_0_irq_handler                 0x0002bdc9   Thumb Code     8  nrfx_uarte.o(i.nrfx_uarte_0_irq_handler)
    nrfx_uarte_init                          0x0002bdd9   Thumb Code   100  nrfx_uarte.o(i.nrfx_uarte_init)
    nrfx_uarte_rx                            0x0002be45   Thumb Code   256  nrfx_uarte.o(i.nrfx_uarte_rx)
    nrfx_uarte_tx                            0x0002bf49   Thumb Code   166  nrfx_uarte.o(i.nrfx_uarte_tx)
    nrfx_uarte_tx_in_progress                0x0002bff5   Thumb Code    22  nrfx_uarte.o(i.nrfx_uarte_tx_in_progress)
    nvmc_config                              0x0002c0a9   Thumb Code    14  system_nrf52.o(i.nvmc_config)
    pvPortMalloc                             0x0002cc49   Thumb Code   160  heap_4.o(i.pvPortMalloc)
    pvTimerGetTimerID                        0x0002cced   Thumb Code    18  timers.o(i.pvTimerGetTimerID)
    pxPortInitialiseStack                    0x0002cd01   Thumb Code    36  port_cmsis.o(i.pxPortInitialiseStack)
    sys_task_handler                         0x0002d159   Thumb Code   110  sys_mng.o(i.sys_task_handler)
    task_Message_Send                        0x0002d1dd   Thumb Code    22  sys_mng.o(i.task_Message_Send)
    task_Message_SendFromISR                 0x0002d1f9   Thumb Code    22  sys_mng.o(i.task_Message_SendFromISR)
    tasks_init                               0x0002d215   Thumb Code    40  sys_mng.o(i.tasks_init)
    timer_1hz_handler                        0x0002d24d   Thumb Code    16  sys_mng.o(i.timer_1hz_handler)
    timer_init                               0x0002d261   Thumb Code    60  sys_mng.o(i.timer_init)
    uart_event_handle                        0x0002d305   Thumb Code    86  main.o(i.uart_event_handle)
    uxListRemove                             0x0002d8e7   Thumb Code    38  list.o(i.uxListRemove)
    vApplicationMallocFailedHook             0x0002d90d   Thumb Code     2  sys_mng.o(i.vApplicationMallocFailedHook)
    vApplicationStackOverflowHook            0x0002d90f   Thumb Code     2  sys_mng.o(i.vApplicationStackOverflowHook)
    vListInitialise                          0x0002d911   Thumb Code    22  list.o(i.vListInitialise)
    vListInitialiseItem                      0x0002d927   Thumb Code     6  list.o(i.vListInitialiseItem)
    vListInsert                              0x0002d92d   Thumb Code    48  list.o(i.vListInsert)
    vListInsertEnd                           0x0002d95d   Thumb Code    24  list.o(i.vListInsertEnd)
    vPortEnterCritical                       0x0002d975   Thumb Code    16  port_cmsis.o(i.vPortEnterCritical)
    vPortExitCritical                        0x0002d989   Thumb Code    16  port_cmsis.o(i.vPortExitCritical)
    vPortFree                                0x0002d99d   Thumb Code    58  heap_4.o(i.vPortFree)
    vPortSetupTimerInterrupt                 0x0002d9dd   Thumb Code    56  port_cmsis_systick.o(i.vPortSetupTimerInterrupt)
    vPortSuppressTicksAndSleep               0x0002da1d   Thumb Code   254  port_cmsis_systick.o(i.vPortSuppressTicksAndSleep)
    vQueueWaitForMessageRestricted           0x0002db2d   Thumb Code    68  queue.o(i.vQueueWaitForMessageRestricted)
    vTaskInternalSetTimeOutState             0x0002db71   Thumb Code    12  tasks.o(i.vTaskInternalSetTimeOutState)
    vTaskMissedYield                         0x0002db81   Thumb Code     8  tasks.o(i.vTaskMissedYield)
    vTaskPlaceOnEventList                    0x0002db8d   Thumb Code    26  tasks.o(i.vTaskPlaceOnEventList)
    vTaskPlaceOnEventListRestricted          0x0002dbad   Thumb Code    34  tasks.o(i.vTaskPlaceOnEventListRestricted)
    vTaskStartScheduler                      0x0002dbd5   Thumb Code    64  tasks.o(i.vTaskStartScheduler)
    vTaskStepTick                            0x0002dc25   Thumb Code    10  tasks.o(i.vTaskStepTick)
    vTaskSuspendAll                          0x0002dc35   Thumb Code    10  tasks.o(i.vTaskSuspendAll)
    vTaskSwitchContext                       0x0002dc45   Thumb Code    84  tasks.o(i.vTaskSwitchContext)
    xPortStartScheduler                      0x0002dced   Thumb Code    58  port_cmsis.o(i.xPortStartScheduler)
    xQueueGenericCreate                      0x0002dd39   Thumb Code    54  queue.o(i.xQueueGenericCreate)
    xQueueGenericReset                       0x0002dd71   Thumb Code   114  queue.o(i.xQueueGenericReset)
    xQueueGenericSend                        0x0002dde9   Thumb Code   246  queue.o(i.xQueueGenericSend)
    xQueueGenericSendFromISR                 0x0002dee5   Thumb Code   100  queue.o(i.xQueueGenericSendFromISR)
    xQueueReceive                            0x0002df49   Thumb Code   240  queue.o(i.xQueueReceive)
    xTaskCheckForTimeOut                     0x0002e03d   Thumb Code    76  tasks.o(i.xTaskCheckForTimeOut)
    xTaskCreate                              0x0002e08d   Thumb Code    86  tasks.o(i.xTaskCreate)
    xTaskGetSchedulerState                   0x0002e0e5   Thumb Code    22  tasks.o(i.xTaskGetSchedulerState)
    xTaskGetTickCount                        0x0002e101   Thumb Code     6  tasks.o(i.xTaskGetTickCount)
    xTaskGetTickCountFromISR                 0x0002e10d   Thumb Code     6  tasks.o(i.xTaskGetTickCountFromISR)
    xTaskIncrementTick                       0x0002e119   Thumb Code   170  tasks.o(i.xTaskIncrementTick)
    xTaskPriorityDisinherit                  0x0002e1cd   Thumb Code   102  tasks.o(i.xTaskPriorityDisinherit)
    xTaskRemoveFromEventList                 0x0002e23d   Thumb Code    98  tasks.o(i.xTaskRemoveFromEventList)
    xTaskResumeAll                           0x0002e2a9   Thumb Code   168  tasks.o(i.xTaskResumeAll)
    xTimerCreate                             0x0002e35d   Thumb Code    56  timers.o(i.xTimerCreate)
    xTimerCreateTimerTask                    0x0002e395   Thumb Code    42  timers.o(i.xTimerCreateTimerTask)
    xTimerGenericCommand                     0x0002e3d1   Thumb Code    74  timers.o(i.xTimerGenericCommand)
    nrf_log_backend_rtt_api                  0x0002e648   Data          12  nrf_log_backend_rtt.o(.constdata)
    m_ram_start                              0x0002e6ec   Data           4  nrf_sdh_ble.o(.constdata)
    __ctype_table                            0x0002e754   Data         129  ctype_o.o(.constdata)
    Region$$Table$$Base                      0x0002f05c   Number         0  anon$$obj.o(Region$$Table)
    Region$$Table$$Limit                     0x0002f07c   Number         0  anon$$obj.o(Region$$Table)
    log_const_data$$Base                     0x0002f08c   Number         0  nrf_ble_gatt.o(log_const_data)
    m_nrf_log_nrf_ble_gatt_logs_data_const   0x0002f08c   Data           8  nrf_ble_gatt.o(log_const_data)
    m_nrf_log_ble_nus_logs_data_const        0x0002f094   Data           8  ble_nus.o(log_const_data)
    m_nrf_log_clock_logs_data_const          0x0002f09c   Data           8  nrf_drv_clock.o(log_const_data)
    m_nrf_log_CLOCK_logs_data_const          0x0002f0a4   Data           8  nrfx_clock.o(log_const_data)
    m_nrf_log_GPIOTE_logs_data_const         0x0002f0ac   Data           8  nrfx_gpiote.o(log_const_data)
    m_nrf_log_PRS_logs_data_const            0x0002f0b4   Data           8  nrfx_prs.o(log_const_data)
    m_nrf_log_UART_logs_data_const           0x0002f0bc   Data           8  nrfx_uart.o(log_const_data)
    m_nrf_log_UARTE_logs_data_const          0x0002f0c4   Data           8  nrfx_uarte.o(log_const_data)
    m_nrf_log_SPIM_logs_data_const           0x0002f0cc   Data           8  nrfx_spim.o(log_const_data)
    m_nrf_log_app_button_logs_data_const     0x0002f0d4   Data           8  app_button.o(log_const_data)
    m_nrf_log_pwr_mgmt_logs_data_const       0x0002f0dc   Data           8  nrf_pwr_mgmt.o(log_const_data)
    m_nrf_log_sortlist_logs_data_const       0x0002f0e4   Data           8  nrf_sortlist.o(log_const_data)
    m_nrf_log_app_logs_data_const            0x0002f0ec   Data           8  nrf_log_frontend.o(log_const_data)
    m_nrf_log_nrf_sdh_logs_data_const        0x0002f0f4   Data           8  nrf_sdh.o(log_const_data)
    m_nrf_log_nrf_sdh_ble_logs_data_const    0x0002f0fc   Data           8  nrf_sdh_ble.o(log_const_data)
    m_nrf_log_nrf_sdh_soc_logs_data_const    0x0002f104   Data           8  nrf_sdh_soc.o(log_const_data)
    log_const_data$$Limit                    0x0002f10c   Number         0  nrf_sdh_soc.o(log_const_data)
    log_mempool                              0x0002f10c   Data          20  nrf_log_frontend.o(nrf_balloc)
    pwr_mgmt_data0$$Base                     0x0002f120   Number         0  main.o(pwr_mgmt_data0)
    pwr_mgmt_data0$$Limit                    0x0002f124   Number         0  main.o(pwr_mgmt_data0)
    sdh_ble_observers0$$Base                 0x0002f124   Number         0  ble_conn_state.o(sdh_ble_observers0)
    sdh_ble_observers0$$Limit                0x0002f12c   Number         0  ble_conn_state.o(sdh_ble_observers0)
    sdh_ble_observers1$$Base                 0x0002f12c   Number         0  main.o(sdh_ble_observers1)
    sdh_ble_observers1$$Limit                0x0002f14c   Number         0  ble_conn_params.o(sdh_ble_observers1)
    sdh_ble_observers2$$Base                 0x0002f14c   Number         0  main.o(sdh_ble_observers2)
    sdh_ble_observers2$$Limit                0x0002f164   Number         0  ble_dfu.o(sdh_ble_observers2)
    sdh_ble_observers3$$Base                 0x0002f164   Number         0  main.o(sdh_ble_observers3)
    sdh_ble_observers3$$Limit                0x0002f16c   Number         0  main.o(sdh_ble_observers3)
    sdh_soc_observers0$$Base                 0x0002f16c   Number         0  nrf_drv_clock.o(sdh_soc_observers0)
    sdh_soc_observers0$$Limit                0x0002f174   Number         0  nrf_drv_clock.o(sdh_soc_observers0)
    sdh_soc_observers1$$Base                 0x0002f174   Number         0  ble_dfu_unbonded.o(sdh_soc_observers1)
    sdh_soc_observers1$$Limit                0x0002f17c   Number         0  ble_dfu_unbonded.o(sdh_soc_observers1)
    sdh_stack_observers0$$Base               0x0002f17c   Number         0  nrf_sdh_ble.o(sdh_stack_observers0)
    sdh_stack_observers0$$Limit              0x0002f18c   Number         0  nrf_sdh_soc.o(sdh_stack_observers0)
    sdh_state_observers0$$Base               0x0002f18c   Number         0  main.o(sdh_state_observers0)
    sdh_state_observers0$$Limit              0x0002f19c   Number         0  nrf_drv_clock.o(sdh_state_observers0)
    Image$$RW_IRAM1$$Base                    0x20002af8   Number         0  anon$$obj.o ABSOLUTE
    nrf_drv_uart_use_easy_dma                0x20002b60   Data           2  nrf_drv_uart.o(.data)
    sys_task_thread                          0x20002c10   Data           4  sys_mng.o(.data)
    timer_1hz                                0x20002c14   Data           4  sys_mng.o(.data)
    msg                                      0x20002c18   Data           6  sys_mng.o(.data)
    mp_dfu                                   0x20002c20   Data           4  ble_dfu_unbonded.o(.data)
    pxCurrentTCB                             0x20002c24   Data           4  tasks.o(.data)
    SystemCoreClock                          0x20002c90   Data           4  system_nrf52.o(.data)
    nrf_nvic_state                           0x20003640   Data          12  app_util_platform.o(.bss)
    _SEGGER_RTT                              0x20003c10   Data         120  segger_rtt.o(.bss)
    __initial_sp                             0x2001efa8   Data           0  arm_startup_nrf52840.o(STACK)



==============================================================================

Memory Map of the image

  Image Entry point : 0x00027201

  Load Region LR_IROM1 (Base: 0x00027000, Size: 0x00008338, Max: 0x000d9000, ABSOLUTE, COMPRESSED[0x000081f4])

    Execution Region ER_IROM1 (Exec base: 0x00027000, Load base: 0x00027000, Size: 0x0000819c, Max: 0x000d9000, ABSOLUTE)

    Exec Addr    Load Addr    Size         Type   Attr      Idx    E Section Name        Object

    0x00027000   0x00027000   0x00000200   Data   RO         6835    RESET               arm_startup_nrf52840.o
    0x00027200   0x00027200   0x00000000   Code   RO         6895  * .ARM.Collect$$$$00000000  mc_w.l(entry.o)
    0x00027200   0x00027200   0x00000004   Code   RO         6942    .ARM.Collect$$$$00000001  mc_w.l(entry2.o)
    0x00027204   0x00027204   0x00000004   Code   RO         6945    .ARM.Collect$$$$00000004  mc_w.l(entry5.o)
    0x00027208   0x00027208   0x00000000   Code   RO         6947    .ARM.Collect$$$$00000008  mc_w.l(entry7b.o)
    0x00027208   0x00027208   0x00000000   Code   RO         6949    .ARM.Collect$$$$0000000A  mc_w.l(entry8b.o)
    0x00027208   0x00027208   0x00000008   Code   RO         6950    .ARM.Collect$$$$0000000B  mc_w.l(entry9a.o)
    0x00027210   0x00027210   0x00000004   Code   RO         6957    .ARM.Collect$$$$0000000E  mc_w.l(entry12b.o)
    0x00027214   0x00027214   0x00000000   Code   RO         6952    .ARM.Collect$$$$0000000F  mc_w.l(entry10a.o)
    0x00027214   0x00027214   0x00000000   Code   RO         6954    .ARM.Collect$$$$00000011  mc_w.l(entry11a.o)
    0x00027214   0x00027214   0x00000004   Code   RO         6943    .ARM.Collect$$$$00002712  mc_w.l(entry2.o)
    0x00027218   0x00027218   0x000000e2   Code   RO         3681    .emb_text           nrf_atomic.o
    0x000272fa   0x000272fa   0x00000002   PAD
    0x000272fc   0x000272fc   0x000000a0   Code   RO         6814    .emb_text           port.o
    0x0002739c   0x0002739c   0x00000024   Code   RO         6836    .text               arm_startup_nrf52840.o
    0x000273c0   0x000273c0   0x00000062   Code   RO         6898    .text               mc_w.l(uldiv.o)
    0x00027422   0x00027422   0x0000001e   Code   RO         6900    .text               mc_w.l(llshl.o)
    0x00027440   0x00027440   0x00000008   Code   RO         6902    .text               mc_w.l(ctype_o.o)
    0x00027448   0x00027448   0x00000024   Code   RO         6930    .text               mc_w.l(memcpya.o)
    0x0002746c   0x0002746c   0x00000024   Code   RO         6932    .text               mc_w.l(memseta.o)
    0x00027490   0x00027490   0x0000000e   Code   RO         6934    .text               mc_w.l(strlen.o)
    0x0002749e   0x0002749e   0x00000012   Code   RO         6938    .text               mc_w.l(strcpy.o)
    0x000274b0   0x000274b0   0x00000020   Code   RO         6958    .text               mc_w.l(llushr.o)
    0x000274d0   0x000274d0   0x00000024   Code   RO         6960    .text               mc_w.l(init.o)
    0x000274f4   0x000274f4   0x00000056   Code   RO         6970    .text               mc_w.l(__dczerorl2.o)
    0x0002754a   0x0002754a   0x00000002   PAD
    0x0002754c   0x0002754c   0x000000a4   Code   RO         2095    i.GPIOTE_IRQHandler  nrfx_gpiote.o
    0x000275f0   0x000275f0   0x00000058   Code   RO         1956    i.POWER_CLOCK_IRQHandler  nrfx_clock.o
    0x00027648   0x00027648   0x00000068   Code   RO         6620    i.RTC1_IRQHandler   port_cmsis_systick.o
    0x000276b0   0x000276b0   0x00000004   Code   RO         4747    i.SEGGER_RTT_Init   segger_rtt.o
    0x000276b4   0x000276b4   0x0000005c   Code   RO         4761    i.SEGGER_RTT_WriteNoLock  segger_rtt.o
    0x00027710   0x00027710   0x00000054   Code   RO         2904    i.SPIM0_SPIS0_TWIM0_TWIS0_SPI0_TWI0_IRQHandler  nrfx_spim.o
    0x00027764   0x00027764   0x00000064   Code   RO         5309    i.SPI_Flash_Init    w25q128.o
    0x000277c8   0x000277c8   0x00000004   Code   RO         4998    i.SWI2_EGU2_IRQHandler  nrf_sdh.o
    0x000277cc   0x000277cc   0x000001dc   Code   RO         6844    i.SystemInit        system_nrf52.o
    0x000279a8   0x000279a8   0x0000000c   Code   RO         2420    i.UARTE0_UART0_IRQHandler  nrfx_prs.o
    0x000279b4   0x000279b4   0x00000068   Code   RO         4765    i._DoInit           segger_rtt.o
    0x00027a1c   0x00027a1c   0x00000016   Code   RO         4766    i._GetAvailWriteSpace  segger_rtt.o
    0x00027a32   0x00027a32   0x0000005a   Code   RO         4768    i._WriteBlocking    segger_rtt.o
    0x00027a8c   0x00027a8c   0x00000042   Code   RO         4769    i._WriteNoCheck     segger_rtt.o
    0x00027ace   0x00027ace   0x0000000e   Code   RO         6964    i.__scatterload_copy  mc_w.l(handlers.o)
    0x00027adc   0x00027adc   0x00000002   Code   RO         6965    i.__scatterload_null  mc_w.l(handlers.o)
    0x00027ade   0x00027ade   0x0000000e   Code   RO         6966    i.__scatterload_zeroinit  mc_w.l(handlers.o)
    0x00027aec   0x00027aec   0x00000024   Code   RO         4999    i.__sd_nvic_app_accessible_irq  nrf_sdh.o
    0x00027b10   0x00027b10   0x00000010   Code   RO          982    i.adv_set_data_size_max_get  ble_advertising.o
    0x00027b20   0x00027b20   0x00000036   Code   RO          772    i.advertising_buttons_configure  bsp_btn_ble.o
    0x00027b56   0x00027b56   0x00000002   PAD
    0x00027b58   0x00027b58   0x00000078   Code   RO            4    i.advertising_init  main.o
    0x00027bd0   0x00027bd0   0x0000001c   Code   RO            5    i.advertising_start  main.o
    0x00027bec   0x00027bec   0x00000084   Code   RO         3185    i.app_error_fault_handler  app_error_weak.o
    0x00027c70   0x00027c70   0x00000016   Code   RO         3125    i.app_error_handler_bare  app_error.o
    0x00027c86   0x00027c86   0x00000016   Code   RO         3229    i.app_fifo_get      app_fifo.o
    0x00027c9c   0x00027c9c   0x00000020   Code   RO         3230    i.app_fifo_init     app_fifo.o
    0x00027cbc   0x00027cbc   0x0000001a   Code   RO         3232    i.app_fifo_put      app_fifo.o
    0x00027cd6   0x00027cd6   0x00000002   PAD
    0x00027cd8   0x00027cd8   0x00000090   Code   RO            6    i.app_shutdown_handler  main.o
    0x00027d68   0x00027d68   0x00000026   Code   RO         4309    i.app_timer_callback  app_timer_freertos.o
    0x00027d8e   0x00027d8e   0x00000002   PAD
    0x00027d90   0x00027d90   0x00000058   Code   RO         4310    i.app_timer_create  app_timer_freertos.o
    0x00027de8   0x00027de8   0x0000009c   Code   RO         4312    i.app_timer_start   app_timer_freertos.o
    0x00027e84   0x00027e84   0x00000064   Code   RO         4313    i.app_timer_stop    app_timer_freertos.o
    0x00027ee8   0x00027ee8   0x00000034   Code   RO         3354    i.app_uart_get      app_uart_fifo.o
    0x00027f1c   0x00027f1c   0x000000a4   Code   RO         3355    i.app_uart_init     app_uart_fifo.o
    0x00027fc0   0x00027fc0   0x00000054   Code   RO         3356    i.app_uart_put      app_uart_fifo.o
    0x00028014   0x00028014   0x00000048   Code   RO         3429    i.app_util_critical_region_enter  app_util_platform.o
    0x0002805c   0x0002805c   0x00000034   Code   RO         3430    i.app_util_critical_region_exit  app_util_platform.o
    0x00028090   0x00028090   0x00000076   Code   RO         2474    i.apply_config      nrfx_uart.o
    0x00028106   0x00028106   0x00000076   Code   RO         2672    i.apply_config      nrfx_uarte.o
    0x0002817c   0x0002817c   0x00000048   Code   RO         1324    i.blcm_link_ctx_get  ble_link_ctx_manager.o
    0x000281c4   0x000281c4   0x00000182   Code   RO          876    i.ble_advdata_encode  ble_advdata.o
    0x00028346   0x00028346   0x00000020   Code   RO          878    i.ble_advdata_parse  ble_advdata.o
    0x00028366   0x00028366   0x00000046   Code   RO          879    i.ble_advdata_search  ble_advdata.o
    0x000283ac   0x000283ac   0x00000006   Code   RO          984    i.ble_advertising_conn_cfg_tag_set  ble_advertising.o
    0x000283b2   0x000283b2   0x000000e8   Code   RO          985    i.ble_advertising_init  ble_advertising.o
    0x0002849a   0x0002849a   0x00000008   Code   RO          986    i.ble_advertising_modes_config_set  ble_advertising.o
    0x000284a2   0x000284a2   0x0000006a   Code   RO          987    i.ble_advertising_on_ble_evt  ble_advertising.o
    0x0002850c   0x0002850c   0x00000230   Code   RO          990    i.ble_advertising_start  ble_advertising.o
    0x0002873c   0x0002873c   0x00000068   Code   RO         1081    i.ble_conn_params_init  ble_conn_params.o
    0x000287a4   0x000287a4   0x00000012   Code   RO         1156    i.ble_conn_state_conn_idx  ble_conn_state.o
    0x000287b6   0x000287b6   0x00000002   PAD
    0x000287b8   0x000287b8   0x00000014   Code   RO         1158    i.ble_conn_state_for_each_connected  ble_conn_state.o
    0x000287cc   0x000287cc   0x00000014   Code   RO         1170    i.ble_conn_state_valid  ble_conn_state.o
    0x000287e0   0x000287e0   0x00000024   Code   RO            8    i.ble_data_send     main.o
    0x00028804   0x00028804   0x00000060   Code   RO          882    i.ble_device_addr_encode  ble_advdata.o
    0x00028864   0x00028864   0x00000014   Code   RO         5564    i.ble_dfu_buttonless_backend_init  ble_dfu_unbonded.o
    0x00028878   0x00028878   0x0000002c   Code   RO         5444    i.ble_dfu_buttonless_bootloader_start_finalize  ble_dfu.o
    0x000288a4   0x000288a4   0x00000018   Code   RO         5565    i.ble_dfu_buttonless_bootloader_start_prepare  ble_dfu_unbonded.o
    0x000288bc   0x000288bc   0x00000050   Code   RO         5566    i.ble_dfu_buttonless_char_add  ble_dfu_unbonded.o
    0x0002890c   0x0002890c   0x00000070   Code   RO         5445    i.ble_dfu_buttonless_init  ble_dfu.o
    0x0002897c   0x0002897c   0x00000080   Code   RO         5446    i.ble_dfu_buttonless_on_ble_evt  ble_dfu.o
    0x000289fc   0x000289fc   0x000000dc   Code   RO         5567    i.ble_dfu_buttonless_on_ctrl_pt_write  ble_dfu_unbonded.o
    0x00028ad8   0x00028ad8   0x00000060   Code   RO         5568    i.ble_dfu_buttonless_on_sys_evt  ble_dfu_unbonded.o
    0x00028b38   0x00028b38   0x00000054   Code   RO         5447    i.ble_dfu_buttonless_resp_send  ble_dfu.o
    0x00028b8c   0x00028b8c   0x0000019c   Code   RO            9    i.ble_dfu_evt_handler  main.o
    0x00028d28   0x00028d28   0x000000d0   Code   RO           10    i.ble_evt_handler   main.o
    0x00028df8   0x00028df8   0x00000070   Code   RO          773    i.ble_evt_handler   bsp_btn_ble.o
    0x00028e68   0x00028e68   0x000000fc   Code   RO         1083    i.ble_evt_handler   ble_conn_params.o
    0x00028f64   0x00028f64   0x00000118   Code   RO         1171    i.ble_evt_handler   ble_conn_state.o
    0x0002907c   0x0002907c   0x00000066   Code   RO         1553    i.ble_nus_data_send  ble_nus.o
    0x000290e2   0x000290e2   0x00000002   PAD
    0x000290e4   0x000290e4   0x000000d4   Code   RO         1554    i.ble_nus_init      ble_nus.o
    0x000291b8   0x000291b8   0x00000078   Code   RO         1555    i.ble_nus_on_ble_evt  ble_nus.o
    0x00029230   0x00029230   0x00000008   Code   RO         1349    i.ble_srv_is_indication_enabled  ble_srv_common.o
    0x00029238   0x00029238   0x00000008   Code   RO         1350    i.ble_srv_is_notification_enabled  ble_srv_common.o
    0x00029240   0x00029240   0x0000000c   Code   RO          538    i.bsp_board_button_idx_to_pin  boards.o
    0x0002924c   0x0002924c   0x0000002c   Code   RO          542    i.bsp_board_led_invert  boards.o
    0x00029278   0x00029278   0x00000010   Code   RO          543    i.bsp_board_led_off  boards.o
    0x00029288   0x00029288   0x00000010   Code   RO          544    i.bsp_board_led_on  boards.o
    0x00029298   0x00029298   0x00000028   Code   RO          545    i.bsp_board_led_state_get  boards.o
    0x000292c0   0x000292c0   0x00000012   Code   RO          546    i.bsp_board_leds_off  boards.o
    0x000292d2   0x000292d2   0x00000012   Code   RO          547    i.bsp_board_leds_on  boards.o
    0x000292e4   0x000292e4   0x00000024   Code   RO          548    i.bsp_board_pin_to_button_idx  boards.o
    0x00029308   0x00029308   0x0000001e   Code   RO          775    i.bsp_btn_ble_sleep_mode_prepare  bsp_btn_ble.o
    0x00029326   0x00029326   0x00000002   PAD
    0x00029328   0x00029328   0x000000ac   Code   RO          657    i.bsp_button_event_handler  bsp.o
    0x000293d4   0x000293d4   0x00000050   Code   RO          661    i.bsp_event_to_button_action_assign  bsp.o
    0x00029424   0x00029424   0x00000018   Code   RO          662    i.bsp_indication_set  bsp.o
    0x0002943c   0x0002943c   0x000001b8   Code   RO          664    i.bsp_led_indication  bsp.o
    0x000295f4   0x000295f4   0x00000006   Code   RO          666    i.bsp_wakeup_button_enable  bsp.o
    0x000295fa   0x000295fa   0x00000002   PAD
    0x000295fc   0x000295fc   0x00000094   Code   RO         4501    i.buf_prealloc      nrf_log_frontend.o
    0x00029690   0x00029690   0x0000002e   Code   RO         3893    i.buffer_add        nrf_fprintf_format.o
    0x000296be   0x000296be   0x00000002   PAD
    0x000296c0   0x000296c0   0x00000018   Code   RO         4502    i.buffer_is_empty   nrf_log_frontend.o
    0x000296d8   0x000296d8   0x00000018   Code   RO           12    i.buttonless_dfu_sdh_state_observer  main.o
    0x000296f0   0x000296f0   0x00000010   Code   RO         2098    i.channel_port_get  nrfx_gpiote.o
    0x00029700   0x00029700   0x00000190   Code   RO         1352    i.characteristic_add  ble_srv_common.o
    0x00029890   0x00029890   0x00000028   Code   RO         1611    i.clock_clk_started_notify  nrf_drv_clock.o
    0x000298b8   0x000298b8   0x0000001c   Code   RO         1612    i.clock_irq_handler  nrf_drv_clock.o
    0x000298d4   0x000298d4   0x0000003e   Code   RO         1172    i.conn_handle_list_get  ble_conn_state.o
    0x00029912   0x00029912   0x00000088   Code   RO          883    i.conn_int_encode   ble_advdata.o
    0x0002999a   0x0002999a   0x00000004   Code   RO           13    i.conn_params_error_handler  main.o
    0x0002999e   0x0002999e   0x00000002   PAD
    0x000299a0   0x000299a0   0x00000048   Code   RO         1084    i.conn_params_negotiation  ble_conn_params.o
    0x000299e8   0x000299e8   0x000000c0   Code   RO         1410    i.data_length_update  nrf_ble_gatt.o
    0x00029aa8   0x00029aa8   0x00000034   Code   RO           14    i.disconnect        main.o
    0x00029adc   0x00029adc   0x00000014   Code   RO         4503    i.dropped_sat16_get  nrf_log_frontend.o
    0x00029af0   0x00029af0   0x00000002   Code   RO         5448    i.dummy_evt_handler  ble_dfu.o
    0x00029af2   0x00029af2   0x00000002   PAD
    0x00029af4   0x00029af4   0x00000030   Code   RO         6141    i.eTaskConfirmSleepModeStatus  tasks.o
    0x00029b24   0x00029b24   0x00000014   Code   RO         3235    i.fifo_get          app_fifo.o
    0x00029b38   0x00029b38   0x00000012   Code   RO         3236    i.fifo_put          app_fifo.o
    0x00029b4a   0x00029b4a   0x0000000a   Code   RO         1173    i.flag_toggle       ble_conn_state.o
    0x00029b54   0x00029b54   0x00000028   Code   RO          992    i.flags_set         ble_advertising.o
    0x00029b7c   0x00029b7c   0x00000030   Code   RO         1174    i.for_each_set_flag  ble_conn_state.o
    0x00029bac   0x00029bac   0x0000005c   Code   RO           15    i.gatt_evt_handler  main.o
    0x00029c08   0x00029c08   0x00000030   Code   RO           16    i.gatt_init         main.o
    0x00029c38   0x00029c38   0x00000014   Code   RO         1085    i.instance_get      ble_conn_params.o
    0x00029c4c   0x00029c4c   0x000000a6   Code   RO         3894    i.int_print         nrf_fprintf_format.o
    0x00029cf2   0x00029cf2   0x00000002   PAD
    0x00029cf4   0x00029cf4   0x00000088   Code   RO         2673    i.interrupts_enable  nrfx_uarte.o
    0x00029d7c   0x00029d7c   0x00000034   Code   RO         4504    i.invalid_packets_omit  nrf_log_frontend.o
    0x00029db0   0x00029db0   0x00000044   Code   RO         1086    i.is_conn_params_ok  ble_conn_params.o
    0x00029df4   0x00029df4   0x00000016   Code   RO         1613    i.item_enqueue      nrf_drv_clock.o
    0x00029e0a   0x00029e0a   0x00000002   PAD
    0x00029e0c   0x00029e0c   0x00000030   Code   RO          668    i.leds_off          bsp.o
    0x00029e3c   0x00029e3c   0x00000018   Code   RO         1411    i.link_init         nrf_ble_gatt.o
    0x00029e54   0x00029e54   0x000000a4   Code   RO         4505    i.log_skip          nrf_log_frontend.o
    0x00029ef8   0x00029ef8   0x0000018c   Code   RO           17    i.main              main.o
    0x0002a084   0x0002a084   0x00000064   Code   RO          884    i.manuf_specific_data_encode  ble_advdata.o
    0x0002a0e8   0x0002a0e8   0x0000007e   Code   RO         3933    i.memobj_op         nrf_memobj.o
    0x0002a166   0x0002a166   0x00000002   PAD
    0x0002a168   0x0002a168   0x00000030   Code   RO         4506    i.module_idx_get    nrf_log_frontend.o
    0x0002a198   0x0002a198   0x000000a6   Code   RO          885    i.name_encode       ble_advdata.o
    0x0002a23e   0x0002a23e   0x00000016   Code   RO         3615    i.nrf_atflags_clear  nrf_atflags.o
    0x0002a254   0x0002a254   0x00000016   Code   RO         3620    i.nrf_atflags_get   nrf_atflags.o
    0x0002a26a   0x0002a26a   0x00000014   Code   RO         3622    i.nrf_atflags_set   nrf_atflags.o
    0x0002a27e   0x0002a27e   0x00000006   Code   RO         3683    i.nrf_atomic_flag_clear_fetch  nrf_atomic.o
    0x0002a284   0x0002a284   0x00000006   Code   RO         3684    i.nrf_atomic_flag_set  nrf_atomic.o
    0x0002a28a   0x0002a28a   0x0000000c   Code   RO         3686    i.nrf_atomic_u32_add  nrf_atomic.o
    0x0002a296   0x0002a296   0x0000000c   Code   RO         3687    i.nrf_atomic_u32_and  nrf_atomic.o
    0x0002a2a2   0x0002a2a2   0x0000000a   Code   RO         3690    i.nrf_atomic_u32_fetch_and  nrf_atomic.o
    0x0002a2ac   0x0002a2ac   0x0000000a   Code   RO         3692    i.nrf_atomic_u32_fetch_store  nrf_atomic.o
    0x0002a2b6   0x0002a2b6   0x0000000c   Code   RO         3696    i.nrf_atomic_u32_or  nrf_atomic.o
    0x0002a2c2   0x0002a2c2   0x0000000c   Code   RO         3698    i.nrf_atomic_u32_sub  nrf_atomic.o
    0x0002a2ce   0x0002a2ce   0x00000044   Code   RO         3817    i.nrf_balloc_alloc  nrf_balloc.o
    0x0002a312   0x0002a312   0x00000030   Code   RO         3818    i.nrf_balloc_free   nrf_balloc.o
    0x0002a342   0x0002a342   0x00000030   Code   RO         3819    i.nrf_balloc_init   nrf_balloc.o
    0x0002a372   0x0002a372   0x00000010   Code   RO         2099    i.nrf_bitmask_bit_is_set  nrfx_gpiote.o
    0x0002a382   0x0002a382   0x00000018   Code   RO         1413    i.nrf_ble_gatt_att_mtu_periph_set  nrf_ble_gatt.o
    0x0002a39a   0x0002a39a   0x00000022   Code   RO         1417    i.nrf_ble_gatt_init  nrf_ble_gatt.o
    0x0002a3bc   0x0002a3bc   0x00000150   Code   RO         1418    i.nrf_ble_gatt_on_ble_evt  nrf_ble_gatt.o
    0x0002a50c   0x0002a50c   0x00000016   Code   RO         1512    i.nrf_ble_qwr_conn_handle_assign  nrf_ble_qwr.o
    0x0002a522   0x0002a522   0x00000024   Code   RO         1513    i.nrf_ble_qwr_init  nrf_ble_qwr.o
    0x0002a546   0x0002a546   0x000000b6   Code   RO         1514    i.nrf_ble_qwr_on_ble_evt  nrf_ble_qwr.o
    0x0002a5fc   0x0002a5fc   0x0000000e   Code   RO         1957    i.nrf_clock_event_check  nrfx_clock.o
    0x0002a60a   0x0002a60a   0x00000010   Code   RO         1958    i.nrf_clock_event_clear  nrfx_clock.o
    0x0002a61a   0x0002a61a   0x00000002   PAD
    0x0002a61c   0x0002a61c   0x00000040   Code   RO         1619    i.nrf_drv_clock_init  nrf_drv_clock.o
    0x0002a65c   0x0002a65c   0x00000034   Code   RO         1623    i.nrf_drv_clock_lfclk_release  nrf_drv_clock.o
    0x0002a690   0x0002a690   0x00000054   Code   RO         1624    i.nrf_drv_clock_lfclk_request  nrf_drv_clock.o
    0x0002a6e4   0x0002a6e4   0x00000070   Code   RO         2842    i.nrf_drv_spi_init  nrf_drv_spi.o
    0x0002a754   0x0002a754   0x00000068   Code   RO         1765    i.nrf_drv_uart_init  nrf_drv_uart.o
    0x0002a7bc   0x0002a7bc   0x00000020   Code   RO         3357    i.nrf_drv_uart_rx   app_uart_fifo.o
    0x0002a7dc   0x0002a7dc   0x00000020   Code   RO         3358    i.nrf_drv_uart_tx   app_uart_fifo.o
    0x0002a7fc   0x0002a7fc   0x0000001a   Code   RO         3854    i.nrf_fprintf       nrf_fprintf.o
    0x0002a816   0x0002a816   0x00000018   Code   RO         3855    i.nrf_fprintf_buffer_flush  nrf_fprintf.o
    0x0002a82e   0x0002a82e   0x000001da   Code   RO         3895    i.nrf_fprintf_fmt   nrf_fprintf_format.o
    0x0002aa08   0x0002aa08   0x00000032   Code   RO         2475    i.nrf_gpio_cfg      nrfx_uart.o
    0x0002aa3a   0x0002aa3a   0x00000032   Code   RO         2674    i.nrf_gpio_cfg      nrfx_uarte.o
    0x0002aa6c   0x0002aa6c   0x00000032   Code   RO         2905    i.nrf_gpio_cfg      nrfx_spim.o
    0x0002aa9e   0x0002aa9e   0x00000012   Code   RO         2477    i.nrf_gpio_cfg_input  nrfx_uart.o
    0x0002aab0   0x0002aab0   0x00000012   Code   RO         2676    i.nrf_gpio_cfg_input  nrfx_uarte.o
    0x0002aac2   0x0002aac2   0x00000014   Code   RO         2478    i.nrf_gpio_cfg_output  nrfx_uart.o
    0x0002aad6   0x0002aad6   0x00000014   Code   RO         2677    i.nrf_gpio_cfg_output  nrfx_uarte.o
    0x0002aaea   0x0002aaea   0x00000014   Code   RO         2906    i.nrf_gpio_cfg_output  nrfx_spim.o
    0x0002aafe   0x0002aafe   0x00000030   Code   RO         2102    i.nrf_gpio_cfg_sense_set  nrfx_gpiote.o
    0x0002ab2e   0x0002ab2e   0x00000002   PAD
    0x0002ab30   0x0002ab30   0x00000030   Code   RO         2103    i.nrf_gpio_latches_read_and_clear  nrfx_gpiote.o
    0x0002ab60   0x0002ab60   0x00000014   Code   RO         2907    i.nrf_gpio_pin_clear  nrfx_spim.o
    0x0002ab74   0x0002ab74   0x0000001c   Code   RO          551    i.nrf_gpio_pin_port_decode  boards.o
    0x0002ab90   0x0002ab90   0x0000001c   Code   RO         2105    i.nrf_gpio_pin_port_decode  nrfx_gpiote.o
    0x0002abac   0x0002abac   0x0000001c   Code   RO         2479    i.nrf_gpio_pin_port_decode  nrfx_uart.o
    0x0002abc8   0x0002abc8   0x0000001c   Code   RO         2678    i.nrf_gpio_pin_port_decode  nrfx_uarte.o
    0x0002abe4   0x0002abe4   0x0000001c   Code   RO         2908    i.nrf_gpio_pin_port_decode  nrfx_spim.o
    0x0002ac00   0x0002ac00   0x0000001c   Code   RO         5319    i.nrf_gpio_pin_port_decode  w25q128.o
    0x0002ac1c   0x0002ac1c   0x00000014   Code   RO         2480    i.nrf_gpio_pin_set  nrfx_uart.o
    0x0002ac30   0x0002ac30   0x00000014   Code   RO         2679    i.nrf_gpio_pin_set  nrfx_uarte.o
    0x0002ac44   0x0002ac44   0x00000014   Code   RO         2909    i.nrf_gpio_pin_set  nrfx_spim.o
    0x0002ac58   0x0002ac58   0x00000014   Code   RO         5320    i.nrf_gpio_pin_set  w25q128.o
    0x0002ac6c   0x0002ac6c   0x00000026   Code   RO          552    i.nrf_gpio_pin_write  boards.o
    0x0002ac92   0x0002ac92   0x00000002   PAD
    0x0002ac94   0x0002ac94   0x00000014   Code   RO         2109    i.nrf_gpiote_event_clear  nrfx_gpiote.o
    0x0002aca8   0x0002aca8   0x00000010   Code   RO         2110    i.nrf_gpiote_event_is_set  nrfx_gpiote.o
    0x0002acb8   0x0002acb8   0x0000005c   Code   RO         4507    i.nrf_log_backend_add  nrf_log_frontend.o
    0x0002ad14   0x0002ad14   0x00000002   Code   RO         4359    i.nrf_log_backend_rtt_flush  nrf_log_backend_rtt.o
    0x0002ad16   0x0002ad16   0x00000004   Code   RO         4360    i.nrf_log_backend_rtt_init  nrf_log_backend_rtt.o
    0x0002ad1a   0x0002ad1a   0x00000002   Code   RO         4361    i.nrf_log_backend_rtt_panic_set  nrf_log_backend_rtt.o
    0x0002ad1c   0x0002ad1c   0x00000018   Code   RO         4362    i.nrf_log_backend_rtt_put  nrf_log_backend_rtt.o
    0x0002ad34   0x0002ad34   0x000000c2   Code   RO         4431    i.nrf_log_backend_serial_put  nrf_log_backend_serial.o
    0x0002adf6   0x0002adf6   0x00000002   PAD
    0x0002adf8   0x0002adf8   0x00000030   Code   RO         4509    i.nrf_log_color_id_get  nrf_log_frontend.o
    0x0002ae28   0x0002ae28   0x0000001c   Code   RO         4465    i.nrf_log_default_backends_init  nrf_log_default_backends.o
    0x0002ae44   0x0002ae44   0x00000234   Code   RO         4510    i.nrf_log_frontend_dequeue  nrf_log_frontend.o
    0x0002b078   0x0002b078   0x00000008   Code   RO         4512    i.nrf_log_frontend_std_0  nrf_log_frontend.o
    0x0002b080   0x0002b080   0x0000000e   Code   RO         4513    i.nrf_log_frontend_std_1  nrf_log_frontend.o
    0x0002b08e   0x0002b08e   0x00000010   Code   RO         4514    i.nrf_log_frontend_std_2  nrf_log_frontend.o
    0x0002b09e   0x0002b09e   0x00000002   PAD
    0x0002b0a0   0x0002b0a0   0x000000b0   Code   RO         4688    i.nrf_log_hexdump_entry_process  nrf_log_str_formatter.o
    0x0002b150   0x0002b150   0x00000028   Code   RO         4519    i.nrf_log_init      nrf_log_frontend.o
    0x0002b178   0x0002b178   0x00000014   Code   RO         4520    i.nrf_log_module_cnt_get  nrf_log_frontend.o
    0x0002b18c   0x0002b18c   0x0000001c   Code   RO         4523    i.nrf_log_module_name_get  nrf_log_frontend.o
    0x0002b1a8   0x0002b1a8   0x00000028   Code   RO         4524    i.nrf_log_panic     nrf_log_frontend.o
    0x0002b1d0   0x0002b1d0   0x000000b6   Code   RO         4689    i.nrf_log_std_entry_process  nrf_log_str_formatter.o
    0x0002b286   0x0002b286   0x00000060   Code   RO         3934    i.nrf_memobj_alloc  nrf_memobj.o
    0x0002b2e6   0x0002b2e6   0x00000032   Code   RO         3935    i.nrf_memobj_free   nrf_memobj.o
    0x0002b318   0x0002b318   0x00000008   Code   RO         3936    i.nrf_memobj_get    nrf_memobj.o
    0x0002b320   0x0002b320   0x00000004   Code   RO         3937    i.nrf_memobj_pool_init  nrf_memobj.o
    0x0002b324   0x0002b324   0x0000001e   Code   RO         3938    i.nrf_memobj_put    nrf_memobj.o
    0x0002b342   0x0002b342   0x00000010   Code   RO         3939    i.nrf_memobj_read   nrf_memobj.o
    0x0002b352   0x0002b352   0x00000010   Code   RO         3940    i.nrf_memobj_write  nrf_memobj.o
    0x0002b362   0x0002b362   0x00000002   PAD
    0x0002b364   0x0002b364   0x00000028   Code   RO         4012    i.nrf_pwr_mgmt_init  nrf_pwr_mgmt.o
    0x0002b38c   0x0002b38c   0x00000044   Code   RO         4013    i.nrf_pwr_mgmt_run  nrf_pwr_mgmt.o
    0x0002b3d0   0x0002b3d0   0x0000003c   Code   RO         4014    i.nrf_pwr_mgmt_shutdown  nrf_pwr_mgmt.o
    0x0002b40c   0x0002b40c   0x00000004   Code   RO           18    i.nrf_qwr_error_handler  main.o
    0x0002b410   0x0002b410   0x0000001c   Code   RO         4089    i.nrf_ringbuf_init  nrf_ringbuf.o
    0x0002b42c   0x0002b42c   0x0000000c   Code   RO         6621    i.nrf_rtc_event_clear  port_cmsis_systick.o
    0x0002b438   0x0002b438   0x00000014   Code   RO         5119    i.nrf_sdh_ble_app_ram_start_get  nrf_sdh_ble.o
    0x0002b44c   0x0002b44c   0x00000134   Code   RO         5120    i.nrf_sdh_ble_default_cfg_set  nrf_sdh_ble.o
    0x0002b580   0x0002b580   0x00000130   Code   RO         5121    i.nrf_sdh_ble_enable  nrf_sdh_ble.o
    0x0002b6b0   0x0002b6b0   0x00000060   Code   RO         5122    i.nrf_sdh_ble_evts_poll  nrf_sdh_ble.o
    0x0002b710   0x0002b710   0x00000074   Code   RO         5001    i.nrf_sdh_enable_request  nrf_sdh.o
    0x0002b784   0x0002b784   0x00000024   Code   RO         5002    i.nrf_sdh_evts_poll  nrf_sdh.o
    0x0002b7a8   0x0002b7a8   0x0000000c   Code   RO         5003    i.nrf_sdh_is_enabled  nrf_sdh.o
    0x0002b7b4   0x0002b7b4   0x0000003c   Code   RO         5173    i.nrf_sdh_soc_evts_poll  nrf_sdh_soc.o
    0x0002b7f0   0x0002b7f0   0x0000000a   Code   RO         4147    i.nrf_section_iter_init  nrf_section_iter.o
    0x0002b7fa   0x0002b7fa   0x00000024   Code   RO         4148    i.nrf_section_iter_item_set  nrf_section_iter.o
    0x0002b81e   0x0002b81e   0x00000020   Code   RO         4149    i.nrf_section_iter_next  nrf_section_iter.o
    0x0002b83e   0x0002b83e   0x0000000a   Code   RO         2910    i.nrf_spim_event_check  nrfx_spim.o
    0x0002b848   0x0002b848   0x00000038   Code   RO         4238    i.nrf_strerror_find  nrf_strerror.o
    0x0002b880   0x0002b880   0x00000014   Code   RO         4239    i.nrf_strerror_get  nrf_strerror.o
    0x0002b894   0x0002b894   0x0000000a   Code   RO         2481    i.nrf_uart_event_check  nrfx_uart.o
    0x0002b89e   0x0002b89e   0x0000000c   Code   RO         2482    i.nrf_uart_event_clear  nrfx_uart.o
    0x0002b8aa   0x0002b8aa   0x0000000c   Code   RO         2483    i.nrf_uart_int_enable_check  nrfx_uart.o
    0x0002b8b6   0x0002b8b6   0x0000000a   Code   RO         2680    i.nrf_uarte_event_check  nrfx_uarte.o
    0x0002b8c0   0x0002b8c0   0x0000000c   Code   RO         2681    i.nrf_uarte_event_clear  nrfx_uarte.o
    0x0002b8cc   0x0002b8cc   0x00000010   Code   RO         1626    i.nrf_wdt_started   nrf_drv_clock.o
    0x0002b8dc   0x0002b8dc   0x0000002c   Code   RO         1963    i.nrfx_clock_enable  nrfx_clock.o
    0x0002b908   0x0002b908   0x00000020   Code   RO         1966    i.nrfx_clock_init   nrfx_clock.o
    0x0002b928   0x0002b928   0x00000020   Code   RO         1968    i.nrfx_clock_lfclk_start  nrfx_clock.o
    0x0002b948   0x0002b948   0x00000030   Code   RO         1969    i.nrfx_clock_lfclk_stop  nrfx_clock.o
    0x0002b978   0x0002b978   0x00000010   Code   RO         2682    i.nrfx_is_in_ram    nrfx_uarte.o
    0x0002b988   0x0002b988   0x0000003a   Code   RO         2421    i.nrfx_prs_acquire  nrfx_prs.o
    0x0002b9c2   0x0002b9c2   0x00000002   PAD
    0x0002b9c4   0x0002b9c4   0x0000016c   Code   RO         2914    i.nrfx_spim_init    nrfx_spim.o
    0x0002bb30   0x0002bb30   0x00000010   Code   RO         2484    i.nrfx_uart_0_irq_handler  nrfx_uart.o
    0x0002bb40   0x0002bb40   0x000000d4   Code   RO         2486    i.nrfx_uart_init    nrfx_uart.o
    0x0002bc14   0x0002bc14   0x000000ec   Code   RO         2487    i.nrfx_uart_rx      nrfx_uart.o
    0x0002bd00   0x0002bd00   0x000000a8   Code   RO         2492    i.nrfx_uart_tx      nrfx_uart.o
    0x0002bda8   0x0002bda8   0x00000020   Code   RO         2494    i.nrfx_uart_tx_in_progress  nrfx_uart.o
    0x0002bdc8   0x0002bdc8   0x00000010   Code   RO         2683    i.nrfx_uarte_0_irq_handler  nrfx_uarte.o
    0x0002bdd8   0x0002bdd8   0x0000006c   Code   RO         2685    i.nrfx_uarte_init   nrfx_uarte.o
    0x0002be44   0x0002be44   0x00000104   Code   RO         2686    i.nrfx_uarte_rx     nrfx_uarte.o
    0x0002bf48   0x0002bf48   0x000000ac   Code   RO         2689    i.nrfx_uarte_tx     nrfx_uarte.o
    0x0002bff4   0x0002bff4   0x0000001c   Code   RO         2691    i.nrfx_uarte_tx_in_progress  nrfx_uarte.o
    0x0002c010   0x0002c010   0x00000098   Code   RO           19    i.nus_data_handler  main.o
    0x0002c0a8   0x0002c0a8   0x00000018   Code   RO         6845    i.nvmc_config       system_nrf52.o
    0x0002c0c0   0x0002c0c0   0x0000000a   Code   RO           20    i.on_adv_evt        main.o
    0x0002c0ca   0x0002c0ca   0x00000002   PAD
    0x0002c0cc   0x0002c0cc   0x0000001c   Code   RO           21    i.on_conn_params_evt  main.o
    0x0002c0e8   0x0002c0e8   0x0000006a   Code   RO         1556    i.on_connect        ble_nus.o
    0x0002c152   0x0002c152   0x00000002   PAD
    0x0002c154   0x0002c154   0x000000a8   Code   RO         1419    i.on_connected_evt  nrf_ble_gatt.o
    0x0002c1fc   0x0002c1fc   0x0000006c   Code   RO         5449    i.on_ctrlpt_write   ble_dfu.o
    0x0002c268   0x0002c268   0x000000ac   Code   RO         1420    i.on_exchange_mtu_request_evt  nrf_ble_gatt.o
    0x0002c314   0x0002c314   0x00000084   Code   RO         1557    i.on_write          ble_nus.o
    0x0002c398   0x0002c398   0x00000016   Code   RO          993    i.phy_is_valid      ble_advertising.o
    0x0002c3ae   0x0002c3ae   0x00000002   PAD
    0x0002c3b0   0x0002c3b0   0x000000d0   Code   RO         2143    i.port_event_handle  nrfx_gpiote.o
    0x0002c480   0x0002c480   0x00000010   Code   RO         2144    i.port_handler_polarity_get  nrfx_gpiote.o
    0x0002c490   0x0002c490   0x0000003c   Code   RO         4691    i.postfix_process   nrf_log_str_formatter.o
    0x0002c4cc   0x0002c4cc   0x00000098   Code   RO         4692    i.prefix_process    nrf_log_str_formatter.o
    0x0002c564   0x0002c564   0x00000018   Code   RO         2423    i.prs_box_get       nrfx_prs.o
    0x0002c57c   0x0002c57c   0x00000070   Code   RO         6144    i.prvAddCurrentTaskToDelayedList  tasks.o
    0x0002c5ec   0x0002c5ec   0x000000d0   Code   RO         6145    i.prvAddNewTaskToReadyList  tasks.o
    0x0002c6bc   0x0002c6bc   0x00000040   Code   RO         6493    i.prvCheckForValidListAndQueue  timers.o
    0x0002c6fc   0x0002c6fc   0x00000026   Code   RO         5829    i.prvCopyDataFromQueue  queue.o
    0x0002c722   0x0002c722   0x0000006c   Code   RO         5830    i.prvCopyDataToQueue  queue.o
    0x0002c78e   0x0002c78e   0x00000014   Code   RO         6146    i.prvDeleteTCB      tasks.o
    0x0002c7a2   0x0002c7a2   0x00000002   PAD
    0x0002c7a4   0x0002c7a4   0x00000034   Code   RO         6147    i.prvGetExpectedIdleTime  tasks.o
    0x0002c7d8   0x0002c7d8   0x0000004c   Code   RO         6753    i.prvHeapInit       heap_4.o
    0x0002c824   0x0002c824   0x00000078   Code   RO         6148    i.prvIdleTask       tasks.o
    0x0002c89c   0x0002c89c   0x0000008a   Code   RO         6149    i.prvInitialiseNewTask  tasks.o
    0x0002c926   0x0002c926   0x00000002   PAD
    0x0002c928   0x0002c928   0x0000004c   Code   RO         6754    i.prvInsertBlockIntoFreeList  heap_4.o
    0x0002c974   0x0002c974   0x00000038   Code   RO         6494    i.prvInsertTimerInActiveList  timers.o
    0x0002c9ac   0x0002c9ac   0x0000001c   Code   RO         5831    i.prvIsQueueEmpty   queue.o
    0x0002c9c8   0x0002c9c8   0x000000a4   Code   RO         6495    i.prvProcessReceivedCommands  timers.o
    0x0002ca6c   0x0002ca6c   0x000000a4   Code   RO         6496    i.prvProcessTimerOrBlockTask  timers.o
    0x0002cb10   0x0002cb10   0x00000020   Code   RO         6150    i.prvResetNextTaskUnblockTime  tasks.o
    0x0002cb30   0x0002cb30   0x00000028   Code   RO         6497    i.prvSampleTimeNow  timers.o
    0x0002cb58   0x0002cb58   0x00000058   Code   RO         6498    i.prvSwitchTimerLists  timers.o
    0x0002cbb0   0x0002cbb0   0x00000008   Code   RO         6690    i.prvTaskExitError  port_cmsis.o
    0x0002cbb8   0x0002cbb8   0x00000024   Code   RO         6499    i.prvTimerTask      timers.o
    0x0002cbdc   0x0002cbdc   0x0000006a   Code   RO         5832    i.prvUnlockQueue    queue.o
    0x0002cc46   0x0002cc46   0x00000002   PAD
    0x0002cc48   0x0002cc48   0x000000a4   Code   RO         6755    i.pvPortMalloc      heap_4.o
    0x0002ccec   0x0002ccec   0x00000012   Code   RO         6500    i.pvTimerGetTimerID  timers.o
    0x0002ccfe   0x0002ccfe   0x00000002   PAD
    0x0002cd00   0x0002cd00   0x0000002c   Code   RO         6691    i.pxPortInitialiseStack  port_cmsis.o
    0x0002cd2c   0x0002cd2c   0x00000032   Code   RO         2496    i.rx_byte           nrfx_uart.o
    0x0002cd5e   0x0002cd5e   0x00000016   Code   RO         2497    i.rx_done_event     nrfx_uart.o
    0x0002cd74   0x0002cd74   0x00000016   Code   RO         2693    i.rx_done_event     nrfx_uarte.o
    0x0002cd8a   0x0002cd8a   0x00000020   Code   RO         2498    i.rx_enable         nrfx_uart.o
    0x0002cdaa   0x0002cdaa   0x00000002   PAD
    0x0002cdac   0x0002cdac   0x00000058   Code   RO         1627    i.sd_state_evt_handler  nrf_drv_clock.o
    0x0002ce04   0x0002ce04   0x00000030   Code   RO         5008    i.sdh_request_observer_notify  nrf_sdh.o
    0x0002ce34   0x0002ce34   0x0000002c   Code   RO         5009    i.sdh_state_observer_notify  nrf_sdh.o
    0x0002ce60   0x0002ce60   0x00000010   Code   RO         1087    i.send_error_evt    ble_conn_params.o
    0x0002ce70   0x0002ce70   0x00000050   Code   RO         4363    i.serial_tx         nrf_log_backend_rtt.o
    0x0002cec0   0x0002cec0   0x00000088   Code   RO          886    i.service_data_encode  ble_advdata.o
    0x0002cf48   0x0002cf48   0x00000030   Code   RO         1354    i.set_security_req  ble_srv_common.o
    0x0002cf78   0x0002cf78   0x0000007c   Code   RO         4015    i.shutdown_process  nrf_pwr_mgmt.o
    0x0002cff4   0x0002cff4   0x00000028   Code   RO           22    i.sleep_mode_enter  main.o
    0x0002d01c   0x0002d01c   0x00000018   Code   RO         1628    i.soc_evt_handler   nrf_drv_clock.o
    0x0002d034   0x0002d034   0x00000058   Code   RO         5011    i.softdevices_evt_irq_enable  nrf_sdh.o
    0x0002d08c   0x0002d08c   0x00000038   Code   RO         2843    i.spim_evt_handler  nrf_drv_spi.o
    0x0002d0c4   0x0002d0c4   0x00000094   Code   RO         4526    i.std_n             nrf_log_frontend.o
    0x0002d158   0x0002d158   0x00000084   Code   RO         5217    i.sys_task_handler  sys_mng.o
    0x0002d1dc   0x0002d1dc   0x0000001c   Code   RO         5218    i.task_Message_Send  sys_mng.o
    0x0002d1f8   0x0002d1f8   0x0000001c   Code   RO         5219    i.task_Message_SendFromISR  sys_mng.o
    0x0002d214   0x0002d214   0x00000038   Code   RO         5220    i.tasks_init        sys_mng.o
    0x0002d24c   0x0002d24c   0x00000014   Code   RO         5221    i.timer_1hz_handler  sys_mng.o
    0x0002d260   0x0002d260   0x00000050   Code   RO         5222    i.timer_init        sys_mng.o
    0x0002d2b0   0x0002d2b0   0x00000020   Code   RO         2499    i.tx_byte           nrfx_uart.o
    0x0002d2d0   0x0002d2d0   0x0000001a   Code   RO         2500    i.tx_done_event     nrfx_uart.o
    0x0002d2ea   0x0002d2ea   0x0000001a   Code   RO         2694    i.tx_done_event     nrfx_uarte.o
    0x0002d304   0x0002d304   0x00000064   Code   RO           23    i.uart_event_handle  main.o
