:02000004000FEB
:1080000078CF0020D9830F00E1830F00E3830F00B6
:10801000E5830F00E7830F00E9830F0000000000F5
:10802000000000000000000000000000C5830F00F9
:10803000ED830F0000000000EF830F00F1830F00BD
:10804000F3830F00F3830F00F3830F00F3830F001C
:10805000F3830F00F3830F00F3830F00F3830F000C
:10806000F3830F00F3830F00F3830F00F3830F00FC
:10807000F3830F00F3830F00F3830F00F3830F00EC
:10808000B99B0F00F3830F00F3830F00F3830F00FE
:10809000F3830F00F3830F00E1990F00F3830F00C8
:1080A000F3830F00F3830F00F3830F00F3830F00BC
:1080B000F3830F00F3830F000000000000000000B6
:1080C000F3830F00F3830F00F3830F00F3830F009C
:1080D0006D990F00F3830F00F3830F00F3830F00FC
:1080E000F3830F00F3830F00C1840F000000000032
:1080F00000000000F3830F0000000000F3830F0076
:10810000000000000000000000000000000000006F
:10811000000000000000000000000000000000005F
:10812000000000000000000000000000000000004F
:10813000000000000000000000000000000000003F
:10814000000000000000000000000000000000002F
:10815000000000000000000000000000000000001F
:10816000000000000000000000000000000000000F
:1081700000000000000000000000000000000000FF
:1081800000000000000000000000000000000000EF
:1081900000000000000000000000000000000000DF
:1081A00000000000000000000000000000000000CF
:1081B00000000000000000000000000000000000BF
:1081C00000000000000000000000000000000000AF
:1081D000000000000000000000000000000000009F
:1081E000000000000000000000000000000000008F
:1081F000000000000000000000000000000000007F
:10820000DFF810D000F04AF90048004779AD0F00C0
:10821000AFF3008078CF002030B450E8012F93B244
:10822000C48923448489A34228BF1B1B0489A34219
:1082300002BFBFF32F8F002007E0C3EA020340E82C
:108240000134002CE9D14FF001000A6030BC7047C6
:1082500050E8012FC2EA024240E801210029F7D18B
:10826000704730B450E8022F1FFAA2F3C488A3422B
:1082700002BFBFF32F8F00200DE0C48923448489FF
:10828000A34228BF1B1BC2EA034340E80234002C70
:10829000E8D14FF001000A6030BC704750E8022F6F
:1082A000C2EA224240E802210029F7D17047034682
:1082B00053E8022FD988B2EB324F4FF0000017BFBE
:1082C00092B241EA014142EA014104E05A68B2EB4C
:1082D000324F08BF012043E80212002AE8D170475C
:1082E00030B4044654E8000F0D4644E80053002B18
:1082F000F8D1156030BC704730B4044654E8000F24
:1083000040EA010544E80053002BF7D1156030BC6A
:10831000704730B4044654E8000F00EA010544E811
:108320000053002BF7D1156030BC704730B40446C1
:1083300054E8000F80EA010544E80053002BF7D110
:10834000156030BC704730B4044654E8000F00EBB1
:10835000010544E80053002BF7D1156030BC70478D
:1083600030B4044654E8000FA0EB010544E8005384
:10837000002BF7D1156030BC704770B404464FF045
:10838000000054E8006F0D68AE4207BF44E80023C8
:10839000012044E800630E60002B1CBF0020F0E7C2
:1083A00070BC704730B4044654E8000F88422CBFBC
:1083B000451A054644E80053002BF5D1156030BC42
:1083C000704700001EF0040F0CBFEFF30880EFF3BE
:1083D000098004F037B80000064880470648004787
:1083E000FEE7FEE7FEE7FEE7FEE7FEE7FEE7FEE765
:1083F000FEE7FEE7E5990F0001820F00202A04DB6B
:10840000203A00FA02F1002070479140C2F12003A7
:1084100020FA03F319439040704710B5441A0346FD
:10842000944209D28418114403E011F8013D04F884
:10843000013D521EF9D210BD40EA0104A40703D049
:1084400009E010C9121F10C3042AFAD203E011F880
:10845000014B03F8014B521EF9D210BDD2B201E01C
:1084600000F8012B491EFBD270470022F6E710B539
:1084700013460A4604461946FFF7F0FF204610BD92
:1084800030B504460020034600E05B1C934203D253
:10849000E05CCD5C401BF8D030BD0000064C074DC1
:1084A00006E0E06840F0010394E8070098471034C4
:1084B000AC42F6D3FFF7A8FE58DE0F0078DE0F00BF
:1084C000054B4FF0FF321A6053F8042C034B1A602F
:1084D0001A68034B1A60704704BA0250708F00206C
:1084E00008BA025001EB820204388A4201D100200E
:1084F000704752F8043D1BBA40F8043FF5E700000E
:10850000354B8EB019461A680092009AD207FAD5F8
:10851000324B334A1A600A680192019AD007FAD5A1
:10852000304A1A600A680292029AD207FAD52E4A95
:108530001A600A680392039AD007FAD52B4A1A6088
:108540000A680492049AD207FAD5294A1A600A687E
:108550000592059AD007FAD5264A1A600A6806924B
:10856000069AD207FAD5244A1A600A680792079A2F
:10857000D007FAD5214A1A600A680892089AD207E9
:10858000FAD51F4A1A600A680992099AD007FAD5E3
:108590001C4A1A600A680A920A9AD207FAD51A4A3D
:1085A0001A6008680B900B98C007FAD51A600A6821
:1085B0000C920C9AD007FAD5144A1A600A680D92E8
:1085C0000D9AD207FAD5124A1A600E210D230F22F6
:1085D00000200EB000F090BDB0B0025080B002504C
:1085E0008043012940633921807001298020542172
:1085F00000D13490C0403490C0302029C0530D9039
:1086000000413890832308C880E3102100413821BD
:10861000CF4308C810B5504B96B01C461A6801925B
:10862000019AD207FAD54D4B4D4A1A602268029240
:10863000029AD207FAD54B4A1A604B4A42EA804066
:1086400022680392039AD207FAD51860226804922E
:10865000049AD007FAD5454A1A60A2F5800242EA88
:10866000814122680592059AD207FAD519602268DD
:108670000692069AD007FAD53D4A1A6022680792F8
:10868000079AD107FAD53B4A1A6022680892089ADD
:10869000D207FAD5384A1A6022680992099AD00797
:1086A000FAD5364A1A6022680A920A9AD107FAD590
:1086B000334A1A6022680B920B9AD207FAD5314AD4
:1086C0001A6022680C920C9AD007FAD52E4A1A60CA
:1086D00022680D920D9AD107FAD52C4A1A602268A9
:1086E0000E920E9AD207FAD5294A1A6022680F9282
:1086F0000F9AD007FAD5274A1A602168109110996D
:10870000C907FAD51A60144B1A46196811911199C4
:10871000C807FAD5114B20491960116812911299B6
:10872000C907FAD51D491960116813911399CC072F
:10873000FAD50B491960116814911499C807FAD534
:1087400017491960116815911599C907FAD5154A85
:108750001A6016B010BD00BFB0B0025080B0025019
:108760004004419000862929D81001C84014419046
:1087700040142129401465210034409000310C90B0
:10878000C0400C90C030202940960D900041609070
:10879000031645C80086112100416021594644C88E
:1087A0004014459040142D902DE9F041484B88B07D
:1087B0001C461D680195019DEF07FAD5454BDFF872
:1087C00020E1454F13449B000A181B681E2A88BFEE
:1087D000C0F11E011F330A185B095A43B2F5806FBE
:1087E00088BF4FF480614FF0000203F1010588BF9C
:1087F000B1FBF3F1944688BF091A25F0010580000A
:10880000914233DC22680492049AD207FAD5334AA3
:108810001268216805910599CF07FAD530482E498D
:108820000260002215469A4246D15A1C2A4D19462A
:1088300022F0010200268A4241D821680691069959
:10884000CE07FAD52749096825680795079DED07E2
:10885000FAD50160002120480C46994232D11E49C8
:1088600000209A4231D808B0BDE8F081266802960F
:10887000029EF607FAD500F1A04606F52C363668BA
:10888000D4F80080CDF80C80DDF80C8018F0010FD2
:10889000F6D0CEF8006000269E4205D11E46B542B5
:1088A00006D801320430ABE7C7F800C00136F3E761
:1088B000C7F800C00136F2E70D600132B3E72E6061
:1088C0000131B8E704600131C7E708600133C8E748
:1088D000B4B0025024AC0014D8B002507CB00250A6
:1088E000D4B0025078B00250F0B52A4D85B02C4675
:1088F0002E680096009EF707FAD500F1A05000F50B
:108900002C4080000568206801900198C607FAD5C0
:10891000214E2248356002EB8307BA422BD15A1C04
:108920001E4822F0010200279A4229D823680293A8
:10893000029BD807FAD51A4B0B449B0018681F30CE
:10894000B2EB501F4FEA501313D2216803910399E1
:10895000C907FAD5154400219B1A104A356008460C
:108960008B4210D85A1C0D4922F0010200209A4275
:108970000CD805B0F0BD52F804CBC0F800C0CCE76D
:1089800007600133D0E710600131E9E70860013387
:10899000EDE700BFB4B00250D4B00250D8B00250DE
:1089A00024AC001410B5494B94B019461A680092D3
:1089B000009AD207FAD5464B464A1A600A680192D5
:1089C000019AD407FAD5444A1A600A680292029AB8
:1089D000D007FAD5414818600A680392039AD20773
:1089E000FAD53F4A1A600A680492049AD407FAD565
:1089F0003C4A1A600A680592059AD207FAD53A4AA3
:108A00001A600A680692069AD407FAD5374A1A609D
:108A10000A680792079AD207FAD5354A1A600A6897
:108A20000892089AD407FAD5324A1A600A6809925D
:108A3000099AD207FAD5304A1A600A680A920A9A45
:108A4000D407FAD52D4A1A600A680B920B9AD207FE
:108A5000FAD52B4A1A600A680C920C9AD407FAD5F8
:108A6000284A1A600A680D920D9AD207FAD5264A4A
:108A70001A600A680E920E9AD407FAD5234A1A6031
:108A80000A680F920F9AD207FAD5214A1A600F4B43
:108A900019461C681094109CE407FAD50C4B18601A
:108AA000086811901198C407FAD51A600A681292E2
:108AB000129AD007FAD5174A1A600A681392139AC5
:108AC000D207FAD5144A1A6014B010BDB0B00250E3
:108AD00080B0025080906521000409904096659016
:108AE0008080612180200821802064900081619035
:108AF00000461021008111210041442180202029BD
:108B0000024610C8008609218020602140212829C2
:108B10004096652140962529594614C810B5544BF6
:108B200098B019461A680192019AD207FAD5514BAA
:108B3000514A1A600A680292029AD407FAD54F4A3B
:108B40001A600A680392039AD007FAD54C48186055
:108B50000A680492049AD207FAD54A4A1A600A6847
:108B60000592059AD407FAD5474A1A600A68069210
:108B7000069AD207FAD5454A1A600A680792079AF8
:108B8000D407FAD5424A1A600A680892089AD207AE
:108B9000FAD5404A1A600A680992099AD407FAD5A8
:108BA0003D4A1A600A680A920A9AD207FAD53B4AE5
:108BB0001A600A680B920B9AD407FAD5384A1A60E1
:108BC0000A680C920C9AD207FAD5364A1A600A68DB
:108BD0000D920D9AD407FAD5334A1A600A680E929C
:108BE0000E9AD207FAD5314A1A600A680F920F9A84
:108BF000D407FAD52E4A1A600A681092109AD20742
:108C0000FAD52C4A1A601A4B19461C681194119C0B
:108C1000E407FAD5174B1860086812901298C40739
:108C2000FAD51A600A681392139AD007FAD5124A35
:108C30001A600A681492149AD207FAD51E4A1A606A
:108C40000A681592159AD407FAD51C4A1A600A6860
:108C50001692169AD007FAD5194A1A600A6817921E
:108C6000179AD207FAD5174A1A6018B010BD00BF7C
:108C7000B0B0025080B002500093652100043190E2
:108C8000409665900083612100C3302100C3649049
:108C90000081619000461021008111210041442192
:108CA00000C320290C4610C80086312100C3602172
:108CB00040C128294096652100133190409625290E
:108CC000594614C8400432492DE9F041834B1D68D0
:108CD00098682033A0B01E461A680192019AD20704
:108CE000FAD57F4C7F4B236033680293029BDF07EA
:108CF000FAD57D4B23607D4B1F461A680392039A79
:108D0000D107FAD57A4B1968C1F340213268049231
:108D1000049AD207FAD5774A22603A680592059AF2
:108D2000D207FAD51A68C2F34022002900F0D18098
:108D3000002A00F0CE8032680692069AD107FAD552
:108D40006D4A22603A680792079AD207FAD51A68E4
:108D5000C2F34022316808910899C907FAD56749DA
:108D60002160396809910999C907FAD51B68C3F3CD
:108D70004023002A00F0AF80002B00F0AC80336865
:108D80000A930A9BDA07FAD5564B236033680B9394
:108D90000B9BDB07FAD55A4A226033680C930C9B75
:108DA000DF07FAD5574B236033680D930D9BD90726
:108DB000FAD5554B236033680E930E9BDB07FAD52B
:108DC000524B236033680F930F9BDF07FAD5504B4C
:108DD0002360504B1E46196810911099C907FAD5A7
:108DE0003F4C4D4B236033681193119BDB07FAD541
:108DF0004A4B236033681293129BDF07FAD5484B26
:108E000023603A4B9846196813911399C907FAD50C
:108E1000324F386033681493149BDB07FAD5226015
:108E200033681593159BD807FAD53E4B23603368FA
:108E30001693169BD907FAD53B4B236033681793DB
:108E4000179BDA07FAD5394B236033681893189BC0
:108E5000DB07FAD5364B236033681993199BD80783
:108E6000FAD5344B236033681A931A9BD907FAD585
:108E7000314B236033681B931B9BDA07FAD52F4BCA
:108E8000236000F0D3F908BBD8F800301C931C9B7A
:108E9000DB07F9D53D6033681D931D9BD907FAD5D3
:108EA000274B236033681E931E9BDA07FAD5254BA8
:108EB0002360D8F800301F931F9BDB07F9D50C4BBC
:108EC0001B6813F4805F204B08BF184620B0BDE834
:108ED000F0811E48FAE71E48F8E700BF90B0025044
:108EE00080B0025000100251C01F7229B4B002506D
:108EF00088B00250C0CF0129C01F0E29C03F0029F1
:108F000040010249003184A800001649400108A12F
:108F100080440888B0B00250C044708880077A410D
:108F2000C0077E4100006A498006164940006E492C
:108F30000002002100822021408220218082242101
:108F400040A161A100C861510308F1000108F100CE
:108F50000208F10008B540B1202801464FF0070291
:108F600028BF20210020FFF71FFC024B00221A60BF
:108F700008BD00BF1CB80250F0B51D6885B001F0F7
:108F80001F040DB91F2C25D1154D2E462F680197B2
:108F9000019FFF07FAD500F1A05000F52C4080009A
:108FA000006835680395039DED07FAD50D4D00EB7C
:108FB000611028600C48006802901F2C18BFC9433C
:108FC00002980FBF106001F01F0100FA01F111605B
:108FD0000021196010684300C00F136005B0F0BD98
:108FE000B4B00250E4B00250DCB0025030B51F4BB8
:108FF00085B01A46196800910099CC07FAD500F19E
:10900000A05000F52C408000016813680193019B7B
:10901000D807FAD5164B174C1B68174D13F11F00D4
:1090200048BF03F13E0040110138002810DA002348
:109030000130400153B1A0F120014FF00042134232
:1090400004D1013888424FEA5202F8D105B030BD50
:1090500013680393039BDB07FAD5431823602B683F
:109060000293029B002BE3D10138DEE7B4B002503B
:10907000ACB00250E4B00250DCB002500A4600210D
:10908000AFF3008038B5A0F12003B3F5426F054679
:109090002CD88F2826D800F1470300F16604DB06A0
:1090A0004FEA541400D0013464013F34A409013460
:1090B00011B18C421AD80C46E3004FF48050B0FB3B
:1090C000F3F0202828BF202002B11060084B0122B5
:1090D0001A60214600F068F82846214600F088F81A
:1090E000002038BD00F11F046409DDE70148F8E7FE
:1090F0001CB802502221F00070B5264888B0054601
:1091000004680094009CE607FAD52348234C0460C9
:10911000234C44EA83432C680194019CE407FAD56C
:109120000360930143EA824242F0104444F4C04495
:109130002B680293029BDE07FAD504602B68039329
:10914000039BDB07FAD5174B03608B0143EA814190
:1091500041F0104343F4C0432E680496049EF60782
:10916000FAD503602B680593059BDE07FAD50460EA
:1091700041F058412B680693069BDC07FAD5016045
:1091800042F058422B680793079BDB07FAD5026031
:1091900008B070BDB0B0025080B00250C0210229AA
:1091A0008071009880611890002230B54900134604
:1091B000023840F6FC75940004F1A04404F52C3408
:1091C000904202F10102CABF236025605B181E2A8B
:1091D000F1D1044A13600B445360034B034A1A60F5
:1091E00030BD00BF78B0025084B0025020F80F00AC
:1091F0000C4B18603F3020F03F0089014030586030
:109200009960D9601961596199610748D9611C3326
:1092100082B002680192019AD207FAD5196002B0B1
:10922000704700BF90B00250B4B002502DE9F04139
:10923000012392B0CDE90333624B1E461A680592B2
:10924000059AD107FAD5604C604B2360604B1946F4
:109250001A680692069AD207FAD55E4B1A68D704A6
:1092600000F1A88032680792079AD507FAD55A4AC2
:1092700022600A680892089AD007FAD51B68DA04B7
:10928000C3F3003700F198801220FFF7AFFE0546C8
:109290001320FFF7ABFE85428CBF12201320FFF78F
:1092A000A5FE451EFFF72CF903AB01AA29461220A3
:1092B000FFF762FE04AB804602AA29461320FFF79F
:1092C0005BFE00EB4800022832D003283ED0012884
:1092D00074D133680993099BDB07FAD53F4B2360B0
:1092E00033680A930A9BD807FAD53D4B236033684D
:1092F0000F930F9BD907FAD53A4B2360336810932D
:10930000109BDA07FAD5384B236033681193119B11
:10931000DB07FAD5354B2360013D25D510231922F3
:1093200018210020FFF7E8FE384612B0BDE8F081B2
:1093300033680B930B9BD907FAD52D4B2360336809
:109340000C930C9BDA07FAD52A4BCFE733680D93C1
:109350000D9BDB07FAD5284B236033680E930E9BD9
:10936000D807FAD5254BC1E703AB01AA294612203D
:10937000FFF702FE04AB044602AA29461320FFF7BA
:10938000FBFD10EB440402D1FFF7C8FBC4E7FFF775
:1093900009FB022C08D0032C09D0012C10D1172175
:1093A0001620FFF737F9B7E715211420F9E70F2149
:1093B0000E20F6E7124FB7E7124FB5E7124FB3E7AB
:1093C000124FB1E7B0B0025080B0025000084A51CD
:1093D000B4B0025088B0025000084E5100065A49FD
:1093E00040065E49000442410014424940042E49AF
:1093F000000652494006564900063A4940063E4991
:109400000608F1000708F1000408F1000508F10062
:10941000014B1860704700BF08BA0250014B18603A
:10942000704700BF04BA0250094BC2431A60043BA4
:1094300082B01B680193074B019A024204D0064A8E
:109440001060186802B0704720BF1A680192F3E7F5
:1094500004BA0250708F002008BA0250FEF7DDBF38
:10946000FFF705B80A460021FFF701B82DE9F743D9
:1094700005460E461F46114600F058FA04460028DD
:1094800040F08280002E00F08380002900F082806E
:10949000202F40F0818005F14404082205F10409E1
:1094A0002046FFF71FF805F12408082231464846F8
:1094B000FFF718F806F1200108224046FFF712F8DE
:1094C00001A94FF480700197FFF7D8FD002865D1FE
:1094D000334A4FF48073136001219360314A0823AB
:1094E000FFF702FA012108462F4A0523FFF7FCF98E
:1094F00008234A4601211C20FFF7F6F908234246BB
:1095000001210320FFF7F0F9224608230121022060
:10951000FFF7EAF9254A082301211A20FFF7E4F9A9
:10952000234A052301211B20FFF7DEF9214A0823E6
:1095300001211420FFF7D8F91F4A08230121152023
:10954000FFF7D2F9082305F1640201211620FFF785
:10955000CBF9082305F1840201211720FFF7C4F994
:109560000823164A01210B20FFF7BEF9FFF7ACFBD9
:1095700004460198FFF7EEFC114B002C18BF1C4667
:10958000A4212846FFF76EFF204603B0BDE8F08314
:109590000C4CF9E70C4CF7E70C4CF5E7084CEFE7FF
:1095A00090B00250CCDD0F0044DE0F008CDD0F00C8
:1095B00030DE0F00F0DD0F0010DE0F00ACDD0F001D
:1095C0008408F0007608F0008008F0008108F000C0
:1095D00038B50D460446B0B1A02200210430FFF793
:1095E0003FFF95B10822294604F16400FEF77AFF97
:1095F000082205F1200104F18400FEF773FF044BFB
:109600002360002038BD0348FCE70348FAE700BFA9
:10961000DD55AABB7108F0008308F00037B501934F
:10962000069B009304461546FFF7D2FF40B9DDE9DB
:1096300000322946204603B0BDE83040FFF716BF90
:1096400003B030BD2DE9FF41144B04460D460FCB4E
:10965000E84688E80F00204600F078F90746B0B9E0
:10966000CDB1636A261D01963BB90123226F636267
:1096700004F13001404600F081F83346043D2434C3
:1096800053F8042B12BAA34245F8042FF8D13846F8
:1096900004B0BDE8F081024FF9E700BF5CDD0F00C8
:1096A0000502F00013B5044670B10430702101903A
:1096B000FFF7D8FE019805492022FFF7CFFE044BA3
:1096C0002360002002B010BD0248FBE76CDD0F00F4
:1096D000DD55AABB0002F0002DE9FF47254B0446EB
:1096E0000F4615460FCBE84688E80F0025B900263F
:1096F000304604B0BDE8F087204600F027F9064662
:109700000028F5D1666A231D01938EBB206FC0B17E
:10971000C0F14009A94528BFA94604F1300A4A46CC
:1097200039465044FFF79AFE226F4A44402A4F447C
:109730002267A5EB090504D15146404600F01EF80A
:10974000266705F03F0935F03F0505D039462A4622
:10975000404600F013F82F44B9F1000FC7D04A4635
:10976000394604F13000FFF779FEC4F87090BFE786
:10977000014EBDE75CDD0F000C02F0002DE9F74F54
:10978000314B4468054691469A461A68002AFCD136
:109790002E4B9B461A68002AFCD14FF0FF300191F6
:1097A000FFF736FE8020FFF739FE294E294ADFF801
:1097B000B880294F012307203360A2F59E72C2F8BA
:1097C0003C011360636AC8F80030A36A3B602B68F1
:1097D00042F8043CAB68204698470199DAF800301B
:1097E000002BFBD1B9F1000F20D11C4B04221A60D1
:1097F000DAF80030002BFBD1DBF80090B9F1000F54
:10980000FAD1EB6820469847D8F8003063623B688D
:10981000A362134BC3F80090C3F84491DAF8003008
:10982000002BFBD1336003B0BDE8F08F236A012B1E
:1098300004BF0B4A13600B4B40201960C3F804901F
:10984000FFF7F2FDD4E700BF10B9025020BC025070
:1098500018B8025000B90250D0B70250C8B7025031
:1098600084B6025028BC0250CCB70250084B1B688B
:109870001B0EF02B08D1074B1A68074B9A4205D1F3
:10988000064B00201860704705207047062070477F
:1098900028B9025024BA02500000E0200CBA02504D
:1098A0000C4B1B68C3610C4B1B6883610B4B1B6823
:1098B00043610B4B1B6803610A4B1B68C3600A4B77
:1098C0001B688360094B1B684360094B1B6803607E
:1098D000704700BF5CB6025058B6025054B60250F2
:1098E00050B602504CB6025048B6025044B6025030
:1098F00040B602500C4BC2691A60826943F8042CCE
:10990000426943F8082C026943F80C2CC26843F8FA
:10991000102C826843F8142C426843F8182C026813
:1099200043F81C2C704700BF5CB6025030B102688F
:10993000034B04489A4208BF002070470248704712
:10994000DD55AABB8208F0007108F00030B1026852
:10995000034B04489A4208BF0020704702487047F2
:10996000DD55AABB0202F0000002F0002DE9F04133
:10997000194E4FF48271D6F8040130B11748C2680D
:10998000521CC260304602F0F5FB00254FF4A07770
:1099900007EB85018AB23046B258BAB189B202F0FB
:1099A000E9FB0E48103000EB0514204603F0ACFE36
:1099B000616819B1204603F02FFE07E0A16811B1DC
:1099C000204603F029FE206800B180476D1C022D5F
:1099D000DED3BDE8F0810000004002408459002041
:1099E00002F0C4BC70B54FF080520124D2E94C1093
:1099F0000023082906D1CD06C5F80C31C5F8103171
:109A00005E4D2B60082955D15D4D2D685D4E35604A
:109A10005B4D2D1D2D68361D3560594D08352D685F
:109A2000361D3560564D0C352D68361D3560544D4C
:109A300010352D68361D3560514D14352D68361D95
:109A400035604F4D18352D684E4E203635604C4DE3
:109A50001C352D68361D3560494D20352D68361D65
:109A60003560474D24352D68361D3560444D283509
:109A70002D68361D3560424D2C352D68361D3560FC
:109A80003F4D30352D683F4E403635603C4D3435C6
:109A90002D68361D35603A4D38352D68361D3560D8
:109AA000374D3C352D68361D3560354D40352D68B8
:109AB000361D3560082904D1050002D1334E324DE0
:109AC0003560082904D1050002D1314EFB253560EF
:109AD000082908D1050006D192F858622D4A156868
:109AE00066F303051560082904D1020002D12A4D4E
:109AF0008A012A60082906D128480168C90702D0CE
:109B00006FF0010101602648016841F470010160B5
:109B1000BFF34F8FBFF36F8F4FF01021D1F80002CA
:109B2000002803DBD1F80402002822DA1D4A146061
:109B30001D480468002CFCD01224C1F800420568BE
:109B4000002DFCD0C1F8044201680029FCD013604C
:109B500001680029FCD0BFF34F8F11487C380168A1
:109B6000124A01F4E06111430160BFF34F8F00BF5F
:109B7000FDE710490E48086070BD00003805004040
:109B80000404001020C50040488103008C560040AA
:109B900018F50040E40E00404096024000040040EA
:109BA00088ED00E004E5014000E401400400FA050E
:109BB0000090D003205A0020034808B5002101601E
:109BC0000068009008BD00000001014002E008C8E4
:109BD000121F08C1002AFAD170477047002001E027
:109BE00001C1121F002AFBD170470000012120286B
:109BF00003DA81400548014003E0402802DA2038BA
:109C0000814009B10120704700207047FC06FFBD6C
:109C1000800701D00020704701207047C3688B4245
:109C200006D811440069491E814201D801207047BD
:109C30000020704730B585B00D46164C1621ADF8A2
:109C400000101ECC0DF1040C8CE81E00124C0221F9
:109C5000012221706270A0700320E07021715920F0
:109C60006071FE20A071694604F109007DDF0028C3
:109C70000ED1BDF800002A46411CE1710921217274
:109C8000BDF808100844ADF8080001A9034872DFC8
:109C900005B030BD10DB0F00586E0020C059002009
:109CA00010B586B00624182208496846FEF7B5FBB1
:109CB00069462046FFF7BEFF002805D1044C2078F6
:109CC00074DF0121207873DF06B010BD20DB0F00A8
:109CD000C059002070B5104CA66C656A01F0E6FB17
:109CE000216B08446A1A3144814200D100220823C2
:109CF00000F07CFF06000DD101F0D8FB00222946C0
:109D000000F09EFCA16A814203D10121A561C4E952
:109D10000701304670BD0000F085002002F0BEFC57
:109D200002F0BCFC2DE9F84F254C81469246608834
:109D30000E46814241D800274FF6FF788DF800701B
:109D4000684600F075F822786078A188884201DAC8
:109D5000401C00E00020C0B2904204D19DF80000F9
:109D600000F08AF827E065786078884201DA401CC4
:109D700000E0002060709DF8000000F07DF845458F
:109D800019D0A068B9F1000F40F835A00DD066B128
:109D90006188E068324605FB01004946FEF73DFB5D
:109DA000A06800EBC500868002E000EBC50087805C
:109DB0000020BDE8F88F0420FBE70920F9E7000048
:109DC000005A002010B50E4C03E0401C00E00020BB
:109DD000207020786178814210D022786188E06814
:109DE000A36802FB010003EBC20153F8322089880B
:109DF00090472078A1888842E9DAE6E710BD0000A4
:109E0000005A002030B5CB0008339DB293074FF0C5
:109E1000000401D0072030BD044B9A602A44DA6068
:109E20005C701C7058809980002030BD005A002062
:109E300030B5EFF3108172B60D4A9468012324B156
:109E40000370002900D162B630BD93604FF0E0236B
:109E5000D3F88051074C25401560C3F88041D3F8F2
:109E6000844154605A17C3F8842100220270E8E745
:109E7000648D0020FC06FFBD0B498A68002A11D0C2
:109E800000280FD1EFF3108072B60B684FF0E0227C
:109E9000C2F800314B68C2F8043100228A60002801
:109EA00000D162B670470000648D002070B5104884
:109EB0000146456AC06A8C6CAC2801D024B106E02A
:109EC000486B04442D1A02E001F004FB04462A46C4
:109ED00021460848FEF7D4FA002807D001F04AF9D5
:109EE00029462046BDE8704001F018BC70BD000056
:109EF000F085002000800F0030B504462C4995B055
:109F00004FF6FF70488001208DF812004FF659601F
:109F1000ADF81000224604A90120A8DF002844D192
:109F2000244B0FCB8DE80F00A11C684662DF002890
:109F30003BD120491C2260390BA8FEF76EFA1E4D5A
:109F4000142205F1C401A8681290A0788DF84A0087
:109F50002868139006A8FEF760FA12A8069013A8C6
:109F600007902088231D06AA0BA9AADF00281CD170
:109F70001C2205F1D8010BA8FEF74FFAE8681290F1
:109F8000A0788DF84A0068681390142205F1F40156
:109F900006A8FEF742FA12A8069013A80790208898
:109FA00004F10C0306AA0BA9AADF15B030BD00000E
:109FB000C0590020E8DB0F00E0DA0F00F0B585B0F3
:109FC000044614216846FEF750FA20780323082837
:109FD0000BD12748C188491E89B2C1808288002AD6
:109FE0003ED000293CD1C280237021786078602265
:109FF0008DF800208DF801108DF8020060780321A3
:10A0000001280AD00B2828D100F07AFD8DF8030032
:10A01000002000F07DFD04211FE0207809281CD2DB
:10A02000DFE800F01B1B1B201B1B051B2000D4E9D5
:10A0300002706D46E91C666803F070FB044629193E
:10A040003046C91C03F06AFB044429193846C91C70
:10A0500003F064FB2044C01CC1B2684603F028F939
:10A0600005B0F0BDD4E90112684603F010F9F2E73B
:10A07000C05900202DE9F0411349034600208A68A9
:10A08000D4071ED0114CA3421BD04888A0F57F43B3
:10A09000FF3B10D042F004028A60132176DF0028D3
:10A0A0000FD10B4EC8254FF47A47741C3846A04791
:10A0B0006D1EFAD101E0087874DFBDE8F04102F0CE
:10A0C000F1B8BDE8F0810000C059002080DE0F002B
:10A0D000F0DA0F0038B5214C0021227AD20701D0E6
:10A0E000084638BDE0601E4800F0F5FE00200090F4
:10A0F00001F020FB88B91B4813DF70B902F0FCF8AF
:10A1000058B9684602F03CF838B96946012002F0B7
:10A1100041F810B9684602F08BF80028E1D101F04F
:10A12000F5FB30B1104801F0E5FBA06840F00200FB
:10A13000A06000F003FD0028D3D10B481C30FFF7CE
:10A14000DBFE0028CDD1FFF7ABFD0028C9D1A06808
:10A1500040F00100A060002038BD0000C059002080
:10A1600088DE0F0000800F00786E002070B5044676
:10A17000011D008800226F4D86B021287ED025DC8D
:10A1800013287CD018DC01287AD010285BD0112845
:10A190004AD14FF6FF706880287A400704D4FFF751
:10A1A0007FFD08B1FFF7BCFDE96800293CD006B08F
:10A1B0000220BDE870400847142878D01A2877D0CC
:10A1C0001F2831D16888091D75DF62E0512870D0E1
:10A1D0002CDC222828D0232862D0242824D0502800
:10A1E00022D1554D34F8060FA98888421CD1534816
:10A1F00000F037FE060017D0628904F10C01FEF76B
:10A200000CF918224E496846FEF707F904960195A5
:10A210006089ADF81400684601F0C0FA002803D048
:10A220003146464800F03FFE06B070BD52287BD054
:10A23000552813D05628F7D1A0790028F4D113213E
:10A24000688876DF25E008886880E96809B1012020
:10A2500088473B4968887A3975DFE5E7E188F7295F
:10A2600014D28807B0F1404F11D0C91F89B2481EDF
:10A27000C21700EB927222F0030202E033E01CE00E
:10A2800036E0801A081A801D81B200E0F721688844
:10A29000B5DF0028C8D006B0BDE87040FFF740BD6C
:10A2A00000920192A0880022694690DF18E034E015
:10A2B0003AE021E0FFF734FDB6E721486A469038DE
:10A2C00042F60521806A009002A801906888ADDFFF
:10A2D00008B1FFF725FD00231A46852168887FDF36
:10A2E0000028E7D1A0E70092088869468FDFF7E7EA
:10A2F0000021688866DFCCE7A079002894D0214649
:10A300000D4802F0E3F900288ED006B004F10801F0
:10A31000BDE87040084802F0CBB800240888224607
:10A320002346214686DFB4E7002308881A461946EB
:10A33000B1DFAEE7C0590020946E002088DE0F0028
:10A3400070DB0F00007800F00100704713B903784C
:10A35000012B01D001F0FDBB012070470022C32179
:10A3600000F5187000F06CB92DE9F043A3B0044675
:10A37000DDE92A9520200F462190984616467C213B
:10A3800002A8FEF772F841212046FEF76EF8B7F8F2
:10A39000940006EB061107EB8101B04201D991F858
:10A3A000965025701DB3012D04D0022D0AD0032D27
:10A3B00013D116E000224946404600F041F9C4F8A6
:10A3C000010014E021A9601CCDE900014B46424682
:10A3D0000A4902A800F092FF48B1002023B0BDE86E
:10A3E000F083B1F89820601C9A31FEF716F84A46BF
:10A3F0004146204601F0ADFBF0E7000014D90F0004
:10A4000010B500284FF0000006D004490870BDE8E0
:10A410001040034801F0A6BA00F0CAFA78590020AB
:10A42000B1A90F002DE9FC410646C0074FF0000519
:10A430000ED0104F00240122385D009500231146F4
:10A44000019501F0F6FD641C042CF4D300F024F80F
:10A45000B0070DD5074E0024361D0022305D0323C2
:10A4600000951146019501F0E4FD641C042CF4D321
:10A47000BDE8FC81F4D80F000249085C012101F01D
:10A480000DBE0000F4D80F000249085C002101F065
:10A4900005BE0000F4D80F0010B500242046FFF7D9
:10A4A000EBFF641C042CF9D310BD10B543689C1855
:10A4B000446021B905E013F8010B01F8010B521EAD
:10A4C000F9D2012010BD000010B50548012100F0AF
:10A4D000C3FCBFF35F8F08B1002010BD012010BD89
:10A4E000B8590020BFF35F8F014900200860704712
:10A4F000B859002006490020086006494FF48060E2
:10A50000C1F88001BFF34F8FBFF36F8F704700001A
:10A5100000A5025004E000E003490120086003495F
:10A520008002C1F80001704700A5025004E000E07D
:10A5300070B500F10805106814460E46202802D2B6
:10A5400048F2145070BDFFF7BFFF90B1FFF7E4FF72
:10A5500031462846FFF776F80546FFF7CBFFFFF7B1
:10A56000C1FF284600F01EFB0028EBD1202121600E
:10A5700070BD48F2045070BD10B50830FFF792F876
:10A58000BDE8104000F00EBB2DE9F04700F10809CE
:10A590000E461446FFF798FFB8B1FFF7BDFF4FF422
:10A5A00080584546AC4200D825462A4631460E48DA
:10A5B000FDF733FF2A460C494846FFF78DF80700A0
:10A5C000A4EB05042E4404D005E048F20450BDE895
:10A5D000F087002CE5D1FFF78DFFFFF783FF3846AA
:10A5E000BDE8F04700F0DEBA585E002070B50B48B9
:10A5F00000240460BFF35F8F094D01202860FFF73E
:10A6000035F901002C604FF0030004D0052901D179
:10A6100048F2035070BD002070BD0000B859002002
:10A6200000A50250014900200860704700A50250B3
:10A630000249CA6B4260096C81607047F085002056
:10A64000F0B54FF0FF3622B11268D24300230A4D15
:10A650000DE03246FAE7C45C62400824D70700D018
:10A6600037462F4087EA5202641EF7D15B1C8B42AB
:10A67000F1D3D043F0BD00002083B8ED10B50446FF
:10A680000068401C07D0204602F0E8FE21688142A5
:10A6900001D1012010BD002010BD000010B50B4CF1
:10A6A00090B0607800280ED100F08CFE202208497E
:10A6B000684600F0A7FE40236A460649064800F0B7
:10A6C000D9FD0120607010B010BD0000F0590020CD
:10A6D000B4D80F009C8C002008D90F00F0B5146985
:10A6E00006468DB020681546271DE0B1022920D00E
:10A6F0000A2000906B4609AA304602F097FD002818
:10A700000FD009A901A8009A02F086FB01AE96E8D5
:10A710000F0005AE86E80F00236869683A4605A871
:10A7200098470DB0F0BD0DB03046BDE8F04002F0E6
:10A73000E7BB6946304602F079FB0028F1D0236878
:10A7400069683A46684698470028EAD00298002887
:10A75000F5D1019870600120E3E753689B7813F00E
:10A76000C00303D0402B03D00020704700F002B894
:10A77000FFF7B4BF2DE9FF410B465168064614466A
:10A780008878334D00F00F0210F0300055F8225059
:10A7900006D0102806D0202808D0302856D13EE018
:10A7A00022694DE061690120087047E0022B28D141
:10A7B000042A26D84FF0010869463046676902F03E
:10A7C00035FB00281AD009E00B89226903FB00221F
:10A7D0006846A84770B13888401C3880029820B17C
:10A7E000616838884A899042EED301987060029877
:10A7F00060BB02E04FF00008F7E7404604B0BDE858
:10A80000F081D4E904300F890288498907FB0233BB
:10A810008A421BD2521C02801A46616810E00888E6
:10A820006169072A088009D1606801892069FDF7FC
:10A830001CFE60682169C06802F013FB2269616830
:10A8400004B03046AC46BDE8F04160470020D5E793
:10A8500038DD0F0038B5224801240168C90301D54D
:10A8600081130CE01F4801681522C9B2B2EBD10F69
:10A8700007D10168C90704D0016801F056010160E1
:10A880000024194D286A012828D14FF44050174957
:10A890004068884208D123464FF4805105F518706E
:10A8A0006A6BFFF753FDC8B100F000FE0146234676
:10A8B0000F48AA69FFF74AFD80B119200090684649
:10A8C00001F0DEFBD0F810050099C84010F0010F30
:10A8D00004D001F049FC10F0B10000D0012038BDD7
:10A8E0000004004020050040F0850020DBE5B15168
:10A8F000918800204169002901D0C068084770474D
:10A9000010B508281BD2DFE800F004121A1A1A0446
:10A910001A040120FFF786FD0020FFF7B5FD012096
:10A92000FFF7B2FDBDE810400220FFF7A5BD0120F2
:10A93000FFF7A2FDBDE810400220FFF7A5BD10BD46
:10A9400010B50446801E062810D2DFE800F00D0383
:10A95000030F09090A494FF4701000F017FB05E0D6
:10A960000120FFF74DFD01E001F024F805484168A2
:10A97000002903D02046BDE81040084710BD000064
:10A980007DAC0F007859002010B50446062801D090
:10A99000072C02D1002001F0A5F804480168002925
:10A9A00003D02046BDE81040084710BDBC59002028
:10A9B000BFF34F8F05480168054A01F4E061114378
:10A9C0000160BFF34F8F00BFFDE700000CED00E01A
:10A9D0000400FA052DE9FC4180461F4615460E4647
:10A9E00000240D4800F02AFA38B11120BDE8FC819E
:10A9F00006EB043001F066FB641CAC42F8D106485B
:10AA000000F019FACDE900573346002202214046F2
:10AA100000F02AF80020E9E7105A00202DE9F84359
:10AA2000104D0F4680461E4691466946286800F044
:10AA3000D6F9040014D01C21FDF717FD0120207168
:10AA4000C4F81490380BC4F80080C4E90260694669
:10AA5000286800F0E5F902F0C9FB0020BDE8F883A2
:10AA60000420FBE764DC0F002DE9F04387B00446C7
:10AA7000DDE90E8980681D4616460F4600280BD07A
:10AA800018216846FDF7F1FC02A88DF8007080E8F7
:10AA90006003A1686846884707B0BDE8F08330B519
:10AAA0000446006887B00D46806800281FD0182132
:10AAB0006846FDF7DAFC0195A0680590207910B191
:10AAC000012810D107E001208DF8000020690290D4
:10AAD000E068039005E002208DF80000E0680003C4
:10AAE000029060690490206881686846884707B0D2
:10AAF00030BD0B2803D30B38C0B200F009B8704743
:10AB00000249002208780A7070470000D8590020D6
:10AB1000014908700B207047D859002001490120D5
:10AB2000087070477859002001490120087070476B
:10AB3000B45900200123723001F034B80EB59DF8ED
:10AB4000080020F00F00401C20F0F00010308DF8BD
:10AB5000080068466DDF002819D19DF80100401CEF
:10AB60008DF8010068466CDF002810D10848007A93
:10AB7000800703D50748011D806901E006A1072071
:10AB800082B202A87CDF002801D105487ADF0EBD21
:10AB9000C0590020786E00204466755461726700C9
:10ABA000F6DA0F0010B50F4C48F20351031B48F2C0
:10ABB0001652A04211D007DC00280AD00A4BC01858
:10ABC00008D0012804D10BE00A2B01D00D2B07D0AF
:10ABD000104610BD48F2015010BD48F2025010BDA1
:10ABE000084610BD0202F00000FE0FFF2DE9F047FD
:10ABF00081461D4616468846494502D10020BDE8DB
:10AC0000F087A8EB0900040B06F6FF704FF0000A6E
:10AC1000070B00F0C3FAA5422AD22C4628E0A7422F
:10AC200002D8BA46354601E0A24625030022514625
:10AC3000484600F039FD0028E1D1681E00F003000D
:10AC40002A1A002341464846D21C00F043FD002842
:10AC5000D5D10948A7EB0A07761B016BA944294403
:10AC60000163A844002000F029FF5FEA000AC6D172
:10AC7000002ED4D15046C2E7F08500200120FFF716
:10AC8000BFBB0000014941600020704738DC0F0065
:10AC900010B50B4941600B4800F0D0F868B901F0DD
:10ACA00077FB08491C234FF4EE7208740448A1F5A1
:10ACB000EE71001F006800F07FF8002010BD00005A
:10ACC00068DC0F005C8F002002480068002800D07C
:10ACD00001207047105A00200248007A002800D056
:10ACE000012070475C8F002010B54FF44051144B89
:10ACF0004C6800F500509C4204D042689A4201D151
:10AD0000012200E000229C4218D144689C4215D1E7
:10AD10000A78142A01D9496900E00021094A037818
:10AD2000B1FBF2F1142B01D9406900E00020B0FB27
:10AD3000F2F0814201D0012200E00022104610BD55
:10AD4000DBE5B15140420F0070B5054608680C467E
:10AD50004A6886682846314601F0A4FF6068286189
:10AD600004F10C006861B0780221B1EB901F01D1B1
:10AD7000241D2C6170BD000000F0E4F94FF48051F7
:10AD8000002000F017F940B90548C0F57E2100F019
:10AD900011F910B9034800F067F901F07FFC0000D9
:10ADA00000800F0001A90F0010B5FDF780FA08B16F
:10ADB000002010BD112010BD10B531B1B2FBF3F46D
:10ADC00003FB14241CB1092010BD0E2010BD01602E
:10ADD0000021416081608281C381084610BD70B549
:10ADE0000C460546FDF718FA002802D0218828688D
:10ADF000084470BD10B50A8849888A4203D1FDF71E
:10AE00004DFA012010BD002010BD70B50C4605465E
:10AE1000FDF727FA002802D061882868084470BD31
:10AE200010B50A8849888A4203D1FDF711FA01203A
:10AE300010BD002010BD002100F003B8012100F07A
:10AE400006B808B56A46FDF764FA009808BD08B56B
:10AE50006A46FDF751FA08BD08B56A46FDF740FAA3
:10AE600008BD38B5044600258DF800506846FEF749
:10AE7000DFFF21686268086890420ED9401E0860B2
:10AE80000178238AE26801FB0325227A2168101ADF
:10AE9000C0B20A79824200D208719DF80000FEF724
:10AEA000EBFF284638BD38B5054600208DF8000078
:10AEB0000C466846FEF7BCFFE868298A201AB0FBFA
:10AEC000F1F12A681068431C136001709DF80000BE
:10AED000FEF7D2FF38BD10B530B1017A4268036881
:10AEE000891AC9B21A6006E00E2010BD03681A68FC
:10AEF000541C1C601170491EC9B2F7D200680021B1
:10AF00000171084610BD10B54FF0E0224FF0FF313F
:10AF10004FF48054C2F88011C2F8801200F016FC81
:10AF20002046BDE8104000F001B8000010B504460E
:10AF30001448C0F57F2100F03DF808B1FEF7F0FE9F
:10AF400000F0B4FA014610488069421EC2F30B02B9
:10AF5000801A0144002001F6FF7100F02BF808B1BF
:10AF6000FEF7DEFED4E90001002282F3148882F3AA
:10AF7000108882F3118882F3138880F30888BDE873
:10AF80001040084700800F00F085002070B5084D84
:10AF900004460E46686802F0B7FB002C06D0324625
:10AFA00021466868BDE8704002F0A0BB70BD00009B
:10AFB0008459002030B50A0502D1B0F57F2F01D9A0
:10AFC000072030BD094C2268082A01D3042030BD77
:10AFD000074B03EB0213C3F80008C3F80418022060
:10AFE000C3F80808521C0020226030BD80590020A0
:10AFF00000E0014070B5194D0024E86A24350128AD
:10B0000007D0A52808D0AA2809D0AC280AD000204B
:10B0100070BDFEF75FFE0BE002F068F907E0FEF797
:10B0200045FF05E002F062F908B9FEF73FFF012491
:10B03000284600F05FFA0A4900200870094800F02D
:10B040003DFD08B1032070BD0120002CFBD0034959
:10B05000096A0129F7D1022070BD0000F0850020A7
:10B06000B459002029AB0F00F8B52F4D68601920A6
:10B070000090684601F004F8009A2C4900EB820029
:10B080000026C0F80017304600F072FC80BBFFF7C6
:10B09000B1FF20B1012828D002283CD105E04FF4AF
:10B0A0007014FFF7D7FB10B932E04FF4A02400F082
:10B0B00075F81F4A20211820FEF7A4FE08B1FEF7FC
:10B0C0002FFE01F051F81621B1EBD00F09D101F09C
:10B0D0004BF8C00705D001F047F8164920F0B10041
:10B0E000086000F019FB18B903E00120FFF788F9A8
:10B0F00011E011492046FFF749FF104800F0F6FA29
:10B1000048B900BF00F036F8FEF75CFE41DFF9E712
:10B1100000F0D6FB08B10320F8BD2E70084800F0FF
:10B1200021FCFFF7F0FEF6E7785900200C00030041
:10B13000385A00201C0500407DAC0F0041A90F00CB
:10B140001DAB0F0010B540F6F8700168491C02D124
:10B15000074900F0CFFF40F6FC700168491C05D19B
:10B16000BDE810404FF47E2100F0C4BF10BD0000C8
:10B1700000800F0010B501F093F9002803D0BDE85E
:10B18000104002F029BB10BD034A93680A460146ED
:10B190009860184602F0AABA8459002070B50E4D86
:10B1A0002878002817D101F07BF9012690B10B48CF
:10B1B0000468A4F54864962C00DA962402F00CFB8F
:10B1C00007492046FFF7E0FF4FF0E0214FF48030C1
:10B1D000C1F800012E7070BDB55900200405014072
:10B1E00015D80F0070B504460D4620220830FDF733
:10B1F00014F9202205F1200104F12800FDF70DF9D2
:10B20000002070BD2DE9F8430C461749DDF8209069
:10B21000016005461F46904614480121FFF71CFEB9
:10B22000BFF35F8F002618B148F20450BDE8F883E1
:10B23000FFF772F943464A4604F108012846009791
:10B24000FEF7ECF90446FFF755F9BFF35F8F0748A7
:10B2500006602000EAD00649CC4202D148F24250B2
:10B26000E4E748F21650E1E7DD55AABBB8590020E3
:10B270007CF70FFF70B516460C46054600F0E6F861
:10B2800000280ED1AA791946304600F0ECF80028C3
:10B2900007D131462046FFF7A5FF002801D101491B
:10B2A000216070BD7052464D2DE9F8430C46DDE932
:10B2B00008580746994616460F49204600F0BAF846
:10B2C000002811D16068414640794200284600F0CC
:10B2D000CAF8002808D14EB15FB14B46324621462C
:10B2E00038460095FFF78EFFBDE8F88348F210500E
:10B2F000FAE748F21550F7E77052464D2DE9F04154
:10B300001D46DDE906871646044600F02DF80028A4
:10B310000DD12A463146204600F03CF8002806D1DF
:10B320003A4641462046BDE8F04100F002B8BDE88B
:10B33000F08170B515460E46044602F03DFA00282D
:10B3400007D13EB160682968C268914205D248F2CF
:10B35000145070BD48F2135070BD83682A463146C0
:10B360002046BDE87040184710B550B161B141604A
:10B37000096804468847002802D10548206000205B
:10B3800010BD48F2015010BD48F2105010BD000031
:10B390006E52464870B515460E46044602F00CFA49
:10B3A00000280BD146B155B160682A463146436842
:10B3B0002046BDE87040184748F2105070BD00208C
:10B3C00070BD00002DE9F0410B480C4D0C4F401BA7
:10B3D000C60801203870002406E000BF55F834008C
:10B3E0008047002805D1641CB442F7D3022038708E
:10B3F0000020BDE8F081000080DE0F0078DE0F0045
:10B40000B659002070B514460D46064600F036F8D1
:10B41000291930192246BDE8704000F02FB830B528
:10B420000C46054600F035F828192146BDE83040A5
:10B4300000F02FB828B10068884205D048F240508B
:10B44000704748F2105070470020704728B139B15A
:10B450000022C1E900201046704748F210507047A2
:10B4600048F21350704720B1914205D048F2115074
:10B47000704748F210507047002070470244521E37
:10B4800004E000BF11F8013B02F801398242F9D211
:10B4900070470144491E05E002780B7800F8013B33
:10B4A00001F801298142F7D2704700004FF4405063
:10B4B000074A4168914207D18068411EC1F30B01E0
:10B4C000401A00F6FF7070474FF48050704700003C
:10B4D000DBE5B15100B5FFF7E9FF054989690A18B5
:10B4E000401E0844C0F30B00101A00F6FF7000BDA8
:10B4F000F085002000210160416081600148016306
:10B5000070470000F08500202DE9F0419846214F5A
:10B5100016460C460546002301215BB1012B11D0D4
:10B52000022B1ED00020381AA0F54050A8421BD292
:10B5300001221AE0FFF7CEFF8EB11749096A0129EF
:10B54000F1D00CE0FFF7B2FFB8F1000F05D14FF4D6
:10B550004051124A4968914201D00121E3E700219C
:10B56000E1E74FF48050DEE7002242EA040088431E
:10B5700005D0022B03D25B1CDBB2022BCCD912B15B
:10B580000420BDE8F0811BB103481830FFF7B2FF7B
:10B590000020F6E700800F00F0850020DBE5B151C8
:10B5A00070B504460078092811D2DFE800F01005D4
:10B5B00010112510381013000D461D490320C968CD
:10B5C0008847606900F056FBFFF793FA687070BD1A
:10B5D000084628E00D46A18A206900F027FBFFF706
:10B5E00088FA68702846FFF723F8E1680029EED052
:10B5F0002069BDE8704008470C460D490831081F16
:10B6000000F052FBFFF775FA60700128DFD10020CF
:10B6100000F054FA0028DAD00A20607070BD0846A5
:10B620004FF40071C160BDE87040FFF701B8000041
:10B63000DC59002070B51A4A05780124936C092D55
:10B640002CD2DFE805F02B052B0B0F2B252B080048
:10B6500000F068FF22E000F0DBFF1FE08B60106D60
:10B6600048601BE0D2E91454566C2C1BA64203D050
:10B6700008204870012411E00024556554642146D7
:10B68000D36400F089FF07490420C968884705E0B2
:10B690008B60106D48604FF48050C860204670BDCC
:10B6A000F0850020DC59002013460A460146014877
:10B6B00000F0F2BB245A002008B1034900E003491E
:10B6C0000022034800F0FEBB74DC0F0044DC0F00D6
:10B6D000245A002008B5009313460A460146024842
:10B6E00000F088FC08BD0000245A0020084910B56D
:10B6F00008600020FFF748F9064800F00DFA00281E
:10B7000004D1BDE81040034800F026B810BD000089
:10B71000BC59002089A90F00002070471FB5890877
:10B72000002201AB009283E80700684618DF04B0EE
:10B7300010BD00001FB5044B0FCB8DE80F0068460D
:10B7400018DF04B010BD0000F8DB0F004FF480508C
:10B75000410408600020704710B5040011D001209A
:10B76000FFF7AAFF00280BD100F04EFA00F0DEFA36
:10B7700048B10949081F00F097FA012803D00320B7
:10B7800010BD072010BD04480838C4600020FFF732
:10B79000BFF9002010BD0000E4590020816819B1F4
:10B7A000024A1821FEF7BEBA07207047B1B70F0052
:10B7B000AFF3008030B587B0044618221F496846B1
:10B7C000FCF72BFE20788DF8000022781C4D0D2A06
:10B7D00025D2DFE802F0240B270B0B240B240B24CB
:10B7E00024240700E968072088471BE020466946B3
:10B7F000062A01D0012A01D1027C2A702A78012A66
:10B8000005D0022A06D000202870052008E0FFF7A6
:10B81000C7FE07E0FFF70EFF20B907B030BD0220DA
:10B820008DF80100D4E90112684690479DF80100A7
:10B830000128F2D0E96805208847EEE720DC0F00F8
:10B84000DC59002038B105490160054941600121FA
:10B850000172002070470E207047000065B80F008D
:10B860009DB80F0010B50C0001464FF0110007D035
:10B870002278052A05D2DFE802F00F050D0F0F0030
:10B880000E2010BD084600F051F80028F9D1022121
:10B89000217010BD112010BD082010BD02460820E7
:10B8A00041B10B78022B04D1022A05D0032A00D122
:10B8B000112070470E207047002003220A70704745
:10B8C00070B50B480024D0F82413491C03D1D0F8DC
:10B8D0006403401C09D04FF47F25284600F0F2FB9A
:10B8E000C9220349284600F01DFC204670BD000017
:10B8F000F085002010B528B11C220349FCF78DFD0E
:10B90000002010BD0E2010BD64F30F0010B5064CD2
:10B9100000221821201DFEF793FE2168814201D1EB
:10B92000012010BD002010BD64F30F0070B50C4D58
:10B930000400D5F8640305F5597503D0401C03D005
:10B94000082070BD0E2070BD00221821201DFEF7BA
:10B9500077FE206007222146284629DF70BD0000BF
:10B9600000F00F00014901F06FBD000000F00F0072
:10B9700010B5FFF7A1FE30B900F01CF8002000F070
:10B980009DF8002800D0032010BD000010B5FF2254
:10B990004FF400710648FCF761FD0548202124386A
:10B9A000FCF763FD024900205C39086310BD00000C
:10B9B0004C8600202DE9F0472E48FEF75FFE2E4E04
:10B9C000074634682046FEF759FE4FF0010A4FF053
:10B9D000000958B16068012806D02046FEF7BEFC79
:10B9E000D4F85C12884201D1012500E00025234CE7
:10B9F0004FF002084FF460719FB10A461D4920467E
:10BA0000FCF70BFD9DB1366825465422311D281DDB
:10BA1000FCF703FD4FF4327206F15C0105F15C00A6
:10BA200003E015B30A4615483168FCF7F6FC606878
:10BA3000012818D11249402201F5E470FCF7EDFC11
:10BA40000F491C22403101F5E470FCF7E6FC84F854
:10BA5000609284F8A1A20B4884F8E292E169C0F8F0
:10BA60002210C4F80480BDE8F0870448FCF7FDFC10
:10BA7000F7E7000000F00F00EC590020F0850020EF
:10BA80004C8700207088002070B50546094801F0F9
:10BA9000E5FC084C20602046FEF760FCC4F85C0220
:10BAA000A4F5E0632A462146BDE87040024801F053
:10BAB000DABC0000F085002000F00F0070B50546EC
:10BAC0000020FFF7E1FF040003D10349284601F0FD
:10BAD000BBFC204670BD0000F08500204FF4805074
:10BAE000704700002DE9F04107460948094D401B09
:10BAF000C6080020044607E005EBC400416838464C
:10BB00008847002802D1641CB442F5D3BDE8F08117
:10BB100088DE0F0080DE0F002DE9F041074609485E
:10BB2000094D401BC6080020044606E055F83410B5
:10BB300038468847002802D1641CB442F6D3BDE8D9
:10BB4000F081000088DE0F0080DE0F00012201F08E
:10BB500005BA38B5144602780B467AB1012A04D0EA
:10BB6000022A0DD0032A1BD112E0D0F80150002286
:10BB700021461846FEF764FDA84211D1012038BDC8
:10BB800001B02246BDE830400023401C00F00AB856
:10BB9000411C40220020009400F0F2F80128EED071
:10BBA000002038BD2DE9F041AAB005462020884686
:10BBB00029901E46174601247C2102A8FCF755FC5B
:10BBC000FEF76CFD2EB12022294621A8FFF756FC76
:10BBD00021AD29A90A48CDE900013B464246094961
:10BBE00002A8FFF78BFB28B9202229460448FCF75E
:10BBF00047FC00B100242AB02046BDE8F0810000D7
:10BC0000448D002014D90F0010B50648064C806BF7
:10BC100020B101F09DFC08B1012000E0002020705F
:10BC200010BD0000F0850020F05900202DE9F04102
:10BC30000F4C07460D46E06BA26B0126411991425D
:10BC400001D9032610E00A492A465C3108443946E6
:10BC5000FCF7E3FBE06B064A2844E06340322946E8
:10BC60003846FEF7EDFC20643046BDE8F081000068
:10BC7000F085002070B504004FF0010504D0B4F544
:10BC8000007F03D9042508E0032506E004490020CD
:10BC90000870FFF77BFE03488463284670BD0000F0
:10BCA000F0590020F08500202DE9F04106461D489E
:10BCB0000F46C16B806B814201D008242FE01A4DE2
:10BCC000287840B1FFF706FC30603946E86801F09B
:10BCD00047FD044623E001F03BFCF8B100F02CF8EE
:10BCE0000446002030603860012C0FD13946E868E6
:10BCF00001F036FD0446012808D1386801270021EB
:10BD00003B460A46FFF700FC18B10424FFF73EFE4D
:10BD100005E0FFF7DFFB30602F7000E005242046D0
:10BD2000BDE8F081F0850020F0590020014800783E
:10BD300070470000F059002038B50F4C251D002039
:10BD400094F86C31014602463BB194F8D802B4F83D
:10BD5000DA2204F5B87504F53771084B9C68009435
:10BD60005B6800F00DF8012804D1281DBDE83840BB
:10BD700000F052B838BD000070890020F059002052
:10BD80002DE9F041CCB0064620200D464A901F46D2
:10BD90001446DDF848817C212BA8FCF766FBA42122
:10BDA00002A8FCF762FBFEF779FC25B12EB1162044
:10BDB0004CB0BDE8F0811320FAE74AA91448CDE958
:10BDC000000143463A4613492BA8FFF797FA08B9F2
:10BDD000402C01D00A20EBE70D4822462946403886
:10BDE000FCF71BFB0A4820214038FFF718FB0848E6
:10BDF00040214038CDE90001A0F14801044A02A8E1
:10BE00004A9BFFF751FA08B10520D1E70120CFE79F
:10BE1000248D002014D90F0070B5044690F854000A
:10BE2000012570B394F8550028B1012803D00228E9
:10BE300001D003282AD194F86E00032801D01425DC
:10BE400025E0207AE8B1E068342801D011251EE011
:10BE5000204601F097FA68B1207898B194F855100F
:10BE60000C4849B1012907D06168C06881420ED8E9
:10BE700010250CE012250AE061688068814206D234
:10BE8000F6E703E094F85500012800D00F25284676
:10BE900070BD0000F08500202DE9F04104464068A7
:10BEA00015461E4602680F466A432046FDF7B6FE59
:10BEB000206833462A46D0F810C039462046BDE8EF
:10BEC000F041604701600B68114618472DE9F041C9
:10BED00028B1016819B1C969BDE8F04108470D4DA5
:10BEE0000D480024461B14270DE000BF04EB84001E
:10BEF00005EB8000016829B1C969884710B10120AC
:10BF0000BDE8F081641CB6FBF7F0A042EED800203B
:10BF1000F6E70000245A0020385A00200448012186
:10BF20004174007A08B1002070470120704700007A
:10BF30005C8F0020012801D0032808D10449002289
:10BF400001284A7400D00020087401F001B970473C
:10BF50005C8F002070B50146022801D0032943D12F
:10BF6000224C207A00283FD0012831D002282FD13E
:10BF70001F4800230229006802D0032928D119E0B4
:10BF8000E360027912B1012A22D10BE0D0E9056504
:10BF9000721B142A00D314222A4482614569AA42E2
:10BFA0000ED015E00169491C0161426991420FD12F
:10BFB000237213E0E268521CE260082A08D9E360A9
:10BFC000237202290AD00D21FEF769FD01F0B6F8AF
:10BFD000607C28B1BDE8704000F0E0B90021F3E7D3
:10BFE000BDE8704001F0B4B870BD00005C8F002067
:10BFF000145A00202DE9F84304461D4616460F4604
:10C000000846DDF82080FDF703FE3046FDF700FE10
:10C010002A4639462046FDF701FECDF8008020680B
:10C020002B463246D0F80CC039462046E047BDE8E2
:10C03000F8832DE9FF411C46DDE90A7815460E46D6
:10C04000684600F00FF846EA450141EA840141EAFA
:10C05000072242EA0841009A00EB8200C0F800176C
:10C06000BDE8FF810168202902D24FF0A04070474F
:10C0700001F01F01016001487047000000030050FB
:10C080000168202902D24FF0A040704701F01F0143
:10C0900001600148704700000003005038B50124DA
:10C0A0000090684631B1FFF7DDFF00998C40C0F881
:10C0B000084538BDFFF7D6FF00998C40C0F80C4505
:10C0C00038BD0000094902220A60BFF36F8FBFF339
:10C0D0004F8F0A1D106006480268002AFCD000201D
:10C0E0000860BFF36F8FBFF34F8F704704E50140C7
:10C0F00000E40140094A01231360BFF36F8FBFF3CF
:10C100004F8F0160064801680029FCD000201060B4
:10C11000BFF36F8FBFF34F8F7047000004E50140FE
:10C1200000E4014070B50E4C01232360BFF36F8F14
:10C13000BFF34F8F00230B4D08E000BF51F8236081
:10C1400040F823602E68002EFCD05B1C9342F5D390
:10C1500000202060BFF36F8FBFF34F8F70BD0000D2
:10C1600004E5014000E4014001480068C0B27047A6
:10C170001C05004008B5002242504058009008BD00
:10C1800020B1034909680160002070470E20704704
:10C190000CDD0F00FEB506460D460846FFF7F0FF22
:10C1A000002844D1002400940194012706208DF832
:10C1B0000060ADF8040002948DF8027069462020FA
:10C1C0002A6869DF00948DF801708DF802400194AF
:10C1D00002948DF80340694640202A6869DF009484
:10C1E0008DF80060F720ADF80200019402946946D2
:10C1F00023202A6869DF0094019402948DF800706E
:10C20000694601202A6869DF4FF4B060009001940C
:10C2100002946946A1202A6869DF0094019402947F
:10C220008DF800406946A0202A6869DF0020FEBD25
:10C2300060DF002802D1024A01211170704700001E
:10C240001F5A002030B51548ADF5017D0078002853
:10C2500021D04FF4FA7500BFADF8005280A96846AE
:10C2600061DF38B1052816D00DF5017DBDE83040FD
:10C27000FDF756BD6C460A497DA800F0BBF806E004
:10C28000D0E90021204690477DA800F0CAF87F98A9
:10C290000028E1D0F4E70DF5017D30BD1F5A0020E4
:10C2A00010DD0F00F8B5134C2078C0B10120A0704C
:10C2B00001F09CF8112814D0022001F0AFF80025FD
:10C2C0008DF800506846FDF7B3FD11DF0646257076
:10C2D0009DF80000FDF7D0FD2EB13046F8BD0820D6
:10C2E000F8BD0020F8BDA57001F0E6F8032001F0CC
:10C2F00095F8F6E71C5A00207CB5194C207808B157
:10C3000008207CBD0120A070002001F06FF81128EA
:10C3100019D0002001F082F8124800260068019030
:10C320008DF800606846FDF783FD0F4901A810DF16
:10C3300005000AD0002020709DF80000FDF79CFD4C
:10C340002DB128467CBD00207CBD0120F3E7A670FE
:10C35000667001F0D1F8012001F060F8F3E7000009
:10C360001C5A0020A4DC0F001D9D0F000EB50749CC
:10C37000684600F03FF805E0D0E9001088476846BD
:10C3800000F04FF802980028F6D10EBDC0DC0F0077
:10C3900001480078704700001C5A00200548817849
:10C3A00019B1007818B1FFF77DBF08207047FFF77B
:10C3B000A3BF00001C5A00201FB568464BDF30B1F8
:10C3C000052814D004B0BDE81040FDF7A9BC084909
:10C3D00001A800F00FF806E0D0E90021009890478E
:10C3E00001A800F01EF803980028E6D0F4E71FBD6E
:10C3F0002CDD0F00016009684160AFF3008010B5CB
:10C40000D0E900215368994201D1002104E0D1E92B
:10C410000034A34202D01946816010BD083141604A
:10C42000F0E7816800290BD0026892680A448260B4
:10C4300041684B689A4203D108314160FFF7DFBF82
:10C44000704700002DE9F04104461348134BC01A11
:10C450000C21B0FBF1F6A0694FF0FF3110F8022C6F
:10C4600002B92169002011E000EB400503EB8505CE
:10C470002F68974209D14F1C02D06F688F4204D1B8
:10C4800094E80F00AD68A84703E0401CB042EBD32E
:10C4900001202060BDE8F081D8DE0F00CCDE0F0067
:10C4A00002480068002800D00120704700040140C5
:10C4B00030B587B00C460546182217496846FBF789
:10C4C000ACFF217B15488DF800100195012906D09D
:10C4D000022917D0062919D1607B049016E08188C3
:10C4E000C180607B0490217CE08961F31F40617C06
:10C4F00040EA016005900498012807D10848FFF739
:10C50000F1FA03E0B4F80D108180C1806846FFF7AE
:10C5100045F907B030BD000048DB0F00C0590020CE
:10C5200080DE0F002DE9F0410C460546FFF7FEFBCB
:10C530000826B8B16969032041B3154A154B0F05A8
:10C5400005D0576DD3F808C00F4467451ED1B1F52B
:10C55000805F01D9042019E0506DD3F808C0471856
:10C56000674502D96670BDE8F0815164D16C1065F1
:10C570009164106369695A6801F6FF711044090BF0
:10C580000022FFF791F80028EDD005206070EAE75F
:10C59000F0850020DC59002010B5044686B000204C
:10C5A000FFF794FC30B1154A18212046FDF7BAFB7D
:10C5B00006B010BD182212496846FBF72EFF11483D
:10C5C000026D114881688A4210D14068FFF7BEFAB7
:10C5D0008DF80100FEF78DFA8DF80100D4E9011203
:10C5E000684690470948FFF769FAE1E701208DF8AE
:10C5F0000100D4E9011268469047D9E799C50F00B8
:10C6000008DC0F00F0850020DC59002091C60F00E7
:10C610002DE9F0410E460446FFF788FB60B11A4D44
:10C62000D5E91401401AA18A6A6C0844904205D9E0
:10C6300003207070BDE8F0810820FAE7134A286BE8
:10C6400052688718104A20694832FDF7F9FFD4E98B
:10C6500003318046A28A3846FFF73CF820B1D4E97E
:10C660000310BDE8F0410847A18A286B08442863FD
:10C67000A18A286DC5F8488008442865C6F8088056
:10C68000286D7060D6E70000F0850020DC5900209E
:10C6900001490620C9680847DC590020BFF34F8FC5
:10C6A00005480168054A01F4E06111430160BFF3E8
:10C6B0004F8F00BFFDE700000CED00E00400FA051D
:10C6C00001460148FEF7EFBB88DE0F0030B58A1D3A
:10C6D0008B79083187B0022B33D153888489A342E8
:10C6E0002FD1127A012A2CD1184C0DF1040C3CCC1C
:10C6F0008CE83C000A89ADF80C204A890C31049181
:10C700001249ADF80E208039114C096A0591CDF817
:10C7100018D0018A05AA6088ADDF18B96846FDF710
:10C7200011FE38B10020ADF8080001A96088B0DF23
:10C7300050B106E040F2FD10ADF8080001A9608894
:10C74000B0DF002007B030BD0120FBE760DB0F0049
:10C75000C0590020F8B50D4614460646694600F05B
:10C760005DFA00280FD0009BB3F5803F0AD2981CD9
:10C77000834207D8A9780222B2EB911F02D02989FF
:10C78000814201D20020F8BD2380A11C3046009ACE
:10C7900000F07AFBF8BD114600F0D5B8114600F064
:10C7A000E7B8F8B50C4615460646694600F036FA75
:10C7B00000280CD0009A501C904207D3A178022385
:10C7C000B3EB911F02D02189814201D20020F8BD34
:10C7D0002946304600F058FB009A0021A954F8BDC4
:10C7E0002DE9FF410C46CE6817460546694600F024
:10C7F0001DFB00280ED0E06800280BD0A0783A4638
:10C80000C0F3011002283146684606D000F0DEF879
:10C810000199696004B0BDE8F08100F085F8F7E7A0
:10C820007CB50D461446694600F095F9002820D0E5
:10C830002889082806D0042809D002280AD001280F
:10C840000CD015E0DDE90001C4E900010AE0009820
:10C85000206006E0009800B2208002E0009840B21C
:10C860002070C117DDE9002350405940084301D032
:10C8700000207CBD01207CBD7CB50D461446694678
:10C8800000F0A7F9002820D02889082807D0002127
:10C89000042809D002280AD001280CD014E0DDE9D0
:10C8A0000001C4E9000109E00098206006E000985A
:10C8B00080B2208002E00098C0B22070DDE9002341
:10C8C00050405940084301D000207CBD01207CBD70
:10C8D0007CB50D461446694600F07BF9002820D04F
:10C8E0002889082808D00099CA1704280BD00228E4
:10C8F0000CD001280DD013E0DDE90012C4E90012CC
:10C900000846134608E00846216004E008B220808B
:10C9100001E048B22070C31748405340184301D08B
:10C9200000207CBD01207CBD70B50D460646144636
:10C930001146284600F095FA224629463046BDE8C1
:10C94000704000F043B838B50C460422694600F048
:10C950009BFA00280BD09DF80210BDF8000061F38F
:10C960001F409DF8031040EA01602060012038BD9F
:10C970001CB50C460822694600F086FA002824D02F
:10C980009DF801109DF800209DF80230080E42EA43
:10C99000012242EA034240EA13409DF803309DF829
:10C9A000041040EA132008439DF8051042EA036290
:10C9B00040EA01209DF8061040EA01409DF807106A
:10C9C00040EA0160C4E9002001201CBD2DE9F04FC0
:10C9D00005469DB000200F90064610904FF0FF3A9C
:10C9E00001A800F05FF94FF0010B0DF13C0983E065
:10C9F00012AB6A460BA9284600F0CAF850B101A84C
:10CA0000009900F060F960B10298807810F0300F62
:10CA100054D061E09DF84800002871D11DB0BDE8F8
:10CA2000F08F0098B04243D3029C01AE0298807808
:10CA300000F00F00082812D0304600F05BF9029891
:10CA4000A042F3D156460098B04231D3D5F80880C1
:10CA500007909DF82C000E900598046821E002983C
:10CA60000688F0E7206807682FB1214628460E9B0C
:10CA7000079AB84712E01195216807980E9F8968B8
:10CA8000098881420CD1214617A8FEF75DF984F888
:10CA90000CB017AA39461198FDF75FFE0028BDD0EB
:10CAA000A46814B1A9684145DCD0A968414523D1E7
:10CAB0009DF82C10284600F023FA1BE0039840282C
:10CAC0000AD200F01F000BFA00F20398400959F84F
:10CAD0002030134349F82030EC682CB101AB9DF8AD
:10CAE0002C2028460099A04701AA9DF82C10284622
:10CAF000FDF733FE002891D0A86800287FF478AFB6
:10CB0000DDE90204857801A800F0F4F80028F7D1E7
:10CB100015F0300F03D10298008800B1641CC4B135
:10CB20000020494605E000BF51F82020521C0ED1DC
:10CB3000401CB0EB541FF7D3600959F8201004F0E3
:10CB40001F00C0F120022AFA02F0814201D0002029
:10CB500064E7012062E71CB50C46694600F039F82D
:10CB6000002814D0DDE90002C10709D051084FEABE
:10CB700030006FEA00026FEA0100C4E9002004E01F
:10CB800051084FEA3000C4E900014FF001001CBD1C
:10CB9000F8B507460020187008700E4610601C4655
:10CBA00015466946384600F039F801004FF001009B
:10CBB00009D0009959B1C8082860009800F0070012
:10CBC00030700120F8BDB96809B10020F8BD2070AF
:10CBD000FBE72DE9F8430026884681463446354672
:10CBE00004E0402E02D30020BDE8F88369464846A1
:10CBF00000F076F90028F7D09DF80070324607F073
:10CC00007F00C10FFBF7FAFB29430443F61D0D46D5
:10CC10003806E6D4C8E900410120E5E7F8B50E463C
:10CC20000746694600F05CF900280AD09DF80040EC
:10CC3000200616D5072504F07F0403E0202D01D33C
:10CC40000020F8BD6946384600F04AF90028F8D0BF
:10CC50009DF8001001F07F00A8400443ED1D080678
:10CC6000ECD401203460F8BD10B559680B4AC9688E
:10CC7000914212D10A4AD0E90110D2E9013423438A
:10CC800001D0002008E011F8013BA0F101001B06D3
:10CC9000F9D4C2E901100120907010BD90D90F00A5
:10CCA000F0590020C26000230160C0E901138B88A5
:10CCB0001A440261B1F906301A444261088800281A
:10CCC00000D00120704770B545680E460446606884
:10CCD0000188B14206D1807800F00F00082801D009
:10CCE000012070BD204600F005F86068A842EED132
:10CCF000002070BD30B541680A885AB101F11003B7
:10CD000043600A8A42B18C780A89C4F30115032D65
:10CD100007D00BE0002030BDC2680168FFF7C2FFFA
:10CD2000F8E79D78C5F30115032D06D00225B5EB74
:10CD3000141F08D14C89624309E08D8804690022E0
:10CD4000641B046103E0B5EB941F00D104228978D1
:10CD500011F0300F02D18168491C81609C88016903
:10CD6000214411440161B3F90620114441610120BD
:10CD700030BD30B54168002487B0897801F00F02DA
:10CD8000082A11D08A091ED00222B2EB911F09D1C4
:10CD90000269C1F301110229146001D0032901D1F4
:10CDA0004069048007B030BD0069056808E02C7355
:10CDB00029466846FDF7C8FF6846FFF7DAFFAD6809
:10CDC000002DF4D1EEE7C1F30111012912D002299F
:10CDD000E6D00329E4D04268917801F00F010729D9
:10CDE0000BD0D16881B11289006907B0BDE830402D
:10CDF000FBF713BB41690C70EDE70169D06807B020
:10CE0000BDE8304000F02DB81189006907B0BDE8D9
:10CE10003040FBF72ABB000010B5034B002408C0CC
:10CE200080E8160010BD0000ABA40F0038B50D4619
:10CE300004466946FFF7F2FE00280BD0D4E9000251
:10CE4000D4E90213C5E90002C5E902130098814242
:10CE500001D2002038BDA860A168081AA060012096
:10CE600038BD00B50A4687B001466846FFF71AFF8D
:10CE7000002807D06846FFF77CFF6846FFF73AFFB7
:10CE80000028F7D107B000BD7FB514460546A9B903
:10CE9000124A2868904208D110E0102269462846BC
:10CEA000FFF7F2FF002807D0103C102CF5D82246DF
:10CEB00069462846FFF7E8FF04B070BDA868A042A5
:10CEC00001D20020F8E72B68224628469847002820
:10CED000F2D0A868001BA8600120EDE7ABA40F000A
:10CEE00010B504468068002809D023680122204636
:10CEF0009847002803D0A068401EA060012010BD04
:10CF000038B5002439B1012912D0022912D00529DF
:10CF10001DD0002038BD0546012269462846FFF78E
:10CF2000B3FF90B19DF800000006F5D4012038BD94
:10CF300008220DE005466946FFF770FE28B1002182
:10CF40002846009AFFF7A0FF38BD204638BD0422CE
:10CF5000BDE838400021FFF797BF00002DE9F04FF2
:10CF600081462C4817460E46C5680A4693B00124F0
:10CF700049462846FDF7DEFDDFF89C80A24670B1E9
:10CF800095F8550068B100F00101C0F340024B462E
:10CF90002846CDE9006700F043F8D8B11BE017241C
:10CFA00019E0CDE9006A4B460022294602A8FDF7A8
:10CFB000DBF94FF0000B68B10FB3412202A917480B
:10CFC000FBF72BFAC8F820B0C8F82CA06968C8F89D
:10CFD000081017E005246FB1012C13D00E4824303F
:10CFE000FEF788FAFEF7D2FCC8F8489013B0204646
:10CFF000BDE8F08F012C02D0FEF7C8FCF6E7C8F8B8
:10D0000014A0F3E7002231464846FDF719FBC8E9B2
:10D010000960E7E7F0590020F085002091880020A2
:10D020002DE9F047A4B08946DDE92C5A044698461C
:10D030001646442102A8FBF718FA442113A8FBF76F
:10D0400014FA4746B9F1000F38D008F50050384AB5
:10D050004368A16D934255D14B1EC3F30B03C91A0C
:10D0600041F6FF73D0F808C019448C454AD34FF4F9
:10D0700040514B6893420DD10A78102A01D90969B1
:10D0800000E000210278102A01D9006900E00020A8
:10D09000814237D14046FDF727FE00B18EB3012112
:10D0A000A06DCDE9000143460022214602A8FDF70C
:10D0B0005BF9002827D0A06D07442D1A56B1002037
:10D0C000CDE900503B464A46214613A8FDF74CF9EE
:10D0D000002818D0BAF1000F28D0164DB9F1000F72
:10D0E00019D04046FDF700FE18B105F11800FEF713
:10D0F00001FA412202A91048FBF78FF936B1AC20A2
:10D1000005E0FFE7002024B0BDE8F087A520E86235
:10D11000A06D686301E0AA20E8623EB106484122A2
:10D1200013A98230FBF779F96068E8600120EAE72B
:10D13000DBE5B151F085002050880020034802490A
:10D140000068FDF757BE0000185A002064DC0F008D
:10D150002DE9F041224C0025224E207A012730B9DA
:10D160002148311D0068FDF750FE306038B10220C3
:10D1700020723168087928B101281CD114E065605B
:10D18000BDE8F081D1E90503C01A142800D31420AA
:10D19000B7EB900F01D2820800E001220869C9684C
:10D1A0001844194429DF03E0D1E90301084428DFCA
:10D1B00058B1112812D003213068FDF770FC257298
:10D1C0006560BDE8F041FFF7B9BF207C0028D7D1EA
:10D1D000BDE8F04100210220FEF7BCBE2772CFE778
:10D1E0005C8F0020145A002064DC0F0010B5074C3F
:10D1F000201DFDF723FE002806D1607C002803D106
:10D20000BDE81040FFF7A4BF10BD00005C8F0020F8
:10D2100010B510461A46FBF700F9002010BD10B5F6
:10D2200010461A46FBF7F9F8002010BD2DE9F04131
:10D230001E681C461546074621B1012918D005294C
:10D2400023D119E000202060401C2060B0421CD88F
:10D25000012229463846FFF717FE002806D015F8A8
:10D26000010B000601D52068EEE70120BDE8F08142
:10D2700008200246186002E0042002461860294691
:10D280003846BDE8F041FFF7FFBD0020EEE770B57E
:10D2900016460A460446C11C104600F03FFA0546F1
:10D2A00061193046C91C00F039FA284470BD0000ED
:10D2B00003B5094A85B0D2E91612CDE90012074933
:10D2C0008989ADF8001006A9CDE902100448694625
:10D2D0004088AEDF07B000BDE0DA0F00946E00209A
:10D2E000C0590020084670470846704770B5FEF7E1
:10D2F000F5FB114A114E136B546B916CE21A551EDB
:10D30000C5F30B05521B42F2040518446D5802F692
:10D31000FF72B54201D0032070BD1944A34201D170
:10D32000002070BD0823FDF761FC0028F9D1BDE89D
:10D330007040FEF7C3BB0000F0850020DBE5B15173
:10D34000F0B50546002003464FF440540C4E4FF60E
:10D35000FE7712E0D4F804C0B44505D155F823C0D7
:10D36000B4F80CE0F44504D02AB155F823C0BC450C
:10D3700001D10120F0BD5B1CDBB28B42EAD3F0BDD2
:10D38000DBE5B15110B54FF44051174B4A68018AA3
:10D390009A4221D171B100F11403426990F855000D
:10D3A00062B1042808D00022BDE81040C9B2184676
:10D3B000FFF7C6BF002010BD0122F5E710B101281C
:10D3C00008D1F7E7012905D9C9B200221846FFF7AD
:10D3D000B7FFEFE7012010BD11B141690029E9D184
:10D3E00000780028F6D110BDDBE5B1513EB504460A
:10D3F00009496846FEF7FEFF08E000BFD0E90021BA
:10D400002046904730B16846FFF70BF80298002895
:10D41000F4D13EBD11203EBDA8DC0F003EB5044650
:10D4200008496846FEF7E6FF07E000BFD0E90021A3
:10D43000204690476846FEF7F4FF02980028F5D191
:10D440003EBD0000B4DC0F0002460348014B0068FB
:10D4500000F009B870820020EC5900200022582109
:10D46000001DFDF7EDB82DE9F04114464FF460754D
:10D470001E460F4680462A46FBF702F830B10022CE
:10D4800001214046FEF710F998B905E00CB10020E3
:10D49000A0470020BDE8F0812A4639463046FAF719
:10D4A000BCFF23462A4631464046FEF713F90028C2
:10D4B000F0D00320EEE7000010B51620FCF796FB35
:10D4C00048B10C4882684FF4800152B1016821F4E0
:10D4D0008001016010BDBDE8104042F20100FCF780
:10D4E0001FBC4FF0E020C0F88011BFF34F8FBFF397
:10D4F0006F8F10BD648D002010B51620FCF776FBF1
:10D50000A0B1114890F800044009082811D2012167
:10D51000814011F0EC0F0CD00C4882684FF4800170
:10D520006AB1016841F48001016010BD42F201005E
:10D5300001E042F20200BDE81040FCF7F1BB4FF001
:10D54000E020C0F8001110BD16E000E0648D00205E
:10D550007FB52A4800F15C01826B6846FFF75CFCEE
:10D56000274E9DE8070006F11C03274C83E80700BF
:10D5700019462448C8600020A0706060A0604FF485
:10D580004771A6F54070FAF770FFA6F540721F4983
:10D5900002F54770FFF7C8F900282BD0A07858B3E0
:10D5A000A6F5407090F86C11002901781CD019BBC9
:10D5B00090F8720100B3D4E90112A6F5C675684669
:10D5C000FFF72AFC9DE80F001C3686E80F004FF499
:10D5D000B2712846FAF749FF2A460D493046FFF74F
:10D5E000A3F9002806D003E031B1807920B1094DBC
:10D5F0000120E56004B070BD0020FBE7F08500204D
:10D60000708C002069CC0F00F0590020B0DA0F00B8
:10D6100090D90F007889002070B503466FF07F40E5
:10D62000814200D20846124DD5F804250244081A5A
:10D63000411E22F07F425860952902D29630963AD8
:10D6400058601C7B05EB8400C0F8402509494FF465
:10D65000F86088474FF4A07000EB84012846FEF77D
:10D6600089FD4FF48030A040C5F8040370BD000070
:10D670000040024001D90F0070B5174E30780028E5
:10D6800029D1164800680125C0F3004008B91448A4
:10D690000560144C4FF480712046FEF76BFD4FF48B
:10D6A000A0712046FEF766FD4FF4A2712046FEF7FA
:10D6B00061FD0D49A02081F800040B49102020399C
:10D6C000C1F800010020C4F80805A560256002200B
:10D6D000C4F80403357070BD84590020180400405C
:10D6E000080000400040024024E000E070B515460C
:10D6F0000E460446FFF7C0FF314620462560BDE8D0
:10D700007040FFF789BF0000017B4FF480308840F4
:10D710000149C1F808037047004002400870020A3E
:10D720004A70020C8A70000EC87004207047000016
:10D7300010B50248FDF77FFB002010BD105A0020F5
:10D7400010B514210448FAF790FE04480068FDF76C
:10D750002BFB002010BD00005C8F002064DC0F005C
:10D7600030B50F2490F8553000220BB1042B03D1B3
:10D7700090F86450012D06D0DD0707D090F8565080
:10D78000012D02D002E0826E0DE0826D9B070AD56A
:10D7900090F85C30012B06D1064B006EC3F57E235A
:10D7A000984205D802440AB101240A60204630BDDF
:10D7B0000424FBE700800F0030B10068054988426F
:10D7C00005D048F20250704748F2015070470020DF
:10D7D000704700006E52464870B5FEF761FE0028A3
:10D7E00011D00020084A094B094C0121166801FAA2
:10D7F00000F52E4203D004EB8005C5F80036401C2E
:10D80000C0B20728F2D370BD080501403546526EFC
:10D8100000000140FFF7E0BF002070470020704784
:10D820002DE9FC4180461C4617460E460C48089DD3
:10D83000FDF704FB10B11120BDE8FC81A2083946B8
:10D840003046FEF76FFC0648FDF7F5FA33463A46D8
:10D8500001214046CDE90045FDF706F90020EBE740
:10D86000105A00202DE9F84F114D884681461E467A
:10D8700017466946DDF828A02868FDF7B0FA0400CD
:10D8800013D01C21FAF7F1FD00202071C4F800909C
:10D89000C4E90486C4E902A769462868FDF7C0FA0E
:10D8A000FFF7A4FC0020BDE8F88F0420FBE7000090
:10D8B00064DC0F005CC587019280E24489CAB1D262
:10D8C000E618B1173844165094D799A302E3E1A79C
:10D8D00075AB5D00A2F29AE9531C5DE36A48E3B0C0
:10D8E000216D9754937C154D3586FCE629F0EE3674
:10D8F000075CDD1B0D0E0F100B0C1819000000004B
:10D900000338FDD8704700004800000000204000A8
:10D910000000000079A50F0089A50F0031A50F00B8
:10D9200020000000000000000000000000000000D7
:10D9300001000100000000000100000000000000E4
:10D9400002000500010000002200000000000000AD
:10D9500000000000000000000000000000000000C7
:10D9600001000100000000000100000000000000B4
:10D97000020005000100000042000000000000005D
:10D980000000000000000000000000000000000097
:10D99000010011000400FCFF040000000000000072
:10D9A000020011000400FCFF040000000000000061
:10D9B000030021000400FCFF040010000000000030
:10D9C000040011000100FFFF010000000000000042
:10D9D000050011000200FEFF04000000000000002E
:10D9E000060011000400FCFF04000000000000001D
:10D9F000070011000400FCFF04000000000000000C
:10DA0000080017000200FEFF2400000030D90F00BC
:10DA1000090010000100FFFF010000002CD90F00D9
:10DA20000A0027000200FEFF4400030060D90F0037
:10DA300000000000000000000000000000000000E6
:10DA4000010011000100FFFF0100000000000000C4
:10DA5000020017000200FEFF6401000090D90F00D1
:10DA600000000000000000000000000000000000B6
:10DA700001000700000000006801000040DA0F000C
:10DA80000200010000000000010000000000000092
:10DA9000030005000100000042000000000000003B
:10DAA0000000000000000000000000000000000076
:10DAB000010017000400FCFF6801000040DA0F00BD
:10DAC000020017000400FCFFAC01000070DA0F0038
:10DAD0000000000000000000000000000000000046
:10DAE00000110300001113000200000001000000FB
:10DAF0000338FDD870470C000C00000058020000ED
:10DB00000200000000000000020000000000000011
:10DB1000586E002009000000000000000000000016
:10DB200001000000000000002800000000000000CC
:10DB300000000000000100000000010000000000E3
:10DB400000000000000000000000000000000000D5
:10DB5000BD9F0F000000000000000000000000005A
:10DB600002000000000001000000000000000000B2
:10DB70000800000000000000BD9F0F00C1C60F009C
:10DB80000000000000000000040000000000000091
:10DB90000000000000000000000000000000000085
:10DBA0000000000000000000000000000000000075
:10DBB000F400000000000000180000000000000059
:10DBC0000000000000000000000000000000000055
:10DBD0000000000000000000000000000000000045
:10DBE000170000000000000050EADA308883B89F78
:10DBF000604F15F30000C98E020000000000000015
:10DC00000000000000000000040000000000000010
:10DC10000000000000000000000000000000000004
:10DC200000010000000000000000000000000000F3
:10DC300000000000000000000010000004000000D0
:10DC40000100000085AC0F0031D70F0011D20F008A
:10DC500021D80F00D5A90F00E5D20F0019D80F0069
:10DC6000C9AC0F00708D00200010000004000000FF
:10DC70000100000091AC0F0041D70F001FD20F0030
:10DC800065D80F001DAA0F00E9D20F001DD80F00A4
:10DC9000D9AC0F00A4DE0F00ACDE0F0000000000C6
:10DCA000000000000100000794DC0F00A4DC0F005E
:10DCB00008000000CCDC0F00DCDC0F0008000000D6
:10DCC000DCDC0F00ECDC0F0008000000C4DE0F00FD
:10DCD000CCDE0F000000000000000000B4DE0F00EA
:10DCE000C4DE0F0000000000000000000000000083
:10DCF0000000000000000000000000009CDE0F009B
:10DD0000A4DE0F0000000000000000007859002091
:10DD1000ECDC0F000CDD0F0008000000ACDE0F0093
:10DD2000B4DE0F0000000000000000001CDD0F004A
:10DD30002CDD0F0008000000D1C80F0079C80F00CB
:10DD400021C80F0097C70F009DC70F0055C70F00D0
:10DD5000A3C70F00E1C70F00000000000200000091
:10DD600000000000F5980F00A1980F0067E6096A0F
:10DD700085AE67BB72F36E3C3AF54FA57F520E51EC
:10DD80008C68059BABD9831F19CDE05BFFFFFFFFBC
:10DD9000FFFFFFFFFFFFFFFF00000000000000008B
:10DDA0000000000001000000FFFFFFFFFCFFFFFF7D
:10DDB000FFFFFFFFFFFFFFFF00000000000000006B
:10DDC0000000000001000000FFFFFFFF512563FC81
:10DDD000C2CAB9F3849E17A7ADFAE6BCFFFFFFFFE6
:10DDE000FFFFFFFF00000000FFFFFFFF000000003B
:10DDF00096C298D84539A1F4A033EB2D817D0377E5
:10DE0000F240A463E5E6BCF847422CE1F2D1176B7F
:10DE1000F551BF376840B6CBCE5E316B5733CE2B52
:10DE2000169E0F7C4AEBE78E9B7F1AFEE242E34F81
:10DE3000FFFFFFFF7F0000008000000000000000E7
:10DE400000000000FFFFFFFF7F00000080000000D7
:10DE50000000000000000000D8DE0F00785900200C
:10DE6000C0000000CC9B0F0098DF0F00385A002044
:10DE700040750000DC9B0F00EDA50F0025A60F00EC
:10DE8000D5A00F0075A00F00D0590020A86E00206B
:10DE9000B96E0020BC6E0020F40000006DA10F00E0
:10DEA000000000001DBF0F000000000055BF0F0064
:10DEB0000000000045C20F0000000000B9C30F00C1
:10DEC0000000000035BF0F0000000000000000004F
:10DED0000300000045B80F00000000000000000033
:10DEE000000000000000000094590020A459002008
:10DEF0000000000000000000000000000000000022
:10DF00000000000000000000000000000000000011
:10DF10000100000000000000000000000000000000
:10DF2000FF00FFFF000000000000000000000000F4
:10DF300000000000000000000000000001000000E0
:10DF400000000000000000000000000000E00F00E2
:10DF500000000000000000000000000000000000C1
:10DF600000000000000000000000000000000000B1
:10DF700000000000000000000000000000000000A1
:10DF80000090D0030000000000000000F5A80F0082
:08DF9000001000000000100069
:020000041000EA
:0410140000800F0049
:020000041000EA
:0410180000E00F00E5
:04000005000F820165
:00000001FF
