:020000040002F8
:10700000A8EF01209D730200A5730200A773020080
:10701000A9730200AB730200AD7302000000000010
:10702000000000000000000000000000FD720200EF
:10703000B17302000000000041730200B57302004A
:10704000F1750200B7730200A979020011770200FE
:10705000B7730200B77302004D750200B7730200E8
:10706000B7730200B7730200B7730200B773020070
:10707000B7730200B7730200B7730200B773020060
:10708000B773020049760200B7730200B7730200BB
:10709000B7730200B7730200C9770200B77302002A
:1070A000B7730200B7730200B7730200B773020030
:1070B000B7730200B7730200000000000000000078
:1070C000B7730200B7730200B7730200B773020010
:1070D000B7730200B7730200B7730200B773020000
:1070E000B7730200B7730200B7730200000000001C
:1070F00000000000B773020000000000B773020038
:10710000000000000000000000000000000000007F
:10711000000000000000000000000000000000006F
:10712000000000000000000000000000000000005F
:10713000000000000000000000000000000000004F
:10714000000000000000000000000000000000003F
:10715000000000000000000000000000000000002F
:10716000000000000000000000000000000000001F
:10717000000000000000000000000000000000000F
:1071800000000000000000000000000000000000FF
:1071900000000000000000000000000000000000EF
:1071A00000000000000000000000000000000000DF
:1071B00000000000000000000000000000000000CF
:1071C00000000000000000000000000000000000BF
:1071D00000000000000000000000000000000000AF
:1071E000000000000000000000000000000000009F
:1071F000000000000000000000000000000000008F
:10720000DFF810D000F064F900480047F99E020052
:10721000AFF30080A8EF012030B4044654E8000F1B
:107220000D4644E80053002BF8D1156030BC704780
:1072300030B4044654E8000F40EA010544E8005326
:10724000002BF7D1156030BC704730B4044654E8C9
:10725000000F00EA010544E80053002BF7D1156048
:1072600030BC704730B4044654E8000F80EA010592
:1072700044E80053002BF7D1156030BC704730B4A0
:10728000044654E8000F00EB010544E80053002BCE
:10729000F7D1156030BC704730B4044654E8000F95
:1072A000A0EB010544E80053002BF7D1156030BC7A
:1072B000704770B404464FF0000054E8006F0D684A
:1072C000AE4207BF44E80023012044E800630E609B
:1072D000002B1CBF0020F0E770BC704730B40446A0
:1072E00054E8000F88422CBF451A054644E8005375
:1072F000002BF5D1156030BC70470000264B196893
:107300000868B0E8F04F80F30988BFF36F8F4FF043
:10731000000080F3118870470000000007480068F3
:1073200080F3088862B661B6BFF34F8FBFF36F8FEB
:107330004FF4F07080F3118800DF0000007002004D
:10734000EFF30980BFF36F8F134B1A681EF0100F15
:1073500008BF20ED108A20E9F04F106008B44FF00C
:10736000400080F31188BFF34F8FBFF36F8F06F09B
:1073700069FC4FF0000080F3118808BC19680868A8
:10738000B0E8F04F1EF0100F08BFB0EC108A80F389
:107390000988BFF36F8F7047242C00200648804770
:1073A00006480047FEE7FEE7FEE7FEE7FEE7FEE7EA
:1073B000FEE7FEE7FEE7FEE7CD770200017202007E
:1073C0002DE9F05F0546002092469B46884606461A
:1073D000814640241BE0284641464746224600F0AD
:1073E00067F853465A46C01A914110D311461846C1
:1073F000224600F016F82D1A67EB01084F46224688
:107400000120002100F00DF817EB00094E41201E6D
:10741000A4F10104DFDC484631462A464346BDE874
:10742000F09F202A04DB203A00FA02F10020704786
:107430009140C2F1200320FA03F3194390407047B2
:1074400000487047D8E7020040EA01039B0703D0D9
:1074500009E008C9121F08C0042AFAD203E011F893
:10746000013B00F8013B521EF9D27047D2B201E055
:1074700000F8012B491EFBD270470022F6E710B539
:1074800013460A4604461946FFF7F0FF204610BD92
:10749000421C10F8011B0029FBD1801A70470346DB
:1074A00011F8012B00F8012B002AF9D1184670477A
:1074B000202A04DB203A21FA02F00021704721FA49
:1074C00002F3D040C2F120029140084319467047B0
:1074D000064C074D06E0E06840F0010394E8070021
:1074E00098471034AC42F6D3FFF78EFE5CF00200F2
:1074F0007CF0020070B58C1810F8015B15F00703E2
:1075000001D110F8013B2A1106D110F8012B03E03C
:1075100010F8016B01F8016B5B1EF9D12B0705D444
:107520000023521E0DD401F8013BFAE710F8013B8D
:10753000CB1A921C03E013F8015B01F8015B521EA9
:10754000F9D5A142D8D3002070BD00002DE9FC413F
:107550000025DFF8948000954FF4807601242F46B3
:107560000195304603F0A0FB38B1D8F8040320425F
:1075700003D0304603F08EFB2543361D64007F1C8C
:10758000B6B2082FEDD34FF4BE74204603F08CFB47
:1075900048B1204603F07EFB45F000456A460221D3
:1075A000002003F0C5FA15F0FF0F16D001260024C5
:1075B0002E420ED008EB8401D1F81005D1F8101539
:1075C000C0F30520094AC1F3014152F8242002B159
:1075D00090477600641C082CEAD3002D02DA684636
:1075E00004F0E6FEBDE8FC8100600040203500208C
:1075F00070B54FF48076304603F000F8114CB505B5
:1076000060B1304603F001F80120C5F80803607945
:1076100020B9012060712168002088474FF48276EC
:10762000304602F0EBFF00280AD0304602F0EDFFB2
:107630000220C5F808032168BDE870400120084712
:1076400070BD0000742B00202DE9F041164E4FF460
:10765000A071304603F0EAFE0025EFF311844020CC
:1076600080F31188D6F804758100304603F0DEFE01
:1076700006F046FD381A20F07F46012E07D906F0A5
:1076800031FD022803D0002606F046FD0543761E94
:10769000FAD225B105494FF08050086040BFE0B2F2
:1076A00080F31188BDE8F0810010014004ED00E096
:1076B00000F080B970B50E46144900EB400001EBB4
:1076C000C0051446E86A183520B101280FD00228F9
:1076D00005D113E0284600F0A1F9A04201D2002410
:1076E00011E022463146284600F0D0F90BE028464A
:1076F00000F094F9A042F4D20446F2E7314628465D
:1077000000F097F90446204670BD0000103C0020B0
:10771000F8B51248124E04464FF48C7104F08FF8FD
:1077200000281AD00025C4F81851D4F81801009088
:10773000F07F3446FF2806D0A17F11B103F010FA84
:1077400001E003F07FFA65772572D4E9002101B0EA
:1077500004F10800BDE8F0401047F8BD00300040DB
:10776000FC35002000B585B022200090684603F06B
:1077700047FA009A032100EB8200C0F8001722208C
:1077800003F06AFA0F4B0DF1040C0FCB8CE80F00DD
:10779000FF208DF8070024208DF8060016208DF8B4
:1077A000050018208DF80400064800231A4601A998
:1077B000103802F097FF002801D000F059FA05B008
:1077C00000BD000028E7020003F0DCBF30B54FF039
:1077D00080520023D2E94C10082906D1CC06C4F807
:1077E0000C31C4F81031624C2360082955D1614B2B
:1077F0001B68614C23605F4B1B1D1B68241D2360AD
:107800005C4B08331B68241D23605A4B0C331B68E8
:10781000241D2360574B10331B68241D2360554BD8
:1078200014331B68241D2360524B18331B68524CC1
:10783000203423604F4B1C331B68241D23604D4BA9
:1078400020331B68241D23604A4B24331B68241DEE
:107850002360484B28331B68241D2360454B2C3381
:107860001B68241D2360434B30331B68424C40345B
:107870002360404B34331B68241D23603D4B383359
:107880001B68241D23603B4B3C331B68241D236075
:10789000384B40331B68241D2360082904D10300A2
:1078A00002D1374C354B2360082904D1030002D1A3
:1078B000344CFB232360082908D1030006D1324B46
:1078C00092F858521C6865F303041C60082904D11F
:1078D000030002D12D4C8B012360082906D12C48CE
:1078E0000168C90702D06FF00101016029480168F1
:1078F00041F470010160BFF34F8FBFF36F8FD2E986
:107900004C104FF01022082906D1042804D9D2F8CF
:107910000802174920310860D2F80002002803DB72
:10792000D2F8040200281FDA012004F0BDFB122166
:10793000C2F8001218480368002BFCD0C2F80412E9
:1079400001680029FCD0002004F0AEFBBFF34F8F8C
:1079500010487C380168114A01F4E061114301606C
:10796000BFF34F8F00BFFDE70E490D48086030BDE3
:10797000380500400404001020C500404881030081
:107980008C56004018F50040E40E0040409602403E
:107990000004004088ED00E000E401400400FA0526
:1079A0000090D003902C00200148006800470000A0
:1079B0007C2B002010B5124C02202061606111A0C8
:1079C000A06104F17800E0614FF4007020620020B3
:1079D000A06260620BA1A164E06204F51E71E16423
:1079E0001021A065C4E91410E06509A1E01DFFF7AE
:1079F00056FD08A12046FFF752FD2020A07110BDC2
:107A0000103C00205465726D696E616C00000000CE
:107A10005254540053454747455200000269C1681B
:107A20008A4203D88068401A104400E0501A401E71
:107A300070472DE9F047C4681746894606464FF05F
:107A400000083069A04201D9051B02E0B168201A84
:107A50000D1AB0686D1E001BA84200D80546BD4235
:107A600000D33D4670682A4620444946FFF7ECFCA7
:107A7000B0687F1B2C44A844A944A04200D1002434
:107A8000F460002FDDD14046BDE8F0872DE9F041DC
:107A900004468846D4E90207C51BE16860681646BB
:107AA0000844B54206D94146FFF7CEFCB819E0605C
:107AB000BDE8F0812A464146FFF7C6FC761B08EB7D
:107AC000050132466068FFF7BFFCE660F0E702E0C0
:107AD00008C8121F08C1002AFAD170477047002059
:107AE00001E001C1121F002AFBD1704701212028AB
:107AF00003DA81400548014003E0402802DA2038DB
:107B0000814009B10120704700207047FC06FFBD8D
:107B100090F82400012801D01F207047EE20704704
:107B200010B501220221002001F054FC08B1072801
:107B300010D107220221012001F04CFC08B10728D6
:107B400008D100210A22084601F044FC08B10728A8
:107B500000D1002010BD000000B5ADB0AC216846DA
:107B6000FFF78BFC2BA86DDFFB208DF8B000802089
:107B70008DF8B100FA208DF8B2002BA86CDF02203E
:107B80008DF8000000208DF8020006218DF803100A
:107B90000121ADF84C100B4A8DF87C101492402155
:107BA000CDE92210084829906946084800F001FCF8
:107BB00008B100F05DF80121044800F0F7FB2DB09A
:107BC00000BD0000062B0020C1C00200A82F00202D
:107BD00010B50321044800F099FC002803D0BDE84B
:107BE000104000F045B810BDA82F002010B572B6A7
:107BF00003F0DAFA03F026F90028FBD11148124904
:107C0000401AC408012000EB044010A103F034FA2C
:107C100011480068C00700D000BE022000EB0440FD
:107C20000EA103F029FABFF34F8F0B48E438016827
:107C30000E4A01F4E06111430160BFF34F8F00BFB2
:107C4000FDE70000ECF002008CF002004661746178
:107C50006C206572726F7200F0ED00E053797374FE
:107C6000656D207265736574000000000400FA05FC
:107C70000EB500210091CDE901106A4644F20100E1
:107C8000FFF7B4FF0EBD10B58268C368934203D0FE
:107C900001F048FF002010BD052010BD29B112B130
:107CA000531E134203D0092070470E207047016015
:107CB000838000218160C1600846704710B58268EA
:107CC000C3689A1A83889A4203D801F035FF0020CE
:107CD00010BD042010BD000010B502280ED10848C8
:107CE0000849401AC108032000EB0140044606A1E0
:107CF00003F0C2F9204610A103F0BEF9012010BD27
:107D0000ECF002008CF00200506F776572206D611C
:107D10006E6167656D656E742077616E7473207433
:107D20006F20726573657420746F20444655206D12
:107D30006F64652E00000000506F776572206D61E2
:107D40006E6167656D656E7420616C6C6F776564DC
:107D500020746F20726573657420746F20444655DB
:107D6000206D6F64652E000010B504F0BFFF017B2D
:107D700000290BD0417B39B1002101730168826871
:107D8000BDE81040084610470121F6E710BD00008D
:107D900038B5046800251AB110B1207B20B901E084
:107DA000072038BD606808B1082038BD0020206079
:107DB000A060E06011B10120002101E0002001215C
:107DC0006173A26006490246009123464FF47A711E
:107DD00004A006F0C3FA606000B90E25284638BD3D
:107DE000697D0200200000007CB54668044626B18B
:107DF000207B002803D000207CBD08207CBDEFF351
:107E00000580226008B300250A46019501AB0921CF
:107E10003046009506F0DCFA01282BD106F076F901
:107E2000024601AB06213046009506F0D1FA012842
:107E300020D1019800B312494FF08050086040BF34
:107E4000BFF34F8FBFF36F8F16E002250A46002362
:107E500004213046009506F0BBFA01280AD106F04D
:107E60004FF90246002301213046009506F0B0FA92
:107E7000012801D004207CBD01202073BBE7000055
:107E800004ED00E07CB504464068002500280CD0D5
:107E9000EFF30581B9B1019501AB002208210095EE
:107EA00006F096FA012817D101E008207CBD019860
:107EB000A0B10C494FF08050086040BFBFF34F8F16
:107EC000BFF36F8F0AE00221002300911A460321BD
:107ED00006F07EFA012801D004207CBD2573002025
:107EE0007CBD000004ED00E070B50A4E01460A4872
:107EF000B578FFF7C8FE04464DB10020B070711C84
:107F00000122C81D02F05AFC08B1FFF7B1FE20465D
:107F100070BD0000842B002020360020F0B5244ED8
:107F200089B01F460D00044672603FD0A8882968BA
:107F300082B22048FFF7B2FE002835D1A889A9688F
:107F400082B21C481030FFF7A9FE00282CD1202255
:107F500019496846FFF778FA60690690207C00B1FD
:107F600001208DF814008DF81C70607C00B10E208B
:107F70008DF81500E0680290A068039020680190D9
:107F8000606800900A480D4A6946083002F0E2FB3A
:107F9000002809D1B0702068401C05D00449012296
:107FA000491CC81D02F00AFC09B0F0BD0720FBE720
:107FB000842B002020360020B8E4020069D30200A0
:107FC00010B501461048FFF779FE040019D10F489B
:107FD0000F4A0178515C19B1001D04F00BF802E062
:107FE0000C3003F0E1FE60B9084907480839FFF793
:107FF0004AFE30B9054901220839044802F0EEFB77
:108000000446204610BD0000303600208C2B002096
:10801000602B002030B5EFF3108172B60D4A9468E2
:10802000012324B10370002900D162B630BD9360F2
:108030004FF0E023D3F88051074C25401560C3F87A
:108040008041D3F8844154605A17C3F88421002238
:108050000270E8E740360020FC06FFBD0B498A6845
:10806000002A11D000280FD1EFF3108072B60B68F0
:108070004FF0E022C2F800314B68C2F80431002210
:108080008A60002800D162B67047000040360020A8
:1080900070B5054608680C46411C04D002F0BEFDD0
:1080A000206802F00EFD6068411C02D0002102F041
:1080B000F6FC2968A069C1F82405607D227D296845
:1080C0001043C1F86C05D4E900122868C0F81425E3
:1080D000C0F80C15207D012814D1A068411C02D0E5
:1080E000002102F0DCFCE068411C04D002F096FDA7
:1080F000E06802F0E6FCD4E902122868C0F808251E
:10810000C0F8101570BD70B5054608680C46411CD6
:1081100004D002F08DFD206802F0DDFC6068411C97
:1081200002D0002102F0C4FC2968A069C1F824052E
:10813000607D217D2A680843C2F86C05D4E90012ED
:108140002868C0F80C15C0F81425207D012814D12A
:10815000A068411C02D0002102F0AAFCE068411C8A
:1081600004D002F065FDE06802F0B5FCD4E902122B
:108170002868C0F80825C0F8101570BD70B5150046
:10818000044609D00020286034B1206820B1A079CD
:10819000800703D0072070BD0E2070BD084600F098
:1081A00001FBC0B2142804D02179814203D80420F5
:1081B00070BD052070BDE288216800FB02102860B8
:1081C000002070BD2DE9FC47002517880646158064
:1081D00090F82D001446894630B13A46214648466B
:1081E00000F010FB051E09D1B0784FF00C0A18B34F
:1081F0002088C846001DB84202D95046BDE8FC8719
:10820000684679DF0028F9D12088032108F800109A
:1082100020881921401C80B2208008F80010208896
:10822000401C80B2208000EB0801BDF8000005F082
:108230003CFA218808442080F0780222C8B12188C5
:1082400096F9033001F1030C4846BC45D5D8425499
:1082500021884FF0010C491C89B2218000F801C02F
:108260002188491C89B2218009F801302088401CEE
:1082700020807068B8B1218890F9003001F1030CBA
:108280004846BC45B9D8425421880A22491C89B2C3
:10829000218042542188491C89B2218009F801308B
:1082A0002088401C2080308950B1CDE900474B46E2
:1082B0000622022106F1080005F0AEFA051E9DD146
:1082C000308A50B1CDE900474B460722032106F121
:1082D000100005F0A1FA051E90D1308B50B1CDE908
:1082E00000474B461522142106F1180005F094FAB8
:1082F000051E83D1306A30B13B462246494601F023
:1083000008FB051EDBD1706A30B13B462246494668
:1083100001F0B8FE051ED2D196F82C0038B13B46CC
:1083200022464946304604F0CBFD051EC7D13078C1
:1083300038B13B4622464946304601F02DFF051E26
:10834000BDD128465AE718B504460020ADF8000014
:1083500013466A46204600F006F8002802D0BDF811
:108360000000204418BD70B5E0B1DAB1002402E08D
:10837000045D2C44A4B2651C8D4206D21688A64228
:10838000F6D8061976789E42F2D18C420AD2A31C06
:10839000005D9BB200B1401E0004000C02D01C180E
:1083A0008C4201D9002070BD138070BD80F8301060
:1083B00070472DE9F0410D00044606D02CB195F828
:1083C0007A000026012803D006E00E20BDE8F081E7
:1083D00095F89800012821D04FF00108A6702C22B2
:1083E00005F17801201DFFF72FF884F83060D5F8EB
:1083F000A4006063D5F8A800A0634FF6FF70A4F84E
:10840000240404F58260C4F82004C4F82664A4F8A7
:108410002A6484F82C64207810B104E00720D5E7A2
:10842000FF2084F8540004F155072046C4F8107466
:10843000FFF76EFBA4F8140404F2144239462846F0
:10844000FFF7C0FE0028C1D104F23120C4F818049F
:108450002046FFF75DFBA4F81C0404F21C4205F162
:108460003C00D4F81814FFF7ADFE0028AED184F814
:108470005180208BA4F8480084F83C80266484F85E
:108480005060606900216064454604F13C02781E3A
:1084900072DF00289AD1257098E72C22001DFEF784
:1084A000D3BF10B50288102A1BD0112A20D0262A4B
:1084B0001DD1007A0C46012801D0022817D1A078DE
:1084C0000521401CB0FBF1F201FB1201204600F037
:1084D0001DF800280BD0A16B002908D0BDE8104082
:1084E0000847C27B012A02D18088A1F8240410BD6C
:1084F0000C46002184F82E148088B4F82414884295
:10850000F5D120790028F2D10121DFE72DE9F05FD4
:10851000044600780F4698B1A7700025C4F8265489
:10852000A4F82A5484F82C54A079012608B1012F0C
:1085300009D0E07980B1012F05D0022F03D00BE0E4
:108540000820BDE8F09F616B21B184F82D640820FC
:10855000884701E084F82D5404F2274100200A5C8A
:108560000AB1304603E0401C0628F8D300204FF043
:1085700002084FF0030B012F06D0022F0CD0032F5F
:108580000FD0042F15D110E0A17929B194F824104F
:1085900011B908B130460DE0E17911B108B140469A
:1085A00008E0207A08B1584604E0607A08B1042057
:1085B00000E02846A070616B41B1032801D0042877
:1085C00004D1607910B194F82E0498B184F82F5436
:1085D00004F13C0018210746FEF74FFF84F83C6089
:1085E00004F12C0003F0D8FE58B194F82C0084F864
:1085F000510008E084F8305484F82F64072088473D
:10860000E6E784F8516094F8240058B104F128009A
:1086100003F0C2FE20B194F8280084F8520001E073
:1086200084F8526084F85050A27804F2264104F590
:1086300082694FF0060A052A64D2DFE802F07C0363
:108640000F22420084F83160C4F82054C4E91015A8
:1086500084F83C808020A4F8480055E084F83180FC
:1086600094F82420384612B10722027001E080F805
:1086700000B0228A8281C4F820544160E168B96068
:1086800042E06069B860208BB88194F824003D46D0
:108690000028204602D084F83CA001E084F83C6029
:1086A00005F09CF850B185F814800421204601F0B3
:1086B00051FA38BB052184F8311021E084F831B03B
:1086C0001EE0E069B860208CB88194F824003D4633
:1086D0000028204602D084F83CA001E084F83C60E9
:1086E00005F07CF848B185F814800421204601F09B
:1086F00031FA38B984F831A002E0042084F831005E
:10870000C4F82094A07878B13A4604F15400D4F823
:10871000201472DF00287FF414AF94F8301094F81E
:10872000540073DF0028F6D1616B11B194F8310069
:108730008847002005E784F83150F5E770B504005C
:1087400012D001461C221448FEF77EFE1248134D3B
:108750000560206850B17ADF002806D120680168E2
:1087600029604068686005E00E2070BD0B487BDF23
:108770000028FAD108484FF6FF711438084A20F84B
:10878000041B0549343901600021FFF701FB002873
:10879000EBD0032070BD000074340020582B002063
:1087A00075D7020010B5044600F010F808B1204655
:1087B00010BD142010BD00000346034880680A461F
:1087C000194601F0DBB9000090340020142801D3D1
:1087D000002070470146014801F03CBD9434002060
:1087E00073B5074C05460648638801AA29460C3034
:1087F00000F044FC1128F6D01328F4D07CBD000012
:10880000002B00207CB5054608880C4609309042B4
:1088100001D90C207CBD68466DDF0028FAD1218883
:108820000820685420881B21401C80B220802954D5
:108830002088401C80B220802844DDF801100160AF
:10884000BDF8051081802088801D80B220809DF8B1
:108850000010490800D0012129542088401C2080A4
:1088600000207CBD18B103490860002070470E202D
:1088700070470000202C002010B54FF0FF31002081
:108880003DDF00280BD1B1213CDF002807D104488F
:10889000416901208847022002F09AFD002010BDA6
:1088A000983E0020044810B50068416900208847C0
:1088B000BDE81040FFF7E0BF202C002010B588B0C5
:1088C000044620216846FEF7D8FD0320ADF80000DD
:1088D00020788DF802009DF80D00172140F0280047
:1088E0008DF80D0001208DF810008DF81300ADF803
:1088F00004108DF812008DF80C008DF811006088BE
:10890000A21D694600F0FCFE08B010BD10B5184C61
:1089100086B01ECC8DE81E0048B1164C4FF6FF7194
:10892000A180006800216061217618B104E00E206A
:1089300006B010BD104860610E48FFF793FF002895
:10894000F6D101208DF812004FF65960ADF81000F5
:10895000A21C04A90120A8DF0028E9D10549684626
:1089600062DF0028E4D10348FFF7A8FFE0E700003A
:1089700040E70200983E0020F19A020010B500285E
:1089800023D003881C4C102B17D02146112B8A882A
:1089900015D0C988512B19D0532B16D1C0888842C5
:1089A00013D1207E002810D0FFF77CFF00280CD0C8
:1089B0006169BDE8104002200847808804E0808893
:1089C000824202D14FF6FF70A08010BD838893428F
:1089D000FBD110F8062F022AF7D142888A42F4D13F
:1089E000017A0429F1D00629EFD00529EDD0BDE8A0
:1089F0001040801C03F002BC983E00202DE9F0419D
:108A00000546007B042601272E4C012811D00228A0
:108A10002CD00226287B314600F08EF818B1206851
:108A2000416903208847206841690220BDE8F04180
:108A3000084720684FF00008417E49B10621012017
:108A400000F07AF800283BD0206841690320EDE768
:108A500007760121084600F06FF8002830D0226820
:108A6000112882F81880D5D10626D3E76A7B142A0C
:108A700022D80AB3DFF8508005F10E0108F1040096
:108A8000FEF7E2FC697BC8F8181021684046497E71
:108A90000029BFD1A0F10C010A68011F904768B1FD
:108AA0000F28B7D109480A49401AC00807EB00400F
:108AB000084902F0E1FAADE70526ABE72068477602
:108AC000BDE8F081202C0020C03E0020ECF0020028
:108AD0008CF00200E8EE020070B5154900250A6826
:108AE000002A24D04A68002A21D00831904708285B
:108AF0001DD0104C0028206845760ED0062102209B
:108B000000F01AF818B120684169032088472068EE
:108B100041690220BDE8704008470121022000F0B1
:108B20000BF8002803D0206841690320F2E770BDEC
:108B3000B43E0020202C002086B00323ADF8003086
:108B400020238DF814308DF8150000220E48019274
:108B500002928DF81610C188ADF8041002218DF82C
:108B6000061005A90491ADF80820CDF80CD0808836
:108B700001A9AEDF002804D1BDF80010032900D000
:108B80000C2006B070470000983E002030B5224906
:108B9000224B01250322C91AC9088BB002EB0144FC
:108BA00078B101282CD01C4A1946511AC908012253
:108BB00002EB0142022826D00328104626D018A135
:108BC00025E0204620A102F057FA68462C21FEF746
:108BD00054FC40200490002005908DF804508DF83E
:108BE000005069462448FFF758FC00212348FFF74E
:108BF000E3FD0246204622A102F042FA0BB030BD4E
:108C0000204625A103E010462CA100E03AA10BB0BC
:108C1000BDE8304002F030BAECF002008CF0020007
:108C2000556E6B6E6F776E206576656E742066721A
:108C30006F6D20626C655F6466755F627574746FDA
:108C40006E6C6573732E00004465766963652069F8
:108C50007320707265706172696E6720746F206531
:108C60006E74657220626F6F746C6F6164657220E0
:108C70006D6F64652E000000A82F0020A99A0200E5
:108C8000446973636F6E6E65637465642025642048
:108C90006C696E6B732E000044657669636520779E
:108CA000696C6C20656E74657220626F6F746C6F96
:108CB00061646572206D6F64652E00005265717588
:108CC00065737420746F20656E74657220626F6FB7
:108CD000746C6F61646572206D6F64652066616994
:108CE0006C6564206173796E6368726F6E656F7511
:108CF000736C792E000000005265717565737420E5
:108D0000746F2073656E64206120726573706F6E7E
:108D1000736520746F20636C69656E742066616989
:108D20006C65642E00000000F8B5284D01880446EB
:108D30006E88212935D01ADC2548264A1029A0EB57
:108D400002004FEAD0004FF0030202EB004018D0BF
:108D500011291FD0132923D100231A46852130461B
:108D60007FDF00281CD0BDE8F840FEF781BF3B291B
:108D700027D052291FD0562912D18088132176DF9F
:108D8000EFE715A102F078F9A1886980154801F094
:108D9000BDFBE6E714A102F06FF94FF6FF706880A3
:108DA000F8BD00200090A08869468FDF0028F7D02A
:108DB000FEF75EFFF8BD00231A4619463046B1DFC4
:108DC000CFE78088132176DFCBE70000002B00205F
:108DD000ECF002008CF00200436F6E6E6563746508
:108DE000640000009C2F0020446973636F6E6E6501
:108DF000637465640000000010B51A4C0188606857
:108E000010290ED011292BD1401E606028D1FEF709
:108E100087FE002824D02168002921D0BDE8104019
:108E20000847D0B900210122084600F0D3FA08B162
:108E300007280FD107220221012000F0CBFA08B148
:108E4000072807D104220221002000F0C3FA20B134
:108E5000072802D0216801B188476068401C606023
:108E600010BD0000502B00202DE9F04701883B4E3B
:108E700040F2F3194FF6FF7510291BD011293ED08F
:108E8000122954D0502946D1C188F289841D9142BB
:108E900041D1618902293ED18688304600F0CCFE5E
:108EA000050038D004F10C0000F0C6F9A8B329463B
:108EB00030464EE0C17B8788044601292BD1A84665
:108EC000284600F0B9FE050017D02F800020287238
:108ED000234843464A460168C5F80A104068C5F869
:108EE0000E0004F1100105F10A0000F061FF687244
:108EF000F08900280FD129462AE0042013E0808859
:108F000000F09AFE040006D06068FEF7BBFF08B1CF
:108F100003F0A6FF2580BDE8F087FFE76868FEF74D
:108F2000B1FF0028F7D0BDE8F04703F099BF87886C
:108F30000646384600F080FE0400ECD02B464A4638
:108F400006F1080104F10A0000F032FF60722146C8
:108F50003846BDE8F04700F023BD0000743400201F
:108F6000582B00202DE9F04F04468688018842489E
:108F700097B0834610290CD0112950D010301929F0
:108F80006AD01A2974D1217A0C09042C4DD30122FC
:108F90004CE0394D083DA868C0430B9069680BA8A8
:108FA00001F079F90B990CA800F094FC2C220CA983
:108FB0006846FEF749FA0027E946A84610E000BFD8
:108FC00009EB47005FF00005B0F804A008EB85004E
:108FD0005146001D01F033F96D1C1E2DF6D37F1C88
:108FE0000098B842ECD8142E05D317B00420BDE881
:108FF000F04FFEF73DBE3146584601F036F9314696
:1090000008F1040001F031F9E07B022830D117B0FB
:109010003146BDE8F04F1848001D01F026B917B0E1
:109020003146BDE8F04F01F00AB90022314600F0A8
:109030008CFD032C01D3012200E000220E483146B2
:109040000C3000F082FD022C01D3012200E000224E
:1090500009483146083006E0217A002908D1617AB2
:10906000C1F3C002314617B0BDE8F04F00F06DBD4E
:1090700017B0BDE8F08F000098340020F0B585B03F
:1090800016460F4604001D4614D004AA194660690E
:10909000FFF774F800280BD1A5F57F40FF380BD0FF
:1090A000049848B1007848B13088F42808D90720DE
:1090B00005B0F0BD0E20FBE70520F9E70820F7E733
:1090C00000200090019002900390A088ADF800006D
:1090D00001208DF80200CDE9026769462846AEDF1F
:1090E000E6E7000070B5334D04008EB02DCD08AE1C
:1090F00086E82D005BD0E9B30868A061214608A886
:1091000062DF002851D1207801258DF83200ADF8BA
:109110003050A21C0CA92846A8DF002845D12021E8
:109120006846FEF7AAF90220ADF8000020788DF815
:1091300002008DF80C509DF80D00F426ADF8046087
:1091400040F00C008DF81150ADF806508DF80D0070
:109150008DF81250608804F10C02694600F0D0FAD4
:10916000002822D120216846FEF787F90320ADF8B8
:10917000000000E01BE020788DF802008DF80C5014
:109180009DF80D008DF81150ADF8046040F010000E
:109190008DF81250ADF806508DF80D008DF8135073
:1091A0006088221D694600F0ABFA0EB070BD0E203B
:1091B000FBE7000084E4020030B587B004460029D4
:1091C00028D0002C26D008462188102924D05029E8
:1091D00028D057291ED10546A18840696A46FEF766
:1091E000CDFF002816D100980078002812D0A86979
:1091F00000280FD0182101A8FEF73FF901208DF8B3
:1092000004000295A088ADF80C0000980490A969AC
:1092100001A8884707B030BD07B02146BDE83040FF
:1092200002F062BF07B02146BDE8304003F072B8DB
:109230000078C0F340007047007800F001007047EC
:109240000149085C704700003CE40200094908B588
:10925000085C0090684601F08DFCD0F80425009B66
:109260000121994021EA0203C0F808351140C0F8F5
:109270000C1508BD38E402000249085C012101F028
:10928000F5BC000038E402000249085C002101F04E
:10929000EDBC000038E40200084908B5085C009005
:1092A000684601F067FCD0F804050099C84010F04A
:1092B000010000D0012080F0010008BD38E4020068
:1092C00010B500242046FFF7D7FF641C042CF9D307
:1092D00010BD10B500242046FFF7D6FF641C042CF7
:1092E000F9D310BD10B50246064B4FF0FF300021F8
:1092F0005C5C944201D1084610BD491C0429F7D397
:1093000010BD00003CE4020010B5002000F072F92E
:1093100008B1062806D1012000F06CF908B1062832
:1093200000D1002010BD00002DE9F05F8846834683
:109330000025FFF7D7FF0446042845D2DFF890A0A8
:1093400022480AF10407A946A7F11406B8F1000F54
:1093500027D0B8F1010F0ED0B8F1020F34D107EBCE
:1093600084008578002D2FD0F16800292CD0284664
:10937000BDE8F05F084717F8245007EB8407B97879
:1093800059B1134A86F803900C3A40F2666180683E
:10939000FEF72AFD08B986F804B0F9780AF8041037
:1093A000E0E78068FEF76EFD07EB84011AF8042001
:1093B000C878824205D1F2780A2A01D24D7800E0BD
:1093C000054686F80390CDE7BDE8F09F40E4020033
:1093D0003C2B002010B5002304280CD2104C012A8D
:1093E00002D101290AD00022B1B1012909D00229F4
:1093F0000ED0032908D00723184610BD00F1110133
:10940000CAB204F82020F7E704EB80004270F3E7CB
:1094100004EB80008270EFE704EB8000C270EBE7A2
:10942000402B0020044A01460020127AD20702D0C5
:10943000084600F003B870472C2B00202DE9F05FA0
:109440006A4C054600266078B34618B184F801B02E
:1094500000F0DCFC664F4FF47A694FF4C87A4FF0A5
:109460000108182D62D2DFE805F0AC0C0C31404D3C
:1094700062676B746B74BE7D7D7D7D7DACAFB2B574
:10948000BEBE0020FFF708FF00284FF0000008D004
:10949000FFF7F2FE022D02D14FF4E16008E04846EA
:1094A00006E0FFF7F1FE022D01D1C82000E0504692
:1094B000410CC0034FF47A72801841F1000125700D
:1094C00052000023FDF77CFF01462AE00020FFF751
:1094D000E3FE00284FF0000004D0FFF7CDFE4FF46C
:1094E0004870E5E7FFF7D0FEDFE70020FFF7D4FE86
:1094F00000284FF0000002D0FFF7BEFECFE7FFF7D5
:10950000C3FED4E70020FFF7C7FE00284FF000009D
:1095100002D0FFF7B1FE01E0FFF7B6FE257040F67E
:10952000CD4100223868FEF75FFC064646E0002089
:10953000FFF78CFE257008E0002051E025703DE02B
:1095400084F801800120FFF781FE002240F266616D
:10955000E8E784F801800120FFF778FE00224FF44D
:109560000051DFE77868FEF78DFC0646D5F1110063
:1095700000D02EB10220FFF77FFE84F802B01DE07C
:10958000012816D980B2C8214843C117C90341EA4E
:109590005041C0034FF47A72801841F1000152002B
:1095A0000023FDF70DFF014600227868FEF71CFC42
:1095B00006460220FFF768FE84F802803046BDE8C8
:1095C000F09F00F023FCB9E700F020FCB4E700F0C6
:1095D0001DFC04E000F01AFC0020FFF755FE0120FE
:1095E000FFF752FEAAE7FFF774FEA7E72C2B002037
:1095F00040E40200012104F053BB00002DE9F84FC4
:109600000546861C00208DF8000091460F464FF05D
:10961000010A6846FEF7FEFC1B4C04F21C48606819
:109620003860D4E90101194F401A3968081A0EE070
:109630000121404600F029FE00F00CFC01464046A6
:1096400000F023FED4E90101401A3968081A401CD1
:109650008642EDD8B9F1000F03D0052065F38910DB
:1096600002E0062065F39F5061683A68114004EB00
:109670008101C8606068304460609DF80000FEF7BA
:10968000EDFC5046BDE8F88FF0370020B42B0020E9
:1096900070B50D4604460A2902D10D21FFF7F8FFE7
:1096A000A0682268411CA1601554D4E901018142DF
:1096B00004D32046BDE8704001F0ADB870BD000095
:1096C000044881684068814201D101207047002030
:1096D00070470000F0370020032805D10349A92076
:1096E0000860002001F074BE7047000020050040B3
:1096F0000249084490F930007047000020350020EE
:109700002DE9F0438146887891B090460C4600B927
:1097100001208DF83E002088ADF83C000025009522
:10972000607C694603F010FC6E46A07C711C03F05F
:109730000BFCE07B00289DF8020002D040F00800FE
:1097400001E020F008008DF80200217C11B140F00A
:10975000100001E020F010008DF80200217B11B113
:1097600040F0010001E020F001008DF80200217DB1
:1097700009B1022100E0012161F342008DF80200ED
:109780001C2102A8FDF779FE607BC10601D480068A
:1097900017D50E950EAFE07C791C03F0D5FB9DF834
:1097A0003800079720F00F00401C20F0F000103028
:1097B0008DF838009DF83A0020F00600801C8DF8E6
:1097C0003A00607B8DF80800A07B8DF80900142119
:1097D00009A8FDF752FE0FA8CDE90906A088ADF84B
:1097E0003000A06820B1E088ADF82C00A0680D9092
:1097F000A06998B301950088ADF81000A06901AD8B
:1098000001A94088ADF81200A06940680695039050
:10981000A069007B03F098FBA069691C407B03F002
:1098200093FBA069807A00289DF8060002D040F0E2
:10983000080001E020F008008DF80600A169C97A4F
:1098400011B140F0100001E020F010008DF806008A
:10985000A169097A19B140F0010002E00DE020F0A1
:1098600001008DF80600A169897B09B1022100E0A1
:10987000012161F342008DF80600E06900B1059016
:10988000434609AA02A94846AADF11B0BDE8F08301
:1098900070B5084C050009D010342168002907D0A4
:1098A00008682060496828468847F6E70834F4E7E6
:1098B00070BD00000C350020054A012120B10128AF
:1098C00005D19170FFF7E4BF51700020FAE77047AF
:1098D0000C35002073B58CB00646002000900D9822
:1098E00080B100246D4621460DA800F0B3FC30B1D4
:1098F000009805EB400084800098401C0090641C98
:10990000142CF0D32C2269463046FDF79DFD0EB095
:1099100070BD2DE9F04117880646B81D14460D4666
:10992000984202D90C20BDE8F0813188072206292F
:109930000AD34FF4486C4FF6FF73614501D9994241
:1099400002D17088062801D21046ECE7604501D9A3
:109950009842F9D1994203D0984201D08142F3D87C
:109960000520E85520881221401C80B2208029540F
:109970002088401C80B220804119308803F095FE79
:109980002188084480B220804119708803F08DFE40
:109990002188084420800020C5E7FEF769B900004F
:1099A00038B54A7A0F4B62B100220A725969002910
:1099B00006D001228DF80020ADF8020068468847E5
:1099C00038BD0A7A62B19B684C6802461946204647
:1099D000FEF70AFA0028F3D0BDE8384003F040BA99
:1099E0005B68F1E77434002070B588B0064600204B
:1099F00005900690ADF81410ADF816100190029085
:109A000001AA05A9304690DF050021D001F038FFFA
:109A10000346114811493246401AC108012000EBA3
:109A2000014004460E4901F032FBBDF8042012B992
:109A3000BDF8060028B1BDF80630204609A101F0A6
:109A400026FBBDF808201AB12046164901F018FB84
:109A500008B0284670BD00008CF002008CF00200B7
:109A600020E802005468652072657175657374653D
:109A7000642054582F5258207061636B6574206CB9
:109A8000656E67746820697320746F6F206C6F6EE9
:109A9000672062792025752F2575206F63746574A2
:109AA000732E00006CE8020030B40446132176DF08
:109AB00003000BD0064807492246401AC00802217D
:109AC00001EB004030BC044901F0E1BA30BC704702
:109AD000ECF002008CF00200DCE7020010B500217F
:109AE000024800F0E3FB80F3100010BD0C3C0020A6
:109AF0007047000009490120096809B1002070473A
:109B00000749CA69002AF9D1044A283212688968CB
:109B1000491E8A42F3D1022070470000403F0020D6
:109B2000242C0020826883881A4003689A5C0A709B
:109B30008168491C81607047C26883881A40036845
:109B40009954C168491CC16070470AB100F08DBBCF
:109B500000F075BB70B50D460446B0F81414D0F88B
:109B600010040122FEF7EFFB00B1057004F13C0286
:109B700004F5826104F1540072DF70BDF7B5174639
:109B80000E0011D00098002560B1002421466846DF
:109B900000F060FB18B1A0B23946B0476D1C641CE0
:109BA000142CF3D32846FEBD0020FEBD0C484A8885
:109BB00043889A4213D10A88A2F52063773B0ED1DD
:109BC0008988C91E8AB28280064807491346401A0E
:109BD000C008032101EB004004A101F058BA70470E
:109BE000002B0020ECF002008CF002004461746154
:109BF000206C656E2069732073657420746F20304B
:109C0000782558282564290010B50949094800F02D
:109C1000C4FB08B1FEF72CF8F721064800F0B1FBB1
:109C2000002803D0BDE81040FEF722B810BD0000A8
:109C3000AD9B0200882F00200146034802888A421B
:109C400000D0002070470000603400202DE9FC5F48
:109C50000E008346DDE90C47C6F1000098469246A7
:109C6000814600D40846012503E000BF90FBFAF0CE
:109C70006D1C5045FADAA84500D9454624B1002E9E
:109C800001DB780700D5641EB80702D5B8F1000FD4
:109C90000AD0F80708D13CB1A54205D22021584688
:109CA000641EFFF7F5FCF6E7002E02DA4E462D2182
:109CB00002E0780703D52B215846FFF7E9FC07F0AF
:109CC000030002280BD1B8F1000F08D13CB1A54226
:109CD00005D230215846641EFFF7DAFCF6E7CDE9DD
:109CE0000047434652463146584603F0E9FCBDE87A
:109CF000FC9F000070B50D46044600684FF4887163
:109D000001F0DEFD4FF49071206801F0D9FD4FF4B1
:109D10009271206801F0D4FD4FF4A271206801F027
:109D2000CFFD4FF4AC71206801F0CAFD20681249E4
:109D3000C0F804132068690740F30730090E0028B3
:109D400004DB00F1E02080F8001405E000F00F00D3
:109D500000F1E02080F8141D206840F3073000284F
:109D600009DB00F01F02012191404009800000F151
:109D7000E020C0F8001170BD100342000246002030
:109D80001268530713D502F00300012802D00228FD
:109D90000CD105E0C2F383100B68801C184404E06A
:109DA0000223086803EB92521044086001207047B8
:109DB000F0B58488A518944200D82246A41AC28817
:109DC000D6189A4200D81346D21A4B880788BB424D
:109DD0000CD34088834209D88888A04206D3A84281
:109DE00004D8C888904201D3B04201D90020F0BD08
:109DF0000120F0BD0268134602E08A4204D01268D6
:109E0000002AFAD10B600160704700000A4810B5C3
:109E1000807860B1002401E0022C06D02046FFF7D4
:109E20002BFA641C042CF7D310BD0324F6E7BDE81D
:109E30001040FFF745BA00002C2B0020F7210180CD
:109E400017214180002101714171FB2181711B218A
:109E5000C17170472DE9FF410026244800F012FA35
:109E60002248001F074600F00DFA214C2149A06846
:109E700000900D6800E000986946284004EB8000DF
:109E80000C30FFF77BFF0028F5D101AA009901EA09
:109E9000050304EB8303491CDB6842F82030401CB7
:109EA00000910228F2D3019800F0030001280BD0A2
:109EB000022810D10198032101EB90500099BDF8C0
:109EC0000A6001EB900005E00198BDF80A60C0F35C
:109ED000831008440090384600F0D1F908B100988A
:109EE000A06004B03046BDE8F0810000083C0020CE
:109EF000F0370020B42B00208AB01822524968465F
:109F0000FDF7A2FA5148069051494FF48070CDE90F
:109F10000701099007234F4A06A96846FDF7FEFF8F
:109F200008B1FDF7A5FEFDF71DFC4FF480410020B0
:109F300001F00EF908B1FDF79BFE00F075FF03F08C
:109F40008FF901F00FFA08B1FDF792FE01F0E0FB86
:109F500008B1FDF78DFE002401A90120019401F054
:109F600075FA08B1FDF784FE01A801F009FB08B1FC
:109F7000FDF77EFE9DF80C0037A120F00F00401C7D
:109F800020F0F00010308DF80C000D2203A87CDFCB
:109F900008B1FDF76DFE00941820ADF800002820F0
:109FA0000194ADF80200ADF804404FF4C870ADF86C
:109FB000060068467ADF08B1FDF75AFEFFF724FE77
:109FC000294802A9CDE90140284800F0AAFA08B1C1
:109FD000FDF74EFE2648039003A92648FFF782F8B6
:109FE00008B1FDF745FE2448019001A8FEF78EFC5C
:109FF00008B1FDF73DFEFDF7AFFD1C216846FDF7FA
:10A000003CFA4FF4A030CDE900404FF4F02002902C
:10A0100003208DF80C001948059019480690ADF8FA
:10A020000E408DF810406846FEF788FB08B1FDF73A
:10A030001FFE03F0EFF800BF00F004FF0028FBD183
:10A0400001F0A4F9F8E7000020E40200882D0020C8
:10A05000882E002005D302006563672062656420B6
:10A0600073686565740000000DB402009C2F002029
:10A0700011C002000C2B00208D8B0200CDC002000D
:10A080009B99020070B5144682880E4605462088CA
:10A09000111D0144921C994201D8FE2A01D90C20BD
:10A0A00070BD521C32542088FF21401C80B2208099
:10A0B00031542088401C80B220808119288803F008
:10A0C000F4FA2188084480B22080AA8842B1A968A5
:10A0D00041B13044FDF7B8F92088A98808442080B0
:10A0E000002070BD072070BD2DE9F047C5881E1DFA
:10A0F000B6FBF5F78946B6FBF5F1044605FB176C90
:10A10000407916686843DDF820A0F718001F8742E1
:10A1100000D9C61A166001E02468491E0029FBD147
:10A12000A5EB0C078846B74216D818E004EB0C00E4
:10A13000001D09EB0803BAF1000F3A4602D00146B0
:10A14000184600E01946FDF77FF92468F61B4FF02A
:10A15000000CB844B54201D9374600E02F46002E26
:10A16000E4D1BDE8F087000030B5024651B101F0FE
:10A1700003F80021074C08E034F821301568AB42A1
:10A1800002D11160002030BD491C8142F4D305206A
:10A1900030BD000000000000F8B50F4601781446FD
:10A1A0000546012901D1687830B12088821C9A4285
:10A1B00032D8012902D006E00720F8BD69780144B1
:10A1C000891C994228D8181A801E86B2ADF8006002
:10A1D0002188B81C084469467DDF0028EDD1297824
:10A1E000022904D06878BDF80020904205D3BDF85C
:10A1F0000000B04201D809200AE00820012905D159
:10A200006978B14202D8ADF8001001E0ADF8006005
:10A21000BDF80010FE2901D90C20F8BD2288491C88
:10A22000B9542188491C89B2218078542088401C67
:10A230002080BDF80010084420800020F8BD01F007
:10A240001F0301229A40D243490900EB81001146C5
:10A2500000F021B84A0950F8220001F01F02012144
:10A260009140084000D00120704701F01F030122F7
:10A270009A40490900EB8100114600F01CB800210A
:10A2800000F00FB8012100F016B808B56A46FCF7D7
:10A29000F6FF009808BD08B56A46FCF7D6FF00989F
:10A2A00008BD08B56A46FCF7D0FF08BD08B56A4688
:10A2B000FCF7B2FF08BD08B56A46FCF7B9FF009885
:10A2C00008BD08B56A46FCF7E7FF009808BD38B539
:10A2D000044600258DF800506846FDF79BFE216876
:10A2E0006268086890420ED9401E08600178238A8F
:10A2F000E26801FB0325227A2168101AC0B20A79AC
:10A30000824200D208719DF80000FDF7A7FE2846A2
:10A3100038BD38B5054600208DF800000C4668466B
:10A32000FDF778FEE868298A201AB0FBF1F12A6867
:10A330001068431C136001709DF80000FDF78EFE4D
:10A3400038BD10B530B1017A42680368891AC9B2C4
:10A350001A6006E00E2010BD03681A68541C1C60C9
:10A360001170491EC9B2F7D2006800210171084678
:10A3700010BDC20800F007030120895C9840084026
:10A38000704728B1A1F11702E12A03D307207047D3
:10A390000E20704701800020704710B560B1016148
:10A3A000F72120F8021B20F8021BFB2100F8021BFA
:10A3B000FFF744FD002010BD0E2010BDF0B58588CC
:10A3C00093B00C46002D39D1018800263F4F242937
:10A3D0003BD006DC102909D011290CD0232958D1F3
:10A3E0004FE03A290BD0552953D129E001462046A8
:10A3F00001F0B0FE4DE0A01DFFF720FD49E0224630
:10A40000408934F8061F814200D80846608017282A
:10A4100000D217206080106970B1607960B1D7E90F
:10A420000001CDE90301ADF80E506088ADF81000D1
:10A43000136903A9104698476671267113B0F0BDE1
:10A440000146204601F010FF23E0011D2C2206A842
:10A45000FCF7FAFFBDF81800BDF81C2004EBC001A2
:10A460004A732269AAB1D7E90423CDE90423ADF8E0
:10A470001200487B8DF814002269204604A99047F9
:10A4800007E0017A207B884200D201462846FFF788
:10A49000ABFAA07A0028D1D0E1882846A5DF0125B3
:10A4A00080B11128CAD001F0EBF9024608480949E9
:10A4B00013B0401AC00805EB0040BDE8F04006A10B
:10A4C00000F0DEBDA672E572B8E700006CE40200A1
:10A4D0008CF002008CF0020073645F626C655F6751
:10A4E000617474635F65786368616E67655F6D74DE
:10A4F000755F72657175657374282920726574754E
:10A50000726E65642025732E0000000020B1027871
:10A51000DE2A03D0082070470E20704741800020BB
:10A52000704760B159B10278DE2A0AD009684160EB
:10A53000DE2101704FF6FF714180002070470E2030
:10A540007047082070477FB5054600294DD0002D83
:10A550004BD008780C46DE2847D1A888618888420D
:10A5600002D1204603F046F92888012825D0022888
:10A570003BD011283AD0512837D135F8040F6188E3
:10A58000884232D1A978A81C02292ED1017A042947
:10A5900003D0062901D0052927D1002100910222EC
:10A5A0008DF8002001914FF4C07202910391ADF833
:10A5B0000420007A05280FD010E0297A20460129CE
:10A5C00013D1A988428891420FD10121017204B0B0
:10A5D000BDE8704003F00EB9ADF804102888694654
:10A5E000B0DF002801D0616888477FBDA8886188F6
:10A5F0008842FAD14FF6FF7060807FBD00F1804045
:10A600000068002800D00120704708B500F18040A4
:10A61000002101600068009008BD000070B50D4C7D
:10A620000125207808B185260EE00020A06060603A
:10A630002061E060084801F067F9064601F0B4F8CF
:10A6400008B901F04BF9257001F040F900B1A5708F
:10A65000304670BD0C350020B998020038B5002591
:10A660008DF800506846FDF7D5FC084CE068401EA8
:10A67000E060E06828B901F029F910B901F064F947
:10A68000A5709DF80000FDF7E9FC38BD0C350020F1
:10A69000F8B5134D0446A878002648B114B1616896
:10A6A000012088478DF800606846FDF7B3FC0EE096
:10A6B0008DF800606846FDF7ADFC24B108482146DE
:10A6C0001030FFF797FBE86808B901F02DF9E8684A
:10A6D000401CE8609DF80000FDF7C0FCF8BD0000DC
:10A6E0000C3500202DE9FF411C460378164D174E0E
:10A6F00045F82320103545F82340F0CE8DE8F000D2
:10A700000C788DF800404C788DF801408C788DF8ED
:10A710000240CC788DF803400C798DF805404C79D7
:10A720008DF806408C6802940C7B8DF80C40497BB8
:10A730008DF80D1002B1064A6946001D01F042F97C
:10A7400004B0BDE8F0810000DC350020A4E4020084
:10A750008DD00200F0B505460478154889B016463C
:10A7600040F82420124A08690832A2F10C0742F886
:10A770002400487F385520226846FCF765FE049483
:10A780002878385C48B10EB10A4A00E000226946D8
:10A79000281D01F021FB09B0F0BD0EB1064A00E012
:10A7A0000022694605F10C0001F0CAF9F3E7000048
:10A7B000642B002069D502000DD4020030B4037868
:10A7C000054CE35C1BB130BC001D01F03BBB30BC51
:10A7D0000C3001F01FBA0000602B002030B4037869
:10A7E000054CE35C1BB130BC001D01F0ADBB30BCBF
:10A7F0000C3001F085BA0000602B00200FB408B5C2
:10A800000399002904D004AA00926A4600F00FF8C8
:10A8100001B05DF814FB10B582680446002A05D02B
:10A82000D4E90403216898470020A06010BD2DE9F9
:10A83000FC4791460C00804676D014F8011B39B1D4
:10A8400025290ED04046FEF723FF20780028F4D1BA
:10A8500098F80C00002867D04046BDE8FC47FFF799
:10A86000DABF0020012221782B291BD02D2902D00C
:10A87000302908D102E040F0010001E040F0020080
:10A88000641C002AEFD100252A290ED02178A1F1DD
:10A8900030020A2A11D205EB850201EB4205641C45
:10A8A000303DF1E740F00400EAE7D9F800100B1D55
:10A8B000C9F800300968641C0D44217800232E2952
:10A8C0000BD114F8011FA1F130020A2A05D203EBC3
:10A8D000830201EB4203303BF3E76C290DD068297A
:10A8E0000BD0692921D00BDC252918D0582931D06B
:10A8F00063290ED0642915D117E014F8011FECE785
:10A90000702969D0732932D075291BD0782909D1D3
:10A9100020E0D9F80000011DC9F800100178404678
:10A92000FEF7B6FE641C90E76CE0D9F800100A1D33
:10A93000C9F800200968CDE900500A224046FFF717
:10A9400085F9EFE7D9F800100A1DC9F80020096859
:10A950000A2206E0D9F800100A1DC9F8002009688B
:10A960001022CDE90050404602F0AAFEDAE7D9F8FD
:10A97000001000270A1DC9F800200E68C00705D185
:10A9800012E04046761C7F1CFEF782FE31780029DB
:10A99000F7D104E0202140466D1EFEF779FEBD424E
:10A9A000C0D9002DF6D1BDE74EB13046FCF770FDA1
:10A9B000074604E0202140466D1EFEF769FEBD42B9
:10A9C00006D9002DF6D103E04046761CFEF760FE66
:10A9D00031780029F8D1A5E7D9F80000011DC9F8A0
:10A9E0000010056830214046FEF752FE78214046AF
:10A9F000FEF74EFE08200021CDE90001034610229B
:10AA00002946B0E7BDE8FC872DE9FF411C46DDE99A
:10AA10000A7815460E46684600F0C8F846EA450131
:10AA200041EA840141EA072242EA0841009A00EB28
:10AA30008200C0F80017BDE8FF812DE9FF411C46E8
:10AA4000DDE90A7815460E46684600F0BDF846EA8C
:10AA5000450141EA840141EA072242EA0841009A9D
:10AA600000EB8200C0F80017BDE8FF812DE9FF412F
:10AA70001C46DDE90A7815460E46684600F0B2F835
:10AA800046EA450141EA840141EA072242EA0841D7
:10AA9000009A00EB8200C0F80017BDE8FF811CB5EA
:10AAA00000220B46009211460192FFF7ADFF1CBD3C
:10AAB0001CB500220B46009211460192FFF7BDFF24
:10AAC0001CBD1CB5002100910B46012201911146CD
:10AAD000FFF79AFF1CBD1CB5002100910B46012217
:10AAE00001911146FFF7A9FF1CBD1CB50021009183
:10AAF0000B46012201911146FFF7B8FF1CBD13B5AB
:10AB00000C46684600F044F8009900EB8101D1F84A
:10AB1000002722F44032C1F80027009900EB8100A1
:10AB2000D0F8001741EA0441C0F800171CBD00002E
:10AB30003CB50A4CD4E90034CDE900346B464418E6
:10AB400008E000BF53F82010D1F8205520C2C1F80A
:10AB50002055401C8442F5D83CBD000094E402001E
:10AB600001B5684600F03EF8009A01219140C0F816
:10AB70000C1508BD0168202902D24FF0A040704793
:10AB800001F01F0101600148704700000003005000
:10AB90000168202902D24FF0A040704701F01F0148
:10ABA000016001487047000000030050016820293F
:10ABB00002D24FF0A040704701F01F010160014830
:10ABC00070470000000300500168202902D24FF0B6
:10ABD000A040704701F01F0101600148704700006C
:10ABE000000300500168202902D24FF0A0407047B6
:10ABF00001F01F0101600148704700000003005090
:10AC00000168202902D24FF0A040704701F01F01D7
:10AC100001600148704700000003005001B568461C
:10AC2000FFF7C4FF009A01219140C0F8081508BD44
:10AC300001B56846FFF7C8FF009A01219140C0F8AE
:10AC4000081508BD01B56846FFF7CCFF009A012141
:10AC50009140C0F8081508BD01B56846FFF7D0FF60
:10AC6000009A01219140C0F8081508BD38B50124AB
:10AC70000090684631B1FFF77DFF00998C40C0F825
:10AC8000084538BDFFF776FF00998C40C0F80C45A9
:10AC900038BD0000034908B5084400210160006880
:10ACA000009008BD0060004002494058012800D0D3
:10ACB000002070470060004030B5154A0146002072
:10ACC000D2F8104423460AE0DB681D79854205D19D
:10ACD000401C0A28F6DB4FF0FF3030BD1B68002B0C
:10ACE000F2D1431CF9D0CB681871D2F8103443B1BB
:10ACF000DB68CC681B682360D2F81024D26811602E
:10AD000030BDC2F81014C96800220A6030BD0000CE
:10AD1000F03700207047FCF7CBBC704708B5034AFA
:10AD200000924023024A00F005F808BD71CE0200EF
:10AD300058360020F0B595B01C4615460E4608461C
:10AD40001A9F00F0E9FA182109A8FCF796FB0E9764
:10AD5000CDE909540023082203A9304600F0F1FA96
:10AD600005980690BDF81000ADF81C00BDF8120063
:10AD7000ADF81E0000208DF821000399082501F090
:10AD80000300012802D0022816D02FE0C1F3C20030
:10AD9000C1F383178C0A8DF82000BA002B460FA947
:10ADA000304600F0CEFA09A8009006AB3A460FA94B
:10ADB000204600F00DFA19E0C1F3C2008C0D8DF8A9
:10ADC0002000082C01D2274600E008272B463A46EF
:10ADD0000FA9304600F0B5FA3D44E41B09AB06AAC2
:10ADE00039460FA800F05CF9002CEAD1304600F09B
:10ADF00099FA15B0F0BD00000A4A012902EBC00023
:10AE000007D0022907D0032907D0042907D0002042
:10AE100070470220704704207047007970474079DE
:10AE2000704700008CF0020010B5FFF774FF04219A
:10AE30000348FFF741FF02490120C968487110BD6E
:10AE40007CF002002DE9F04F8DB0FEF739FC18B10F
:10AE500000200DB0BDE8F08F7D4C4FF0000BC4F822
:10AE600018B4BFF34F8F7B49A06802900D68D84695
:10AE7000284004EB80000BE0D4F8180470B9616836
:10AE80000298814201D8A160E2E7284004EB8000EB
:10AE90000C3002A9FEF772FF0028EDD1002009AAAC
:10AEA000029901EA050304EB8303491CDB6842F8BD
:10AEB0002030401C02910228F2D3099800F00301CF
:10AEC000022902D001294DD0A8E0810D50228946E7
:10AED000B2EB905F00D850210E4666F39F50099068
:10AEE00008315D4800F0CFF9070077D000F014FA80
:10AEF0004346082209A9384600F02BFA029908F1C6
:10AF0000080A2940681A8000001D864223D9504D46
:10AF10000C3530B1C2B204EB8101301A90460C31CD
:10AF200004E02946F2B2002590462846C6B25346B0
:10AF3000384600F00EFA0AEB08032DB132462946D6
:10AF40004FEA070000F005FA029909F1030001EB4E
:10AF50009000029039E004EB8101534632463846B6
:10AF60000C31EFE7C0F38311062900D3062161F30A
:10AF700089100990C0F38310801C8100364800F0CE
:10AF800082F907004AD000F0C7F94346082209A910
:10AF9000384600F0DEF908F1080800260FE00298B4
:10AFA000434600EA0501401C04EB810102900422A3
:10AFB00038460C3100F0CDF908F10408761C0998E8
:10AFC000C0F38310B042EAD847B1D4F81054D4F893
:10AFD000180478B1384600F0A5F934E01EE0E868BE
:10AFE0004079012804D12A682846394612689047DA
:10AFF000E8680568002DF2D1384600F093F98DF825
:10B0000000B06846FDF706F8D4F8180408B90298AD
:10B01000A0609DF80000FDF721F814E0D4F810447A
:10B0200005E02168204689688847E0680468002CAC
:10B03000F7D10A480A49401AC008022101EB004032
:10B0400008A100F019F8FEF73BFB80F0010000E7D3
:10B05000F0370020B42B00200CF10200ECF00200CD
:10B060008CF002004261636B656E647320666C75E0
:10B07000736865640000000000231A4602F022B8DD
:10B0800008B5012300926A4602F01CF808BD1CB501
:10B09000CDE9002302236A4602F014F81CBD00002B
:10B0A0002DE9F0470E4680461C469246082940D8B6
:10B0B00094F80C90002020731946104601F006FA0F
:10B0C0000025B54206D218F805201BA12046FFF73F
:10B0D00095FB03E01AA12046FFF790FB6D1C082D9D
:10B0E000EFD318A12046FFF789FB0025B54212D205
:10B0F00018F805707E2F08D8FCF7A2F90068C05D2B
:10B1000010F03E0F01D03A4600E02E220EA120465C
:10B11000FFF774FB03E00DA12046FFF76FFB6D1CEA
:10B12000082DE3D301222146504601F0B1F984F8FD
:10B130000C90BDE8F0870000202530327800000038
:10B14000202020007C00000025630000200000007B
:10B15000064910B501200870054800F0E1F8002804
:10B1600003D1044800F054F9002010BDF03700204E
:10B170000CF1020068E6020002480349401AC008C8
:10B18000704700000CF102008CF0020013B5684615
:10B19000FEF7EAFF08B100201CBD0248009950F8F4
:10B1A00031001CBD8CF0020070B508480125D0F8B4
:10B1B0001044057007E0E068457121682046496841
:10B1C0008847E0680468002CF5D170BDF037002096
:10B1D0002DE9FF4781460C9D00200C462F7B2873EC
:10B1E000984616462946184601F070F9072E42D2B5
:10B1F000DFE806F004090F161F2A360049462846E4
:10B20000FFF7FCFA37E0494628462268FFF7F6FACE
:10B2100031E0D4E9002349462846FFF7EFFA2AE057
:10B22000A0680090D4E9002349462846FFF7E6FAD3
:10B2300021E0D4E90201CDE90001D4E90023494627
:10B240002846FFF7DBFA16E004F1080007C88DE88E
:10B250000700D4E9002349462846FFF7CFFA0AE061
:10B2600004F108000FC88DE80F00D4E90023494617
:10B270002846FFF7C3FA00222946404601F008F9A4
:10B280002F73BDE8FF872DE9F041058A80462D1F09
:10B290004819C01CB0FBF5F0C6B24046FFF717F8DE
:10B2A000041E19D00020207101206071E580002764
:10B2B0002546761EC4F800800BE04046FFF707F8ED
:10B2C00060B16179491C6171286005467F1CC0F836
:10B2D0000080B742F1D32046BDE8F081204600F05F
:10B2E00002F80020F8E72DE9F041457901466B1E90
:10B2F000002201E00968521C9A42FBD30F68014604
:10B30000002605E038460C68FFF703F82146761C56
:10B31000AE42F7D3BDE8F0810121001DFEF7B5BFB5
:10B32000FFF70FB810B504460121001DFEF7C9FF55
:10B3300010F0FF0F04D12046BDE81040FFF7D3BF47
:10B3400010BD1CB501920122009201AAFEF7CCFEAD
:10B350001CBD1CB501920022009201AAFEF7C4FE9A
:10B360001CBD0000064910B500204870091D08608A
:10B37000BFF35F8F0349044800F03AFA002010BD84
:10B38000A02B002000E502004C36002008B500206C
:10B390008DF800006846FCF73DFEF1EE100A20F043
:10B3A0009F00E1EE100ABFF35F8F08494020C1F80B
:10B3B00080029DF80000FCF751FE00F0F5F908B19D
:10B3C00041DF08BD20BF40BF20BF08BD04E000E052
:10B3D00070B504460C480121FEF768FFBFF35F8F8C
:10B3E0000025002809D10120074E042C08D0311F68
:10B3F0004A781AB1BFF35F8F356070BD0C7048702A
:10B4000001F0BAFDF6E70000A42B0020FCF730BCE9
:10B41000826800219160826811618268516182684E
:10B42000D1608268516080680160704708B5002271
:10B4300042504058009008BD20B10349096801609E
:10B44000002070470E207047ECE602002DE9FE4315
:10B4500007460E460846FFF7EFFF00287DD100247F
:10B460000094019406208DF800704FF00108ADF8AB
:10B47000040002948DF8028069462020326869DF5A
:10B480003749384A891AC908012202EB014530B10F
:10B4900000F0F6F9024628463349FFF7F1FD009423
:10B4A0008DF801808DF80240019402948DF80340DC
:10B4B00069464020326869DF30B100F0E1F90246A8
:10B4C00028462A49FFF7DCFD00948DF80070F7202C
:10B4D000ADF802000194029469462320326869DFC6
:10B4E00030B100F0CDF9024628462149FFF7C8FDEA
:10B4F000009402208DF80000019402946946012016
:10B50000326869DF30B100F0BBF9024628461949BC
:10B51000FFF7B6FD4FF4B0600090019402946946C5
:10B52000A120326869DF30B100F0AAF9024628464E
:10B530001149FFF7A5FD0094019402948DF8004095
:10B540006946A020326869DF30B100F099F90246FF
:10B5500028460A49FFF794FD0020BDE8FE8300005D
:10B56000FCF002008CF002000CEE020054EE02002F
:10B57000A0EE02006CED0200B8ED020018ED020032
:10B580002DE9F0410546076860DF804619491A48F1
:10B590002A68081AC608BA4219D9022000EB0644E4
:10B5A00016A12046FFF768FD20463A461FA12B68EA
:10B5B000FFF76DFD4FF08050D0F80C012968800234
:10B5C00000F10050421A204625A1FFF759FDB8F1BD
:10B5D00000004FF001040AD000F052F9024604EBDB
:10B5E00006402AA1FFF74CFD4046BDE8F0812F48F8
:10B5F0000470F9E7FCF002008CF00200496E7375EC
:10B600006666696369656E742052414D20616C6C99
:10B610006F636174656420666F722074686520537F
:10B620006F66744465766963652E00004368616ED9
:10B630006765207468652052414D2073746172748F
:10B64000206C6F636174696F6E2066726F6D20305D
:10B6500078257820746F20307825782E000000003F
:10B660004D6178696D756D2052414D2073697A6521
:10B6700020666F72206170706C69636174696F6EAF
:10B6800020697320307825782E00000073645F6293
:10B690006C655F656E61626C6528292072657475E2
:10B6A000726E65642025732E000000000B2C0020B4
:10B6B00030B51548ADF5017D0078002821D04FF454
:10B6C000FA7500BFADF8005280A9684661DF38B155
:10B6D000052816D00DF5017DBDE83040FCF7C8BA4D
:10B6E0006C460A497DA800F083F806E0D0E9002105
:10B6F000204690477DA800F092F87F980028E1D07E
:10B70000F4E70DF5017D30BD0B2C0020F0E60200C2
:10B710007CB5194C207808B108207CBD0120A070B0
:10B72000002001F06FFB112819D0002001F082FBEE
:10B7300012480026006801908DF800606846FCF70A
:10B7400069FC0F4901A810DF05000AD00020207015
:10B750009DF80000FCF782FC2DB128467CBD00203E
:10B760007CBD0120F3E7A670667001F063FC012048
:10B7700001F060FBF3E70000082C002084E60200E3
:10B78000ED7B02000EB50749684600F031F805E090
:10B79000D0E900108847684600F041F80298002878
:10B7A000F6D10EBDA0E60200014800787047000007
:10B7B000082C00201FB568464BDF30B1052814D097
:10B7C00004B0BDE81040FCF753BA084901A800F0E6
:10B7D0000FF806E0D0E900210098904701A800F09A
:10B7E0001EF803980028E6D0F4E71FBD0CE702001E
:10B7F000016009684160AFF3008010B5D0E9002115
:10B800005368994201D1002104E0D1E90034A342F8
:10B8100002D01946816010BD08314160F0E78168AF
:10B8200000290BD0026892680A44826041684B6824
:10B830009A4203D108314160FFF7DFBF704740589B
:10B84000002800D0012070470C4A10B502F594730F
:10B850000EE0991AC91001EBD171491002EBC10138
:10B860000C68844201D90B4602E005D201F10802BE
:10B870009A42EED3002010BD486810BD20E50200BA
:10B8800000B5FFF7E1FF002800D1014800BD00002E
:10B890000CE502004058002800D00120704708B590
:10B8A000002242504058009008BDD0F804030840E0
:10B8B00000D0012070474058002800D00120704778
:10B8C00008B5002242504058009008BD0248006868
:10B8D000002800D00120704700040140084800689B
:10B8E000012110F0010F06D14FF0E020C02280F8B6
:10B8F00000248430C16703490120086070470000BC
:10B9000000E100E0180500400649024600200B79DE
:10B910000BB1852070470A6001220A7100224A712A
:10B9200070470000742B002010B54FF48270FEF7B2
:10B930006CFE02204107C1F804030249012008609F
:10B9400010BD000008000040022010B54107C1F8FA
:10B9500008034FF48270FEF758FE05490120086085
:10B9600004480168C1F300410029FAD110BD00006C
:10B970000C000040180400400121B1EB507F01D1C0
:10B98000012070470020704738B50D4600F0EAFDF1
:10B99000040014D000208DF800006846FCF73AFB44
:10B9A000207928B19DF80000FCF758FB112038BD24
:10B9B0000120256020719DF80000FCF74FFB00205E
:10B9C00038BD00002DE9FC470C461546017980463C
:10B9D000554A01EBC10002EB80069946307F10B159
:10B9E0000820BDE8FC87514AD8F80000074652F805
:10B9F0002110FFF7C9FF08B11120F2E7C6E900598D
:10BA0000207B0128207802D8FFF7AAF801E0FFF791
:10BA100019F94FF0000ACDF800A0CDF804A0207865
:10BA2000534652460121FFF721F860784FF0FF3569
:10BA3000FF2806D08146FFF793F84846FFF755F8F0
:10BA400000E0A946A078FF2809D00022054601237E
:10BA5000CDF800A01146CDF804A0FFF707F8A078B4
:10BA600086F82000E078F077E078FF280BD0217985
:10BA700011B1FFF775F801E0FFF7E4F8E078FFF7A0
:10BA800034F82079B0772178C7F80815C7F80C95F5
:10BA9000C7F81055A068C7F82405217B607B00B16A
:10BAA0000120012904D0022905D0032908D105E08D
:10BAB00040F0020004E040F0040001E040F0060025
:10BAC000C7F85405A079C7F8C0050720C7F80005D6
:10BAD0003068012218B3D8F80000617940F30730CC
:10BAE00000284FEA411104DB00F1E02080F8001447
:10BAF00005E000F00F0000F1E02080F8141DD8F8F8
:10BB0000000040F30730002809DB00F01F0102FAB3
:10BB100001F14009800000F1E020C0F8001150461A
:10BB200086F81DA032775CE7FC350020B4E4020003
:10BB30000149024801F082BC8C3500200020004001
:10BB40002DE9F0410546007916460F4600EB40010D
:10BB50002D4A01EBC00102EB810494F82A1011B1C7
:10BB60000820BDE8F081294951F820102868FFF726
:10BB70000BFF08B11120F4E739462846FCF788FA94
:10BB800066603869206030004FF001062FD03F7F9B
:10BB90004FF48E712868FFF782FE4FF4A271286877
:10BBA000FFF77DFE28681A49C0F8041328684FEA99
:10BBB000471140F30730002804DB00F1E02080F853
:10BBC000001405E000F00F0000F1E02080F8141DE3
:10BBD000286840F30730002809DB00F01F0106FA4F
:10BBE00001F14009800000F1E020C0F80011286850
:10BBF0000421C0F800150020A061E06184F829004C
:10BC000044F8140FA675ACE78C3500209CE40200C4
:10BC1000800002002DE9F05F054600794FF40176BF
:10BC200000EB400303EBC000344B03EB8004002027
:10BC3000636813B12B68C3F80863A3694FF0000968
:10BC40006BB1E06938B1606810B12868C0F804636E
:10BC50001120BDE8F09FE2610120216105E0C4F8F8
:10BC60002490A261E160C4F81C9094F8291001436B
:10BC700002D1284601F089F860680028286803D0BE
:10BC8000C0F804630020E4E74FF4A2763146FFF7E2
:10BC900006FEB2464FF4927B59462868FFF7FAFD3C
:10BCA00006464FF484712868FFF7F4FD804651463C
:10BCB0002868FFF7EFFD074648EA07003043EBD05E
:10BCC00056EA070007D12146286801F02FF8A1693C
:10BCD000606A8142E0D8C4F818900EB10320B8E73A
:10BCE0000FB10F20B5E794F8291001200029296829
:10BCF00001D00860C6E74860C4E700008C3500202A
:10BD00002DE9F05F054600790B4600EB400101EBA1
:10BD1000C000244901EB8004284600F045F810B12A
:10BD20001120BDE8F09F62614FF00009C4F8209037
:10BD3000A36084F828904FF48E784E4641462868D8
:10BD4000FFF7ADFD28684FF0010AC0F808A02146B2
:10BD5000286801F0ADFA606808BBD5F800B06769E3
:10BD60000FE000BF94F8280008B10F2615E0414607
:10BD70005846FFF78FFD0028F4D02146584601F0C1
:10BD800097FA206AB842F2D3574641462868FFF72F
:10BD900081FD0028F9D02868C760C4F814903046A7
:10BDA000BFE700008C350020007900EB400101EB7B
:10BDB000C000044901EB80004069002800D0012048
:10BDC000704700008C3500200149024801F0E4BBB7
:10BDD000B8350020002000402DE9F0410546164608
:10BDE00000790F46154A00EBC00102EB810494F87C
:10BDF000201011B10820BDE8F081114951F8201040
:10BE00002868FFF7C1FD08B11120F4E7394628463C
:10BE1000FCF779F96660386920601EB1397F2846E1
:10BE2000FDF768FF28680821C0F800150020A06110
:10BE3000E0616061012184F82010DCE7B835002062
:10BE4000A0E402002DE9F05F044600790E4600EB05
:10BE5000C001DFF8F0A017460AEB81053046FFF776
:10BE60008BFDB0B168684FF000084FF4047910B151
:10BE70002168C1F80893A8694FF0000B80B1E86908
:10BE800048B1686810B12068C0F804931120BDE87B
:10BE9000F09F1020FBE7EF614FF001082E6102E0F8
:10BEA000EE60C5E9067B00254FF488712068FFF736
:10BEB00007FD4FF4A2712068FFF702FD2068C0F86B
:10BEC0003465C0F838752068B8F1000F12D0D0F88A
:10BED000001241F02001C0F800122079D04600EB9A
:10BEE000C0010AEB8100406838B12068C0F80493B3
:10BEF0002846CCE701210160EFE74FF4887A4FF440
:10BF0000A27951462068FFF7D6FC074649462068CB
:10BF1000FFF7D1FC06464FF492712068FFF7CBFC87
:10BF2000014647EA06000843EBD0227902EBC20340
:10BF300008EB8302C2F818B001B10325002ED7D058
:10BF40000F25D5E7B83500202DE9F04704460E4609
:10BF50000079274900EBC00001EB80051746304609
:10BF6000FFF70AFD30B1204600F044F820B111205F
:10BF7000BDE8F0871020FBE76F61AE604FF490776B
:10BF80004FF0000839462068FFF79AFC4FF4AC7672
:10BF900031462068FFF794FC2068AA686969C0F8F8
:10BFA0004425C0F8481520684FF00109C0F80890F2
:10BFB0006868D0B9BA4651462068FFF77CFC07464E
:10BFC00031462068FFF777FC0743F4D010B14FF0FB
:10BFD0000F0808E02068C0F80C9031462068FFF791
:10BFE0006AFC0028F9D0002068614046C0E70000E4
:10BFF000B83500200079054900EBC00001EB800056
:10C000004069002800D0012070470000B8350020AA
:10C010002DE9F04105460078002828D11548164939
:10C020000026401AC008012101EB004710E02869F2
:10C03000805DFBF7C5FF040009D0112CF7D038460E
:10C0400022460EA1FFF71CF82046FBF711FE761CD6
:10C05000A88AB042EBD8A98A2869084410F8010CD4
:10C060000D2804D10A20FBF7ABFF1128FAD0BDE858
:10C07000F0810000ECF002008CF002004661696C77
:10C08000656420726563656976696E67204E5553F5
:10C09000206D6573736167652E204572726F722023
:10C0A000307825782E200000034908600348016895
:10C0B0000029FCD07047000004E5014000E4014085
:10C0C000002801D100F096BF7047000000780028DA
:10C0D00007D104483B21408876DF002801D0FBF7D8
:10C0E000C7BD7047002B0020F0B58BB0002601962D
:10C0F0000D4604468988406901AAFCF73FF80AA862
:10C10000CDE908600227ADF82070ADF822602189E2
:10C11000A88808AAADDF002819D1A069002816D088
:10C120000998FDF789F8002811D0019E0EB1012071
:10C130003070182102A8FBF7A0F98DF8087003945D
:10C14000A888ADF810000596A16902A888470BB031
:10C15000F0BD000070B58D88027900EBC504227334
:10C16000C97BA41D012902D0022904D101E0008865
:10C1700000E04088208021886088814211D92846CB
:10C18000A5DF0126B0B1112816D0FFF779FB0246D2
:10C190000B480C49401AC00806EB00400AA1FEF704
:10C1A0006FFFA179E079814208D92846BDE8704047
:10C1B000FDF71ABC6671F4E72671F2E770BD000066
:10C1C0008CF002008CF0020073645F626C655F6744
:10C1D000617474635F65786368616E67655F6D74D1
:10C1E000755F726571756573742829207265747541
:10C1F000726E65642025732E0000000070B588B053
:10C2000000250646009502208DF80000144801958F
:10C210000295039500680490124C07A80590618967
:10C22000A08804AAADDF48B907A8FDF701F828B136
:10C2300001208DF80600ADF8045003E040F2FD1037
:10C24000ADF80400A0886946B0DF1128FAD0BDF827
:10C250000400002802D13046FCF7D0FB08B070BDC6
:10C2600038E70200983E00207CB506468D88C888D5
:10C2700006EBC504A41D172800D21720218881428F
:10C2800000D8084660800020207121882846B5DF4C
:10C2900060B1FFF7F5FA02460F481049401AC0088E
:10C2A000012101EB00400EA1FEF7EAFE60790028B3
:10C2B00010D1306900280DD01549D1E90201CDE92E
:10C2C0000001ADF802506088ADF80400326969469B
:10C2D000304690477CBD00008CF002008CF00200DC
:10C2E00073645F626C655F67617474735F657863C4
:10C2F00068616E67655F6D74755F7265706C7928D3
:10C30000292072657475726E65642025732E000095
:10C310006CE40200F0B587B00C4605468E1D898896
:10C32000406906AAFBF72AFF18216846FBF7A5F823
:10C330000195A088069AADF80800039231882B89F0
:10C34000002704F11200994202D17389022B0DD00B
:10C35000AA8991421ED1A96900291BD08DF80070CD
:10C3600004907089ADF81400A96911E0002A11D079
:10C37000FCF762FF20B1069901200870022002E05C
:10C380000698077003208DF80000A969002901D0E4
:10C390006846884707B0F0BD0068012805D002282C
:10C3A00003D0042801D0002070470120704700000E
:10C3B0002DE9F84F314F05464FF001090024381997
:10C3C00090F96010491C46D090F86000294620F092
:10C3D000C0063046FDF7CDFF70B3204600F050F8A0
:10C3E000824668460096FEF7D3FB009900EB810079
:10C3F000D0F80007C0F30148B8F1020F1DD00221A8
:10C400003046FEF77CFB68460096FEF7C1FB009ABB
:10C4100009FA02F1C0F820153046FDF769F957F81E
:10C4200020204AB15046BAF1030F11D0B8F1020FE3
:10C4300005D0B8F1030F07D00DE00321E0E7504627
:10C44000BAF1010F04D006E05046BAF1020F02D152
:10C45000014630469047641C042CB0D32A46022182
:10C460000020FEF765FB002055F820100029A5D11B
:10C47000401C0228F8D3BDE8F88F000020350020CA
:10C480000249084490F86000800970472035002078
:10C4900010B50C46017A052908D0407A38B1084811
:10C4A00008A102682046FEF7A9F900E01AB106A12A
:10C4B0002046FEF7A3F92046BDE81040FEF7ABB9D1
:10C4C000E42B0020257300000D0A000038B5C38856
:10C4D0000D46044633B114A0009015A216A12846BB
:10C4E000FEF78CF9217A05291CD0607A48B1A08822
:10C4F000FEF782FC164951F8202016A12846FEF7C7
:10C500007DF9A0880021FEF741FE03461049207AFC
:10C51000143951F8202001B02846BDE830400EA162
:10C52000FEF76CB938BD00001B5B306D00000000E9
:10C530001B5B313B33316D0025734C6F6773206497
:10C54000726F70706564202825642925730D0A00B8
:10C55000E42B0020257300003C25733E2025733A10
:10C56000200000000349884201D1034870470020A1
:10C5700070470000002000407C2B00202DE9F04196
:10C58000184C0F460546E6682068001D01F0ABF91F
:10C5900038B9206890F82C10012088402169814327
:10C5A0002161681C07D137B12168BDE8F0410E4810
:10C5B000091D01F0D3B920683544B54245602168B2
:10C5C00005D2A06BBDE8F041091D01F0AFB9606B69
:10C5D000091D01F0ABF9A06A854200D2A562BDE851
:10C5E000F0810000242C0020683F00202DE9F0415C
:10C5F000054601F0BFF92E4CA068401CA0602068E1
:10C600002C4F10B1606940B32DE02560A06801286F
:10C6100029D1002606EB860007EB800001F078F9AF
:10C62000761C032EF6D323483C3001F071F92148E3
:10C63000503001F06DF91F48643001F069F91D4870
:10C64000783001F065F91B488C3001F061F9194828
:10C650003C3060631430A06305E02068E96AC06A7A
:10C66000884200D82560606A401C6062E96A012047
:10C67000226988401043206101EB810007EB8000B4
:10C68000291D01F06BF901F07FF9606900280DD0D8
:10C690002068E96AC06A884208D207494FF0805092
:10C6A000086040BFBFF34F8FBFF36F8FBDE8F081CD
:10C6B000242C0020DC3E002004ED00E010B501F049
:10C6C00059F90C4C206880B90B4801F021F90A484F
:10C6D000143001F01DF90848E06014302061002298
:10C6E0001021202001F028FB2060BDE8104001F05F
:10C6F0004BB90000602C00207C3F002030B4026C5D
:10C700000B46002A0BD0C1681144C1604468A142A5
:10C7100001D30168C16030BC1846FAF795BE30BC41
:10C7200070472DE9F041856B174604460026026CE0
:10C7300082B1C7B1E068FAF787FEE168206C091A98
:10C74000E1602268914202D26168081AE060022F1B
:10C7500016D017E02068A8B9606801F037FD0646DA
:10C76000002060600EE0A068FAF76EFE216CA06801
:10C770000844A0606168884204D32068A06001E09A
:10C7800005B16D1E6D1CA5633046BDE8F08110B586
:10C790000446006B01F002F92046BDE8104001F0AC
:10C7A000FDB800000A4800210269012A00D90121D0
:10C7B0000268D26A0AB100207047064A1268012A4C
:10C7C000F9D80029F7D1816AC068081A70470000BB
:10C7D000242C0020DC3E002010484FF4C8314207D2
:10C7E00006D0C01D0D4920F00700411AC1F5C8311F
:10C7F0000B4A00230144C2E900030839103A21F032
:10C80000070111604B600B600B1AC0E900139360C5
:10C810004FF000405360D06070470000A43F0020FC
:10C82000882C00201A4C1B4E12E000BF01F0A2F829
:10C83000F068C568281D01F056F8A068401EA06089
:10C840006068401E606001F09FF82846FFF79FFF78
:10C8500060680028EAD10F4878380068012808D9B4
:10C860000D494FF08050086040BFBFF34F8FBFF3BA
:10C870006F8FFFF797FF0228D5D301F0DBF9FFF7A1
:10C8800091FF022801D301F0C9F801F00DFDCAE7BC
:10C89000242C0020543F002004ED00E02DE9F04757
:10C8A0000E46DDE909841746824691009946089DA7
:10C8B000A522206BFAF7DAFD6FF00301206B01EB84
:10C8C0008701084420F0070700202218315C82F815
:10C8D0003410315C11B1401C0A28F6D3002684F8CC
:10C8E0003D60032D00D30225E562C4E91056201DEA
:10C8F00001F019F804F1180001F015F82461C5F1F0
:10C9000003006462A061A66484F84C604A46514604
:10C91000384600F0F5F92060B8F1000F01D0C8F8F2
:10C920000040BDE8F087000030B5114900E0114635
:10C930000A688242FBD34B685C18844203D140688A
:10C9400018444860084643681C18944209D1084CB2
:10C95000103C2468A24209D052681A4442600A6816
:10C9600012680260814200D0086030BD0460F9E7BF
:10C97000882C002070B5002441600B4D006191426D
:10C9800006D8D11A8269914206D2011D286907E0B2
:10C990009A4203D2994201D3012403E0011DE868C1
:10C9A00000F0C4FF204670BD602C002010B5044686
:10C9B00000F0E0FFA06B28B15FF0000400F0E4FF9E
:10C9C000204610BD0124F9E730B589B0264D41E07D
:10C9D0000498002806DADDE90601059A90470498D4
:10C9E000002837DB069C606910B1201D00F07BFF3A
:10C9F00002A800F09DF8024604980A282AD2DFE82F
:10CA000000F0050505291E260505291E0598A169C2
:10CA1000034601442046FFF7ADFFD8B1616A2046C6
:10CA20008847E069012815D1002000900598A16988
:10CA3000002342181946204601F0CAFC0AE0059876
:10CA4000A061811813462046FFF794FF02E02046BC
:10CA500000F0A4FF002204A9286801F075FA00285C
:10CA6000B6D109B030BD0000602C00202DE9FC419A
:10CA70000F46054601F0DEF801A800F059F804461B
:10CA8000019818B101F010FCBDE8FC811E4EB7B151
:10CA900030690068A8B30027291B3A46306801F0C6
:10CAA00045F801F001FC0028EED118494FF0805004
:10CAB000086040BFBFF34F8FBFF36F8FE4E7A5421D
:10CAC000EAD801F0F1FBF0682746C068C468201D71
:10CAD00000F009FFE06901280FD1A0692B46411938
:10CAE0003A462046FFF746FF38B10020034601468C
:10CAF00000902A46204601F06BFC616A2046884778
:10CB0000C2E7FFE70127C7E7602C002004ED00E043
:10CB10000648416B096829B1416BC968C968496811
:10CB2000816270474FF0FF31FAE70000242C0020AB
:10CB300070B5054601F0E4FA064E0446B06884423A
:10CB400003D200F009F8012000E000202860204610
:10CB5000B46070BD602C0020F8B5144D1EE0C068B4
:10CB6000C4680668201D00F0BEFE616A2046884742
:10CB7000E069012812D1A0693044B04206D924618D
:10CB80006060211DE86800F0D1FE07E00020034648
:10CB9000014600903246204601F01AFCE868016820
:10CBA0000029DCD12969C5E90310F8BD602C0020FB
:10CBB000402080F31188FEE7074CE068016841B12E
:10CBC000C0680021D0F80000FFF750FFFFF7FCFE1F
:10CBD000F3E701210020F7E7602C00202DE9F04168
:10CBE000044600F0C7FE94F9455004F1240609E01C
:10CBF000606A48B1304601F021FB08B100F0C0FF87
:10CC00006D1E6DB2002DF3DC4FF0FF3684F84560E9
:10CC100000F0BAFE00F0AEFE94F9445004F11007A3
:10CC200009E0206948B1384601F008FB08B100F07E
:10CC3000A7FF6D1E6DB2002DF3DC84F84460BDE8E3
:10CC4000F04100F0A1BE00002DE9F04105460027AB
:10CC500000F0F0FF244E306808B9FFF7BDFDF06822
:10CC600005420CD15DB10835680704D005F0070016
:10CC7000C0F10800054415B17068854202D901F081
:10CC800013FB2CE01848103001460C6801E02046E8
:10CC90000C466168A94202D221680029F7D13168A7
:10CCA0008C42ECD007682168016060680837411B3E
:10CCB000102904D9601941606560FFF735FE61688D
:10CCC0007068401A7060B268904200D2B060F0683C
:10CCD00001430020C4E9000101F0E6FA0FB900F0B9
:10CCE00015FE3846BDE8F081782C002010B50446CA
:10CCF00000F040FE246A00F047FE204610BD000010
:10CD000010B5084C031F24681C601B1F1960191FF5
:10CD1000054B0B6014390A60091F6FF0020244389A
:10CD20000A6010BD50E70200B1CB020070B50546A5
:10CD300088690C4600284FF4847128460AD0FEF713
:10CD4000AEFDD5F81805626AE1688854606A401C37
:10CD5000606270BDFEF7A3FDD5F8180570BD1FB564
:10CD600001238DF80030CDE90121D0E90012684699
:10CD700090471FBD1FB501238DF80030CDE901217B
:10CD8000D0E90012684690471FBD10B50446006800
:10CD90004FF49271FEF783FD4FF484712068FEF723
:10CDA0007EFD20680121016010BD000038B5002122
:10CDB000012548B1012810D003280DD1FEF78EFDC2
:10CDC000BDE83840FDF74ABC4FF0E020C0F8805184
:10CDD000BFF34F8FBFF36F8F38BD8DF800106846DB
:10CDE000FBF718F9064C207808B9FDF717FCE06846
:10CDF000401CE060A5709DF80000FBF72FF938BDDE
:10CE00000C3500203EB5044609496846FEF7F0FCA3
:10CE100008E000BFD0E900212046904730B16846C5
:10CE2000FEF7FDFC02980028F4D13EBD11203EBD66
:10CE300088E602003EB5044608496846FEF7D8FC7D
:10CE400007E000BFD0E90021204690476846FEF782
:10CE5000E6FC02980028F5D13EBD000094E60200F1
:10CE600002498969002900D00847704774340020BE
:10CE70002DE9F0411400884618D000250E4F0326F6
:10CE800008EB050122460020FAF714FC0544241A99
:10CE900040B93878002809D008494FF47A408847CB
:10CEA000761E05D001203870002CE9D1BDE8F08154
:10CEB00000203870FAE70000A82B002061E602008D
:10CEC0002DE9F0410746806A14468846C8B300251C
:10CED00031E000BFB96A05EB450001EB8006B08880
:10CEE000801CFE2802D90C20BDE8F0812288401C5D
:10CEF00008F8020020881622401C80B2208008F822
:10CF000000202088401C80B2208000EB080130887F
:10CF100000F0CBFB2188084480B22080B28842B167
:10CF2000B16871B14044FAF78FFA2088B18808449B
:10CF300020806D1CEDB297F82C00A842CAD80020C2
:10CF4000D2E7FFE70720CFE70A78062822F0FF02A2
:10CF50000A7010D2DFE800F0030507090B0D00206E
:10CF600008E0112006E0212004E0312002E0122038
:10CF700000E022200870704770B5194D194C07E089
:10CF8000016820788847002829D01548FEF747FC1B
:10CF9000A8680028F4D1FEF707F900BFFDF752FF9B
:10CFA0000028FBD1207803280CD002280AD0FEF7F5
:10CFB000FBFB00B133DF0C4901200860BFF34F8F4A
:10CFC00020BFFDE7BFF34F8F08480168084A01F40E
:10CFD000E06111430160BFF34F8F00BFFDE770BDFB
:10CFE0004C360020A02B0020000500400CED00E096
:10CFF0000400FA0510B50020FCF714FA08B1FAF79E
:10D0000037FEFCF781F908B1FAF732FE33DF00286A
:10D0100003D0BDE81040FAF72BBE10BD002805D1A3
:10D020000349012048700020FCF732BC7047000023
:10D030000C35002010B51620FAF758FDA0B11148A4
:10D0400090F800044009082811D20121814011F014
:10D05000EC0F0CD00C4882684FF480016AB1016873
:10D0600041F48001016010BD42F2010001E042F292
:10D070000200BDE81040FAF7FBBD4FF0E020C0F819
:10D08000001110BD16E000E04036002000B585B06C
:10D090000A4601788DF8001041680191017A8DF8F7
:10D0A0000810C1680391007C8DF81000044850F806
:10D0B0002210103850F822206846904705B000BD75
:10D0C000EC3500202DE9F84F074621489146884667
:10D0D00005681E46012269461846FCF78FFADFF8FC
:10D0E00074A060B3009800210446801C0AE000BFD1
:10D0F00000EA050259F821C00AEB8202401C491CD3
:10D10000C2F80CC0B142F3D34FEA1749FCF7E6FC72
:10D11000611C29400AEB810149EA00422C40CA60A7
:10D120000AEB8401C86867F3C50066F3891068F3E9
:10D130009F2020F00300401C20F00400C8609AF8F3
:10D14000000001E0FDF77EFE0028FBD1BDE8F88F6E
:10D15000B42B0020F03700201CB5002000900246C0
:10D16000019006210A2000F0E7FD174D28600120FC
:10D170008DF80000DDE9000100F030F81348144A92
:10D180000321801AC00801EB00440A22694628687E
:10D1900000F0DAFE0128F8D19DF8000001280AD03D
:10D1A00002280BD00328F0D19DF80110DDF8020011
:10D1B000FBF716FBE9E7FAF70BFDE6E7204605A1CA
:10D1C000FDF75AFFE1E700000C2C0020ECF0020014
:10D1D0008CF0020031485A0D0A00000013B50548D2
:10D1E0000068002804D000231A46694600F0FCFDC0
:10D1F0001CBD00000C2C002013B505480068002859
:10D2000004D000231A46694600F06CFE1CBD0000E5
:10D210000C2C00201CB509490120CDE900010203B6
:10D22000002307A1084800F031FF012802D00420A4
:10D23000FAF71EFDBDE81C4000F0CCBC102C00200D
:10D240007379735F6D6E670059D102000349022044
:10D2500008700C39D1E90301FFF7C0BF182C00207A
:10D2600038B50E4800900023012264210CA001F083
:10D2700075F80E4CA06058B100F042FF0246002045
:10D28000034600900121A06801F0A2F8012804D013
:10D29000BDE838400420FAF7EBBC38BD4DD202009F
:10D2A00054494D45525F31485A0000000C2C002073
:10D2B00070B50C4605464FF48E71FEF7F0FA216A00
:10D2C000A068415C206A401C2062C5F81C1570BD36
:10D2D0001FB500228DF80020029181680191426102
:10D2E000D0E90012684690471FBD1FB500228DF897
:10D2F00000200291816801914261D0E900126846E4
:10D3000090471FBD7CB50078002825D1144C134DE3
:10D3100020782844FAF7E8FD2078401CC0B229188C
:10D32000207011F8011C0A2904D00D2902D0A1880F
:10D33000884211D301280DD90A4903220A70C1F885
:10D3400002504870086800908988ADF8041001996F
:10D35000FFF752FF002020707CBD0000942C0020BD
:10D36000002B0020182C00207CB50178254DA1B39E
:10D3700001290BD002291DD18DF80010C068691C4D
:10D3800001900122C81DFDF719FA30E0017A59B168
:10D39000406801781C48FAF791FC1B4C012650B1FB
:10D3A0008DF8006001900DE016490122491CC81D4E
:10D3B000FDF704FA7CBDA068E168814205D0002039
:10D3C0008DF80000696868468847A068E168081A17
:10D3D000A1888842E8D9AE707CBDFFE70A480949B8
:10D3E0001030FAF750FC30B103208DF80000696866
:10D3F00068468847F0E70349012201F10800FDF77C
:10D40000EDF9E9E7842B0020203600201FB50A46FD
:10D4100001788DF8001041680191017A8DF80810AB
:10D42000C0680390044850F82210083850F82220B1
:10D43000684690471FBD00006C2B00202DE9FF4778
:10D440000C4605464FF40071FEF72FFA01274FF402
:10D450000178002618B34FF4927949462846FEF722
:10D4600019FAE0B149462846FEF719FAC5F80883CB
:10D4700094F8290000B96F6002208DF80000D5F8FB
:10D480008004C5F880040390A0690290E0680190D0
:10D49000A661E661D4E900126846904728E00421BD
:10D4A0002846FEF702FA18B34FF484712846FEF7B7
:10D4B000F1F9E8B121462846FFF738FC616AA06916
:10D4C000884215D1E06938B1E268616AA0612069DB
:10D4D000E6616662E06008E094F8290000B96F60D8
:10D4E000C5F80883A661E268616A2046FFF737FC49
:10D4F0004FF48E7841462846FEF7CCF980B160693A
:10D50000216A814202D294F8280028B34146284675
:10D51000FEF7C5F9606918B161692046FFF7D8FECA
:10D520004FF4A27841462846FEF7B4F9002818D0F7
:10D5300041462846FEF7B3F994F8290000B12F6060
:10D54000A06900280DD0A661E268616A04B0204697
:10D55000BDE8F047FFF703BC21462846FFF7A8FEC9
:10D56000DEE7BDE8FF8700001FB50A4601788DF8A9
:10D57000001041680191017A8DF80810C06803908D
:10D58000044850F82210083850F822206846904786
:10D590001FBD00006C2B00202DE9FF410C464FF40D
:10D5A000927705463946FEF786F90026B8B1394626
:10D5B0002846FEF785F902208DF80000D5F8800492
:10D5C000C5F880040390D5F83C050290E06801900E
:10D5D000A661E661D4E900126846904723E04FF463
:10D5E000887739462846FEF766F9E0B1394628467D
:10D5F000FEF766F9D5F83C15A069884213D1E069B9
:10D6000060B1E268D5F8000220F02000C5F8000201
:10D61000E069A0612069E661E06001E0A661E2687E
:10D620002046FFF7A7FB4FF4A27739462846FEF7BE
:10D6300042F968B139462846FEF742F9A06938B187
:10D64000A661E661D5F83C152046E268FFF792FB3B
:10D650004FF4907631462846FEF72DF960B13146F9
:10D660002846FEF72DF90120E860606920B1D5F861
:10D670004C152046FFF739FE4FF4AC76314628466C
:10D68000FEF719F900280ED031462846FEF718F9A2
:10D690006069002807D0D5F84C1504B02046BDE8D5
:10D6A000F041FFF722BEBDE8FF810870000A487014
:10D6B00002207047EFF31180402181F311887047F9
:10D6C0002DE9F05F8346DDE90A4A994690460D460A
:10D6D0000846012703E000BFB0FBF8F07F1C40457F
:10D6E000FAD2B94500D94F465FEACA7012D18CB15F
:10D6F0005FEA8A7002D5B9F1000F01D0202607E059
:10D70000302605E031465846641EFBF7C1FF0CB1D8
:10D71000A742F7D35FF00106B9F1010F02D9A9F1D1
:10D72000010903E0B5FBF6F0404502D306FB08F61D
:10D73000F2E7DFF83C9000BFB5FBF6F000FB1655B2
:10D7400019F800105846FBF7A3FFB6FBF8F6002EB9
:10D75000F2D15FEACA7009D0002C07D0A74205D2E7
:10D7600020215846641EFBF793FFF5E7BDE8F09FC4
:10D77000D8E40200F8B5054680B2FCF75DFA040073
:10D7800013D0154E207A0027317B88420ED2A8B2E2
:10D7900004F10A0175DF28B1112806D0BDE8F84070
:10D7A000FFF75EBB207A401C2072F8BD2772307CE8
:10D7B00038B1A8B23B2176DF18B1082801D0FFF7B5
:10D7C0004FFB71690029F0D08DF80070ADF8025060
:10D7D00068468847F8BD000074340020417939B1AB
:10D7E00090F82E1421B990F8300408B10120704748
:10D7F0000020704730B40446007A00280AD06088C0
:10D80000002166DF28B1112802D0616830BC0847CA
:10D810000120207230BC70472DE9FC411646DDE93D
:10D820000854CDE900541F468046022200F00CF84F
:10D83000002807D1CDE900543B461022314640462E
:10D8400000F002F8BDE8FC812DE9FC5F0026DDE96F
:10D850000C4B994692468E4680462788354630E0E6
:10D86000D8F80400002200EB8500694600680190AA
:10D8700001A864DF002830D19DF8000050451FD179
:10D880000EB1002100E002212288084411185945F8
:10D8900022D846B9521C90B2208009F800E02088B6
:10D8A000401C20800126218801A801EB090269465D
:10D8B00064DF002811D120889DF8001008442080E2
:10D8C0006D1CB8F80000A842CADC56B12088C01B05
:10D8D000401E80B2FF2802D90C20BDE8FC9F09F849
:10D8E00007000020F9E7D0E9013201699A60D0E928
:10D8F00001235A604A68824201D182684A6000224C
:10D9000002610868401E08600868704770477047E9
:10D9100000F108014FF0FF32C0E90112C16001615E
:10D9200000210160704700210161704730B50B682C
:10D930005A1C02D000F1080202E0026904E022460B
:10D94000546825689D42FAD953684B6099608A6093
:10D95000516008610168491C016030BD42684A603D
:10D9600093688B6093685960916008610168491CF5
:10D9700001607047402080F3118802480168491C0B
:10D9800001607047742C002003490868401E08603D
:10D9900001D180F311887047742C002070B50028E5
:10D9A00018D00D4DA0F108046068E968084211D054
:10D9B0002268002A0ED18843606000F03BF960685D
:10D9C0006968084468602046FEF7AEFFBDE8704015
:10D9D00000F06ABC70BD0000782C002010B500205B
:10D9E000FCF756FE0B4840F24711C0F8081501211C
:10D9F000C0F80413816001600221C0F84413064995
:10DA0000E02081F800044FF0E0214FF40030C1F82D
:10DA1000000110BD0010014011E000E02DE9F05FB1
:10DA200004463E48844200D904460021EFF31080AA
:10DA300072B63B4EB36801224FF0E0256BB9B2607D
:10DA4000D5F88031374A13403360C5F88021D5F8C6
:10DA5000842172606A17C5F8842100B962B68A46CB
:10DA6000DFF8C480D8F80475FCF744F8F0B338192F
:10DA7000012120F07F40C8F80813C8F840054FF492
:10DA8000A07B59464046FDF7D1FC4FF48039C8F8D9
:10DA90000493BFF34F8F74B1FDF786FE20B141DFD1
:10DAA00048B1FAF7E5F806E020BFD5F80002D5F84E
:10DAB00004120843F8D0C8F8089359464046FDF7C9
:10DAC000B5FC4FF480714046FDF7B0FC0120C8F86A
:10DAD0000403D8F804054FF40031C01B20F07F4048
:10DAE000C5F88012A04200D9204600E002E008B14B
:10DAF00000F098F8B06800280DD0EFF3108072B6EF
:10DB00003168C5F800117168C5F80411C6F808A09D
:10DB1000002800D162B6BDE8F09F0000FDFFFF00C5
:10DB200040360020FC06FFBD0010014070B51546D0
:10DB30000E460446FFF71EFF94F944100020491CCE
:10DB400001D184F8440094F94510491C01D184F8AE
:10DB50004500FFF719FFA06B28B92A46314604F1AA
:10DB6000240000F023F82046BDE87040FFF736B8E7
:10DB700002490A6A0260C96841607047242C00208B
:10DB800001490120C8617047242C002010B50C46C3
:10DB9000054909681831FFF7C9FE2046BDE8104065
:10DBA0000121FEF7EBBC0000242C002070B50D46CF
:10DBB0000749144609681831FFF7D0FE0CB14FF041
:10DBC000FF3521462846BDE87040FEF7D7BC00006F
:10DBD000242C00201CB50F480024CDE9004023462A
:10DBE0003C220DA10E4800F051FA012811D100F09D
:10DBF000D1FB01280DD1402080F311880548611E1A
:10DC00002C38816201214161C460BDE81C4000F0F4
:10DC10006DB81CBD502C002049444C45000000004C
:10DC200025C802000249CA681044C8607047000055
:10DC3000242C00200248016B491C0163704700003E
:10DC4000242C002010B5144C206B10B10120E06191
:10DC500010BD0020E061206821680068096B8842DF
:10DC600004D8216820683431FFF751FE20690B4940
:10DC7000B0FA80F0C0F11F0000EB800001EB8000E3
:10DC800000F10802416849684160914201D1496848
:10DC90004160C868206010BD242C0020DC3E0020BC
:10DCA00010B504281DD209B1032400E00024FBF7BD
:10DCB000C7FA202802D24FF0A04102E00A4900F042
:10DCC0001F0001EB8000D0F8001721F44031C0F8AC
:10DCD0000017D0F8001741EA0441C0F800170020EF
:10DCE00010BD062010BD0000000300500E49E020CA
:10DCF00081F8140DFFF772FE0C49002008600C48F3
:10DD0000016841F4700101600A48016841F0404136
:10DD1000016007487838016841F010010160F9F7A7
:10DD2000FDFAFEF745FF00000EE000E0742C002035
:10DD300088ED00E034EF00E070B50E00054612D02B
:10DD400005FB06F04830FEF77FFF040009D004F120
:10DD5000480120464EB10160C0E90F56012100F094
:10DD600007F8204670BD0020ECE70060F4E70000F3
:10DD700070B50D460446FFF7FDFDD4E90F1220688B
:10DD800001FB020060600020A0632068A0600146E3
:10DD9000E06B401E00FB0210E0604FF0FF3084F8A3
:10DDA000440084F8450004F110004DB1FFF7B0FDC8
:10DDB00004F12400FFF7ACFDFFF7E6FD012070BD84
:10DDC00021690029F8D000F039FA0028F4D005497B
:10DDD0004FF08050086040BFBFF34F8FBFF36F8F8D
:10DDE000EAE7000004ED00E02DE9FF4700273C4E84
:10DDF00082B099468A460446B8464FF0805500BF27
:10DE0000FFF7B8FDA06BE16B884206D3B9F1020FB2
:10DE100003D00498C8B1DFB11EE04A4651462046FF
:10DE2000FEF77FFC616A19B104F1240000F006FAE4
:10DE300028B1356040BFBFF34F8FBFF36F8FFFF73F
:10DE4000A3FD012006B0BDE8F087FFF79DFD21E0AE
:10DE50006846FFF78DFE0127FFF796FDFFF7EAFE04
:10DE6000FFF788FD94F94400401C01D184F84480F8
:10DE700094F94500401C01D184F84580FFF784FDEA
:10DE800004A9684600F0DAF830B12046FEF7A6FE95
:10DE900000F00AFA0020D5E7FFF76CFDA06BE16BFC
:10DEA000884214D1FFF770FD04F110000499FFF7C8
:10DEB0006DFE2046FEF792FE00F0F6F900289FD195
:10DEC000356040BFBFF34F8FBFF36F8F98E7FFF709
:10DED0005BFD2046FEF782FE00F0E6F990E70000C9
:10DEE00004ED00E02DE9F0479846174689460446C0
:10DEF000FFF7E0FBA16B0646E06B814208D3B8F167
:10DF0000020F05D00020F1B281F31188BDE8F0873F
:10DF100094F94550424649462046FEF702FC681CEB
:10DF200004D06D1C84F845500120ECE7606A00289D
:10DF3000FAD004F1240000F081F90028F4D0002F79
:10DF4000F2D001203860EFE72DE9F7470026DFF82F
:10DF5000E88083B08A460446B1464FF0805700BF40
:10DF6000FFF708FDA56BCDB151462046FEF7C6FB75
:10DF70006D1EA563206958B104F1100000F05EF930
:10DF800030B1C8F8007040BFBFF34F8FBFF36F8F41
:10DF9000FFF7FAFC012006B0BDE8F087059808B14C
:10DFA0001EB106E0FFF7F0FC27E06846FFF7E0FD52
:10DFB0000126FFF7E9FCFFF73DFEFFF7DBFC94F9D4
:10DFC0004400401C01D184F8449094F94500401C61
:10DFD00001D184F84590FFF7D7FC05A9684600F009
:10DFE0002DF8002820460AD0FEF7F8FD00F05CF975
:10DFF0002046FEF7DBFC0028B2D00020CBE7FEF77E
:10E00000D5FC98B104F124000599FFF7BFFD204627
:10E01000FEF7E4FD00F048F90028A1D1C8F800702F
:10E0200040BFBFF34F8FBFF36F8F99E72046FEF7D6
:10E03000D5FD00F039F993E704ED00E02DE9F0415A
:10E040000C460546FFF796FC0F4BDA686E682168B0
:10E05000901B4F1C07D02F681B6A9F4209D0964225
:10E0600007D8012400E00024FFF78EFC2046BDE81D
:10E07000F081814205D9081A20602846FFF778FD13
:10E08000F1E700202060ECE7242C00202DE9FF5F61
:10E090008346DDE90E87994616468A469000FEF7CC
:10E0A000D3FD05001AD05020FEF7CEFD040012D09B
:10E0B00025630021CDE90241CDE900874B46324678
:10E0C00051465846FEF7EAFB2046FEF78FFA01203C
:10E0D00004B0BDE8F09F2846FFF760FC4FF0FF302A
:10E0E000F6E700000548416919B1006B18B100203E
:10E0F000704701207047022070470000242C002048
:10E100000148C06870470000242C00200148C06806
:10E1100070470000242C00202DE9F041294C0027F5
:10E12000206B40B1A069401CA061E06900B10127EB
:10E130003846BDE8F081E668761CE66008D1606B81
:10E14000A16B6163A063206A401C2062FEF7E0FCC3
:10E15000A06ADFF87480864209D3606B006880B1E2
:10E16000606BC068C568686886420DD2A06220688E
:10E17000C06A00EB800158F821000128D5D9012799
:10E18000D3E74FF0FF30F1E7281DFFF7ACFBA86A9B
:10E1900018B105F11800FFF7A6FBE86A0121226912
:10E1A00081401143216100EB800108EB8100291DB2
:10E1B000FFF7D4FBE86A2168C96A8842CDD30127FA
:10E1C000CBE70000242C0020DC3E002070B50400CA
:10E1D0004FF000012BD0606C401E6064236CE26A3B
:10E1E0009A4224D018BB201DFFF77DFB114B124A29
:10E1F000012150B9E06A00EB800553F8255025B99C
:10E20000156901FA00F085431561206CE062C0F1E8
:10E210000300A061E06A156981402943116100EBA8
:10E22000800003EB8000211DFFF798FB01210846C9
:10E2300070BD0000DC3E0020242C00202DE9F041C0
:10E24000C068C46804F118000746FFF74CFB144D82
:10E25000286B012660B11348394600BFFFF77EFBEB
:10E26000E06A2968C96A884213D90124EE6111E085
:10E27000201DFFF738FBE16A2A6906FA01F0104316
:10E28000286101EB81000749643901EB8000211D01
:10E29000E4E70024FEF73CFC2046BDE8F0810000E6
:10E2A000242C0020403F00202DE9F0470024264682
:10E2B000FFF760FB264D286B401E2863286BE8BBE8
:10E2C000A968244F0120C9B3A7F1640980463868C2
:10E2D000E8B1F868C46804F11800FFF704FB201DDA
:10E2E000FFF701FBE06A2A6908FA00F1114329618E
:10E2F00000EB800109EB8100211DFFF72FFBE06A95
:10E300002968C96A8842E2D3C5F81C80DFE70CB1EE
:10E31000FEF7FEFBAC694CB14FEA0807FFF7FCFEC5
:10E3200000B1EF61641EF9D10020A861E86928B14D
:10E33000094901263007086040BF00E003E0BFF351
:10E340004F8FBFF36F8FFFF71FFB3046BDE8F0879D
:10E35000242C0020403F002004ED00E02DE9F04790
:10E3600006461F46154688462820DDF82090FEF711
:10E370006BFC04000BD0FEF7A1F904F11C01C4F8FA
:10E380001880266081E8A002201DFFF7CCFA204605
:10E39000BDE8F0871CB50024FEF790F90848006836
:10E3A00058B107490220091DCDE9000102020023EE
:10E3B00004A10648FFF76AFE044620461CBD000083
:10E3C000602C0020546D722053766300B9CB02009C
:10E3D0002DE9FF41114C1F460346266800200A9D87
:10E3E000002E0ED08DE80E0006290FDAFFF77AFE18
:10E3F00002284FF0000307D0002269462068FFF78B
:10E40000F3FC04B0BDE8F0812A46F6E700233A4663
:10E4100069463046FFF766FDF3E70000602C0020F8
:10E420001F0000001D0000000500000007000000A4
:10E430000000000000E0D7010D0E0F100B0C1819A2
:10E44000E033002000340020203400200B000300C3
:10E45000299302000C000300299302001800030016
:10E46000299302001900030029930200770A000093
:10E4700000000000770A0000000000007ADA0000C7
:10E48000000000009ECADC240EE5A9E093F3A3B5CA
:10E490000000406E000000500003005031BB02003D
:10E4A000C9BD0200FFFFFFFF0006FF0000000040A3
:10E4B0000000000011770200FFFFFFFFFFFFFFFFDA
:10E4C000FFFFFFFFFFFFFFFF000000000000000054
:10E4D0000000D601060100003031323334353637C2
:10E4E000383941424344454620F1020024F10200FC
:10E4F000000000000000000000000000000000001C
:10E50000E8E4020000E5020004000000556E6B6EB6
:10E510006F776E206572726F7220636F64650000A2
:10E52000000000003CEC020001000000E8EA0200EC
:10E5300002000000DCE80200030000005CEB0200C7
:10E5400004000000B0EB02000500000090EA0200A9
:10E55000060000002CEA02000700000098EB020011
:10E5600008000000A4EA02000900000008EB020015
:10E570000A00000024EC02000B000000C4E80200C6
:10E580000C000000BCEA02000D0000008CEC020050
:10E590000E00000088EB02000F000000C4EB020038
:10E5A00010000000F8EB020011000000A0EC0200D7
:10E5B0001200000074EC02001300000010EC0200D6
:10E5C0008000000044EA02008100000080E90200AF
:10E5D0008200000040E902008300000020E9020000
:10E5E000840000005CE902008500000068EA020087
:10E5F0008600000070EB0200900000000CEA0200B0
:10E600009100000000E9020092000000D0EA020040
:10E6100000820000D8EB02000182000024EB02001F
:10E620000282000040EB0200008400009CE902002E
:10E630000184000048EC020002840000E4E90200CA
:10E6400003840000C0E902001DAD02001BAD020002
:10E6500015AD0200000000000000000000000000F6
:10E660000338FDD870470000583700207F000000B5
:10E67000D83700200000000000000000000000006B
:10E68000000000000100000774E6020084E60200BA
:10E6900008000000ACE60200BCE602000800000032
:10E6A000BCE60200CCE60200080000008CF102008B
:10E6B0009CF1020000000000000000007CF102005C
:10E6C0008CF10200000000000000000024F10200B4
:10E6D0002CF102002CF102004CF102004CF102007E
:10E6E00064F1020064F102006CF10200F82A0020DB
:10E6F000CCE60200ECE60200080000006CF102002B
:10E7000074F1020074F102007CF10200FCE60200E8
:10E710000CE702000800000000000000003000408C
:10E720000000000001000000FFFFFFFF06FF0000E7
:10E730000000004000000000020000000000000097
:10E7400050EADA308883B89F604F15F30000C98E15
:10E7500000000001004040404040404040404141F6
:10E7600041414140404040404040404040404040A6
:10E770004040404040050202020202020202020240
:10E78000020202020220202020202020202020023D
:10E7900002020202020290909090909010101010CD
:10E7A0001010101010101010101010101010101069
:10E7B00002020202020288888888888808080808FD
:10E7C00008080808080808080808080808080808C9
:10E7D000020202024000000055E702004661696C37
:10E7E000656420746F20646973636F6E6E65637413
:10E7F00020636F6E6E656374696F6E2E20436F6E5B
:10E800006E656374696F6E2068616E646C653A2032
:10E810002564204572726F723A2025640000000062
:10E8200073645F626C655F6761705F646174615F90
:10E830006C656E6774685F75706461746528292003
:10E84000287265717565737429206F6E20636F6E11
:10E850006E656374696F6E203078257820726574F8
:10E8600075726E65642025732E0000005468652063
:10E8700072657175657374656420636F6D62696E2E
:10E880006174696F6E206F6620545820616E642039
:10E890005258207061636B6574206C656E67746894
:10E8A0007320697320746F6F206C6F6E67206279BC
:10E8B000202575206D6963726F7365636F6E647375
:10E8C0002E0000004E52465F4552524F525F494E55
:10E8D00056414C49445F4441544100004E52465F0A
:10E8E0004552524F525F534F465444455649434553
:10E8F0005F4E4F545F454E41424C4544000000007E
:10E900004E52465F4552524F525F46454154555212
:10E91000455F4E4F545F454E41424C454400000018
:10E920004E52465F4552524F525F4D555445585FC7
:10E93000554E4C4F434B5F4641494C454400000007
:10E940004E52465F4552524F525F4D555445585FA7
:10E950004C4F434B5F4641494C4544004E52465F45
:10E960004552524F525F4D555445585F434F4E44A8
:10E970005F494E49545F4641494C45440000000000
:10E980004E52465F4552524F525F4D555445585F67
:10E99000494E49545F4641494C4544004E52465FFA
:10E9A0004552524F525F424C455F495053505F525F
:10E9B000585F504B545F5452554E434154454400A8
:10E9C0004E52465F4552524F525F424C455F49504E
:10E9D00053505F504545525F52454A454354454464
:10E9E000000000004E52465F4552524F525F424C6B
:10E9F000455F495053505F4C494E4B5F4449534328
:10EA00004F4E4E4543544544000000004E52465F71
:10EA10004552524F525F4150495F4E4F545F494DEE
:10EA2000504C454D454E5445440000004E52465F03
:10EA30004552524F525F4E4F545F535550504F52B4
:10EA4000544544004E52465F4552524F525F4D4F1F
:10EA500044554C455F4E4F545F494E495449414CD3
:10EA6000495A4544000000004E52465F4552524FFD
:10EA7000525F4D4F44554C455F414C5245414459BE
:10EA80005F494E495449414C495A454400000000F1
:10EA90004E52465F4552524F525F4E4F545F464F63
:10EAA000554E44004E52465F4552524F525F494EBA
:10EAB00056414C49445F5354415445004E52465FC1
:10EAC0004552524F525F444154415F53495A4500A9
:10EAD0004E52465F4552524F525F494F5F50454E2E
:10EAE00044494E47000000004E52465F4552524F87
:10EAF000525F5356435F48414E444C45525F4D4927
:10EB00005353494E470000004E52465F4552524F04
:10EB1000525F494E56414C49445F4C454E4754481C
:10EB2000000000004E52465F4552524F525F445221
:10EB3000565F5457495F4552525F414E41434B0027
:10EB40004E52465F4552524F525F4452565F5457A1
:10EB5000495F4552525F444E41434B004E52465F1F
:10EB60004552524F525F494E5445524E414C00005F
:10EB70004E52465F4552524F525F53544F52414797
:10EB8000455F46554C4C00004E52465F4552524F31
:10EB9000525F4E554C4C00004E52465F4552524F0C
:10EBA000525F494E56414C49445F504152414D00DD
:10EBB0004E52465F4552524F525F4E4F5F4D454D4C
:10EBC000000000004E52465F4552524F525F464F82
:10EBD0005242494444454E004E52465F4552524FC0
:10EBE000525F4452565F5457495F4552525F4F56E9
:10EBF000455252554E0000004E52465F4552524F0C
:10EC0000525F494E56414C49445F414444520000D2
:10EC10004E52465F4552524F525F5245534F5552E6
:10EC2000434553004E52465F4552524F525F494E44
:10EC300056414C49445F464C414753004E52465F53
:10EC400053554343455353004E52465F4552524F2E
:10EC5000525F424C455F495053505F4348414E4ECE
:10EC6000454C5F414C52454144595F4558495354C6
:10EC7000530000004E52465F4552524F525F434F81
:10EC80004E4E5F434F554E54000000004E52465FBB
:10EC90004552524F525F54494D454F555400000064
:10ECA0004E52465F4552524F525F425553590000F3
:10ECB0007761726E696E6700646562756700000057
:10ECC0001B5B313B33306D001B5B306D000000007F
:10ECD0001B5B313B33316D001B5B313B33326D00CD
:10ECE0001B5B313B33336D001B5B313B33346D00B9
:10ECF0001B5B313B33356D001B5B313B33366D00A5
:10ED00001B5B313B33376D00696E666F000000009E
:10ED10006572726F7200000073645F626C655F639E
:10ED200066675F73657428292072657475726E65F5
:10ED300064202573207768656E20617474656D703A
:10ED400074696E6720746F2073657420424C455F50
:10ED500047415454535F4346475F534552564943D6
:10ED6000455F4348414E4745442E000073645F624F
:10ED70006C655F6366675F736574282920726574CC
:10ED800075726E6564202573207768656E206174E6
:10ED900074656D7074696E6720746F20736574207C
:10EDA000424C455F434F4D4D4F4E5F4346475F5684
:10EDB000535F555549442E0073645F626C655F6311
:10EDC00066675F73657428292072657475726E6555
:10EDD00064202573207768656E20617474656D709A
:10EDE00074696E6720746F2073657420424C455FB0
:10EDF00047415454535F4346475F415454525F5414
:10EE000041425F53495A452E0000000073645F621F
:10EE10006C655F6366675F7365742829207265742B
:10EE200075726E6564202573207768656E20617445
:10EE300074656D7074696E6720746F2073657420DB
:10EE4000424C455F434F4E4E5F4346475F474150FC
:10EE50002E00000073645F626C655F6366675F73BA
:10EE6000657428292072657475726E656420257337
:10EE7000207768656E20617474656D7074696E6763
:10EE800020746F2073657420424C455F4741505F8A
:10EE90004346475F524F4C455F434F554E542E00FB
:10EEA00073645F626C655F6366675F73657428296E
:10EEB0002072657475726E656420257320776865AD
:10EEC0006E20617474656D7074696E6720746F2054
:10EED00073657420424C455F434F4E4E5F43464737
:10EEE0005F474154542E000054686520626F6F7470
:10EEF0006C6F6164657220686173207772697465F4
:10EF00002070726F74656374656420697473207314
:10EF1000657474696E677320706167652E2054682C
:10EF200069732070726F68696269747320736574A5
:10EF300074696E67207468652061647665727469AF
:10EF400073696E67206E616D652E2054686520625E
:10EF50006F6F746C6F61646572206D75737420627D
:10EF60006520636F6D70696C6564207769746820D3
:10EF70004E52465F424C5F53455454494E47535F8F
:10EF8000504147455F50524F544543543D302074E3
:10EF90006F20616C6C6F772073657474696E672085
:10EFA000746865206164766572746973696E672040
:10EFB0006E616D652E0000006E72665F626C655F4B
:10EFC0006761747400000000626C655F6E757300A9
:10EFD000636C6F636B000000434C4F434B000000B9
:10EFE0004750494F54450000505253005541525428
:10EFF0000000000055415254450000005350494D57
:10F00000000000006170705F627574746F6E0000C4
:10F010007077725F6D676D7400000000736F7274BB
:10F020006C697374000000007274745F6C6F675FCA
:10F030006261636B656E6400617070006E72665F22
:10F04000736468006E72665F7364685F626C65000B
:10F050006E72665F7364685F736F63009CF1020099
:10F06000F82A00209C010000F4740200F4F1020070
:10F07000942C002014C30100DE7A020048E602004E
:10F080000000000028F00200AC2B0020B8EF0200C6
:10F0900000000303C8EF020000000000D0EF0200F0
:10F0A00000000000D8EF020000000000E0EF0200C6
:10F0B00000000000E8EF020000000000ECEF02009A
:10F0C00000000000F4EF020000000000FCEF02006E
:10F0D0000000000004F002000000000010F0020038
:10F0E000000000001CF002000000000038F00200E8
:10F0F000000003033CF002000000030344F00200A0
:10F100000000030350F0020000000303C02B0020A6
:10F11000B82B0020C02B00209836002018000000DB
:10F12000D97C0200658F020000000000BDA3020030
:10F13000882F0020A3840200A82F0020F98D020050
:10F1400000000000698E020000000000B99102007A
:10F150000C2B002047A502009C2F00207D89020077
:10F16000983E0020298D0200000000001DD0020002
:10F1700000000000D98A020000000000B1B60200C1
:10F1800000000000B5B7020000000000D9960200A0
:10F1900000000000ADCD02000000000013282B137A
:10F1A0002001320414FFFF14120102170213F82A7F
:10F1B000021D20044D0E0F101220BA4008F15AFF14
:10F1C00004011C1410ED0214B0EC021A08081AB85D
:10F1D000081AC8041AC0041AD0041AD8041AE00481
:10F1E0001AE8041AF0041AF8041119280189040015
:04F1F00090D00300B8
:040000050002720182
:00000001FF
